{
  "contractName": "Cycles",
  "abi": [
    {
      "inputs": [
        {
          "internalType": "address",
          "name": "oracle",
          "type": "address"
        }
      ],
      "name": "activateStorageOracle",
      "outputs": [],
      "stateMutability": "nonpayable",
      "type": "function"
    },
    {
      "inputs": [
        {
          "internalType": "address",
          "name": "oracle",
          "type": "address"
        },
        {
          "internalType": "bool",
          "name": "status",
          "type": "bool"
        }
      ],
      "name": "changeStorageOracleStatus",
      "outputs": [],
      "stateMutability": "nonpayable",
      "type": "function"
    },
    {
      "inputs": [
        {
          "internalType": "address",
          "name": "oracle",
          "type": "address"
        }
      ],
      "name": "deactivateStorageOracle",
      "outputs": [],
      "stateMutability": "nonpayable",
      "type": "function"
    },
    {
      "inputs": [
        {
          "internalType": "address",
          "name": "newOracle",
          "type": "address"
        }
      ],
      "name": "reAssignStorageOracle",
      "outputs": [],
      "stateMutability": "nonpayable",
      "type": "function"
    },
    {
      "inputs": [
        {
          "internalType": "address payable",
          "name": "newOwner",
          "type": "address"
        }
      ],
      "name": "transferOwnership",
      "outputs": [],
      "stateMutability": "nonpayable",
      "type": "function"
    },
    {
      "inputs": [
        {
          "internalType": "uint256",
          "name": "index",
          "type": "uint256"
        }
      ],
      "name": "getCycleInfoByIndex",
      "outputs": [
        {
          "internalType": "uint256",
          "name": "id",
          "type": "uint256"
        },
        {
          "internalType": "uint256",
          "name": "groupId",
          "type": "uint256"
        },
        {
          "internalType": "uint256",
          "name": "numberOfDepositors",
          "type": "uint256"
        },
        {
          "internalType": "uint256",
          "name": "cycleStartTimeStamp",
          "type": "uint256"
        },
        {
          "internalType": "uint256",
          "name": "cycleDuration",
          "type": "uint256"
        },
        {
          "internalType": "uint256",
          "name": "maximumSlots",
          "type": "uint256"
        },
        {
          "internalType": "bool",
          "name": "hasMaximumSlots",
          "type": "bool"
        },
        {
          "internalType": "uint256",
          "name": "cycleStakeAmount",
          "type": "uint256"
        },
        {
          "internalType": "uint256",
          "name": "totalStakes",
          "type": "uint256"
        },
        {
          "internalType": "uint256",
          "name": "stakesClaimed",
          "type": "uint256"
        },
        {
          "internalType": "enum IGroupSchema.CycleStatus",
          "name": "cycleStatus",
          "type": "uint8"
        },
        {
          "internalType": "uint256",
          "name": "stakesClaimedBeforeMaturity",
          "type": "uint256"
        }
      ],
      "stateMutability": "view",
      "type": "function",
      "constant": true
    },
    {
      "inputs": [
        {
          "internalType": "uint256",
          "name": "cycleId",
          "type": "uint256"
        }
      ],
      "name": "getCycleInfoById",
      "outputs": [
        {
          "internalType": "uint256",
          "name": "id",
          "type": "uint256"
        },
        {
          "internalType": "uint256",
          "name": "groupId",
          "type": "uint256"
        },
        {
          "internalType": "uint256",
          "name": "numberOfDepositors",
          "type": "uint256"
        },
        {
          "internalType": "uint256",
          "name": "cycleStartTimeStamp",
          "type": "uint256"
        },
        {
          "internalType": "uint256",
          "name": "cycleDuration",
          "type": "uint256"
        },
        {
          "internalType": "uint256",
          "name": "maximumSlots",
          "type": "uint256"
        },
        {
          "internalType": "bool",
          "name": "hasMaximumSlots",
          "type": "bool"
        },
        {
          "internalType": "uint256",
          "name": "cycleStakeAmount",
          "type": "uint256"
        },
        {
          "internalType": "uint256",
          "name": "totalStakes",
          "type": "uint256"
        },
        {
          "internalType": "uint256",
          "name": "stakesClaimed",
          "type": "uint256"
        },
        {
          "internalType": "enum IGroupSchema.CycleStatus",
          "name": "cycleStatus",
          "type": "uint8"
        },
        {
          "internalType": "uint256",
          "name": "stakesClaimedBeforeMaturity",
          "type": "uint256"
        }
      ],
      "stateMutability": "view",
      "type": "function",
      "constant": true
    },
    {
      "inputs": [
        {
          "internalType": "uint256",
          "name": "index",
          "type": "uint256"
        }
      ],
      "name": "getCycleFinancialsByIndex",
      "outputs": [
        {
          "internalType": "uint256",
          "name": "cycleId",
          "type": "uint256"
        },
        {
          "internalType": "uint256",
          "name": "underlyingTotalDeposits",
          "type": "uint256"
        },
        {
          "internalType": "uint256",
          "name": "underlyingTotalWithdrawn",
          "type": "uint256"
        },
        {
          "internalType": "uint256",
          "name": "underlyingBalance",
          "type": "uint256"
        },
        {
          "internalType": "uint256",
          "name": "derivativeBalance",
          "type": "uint256"
        },
        {
          "internalType": "uint256",
          "name": "underylingBalanceClaimedBeforeMaturity",
          "type": "uint256"
        },
        {
          "internalType": "uint256",
          "name": "derivativeBalanceClaimedBeforeMaturity",
          "type": "uint256"
        }
      ],
      "stateMutability": "view",
      "type": "function",
      "constant": true
    },
    {
      "inputs": [
        {
          "internalType": "uint256",
          "name": "cycleId",
          "type": "uint256"
        }
      ],
      "name": "getCycleFinancialsByCycleId",
      "outputs": [
        {
          "internalType": "uint256",
          "name": "underlyingTotalDeposits",
          "type": "uint256"
        },
        {
          "internalType": "uint256",
          "name": "underlyingTotalWithdrawn",
          "type": "uint256"
        },
        {
          "internalType": "uint256",
          "name": "underlyingBalance",
          "type": "uint256"
        },
        {
          "internalType": "uint256",
          "name": "derivativeBalance",
          "type": "uint256"
        },
        {
          "internalType": "uint256",
          "name": "underylingBalanceClaimedBeforeMaturity",
          "type": "uint256"
        },
        {
          "internalType": "uint256",
          "name": "derivativeBalanceClaimedBeforeMaturity",
          "type": "uint256"
        }
      ],
      "stateMutability": "view",
      "type": "function",
      "constant": true
    },
    {
      "inputs": [
        {
          "internalType": "uint256",
          "name": "index",
          "type": "uint256"
        }
      ],
      "name": "getCycleMember",
      "outputs": [
        {
          "internalType": "uint256",
          "name": "cycleId",
          "type": "uint256"
        },
        {
          "internalType": "uint256",
          "name": "groupId",
          "type": "uint256"
        },
        {
          "internalType": "address payable",
          "name": "_address",
          "type": "address"
        },
        {
          "internalType": "uint256",
          "name": "totalLiquidityAsPenalty",
          "type": "uint256"
        },
        {
          "internalType": "uint256",
          "name": "numberOfCycleStakes",
          "type": "uint256"
        },
        {
          "internalType": "uint256",
          "name": "stakesClaimed",
          "type": "uint256"
        },
        {
          "internalType": "bool",
          "name": "hasWithdrawn",
          "type": "bool"
        }
      ],
      "stateMutability": "view",
      "type": "function",
      "constant": true
    },
    {
      "inputs": [],
      "name": "getCycles",
      "outputs": [
        {
          "components": [
            {
              "internalType": "uint256",
              "name": "id",
              "type": "uint256"
            },
            {
              "internalType": "uint256",
              "name": "groupId",
              "type": "uint256"
            },
            {
              "internalType": "uint256",
              "name": "numberOfDepositors",
              "type": "uint256"
            },
            {
              "internalType": "uint256",
              "name": "cycleStartTimeStamp",
              "type": "uint256"
            },
            {
              "internalType": "uint256",
              "name": "cycleDuration",
              "type": "uint256"
            },
            {
              "internalType": "uint256",
              "name": "maximumSlots",
              "type": "uint256"
            },
            {
              "internalType": "uint256",
              "name": "cycleStakeAmount",
              "type": "uint256"
            },
            {
              "internalType": "uint256",
              "name": "totalStakes",
              "type": "uint256"
            },
            {
              "internalType": "uint256",
              "name": "stakesClaimed",
              "type": "uint256"
            },
            {
              "internalType": "bool",
              "name": "hasMaximumSlots",
              "type": "bool"
            },
            {
              "internalType": "bool",
              "name": "exists",
              "type": "bool"
            },
            {
              "internalType": "enum IGroupSchema.CycleStatus",
              "name": "cycleStatus",
              "type": "uint8"
            },
            {
              "internalType": "uint256",
              "name": "stakesClaimedBeforeMaturity",
              "type": "uint256"
            }
          ],
          "internalType": "struct IGroupSchema.Cycle[]",
          "name": "",
          "type": "tuple[]"
        }
      ],
      "stateMutability": "view",
      "type": "function",
      "constant": true
    },
    {
      "inputs": [],
      "name": "getCyclesLength",
      "outputs": [
        {
          "internalType": "uint256",
          "name": "",
          "type": "uint256"
        }
      ],
      "stateMutability": "view",
      "type": "function",
      "constant": true
    },
    {
      "inputs": [
        {
          "internalType": "uint256",
          "name": "cycleId",
          "type": "uint256"
        },
        {
          "internalType": "uint256",
          "name": "groupId",
          "type": "uint256"
        },
        {
          "internalType": "uint256",
          "name": "totalLiquidityAsPenalty",
          "type": "uint256"
        },
        {
          "internalType": "uint256",
          "name": "numberOfCycleStakes",
          "type": "uint256"
        },
        {
          "internalType": "uint256",
          "name": "stakesClaimed",
          "type": "uint256"
        },
        {
          "internalType": "address payable",
          "name": "depositor",
          "type": "address"
        },
        {
          "internalType": "bool",
          "name": "hasWithdrawn",
          "type": "bool"
        }
      ],
      "name": "createCycleMember",
      "outputs": [],
      "stateMutability": "nonpayable",
      "type": "function"
    },
    {
      "inputs": [
        {
          "internalType": "uint256",
          "name": "cycleId",
          "type": "uint256"
        },
        {
          "internalType": "address payable",
          "name": "depositor",
          "type": "address"
        },
        {
          "internalType": "uint256",
          "name": "totalLiquidityAsPenalty",
          "type": "uint256"
        },
        {
          "internalType": "uint256",
          "name": "numberOfCycleStakes",
          "type": "uint256"
        },
        {
          "internalType": "uint256",
          "name": "stakesClaimed",
          "type": "uint256"
        },
        {
          "internalType": "bool",
          "name": "hasWithdrawn",
          "type": "bool"
        }
      ],
      "name": "updateCycleMember",
      "outputs": [],
      "stateMutability": "nonpayable",
      "type": "function"
    },
    {
      "inputs": [
        {
          "internalType": "uint256",
          "name": "groupId",
          "type": "uint256"
        },
        {
          "internalType": "uint256",
          "name": "numberOfDepositors",
          "type": "uint256"
        },
        {
          "internalType": "uint256",
          "name": "startTimeStamp",
          "type": "uint256"
        },
        {
          "internalType": "uint256",
          "name": "duration",
          "type": "uint256"
        },
        {
          "internalType": "uint256",
          "name": "maximumSlots",
          "type": "uint256"
        },
        {
          "internalType": "bool",
          "name": "hasMaximumSlots",
          "type": "bool"
        },
        {
          "internalType": "uint256",
          "name": "cycleStakeAmount",
          "type": "uint256"
        },
        {
          "internalType": "uint256",
          "name": "totalStakes",
          "type": "uint256"
        },
        {
          "internalType": "uint256",
          "name": "stakesClaimed",
          "type": "uint256"
        },
        {
          "internalType": "enum IGroupSchema.CycleStatus",
          "name": "cycleStatus",
          "type": "uint8"
        },
        {
          "internalType": "uint256",
          "name": "stakesClaimedBeforeMaturity",
          "type": "uint256"
        }
      ],
      "name": "createCycle",
      "outputs": [
        {
          "internalType": "uint256",
          "name": "",
          "type": "uint256"
        }
      ],
      "stateMutability": "nonpayable",
      "type": "function"
    },
    {
      "inputs": [
        {
          "internalType": "uint256",
          "name": "cycleId",
          "type": "uint256"
        },
        {
          "internalType": "uint256",
          "name": "groupId",
          "type": "uint256"
        },
        {
          "internalType": "uint256",
          "name": "underlyingTotalDeposits",
          "type": "uint256"
        },
        {
          "internalType": "uint256",
          "name": "underlyingTotalWithdrawn",
          "type": "uint256"
        },
        {
          "internalType": "uint256",
          "name": "underlyingBalance",
          "type": "uint256"
        },
        {
          "internalType": "uint256",
          "name": "derivativeBalance",
          "type": "uint256"
        },
        {
          "internalType": "uint256",
          "name": "underylingBalanceClaimedBeforeMaturity",
          "type": "uint256"
        },
        {
          "internalType": "uint256",
          "name": "derivativeBalanceClaimedBeforeMaturity",
          "type": "uint256"
        }
      ],
      "name": "createCycleFinancials",
      "outputs": [],
      "stateMutability": "nonpayable",
      "type": "function"
    },
    {
      "inputs": [
        {
          "internalType": "uint256",
          "name": "cycleId",
          "type": "uint256"
        },
        {
          "internalType": "uint256",
          "name": "numberOfDepositors",
          "type": "uint256"
        },
        {
          "internalType": "uint256",
          "name": "startTimeStamp",
          "type": "uint256"
        },
        {
          "internalType": "uint256",
          "name": "duration",
          "type": "uint256"
        },
        {
          "internalType": "uint256",
          "name": "maximumSlots",
          "type": "uint256"
        },
        {
          "internalType": "bool",
          "name": "hasMaximumSlots",
          "type": "bool"
        },
        {
          "internalType": "uint256",
          "name": "cycleStakeAmount",
          "type": "uint256"
        },
        {
          "internalType": "uint256",
          "name": "totalStakes",
          "type": "uint256"
        },
        {
          "internalType": "uint256",
          "name": "stakesClaimed",
          "type": "uint256"
        },
        {
          "internalType": "enum IGroupSchema.CycleStatus",
          "name": "cycleStatus",
          "type": "uint8"
        },
        {
          "internalType": "uint256",
          "name": "stakesClaimedBeforeMaturity",
          "type": "uint256"
        }
      ],
      "name": "updateCycle",
      "outputs": [],
      "stateMutability": "nonpayable",
      "type": "function"
    },
    {
      "inputs": [
        {
          "internalType": "uint256",
          "name": "cycleId",
          "type": "uint256"
        },
        {
          "internalType": "uint256",
          "name": "underlyingTotalDeposits",
          "type": "uint256"
        },
        {
          "internalType": "uint256",
          "name": "underlyingTotalWithdrawn",
          "type": "uint256"
        },
        {
          "internalType": "uint256",
          "name": "underlyingBalance",
          "type": "uint256"
        },
        {
          "internalType": "uint256",
          "name": "derivativeBalance",
          "type": "uint256"
        },
        {
          "internalType": "uint256",
          "name": "underylingBalanceClaimedBeforeMaturity",
          "type": "uint256"
        },
        {
          "internalType": "uint256",
          "name": "derivativeBalanceClaimedBeforeMaturity",
          "type": "uint256"
        }
      ],
      "name": "updateCycleFinancials",
      "outputs": [],
      "stateMutability": "nonpayable",
      "type": "function"
    },
    {
      "inputs": [
        {
          "internalType": "uint256",
          "name": "cycleId",
          "type": "uint256"
        }
      ],
      "name": "getCycleIndex",
      "outputs": [
        {
          "internalType": "uint256",
          "name": "",
          "type": "uint256"
        }
      ],
      "stateMutability": "view",
      "type": "function",
      "constant": true
    },
    {
      "inputs": [
        {
          "internalType": "uint256",
          "name": "cycleId",
          "type": "uint256"
        }
      ],
      "name": "getCycleFinancialIndex",
      "outputs": [
        {
          "internalType": "uint256",
          "name": "",
          "type": "uint256"
        }
      ],
      "stateMutability": "view",
      "type": "function",
      "constant": true
    },
    {
      "inputs": [
        {
          "internalType": "address",
          "name": "depositorAddress",
          "type": "address"
        },
        {
          "internalType": "uint256",
          "name": "recordIndexLocation",
          "type": "uint256"
        }
      ],
      "name": "getRecordIndexForCycleMembersIndexerByDepositor",
      "outputs": [
        {
          "internalType": "bool",
          "name": "",
          "type": "bool"
        },
        {
          "internalType": "uint256",
          "name": "",
          "type": "uint256"
        }
      ],
      "stateMutability": "view",
      "type": "function",
      "constant": true
    },
    {
      "inputs": [
        {
          "internalType": "uint256",
          "name": "cycleId",
          "type": "uint256"
        },
        {
          "internalType": "uint256",
          "name": "recordIndexLocation",
          "type": "uint256"
        }
      ],
      "name": "getRecordIndexForCycleMembersIndexer",
      "outputs": [
        {
          "internalType": "bool",
          "name": "",
          "type": "bool"
        },
        {
          "internalType": "uint256",
          "name": "",
          "type": "uint256"
        }
      ],
      "stateMutability": "view",
      "type": "function",
      "constant": true
    },
    {
      "inputs": [
        {
          "internalType": "uint256",
          "name": "cycleId",
          "type": "uint256"
        }
      ],
      "name": "getRecordIndexLengthForCycleMembers",
      "outputs": [
        {
          "internalType": "uint256",
          "name": "",
          "type": "uint256"
        }
      ],
      "stateMutability": "view",
      "type": "function",
      "constant": true
    },
    {
      "inputs": [
        {
          "internalType": "uint256",
          "name": "groupId",
          "type": "uint256"
        }
      ],
      "name": "getRecordIndexLengthForGroupCycleIndexer",
      "outputs": [
        {
          "internalType": "uint256",
          "name": "",
          "type": "uint256"
        }
      ],
      "stateMutability": "view",
      "type": "function",
      "constant": true
    },
    {
      "inputs": [
        {
          "internalType": "address",
          "name": "depositorAddress",
          "type": "address"
        }
      ],
      "name": "getRecordIndexLengthForCycleMembersByDepositor",
      "outputs": [
        {
          "internalType": "uint256",
          "name": "",
          "type": "uint256"
        }
      ],
      "stateMutability": "view",
      "type": "function",
      "constant": true
    },
    {
      "inputs": [
        {
          "internalType": "uint256",
          "name": "cycleId",
          "type": "uint256"
        },
        {
          "internalType": "address payable",
          "name": "memberAddress",
          "type": "address"
        }
      ],
      "name": "getCycleMemberIndex",
      "outputs": [
        {
          "internalType": "uint256",
          "name": "",
          "type": "uint256"
        }
      ],
      "stateMutability": "view",
      "type": "function",
      "constant": true
    },
    {
      "inputs": [
        {
          "internalType": "uint256",
          "name": "cycleId",
          "type": "uint256"
        },
        {
          "internalType": "address",
          "name": "depositor",
          "type": "address"
        }
      ],
      "name": "doesCycleMemberExist",
      "outputs": [
        {
          "internalType": "bool",
          "name": "",
          "type": "bool"
        }
      ],
      "stateMutability": "view",
      "type": "function",
      "constant": true
    }
  ],
  "bytecode": "0x608060405260008054600160a060020a031916331790556124c0806100256000396000f3fe608060405234801561001057600080fd5b50600436106101c6576000357c0100000000000000000000000000000000000000000000000000000000900480636f583ba611610116578063c23fec51116100b4578063e2724b721161008e578063e2724b7214610405578063e50982791461040d578063f1a42ec014610420578063f2fde38b14610433576101c6565b8063c23fec51146103cc578063dd1d1733146103df578063e22eb1c9146103f2576101c6565b80638b1449fb116100f05780638b1449fb14610361578063955974a714610374578063a144944914610394578063af1b6acd146103a7576101c6565b80636f583ba61461031a578063798d7db31461032d5780637b1ea31614610340576101c6565b8063217d1e93116101835780635ce38d8c1161015d5780635ce38d8c146102a85780636041fc88146102ce5780636e27034d146102e15780636f1f54db146102f4576101c6565b8063217d1e931461026f57806336a528841461028257806356d498c714610295576101c6565b80630fdf80ed146101cb57806314e2584f146101e057806316e1e519146102145780631735b300146102275780631a1dfa39146102475780631fbbff041461025c575b600080fd5b6101de6101d9366004611e5f565b610446565b005b6101f36101ee366004611edb565b6104bb565b60405161020b9c9b9a999897969594939291906123cb565b60405180910390f35b6101de61022236600461209c565b61062b565b61023a610235366004611e5f565b6106f2565b60405161020b919061235f565b61024f61070d565b60405161020b919061214f565b6101f361026a366004611edb565b610821565b6101de61027d366004611e7b565b610983565b6101de610290366004611fa0565b6109db565b61023a6102a3366004611edb565b610cd5565b6102bb6102b6366004611edb565b610ce6565b60405161020b9796959493929190612368565b6101de6102dc366004611e5f565b610d3a565b61023a6102ef366004611edb565b610d88565b610307610302366004611edb565b610d9a565b60405161020b9796959493929190612437565b6101de610328366004611e5f565b610e4e565b6101de61033b366004612008565b610ea2565b61035361034e366004611eb0565b610f64565b60405161020b92919061223c565b61035361036f366004611f7f565b610fd2565b610387610382366004611ef3565b610ff7565b60405161020b9190612231565b6101de6103a23660046120e7565b61100a565b6103ba6103b5366004611edb565b61128e565b60405161020b969594939291906123a3565b61023a6103da366004611edb565b61134c565b61023a6103ed366004612008565b611357565b61023a610400366004611ef3565b6116ae565b61023a6116ba565b6101de61041b366004611f22565b6116c0565b61023a61042e366004611edb565b611746565b6101de610441366004611e5f565b611758565b3360009081526001602052604090205460ff16806104825760405160e560020a62461bcd0281526004016104799061224c565b60405180910390fd5b50336000908152600160208190526040808320805460ff19908116909155600160a060020a039490941683529091208054909216179055565b60008060008060008060008060008060008060006104d88e6117c0565b90506104e2611d28565b600282815481106104ef57fe5b6000918252602091829020604080516101a081018252600b90930290910180548352600181015493830193909352600280840154918301919091526003830154606083015260048301546080830152600583015460a0830152600683015460c0830152600783015460e0830152600883015461010080840191909152600984015460ff80821615156101208601529181048216151561014085015292939261016085019262010000909104909116908111156105a757fe5b60028111156105b257fe5b8152602001600a820154815250509050806000015181602001518260400151836060015184608001518560a001518661012001518760c001518860e001518961010001518a61016001518b61018001519d509d509d509d509d509d509d509d509d509d509d509d50505091939597999b5091939597999b565b3360009081526001602052604090205460ff168061065e5760405160e560020a62461bcd0281526004016104799061224c565b600061066989611809565b9050610673611d9f565b6003828154811061068057fe5b600091825260209182902060408051610100810182526008909302909101805460ff161515835260010154928201929092529081018a9052606081018990526080810188905260a0810187905260c0810186905260e0810185905290506106e681611852565b50505050505050505050565b600160a060020a03166000908152600a602052604090205490565b60606002805480602002602001604051908101604052809291908181526020016000905b82821015610818576000848152602090819020604080516101a081018252600b860290920180548352600181015493830193909352600280840154918301919091526003830154606083015260048301546080830152600583015460a0830152600683015460c0830152600783015460e0830152600883015461010080840191909152600984015460ff80821615156101208601529181048216151561014085015292939261016085019262010000909104909116908111156107f057fe5b60028111156107fb57fe5b8152602001600a8201548152505081526020019060010190610731565b50505050905090565b60008060008060008060008060008060008061083b611d28565b60028e8154811061084857fe5b6000918252602091829020604080516101a081018252600b90930290910180548352600181015493830193909352600280840154918301919091526003830154606083015260048301546080830152600583015460a0830152600683015460c0830152600783015460e0830152600883015461010080840191909152600984015460ff808216151561012086015291810482161515610140850152929392610160850192620100009091049091169081111561090057fe5b600281111561090b57fe5b8152602001600a820154815250509050806000015181602001518260400151836060015184608001518560a001518661012001518760c001518860e001518961010001518a61016001518b61018001519c509c509c509c509c509c509c509c509c509c509c509c505091939597999b5091939597999b565b600054600160a060020a031633146109b05760405160e560020a62461bcd0281526004016104799061224c565b600160a060020a03919091166000908152600160205260409020805460ff1916911515919091179055565b3360009081526001602052604090205460ff1680610a0e5760405160e560020a62461bcd0281526004016104799061224c565b6000610a1a89856118df565b90508015610a3d5760405160e560020a62461bcd02815260040161047990612328565b610a45611de6565b5060408051610100810182528a8152602081018a90529081018890526060810187905260808101869052600160a0820152600160a060020a03851660c082015283151560e0820152600854610a98611e38565b60405180604001604052806001151581526020018381525090506008839080600181540180825580915050600190039060005260206000209060060201600090919091909150600082015181600001556020820151816001015560408201518160020155606082015181600301556080820151816004015560a08201518160050160006101000a81548160ff02191690831515021790555060c08201518160050160016101000a815481600160a060020a030219169083600160a060020a0316021790555060e08201518160050160156101000a81548160ff0219169083151502179055505050600960008d815260200190815260200160002081908060018154018082558091505060019003906000526020600020906002020160009091909190915060008201518160000160006101000a81548160ff021916908315150217905550602082015181600101555050600a600088600160a060020a0316600160a060020a0316815260200190815260200160002081908060018154018082558091505060019003906000526020600020906002020160009091909190915060008201518160000160006101000a81548160ff02191690831515021790555060208201518160010155505080600b60008e8152602001908152602001600020600089600160a060020a0316600160a060020a0316815260200190815260200160002060008201518160000160006101000a81548160ff02191690831515021790555060208201518160010155905050505050505050505050505050565b6000610ce082611809565b92915050565b6000806000806000806000610cf9611de6565b610d028961190a565b8051602082015160c083015160408401516060850151608086015160e090960151949f939e50919c509a509850919650945092505050565b600054600160a060020a03163314610d675760405160e560020a62461bcd0281526004016104799061224c565b600160a060020a03166000908152600160205260409020805460ff19169055565b60009081526005602052604090205490565b6000806000806000806000610dad611d9f565b60038981548110610dba57fe5b60009182526020918290206040805161010081018252600893909302909101805460ff161515835260018101549383018490526002810154918301829052600381015460608401819052600482015460808501819052600583015460a08601819052600684015460c0870181905260079094015460e0909601869052959f939e50909c509a50929850919650945092505050565b600054600160a060020a03163314610e7b5760405160e560020a62461bcd0281526004016104799061224c565b600160a060020a03166000908152600160208190526040909120805460ff19169091179055565b3360009081526001602052604090205460ff1680610ed55760405160e560020a62461bcd0281526004016104799061224c565b610edd611d28565b610ee68d6119b6565b604081018d9052606081018c9052608081018b905260a081018a905288151561012082015260c0810188905260e08101879052610100810186905290506101608101846002811115610f3457fe5b90816002811115610f4157fe5b9052506101808101839052610f5581611ab1565b50505050505050505050505050565b600080610f6f611e38565b600160a060020a0385166000908152600a60205260409020805485908110610f9357fe5b600091825260209182902060408051808201909152600290920201805460ff161515808352600190910154919092018190529093509150509250929050565b600080610fdd611e38565b6000858152600960205260409020805485908110610f9357fe5b600061100383836118df565b9392505050565b3360009081526001602052604090205460ff168061103d5760405160e560020a62461bcd0281526004016104799061224c565b611045611e38565b506000898152600460209081526040918290208251808401909352805460ff161515808452600190910154918301919091526110965760405160e560020a62461bcd02815260040161047990612283565b61109e611d9f565b506040805161010081018252600180825260208083018e81528385019c8d52606084019b8c52608084019a8b5260a08401998a5260c0840198895260e084019788526003805480850182556000918252945160089095027fc2575a0e9e593c00f959f8c92f12db2869c3395a3b0502d05e2516446f71f85b8101805496151560ff1997881617905591517fc2575a0e9e593c00f959f8c92f12db2869c3395a3b0502d05e2516446f71f85c8301559c517fc2575a0e9e593c00f959f8c92f12db2869c3395a3b0502d05e2516446f71f85d8201559a517fc2575a0e9e593c00f959f8c92f12db2869c3395a3b0502d05e2516446f71f85e8c015598517fc2575a0e9e593c00f959f8c92f12db2869c3395a3b0502d05e2516446f71f85f8b015596517fc2575a0e9e593c00f959f8c92f12db2869c3395a3b0502d05e2516446f71f8608a015594517fc2575a0e9e593c00f959f8c92f12db2869c3395a3b0502d05e2516446f71f86189015592517fc2575a0e9e593c00f959f8c92f12db2869c3395a3b0502d05e2516446f71f8629097019690965550968552600683528685208451815490151590831617815584840180519184019190915595855260078352958420805480830182559085529190932091516002919091029091018054911515919094161783559051910155565b60008060008060008060006112a288611809565b90506112ac611d9f565b600382815481106112b957fe5b60009182526020918290206040805161010081018252600893909302909101805460ff16151583526001810154938301939093526002830154908201819052600383015460608301819052600484015460808401819052600585015460a08501819052600686015460c0860181905260079096015460e0909501859052929e919d509b5090995091975095509350505050565b6000610ce0826117c0565b3360009081526001602052604081205460ff168061138a5760405160e560020a62461bcd0281526004016104799061224c565b600c8054600101905561139b611d28565b604051806101a00160405280600c5481526020018f81526020018e81526020018d81526020018c81526020018b81526020018981526020018881526020018781526020018a151581526020016001151581526020018660028111156113fc57fe5b8152602001859052600254909150611412611e38565b506040805180820182526001808252602080830185905260028054928301815560008190528651600b9093027f405787fa12a823e0f2b7631cc41b3ba8828b3321ca811111fa75cd3aa3bb5ace8101938455918701517f405787fa12a823e0f2b7631cc41b3ba8828b3321ca811111fa75cd3aa3bb5acf830155938601517f405787fa12a823e0f2b7631cc41b3ba8828b3321ca811111fa75cd3aa3bb5ad082015560608601517f405787fa12a823e0f2b7631cc41b3ba8828b3321ca811111fa75cd3aa3bb5ad182015560808601517f405787fa12a823e0f2b7631cc41b3ba8828b3321ca811111fa75cd3aa3bb5ad282015560a08601517f405787fa12a823e0f2b7631cc41b3ba8828b3321ca811111fa75cd3aa3bb5ad382015560c08601517f405787fa12a823e0f2b7631cc41b3ba8828b3321ca811111fa75cd3aa3bb5ad482015560e08601517f405787fa12a823e0f2b7631cc41b3ba8828b3321ca811111fa75cd3aa3bb5ad5820155610100808701517f405787fa12a823e0f2b7631cc41b3ba8828b3321ca811111fa75cd3aa3bb5ad68301556101208701517f405787fa12a823e0f2b7631cc41b3ba8828b3321ca811111fa75cd3aa3bb5ad79092018054610140890151151590920261ff001993151560ff1990931692909217929092161780825561016087015193948794929162ff00001916906201000090849081111561161f57fe5b02179055506101809190910151600a90910155600c805460009081526004602090815260408083208551815490151560ff199182161782558387018051600193840155988401518552600584529184208054808301825590855292909320945160029092029094018054911515919094161783559351919093015550549150509b9a5050505050505050505050565b60006110038383611ba1565b60025490565b3360009081526001602052604090205460ff16806116f35760405160e560020a62461bcd0281526004016104799061224c565b6116fb611de6565b6117058888611c14565b600160a060020a03881660c082015260408101879052606081018690526080810185905283151560e0820152905061173c81611c3b565b5050505050505050565b60009081526009602052604090205490565b600054600160a060020a031633146117855760405160e560020a62461bcd0281526004016104799061224c565b600160a060020a038116156117bd576000805473ffffffffffffffffffffffffffffffffffffffff1916600160a060020a0383161790555b50565b60008181526004602052604081205460ff16806117f25760405160e560020a62461bcd02815260040161047990612283565b505060009081526004602052604090206001015490565b60008181526006602052604081205460ff168061183b5760405160e560020a62461bcd028152600401610479906122ba565b505060009081526006602052604090206001015490565b600061186182602001516117c0565b9050816003828154811061187157fe5b6000918252602091829020835160089290920201805460ff191691151591909117815590820151600182015560408201516002820155606082015160038201556080820151600482015560a0820151600582015560c0820151600682015560e0909101516007909101555050565b6000918252600b60209081526040808420600160a060020a0393909316845291905290205460ff1690565b611912611de6565b6008828154811061191f57fe5b600091825260209182902060408051610100808201835260069490940290920180548352600181015494830194909452600284015490820152600383015460608201526004830154608082015260059092015460ff808216151560a0850152918104600160a060020a031660c08401527501000000000000000000000000000000000000000000900416151560e082015292915050565b6119be611d28565b60006119c9836117c0565b9050600281815481106119d857fe5b6000918252602091829020604080516101a081018252600b90930290910180548352600181015493830193909352600280840154918301919091526003830154606083015260048301546080830152600583015460a0830152600683015460c0830152600783015460e0830152600883015461010080840191909152600984015460ff8082161515610120860152918104821615156101408501529293926101608501926201000090910490911690811115611a9057fe5b6002811115611a9b57fe5b8152602001600a82015481525050915050919050565b6000611ac082600001516117c0565b90508160028281548110611ad057fe5b60009182526020918290208351600b92909202019081559082015160018201556040820151600280830191909155606083015160038301556080830151600483015560a0830151600583015560c0830151600683015560e0830151600783015561010080840151600884015561012084015160098401805461014087015160ff199091169215159290921761ff001916911515909202178082556101608501519262ff0000199091169062010000908490811115611b8a57fe5b021790555061018082015181600a01559050505050565b6000828152600b60209081526040808320600160a060020a038516845290915281205460ff1680611be75760405160e560020a62461bcd028152600401610479906122f1565b50506000918252600b60209081526040808420600160a060020a0393909316845291905290206001015490565b611c1c611de6565b6000611c288484611ba1565b9050611c338161190a565b949350505050565b6000611c4f82600001518360c00151611ba1565b90508160088281548110611c5f57fe5b6000918252602091829020835160069092020190815590820151600182015560408201516002820155606082015160038201556080820151600482015560a08201516005909101805460c084015160e090940151151575010000000000000000000000000000000000000000000275ff00000000000000000000000000000000000000000019600160a060020a039095166101000274ffffffffffffffffffffffffffffffffffffffff001994151560ff19909316929092179390931617929092161790555050565b604051806101a0016040528060008152602001600081526020016000815260200160008152602001600081526020016000815260200160008152602001600081526020016000815260200160001515815260200160001515815260200160006002811115611d9257fe5b8152602001600081525090565b604051806101000160405280600015158152602001600081526020016000815260200160008152602001600081526020016000815260200160008152602001600081525090565b60405180610100016040528060008152602001600081526020016000815260200160008152602001600081526020016000151581526020016000600160a060020a031681526020016000151581525090565b604080518082019091526000808252602082015290565b80358015158114610ce057600080fd5b600060208284031215611e70578081fd5b813561100381612467565b60008060408385031215611e8d578081fd5b8235611e9881612467565b9150611ea78460208501611e4f565b90509250929050565b60008060408385031215611ec2578182fd5b8235611ecd81612467565b946020939093013593505050565b600060208284031215611eec578081fd5b5035919050565b60008060408385031215611f05578182fd5b823591506020830135611f1781612467565b809150509250929050565b60008060008060008060c08789031215611f3a578182fd5b863595506020870135611f4c81612467565b945060408701359350606087013592506080870135915060a0870135611f718161247c565b809150509295509295509295565b60008060408385031215611f91578182fd5b50508035926020909101359150565b600080600080600080600060e0888a031215611fba578081fd5b873596506020880135955060408801359450606088013593506080880135925060a0880135611fe881612467565b915060c0880135611ff88161247c565b8091505092959891949750929550565b60008060008060008060008060008060006101608c8e031215612029578384fd5b8b359a5060208c0135995060408c0135985060608c0135975060808c013596506120568d60a08e01611e4f565b955060c08c0135945060e08c013593506101008c013592506101208c013560038110612080578283fd5b809250506101408c013590509295989b509295989b9093969950565b600080600080600080600060e0888a0312156120b6578081fd5b505085359760208701359750604087013596606081013596506080810135955060a0810135945060c0013592509050565b600080600080600080600080610100898b031215612103578182fd5b505086359860208801359850604088013597606081013597506080810135965060a0810135955060c0810135945060e0013592509050565b15159052565b6003811061214b57fe5b9052565b602080825282518282018190526000919060409081850190868401855b828110156122245781518051855286810151878601528581015186860152606080820151908601526080808201519086015260a0808201519086015260c0808201519086015260e080820151908601526101008082015190860152610120808201516121da8288018261213b565b5050610140808201516121ef8288018261213b565b50506101608082015161220482880182612141565b505061018090810151908501526101a0909301929085019060010161216c565b5091979650505050505050565b901515815260200190565b9115158252602082015260400190565b6020808252601f908201527f756e617574686f72697a65642061636365737320746f20636f6e747261637400604082015260600190565b6020808252600f908201527f4379636c65206e6f7420666f756e640000000000000000000000000000000000604082015260600190565b6020808252601a908201527f4379636c652066696e616e6369616c73206e6f7420666f756e64000000000000604082015260600190565b60208082526016908201527f4379636c65206d656d626572206e6f7420666f756e6400000000000000000000604082015260600190565b6020808252601a908201527f4379636c65206d656d62657220616c7265616479206578697374000000000000604082015260600190565b90815260200190565b9687526020870195909552600160a060020a039390931660408601526060850191909152608084015260a0830152151560c082015260e00190565b958652602086019490945260408501929092526060840152608083015260a082015260c00190565b6000610180820190508d82528c60208301528b60408301528a60608301528960808301528860a083015287151560c08301528660e0830152856101008301528461012083015261241f610140830185612141565b826101608301529d9c50505050505050505050505050565b968752602087019590955260408601939093526060850191909152608084015260a083015260c082015260e00190565b600160a060020a03811681146117bd57600080fd5b80151581146117bd57600080fdfea2646970667358221220c8f272d5da2cf7b0d89d9c45a99508c5469ba8df14401dce98017b3f65bec63f64736f6c63430006060033",
  "immutableReferences": {},
  "source": "pragma solidity 0.6.6;\npragma experimental ABIEncoderV2;\n\nimport \"./IGroupSchema.sol\";\nimport \"./StorageOwners.sol\";\n\ncontract Cycles is IGroupSchema, StorageOwners {\n    // list of Group Cycles\n    Cycle[] private Cycles;\n    CycleFinancial[] private CycleFinancials;\n\n    //Mapping that enables ease of traversal of the cycle records. Key is cycle id\n    mapping(uint256 => RecordIndex) private CycleIndexer;\n\n    //Mapping that enables ease of traversal of cycle records by the group. key is group id\n    mapping(uint256 => RecordIndex[]) private GroupCycleIndexer;\n\n    //Mapping that enables ease of traversal of the cycle financials records. Key is cycle id\n    mapping(uint256 => RecordIndex) private CycleFinancialsIndexer;\n\n    //Mapping that enables ease of traversal of cycle financials records by the group. key is group id\n    mapping(uint256 => RecordIndex[]) private GroupCycleFinancialsIndexer;\n\n    CycleMember[] private CycleMembers;\n\n    //Mapping of a cycle members. key is the cycle id\n    mapping(uint256 => RecordIndex[]) private CycleMembersIndexer;\n    //Mapping of a cycle members, key is depositor address\n    mapping(address => RecordIndex[]) private CycleMembersIndexerByDepositor;\n    //Mapping that enables easy traversal of cycle members in a group. outer key is the cycle id, inner key is the member address\n    mapping(uint256 => mapping(address => RecordIndex))\n        private CycleMembersDeepIndexer;\n\n    uint256 lastCycleId;\n\n    function getCycleInfoByIndex(uint256 index)\n        external\n        view\n        returns (\n            uint256 id,\n            uint256 groupId,\n            uint256 numberOfDepositors,\n            uint256 cycleStartTimeStamp,\n            uint256 cycleDuration,\n            uint256 maximumSlots,\n            bool hasMaximumSlots,\n            uint256 cycleStakeAmount,\n            uint256 totalStakes,\n            uint256 stakesClaimed,\n            CycleStatus cycleStatus,\n            uint256 stakesClaimedBeforeMaturity\n        )\n    {\n        Cycle memory cycle = Cycles[index];\n\n        return (\n            cycle.id,\n            cycle.groupId,\n            cycle.numberOfDepositors,\n            cycle.cycleStartTimeStamp,\n            cycle.cycleDuration,\n            cycle.maximumSlots,\n            cycle.hasMaximumSlots,\n            cycle.cycleStakeAmount,\n            cycle.totalStakes,\n            cycle.stakesClaimed,\n            cycle.cycleStatus,\n            cycle.stakesClaimedBeforeMaturity\n        );\n    }\n\n    function getCycleInfoById(uint256 cycleId)\n        external\n        view\n        returns (\n            uint256 id,\n            uint256 groupId,\n            uint256 numberOfDepositors,\n            uint256 cycleStartTimeStamp,\n            uint256 cycleDuration,\n            uint256 maximumSlots,\n            bool hasMaximumSlots,\n            uint256 cycleStakeAmount,\n            uint256 totalStakes,\n            uint256 stakesClaimed,\n            CycleStatus cycleStatus,\n            uint256 stakesClaimedBeforeMaturity\n        )\n    {\n        uint256 index = _getCycleIndex(cycleId);\n\n        Cycle memory cycle = Cycles[index];\n\n        return (\n            cycle.id,\n            cycle.groupId,\n            cycle.numberOfDepositors,\n            cycle.cycleStartTimeStamp,\n            cycle.cycleDuration,\n            cycle.maximumSlots,\n            cycle.hasMaximumSlots,\n            cycle.cycleStakeAmount,\n            cycle.totalStakes,\n            cycle.stakesClaimed,\n            cycle.cycleStatus,\n            cycle.stakesClaimedBeforeMaturity\n        );\n    }\n\n    function getCycleFinancialsByIndex(uint256 index)\n        external\n        view\n        returns (\n            uint256 cycleId,\n            uint256 underlyingTotalDeposits,\n            uint256 underlyingTotalWithdrawn,\n            uint256 underlyingBalance,\n            uint256 derivativeBalance,\n            uint256 underylingBalanceClaimedBeforeMaturity,\n            uint256 derivativeBalanceClaimedBeforeMaturity\n        )\n    {\n        CycleFinancial memory cycleFinancial = CycleFinancials[index];\n\n        return (\n            cycleFinancial.cycleId,\n            cycleFinancial.underlyingTotalDeposits,\n            cycleFinancial.underlyingTotalWithdrawn,\n            cycleFinancial.underlyingBalance,\n            cycleFinancial.derivativeBalance,\n            cycleFinancial.underylingBalanceClaimedBeforeMaturity,\n            cycleFinancial.derivativeBalanceClaimedBeforeMaturity\n        );\n    }\n\n    function getCycleFinancialsByCycleId(uint256 cycleId)\n        external\n        view\n        returns (\n            uint256 underlyingTotalDeposits,\n            uint256 underlyingTotalWithdrawn,\n            uint256 underlyingBalance,\n            uint256 derivativeBalance,\n            uint256 underylingBalanceClaimedBeforeMaturity,\n            uint256 derivativeBalanceClaimedBeforeMaturity\n        )\n    {\n        uint256 index = _getCycleFinancialIndex(cycleId);\n        CycleFinancial memory cycleFinancial = CycleFinancials[index];\n\n        return (\n            cycleFinancial.underlyingTotalDeposits,\n            cycleFinancial.underlyingTotalWithdrawn,\n            cycleFinancial.underlyingBalance,\n            cycleFinancial.derivativeBalance,\n            cycleFinancial.underylingBalanceClaimedBeforeMaturity,\n            cycleFinancial.derivativeBalanceClaimedBeforeMaturity\n        );\n    }\n\n    function getCycleMember(uint256 index)\n        external\n        view\n        returns (\n            uint256 cycleId,\n            uint256 groupId,\n            address payable _address,\n            uint256 totalLiquidityAsPenalty,\n            uint256 numberOfCycleStakes,\n            uint256 stakesClaimed,\n            bool hasWithdrawn\n        )\n    {\n        CycleMember memory cycleMember = _getCycleMember(index);\n\n        return (\n            cycleMember.cycleId,\n            cycleMember.groupId,\n            cycleMember._address,\n            cycleMember.totalLiquidityAsPenalty,\n            cycleMember.numberOfCycleStakes,\n            cycleMember.stakesClaimed,\n            cycleMember.hasWithdrawn\n        );\n    }\n\n    function getCycles() external view returns (Cycle[] memory) {\n        return Cycles;\n    }\n\n    function getCyclesLength() external view returns (uint256) {\n        return Cycles.length;\n    }\n\n    function createCycleMember(\n        uint256 cycleId,\n        uint256 groupId,\n        uint256 totalLiquidityAsPenalty,\n        uint256 numberOfCycleStakes,\n        uint256 stakesClaimed,\n        address payable depositor,\n        bool hasWithdrawn\n    ) external onlyStorageOracle {\n        bool exist = _doesCycleMemberExist(cycleId, depositor);\n        require(!exist, \"Cycle member already exist\");\n\n        CycleMember memory cycleMember =\n            CycleMember(\n                cycleId,\n                groupId,\n                totalLiquidityAsPenalty,\n                numberOfCycleStakes,\n                stakesClaimed,\n                true,\n                 depositor,\n                hasWithdrawn\n            );\n\n        uint256 index = CycleMembers.length;\n\n        RecordIndex memory recordIndex = RecordIndex(true, index);\n\n        CycleMembers.push(cycleMember);\n        CycleMembersIndexer[cycleId].push(recordIndex);\n        CycleMembersIndexerByDepositor[depositor].push(recordIndex);\n\n        CycleMembersDeepIndexer[cycleId][depositor] = recordIndex;\n    }\n\n    function updateCycleMember(\n        uint256 cycleId,\n        address payable depositor,\n        uint256 totalLiquidityAsPenalty,\n        uint256 numberOfCycleStakes,\n        uint256 stakesClaimed,\n        bool hasWithdrawn\n    ) external onlyStorageOracle {\n        CycleMember memory cycleMember = _getCycleMember(cycleId, depositor);\n        cycleMember._address = depositor;\n        cycleMember.totalLiquidityAsPenalty = totalLiquidityAsPenalty;\n        cycleMember.numberOfCycleStakes = numberOfCycleStakes;\n        cycleMember.stakesClaimed = stakesClaimed;\n        cycleMember.hasWithdrawn = hasWithdrawn;\n\n        _updateCycleMember(cycleMember);\n    }\n\n    function createCycle(\n        uint256 groupId,\n        uint256 numberOfDepositors,\n        uint256 startTimeStamp,\n        uint256 duration,\n        uint256 maximumSlots,\n        bool hasMaximumSlots,\n        uint256 cycleStakeAmount,\n        uint256 totalStakes,\n        uint256 stakesClaimed,\n        CycleStatus cycleStatus,\n        uint256 stakesClaimedBeforeMaturity\n    ) external onlyStorageOracle returns (uint256) {\n        lastCycleId += 1;\n        Cycle memory cycle =\n            Cycle(\n                lastCycleId,\n                groupId,\n                numberOfDepositors,\n                startTimeStamp,\n                duration,\n                maximumSlots,\n                cycleStakeAmount,\n                totalStakes,\n                stakesClaimed,\n                hasMaximumSlots,\n                true,\n                cycleStatus,\n                stakesClaimedBeforeMaturity\n            );\n\n        uint256 index = Cycles.length;\n        RecordIndex memory recordIndex = RecordIndex(true, index);\n\n        Cycles.push(cycle);\n        CycleIndexer[lastCycleId] = recordIndex;\n        GroupCycleIndexer[cycle.groupId].push(recordIndex);\n        return lastCycleId;\n    }\n\n    function createCycleFinancials(\n        uint256 cycleId,\n        uint256 groupId,\n        uint256 underlyingTotalDeposits,\n        uint256 underlyingTotalWithdrawn,\n        uint256 underlyingBalance,\n        uint256 derivativeBalance,\n        uint256 underylingBalanceClaimedBeforeMaturity,\n        uint256 derivativeBalanceClaimedBeforeMaturity\n    ) external onlyStorageOracle {\n        RecordIndex memory recordIndex = CycleIndexer[cycleId];\n        require(recordIndex.exists, \"Cycle not found\");\n        CycleFinancial memory cycleFinancial =\n            CycleFinancial(\n                true,\n                cycleId,\n                underlyingTotalDeposits,\n                underlyingTotalWithdrawn,\n                underlyingBalance,\n                derivativeBalance,\n                underylingBalanceClaimedBeforeMaturity,\n                derivativeBalanceClaimedBeforeMaturity\n            );\n        CycleFinancials.push(cycleFinancial);\n        CycleFinancialsIndexer[cycleId] = recordIndex;\n        GroupCycleFinancialsIndexer[groupId].push(recordIndex);\n    }\n\n    function updateCycle(\n        uint256 cycleId,\n        uint256 numberOfDepositors,\n        uint256 startTimeStamp,\n        uint256 duration,\n        uint256 maximumSlots,\n        bool hasMaximumSlots,\n        uint256 cycleStakeAmount,\n        uint256 totalStakes,\n        uint256 stakesClaimed,\n        CycleStatus cycleStatus,\n        uint256 stakesClaimedBeforeMaturity\n    ) external onlyStorageOracle {\n        Cycle memory cycle = _getCycle(cycleId);\n        cycle.numberOfDepositors = numberOfDepositors;\n        cycle.cycleStartTimeStamp = startTimeStamp;\n        cycle.cycleDuration = duration;\n        cycle.maximumSlots = maximumSlots;\n        cycle.hasMaximumSlots = hasMaximumSlots;\n        cycle.cycleStakeAmount = cycleStakeAmount;\n\n        cycle.totalStakes = totalStakes;\n        cycle.stakesClaimed = stakesClaimed;\n        cycle.cycleStatus = cycleStatus;\n        cycle.stakesClaimedBeforeMaturity = stakesClaimedBeforeMaturity;\n\n        _updateCycle(cycle);\n    }\n\n    function updateCycleFinancials(\n        uint256 cycleId,\n        uint256 underlyingTotalDeposits,\n        uint256 underlyingTotalWithdrawn,\n        uint256 underlyingBalance,\n        uint256 derivativeBalance,\n        uint256 underylingBalanceClaimedBeforeMaturity,\n        uint256 derivativeBalanceClaimedBeforeMaturity\n    ) external onlyStorageOracle {\n        uint256 index = _getCycleFinancialIndex(cycleId);\n\n        CycleFinancial memory cycleFinancial = CycleFinancials[index];\n        cycleFinancial.underlyingTotalDeposits = underlyingTotalDeposits;\n        cycleFinancial.underlyingTotalWithdrawn = underlyingTotalWithdrawn;\n        cycleFinancial.underlyingBalance = underlyingBalance;\n        cycleFinancial.derivativeBalance = derivativeBalance;\n        cycleFinancial\n            .underylingBalanceClaimedBeforeMaturity = underylingBalanceClaimedBeforeMaturity;\n        cycleFinancial\n            .derivativeBalanceClaimedBeforeMaturity = derivativeBalanceClaimedBeforeMaturity;\n        _updateCycleFinancial(cycleFinancial);\n    }\n\n    function getCycleIndex(uint256 cycleId) external view returns (uint256) {\n        return _getCycleIndex(cycleId);\n    }\n\n    function getCycleFinancialIndex(uint256 cycleId)\n        external\n        view\n        returns (uint256)\n    {\n        return _getCycleFinancialIndex(cycleId);\n    }\n\n    function _getCycleIndex(uint256 cycleId) internal view returns (uint256) {\n        bool doesCycleExist = CycleIndexer[cycleId].exists;\n        require(doesCycleExist, \"Cycle not found\");\n\n        return CycleIndexer[cycleId].index;\n    }\n\n    function getRecordIndexForCycleMembersIndexerByDepositor(\n        address depositorAddress,\n        uint256 recordIndexLocation\n    ) external view returns (bool, uint256) {\n        RecordIndex memory recordIndex =\n            CycleMembersIndexerByDepositor[depositorAddress][\n                recordIndexLocation\n            ];\n\n        return (recordIndex.exists, recordIndex.index);\n    }\n\n    function getRecordIndexForCycleMembersIndexer(\n        uint256 cycleId,\n        uint256 recordIndexLocation\n    ) external view returns (bool, uint256) {\n        RecordIndex memory recordIndex =\n            CycleMembersIndexer[cycleId][recordIndexLocation];\n        return (recordIndex.exists, recordIndex.index);\n    }\n\n    function getRecordIndexLengthForCycleMembers(uint256 cycleId)\n        external\n        view\n        returns (uint256)\n    {\n        return CycleMembersIndexer[cycleId].length;\n    }\n\n    function getRecordIndexLengthForGroupCycleIndexer(uint256 groupId)\n        external\n        view\n        returns (uint256)\n    {\n        return GroupCycleIndexer[groupId].length;\n    }\n\n    function getRecordIndexLengthForCycleMembersByDepositor(\n        address depositorAddress\n    ) external view returns (uint256) {\n        return CycleMembersIndexerByDepositor[depositorAddress].length;\n    }\n\n    function getCycleMemberIndex(uint256 cycleId, address payable memberAddress)\n        external\n        view\n        returns (uint256)\n    {\n        return _getCycleMemberIndex(cycleId, memberAddress);\n    }\n\n    function _getCycleMember(uint256 cycleId, address payable depositor)\n        internal\n        view\n        returns (CycleMember memory)\n    {\n        uint256 index = _getCycleMemberIndex(cycleId, depositor);\n        return _getCycleMember(index);\n    }\n\n    function _getCycleMember(uint256 index)\n        internal\n        view\n        returns (CycleMember memory)\n    {\n        return CycleMembers[index];\n    }\n\n    function _getCycleMemberIndex(uint256 cycleId, address payable depositor)\n        internal\n        view\n        returns (uint256)\n    {\n        bool doesCycleMemberExist =\n            CycleMembersDeepIndexer[cycleId][depositor].exists;\n        require(doesCycleMemberExist, \"Cycle member not found\");\n\n        return CycleMembersDeepIndexer[cycleId][depositor].index;\n    }\n\n    function _getCycleFinancialIndex(uint256 cycleId)\n        internal\n        view\n        returns (uint256)\n    {\n        bool doesCycleFinancialExist = CycleFinancialsIndexer[cycleId].exists;\n        require(doesCycleFinancialExist, \"Cycle financials not found\");\n\n        return CycleFinancialsIndexer[cycleId].index;\n    }\n\n    function _updateCycleMember(CycleMember memory cycleMember) internal {\n        uint256 index =\n            _getCycleMemberIndex(cycleMember.cycleId, cycleMember._address);\n        CycleMembers[index] = cycleMember;\n    }\n\n    function _updateCycle(Cycle memory cycle) internal {\n        uint256 index = _getCycleIndex(cycle.id);\n        Cycles[index] = cycle;\n    }\n\n    function _updateCycleFinancial(CycleFinancial memory cycleFinancial)\n        internal\n    {\n        uint256 index = _getCycleIndex(cycleFinancial.cycleId);\n        CycleFinancials[index] = cycleFinancial;\n    }\n\n    function _getCycle(uint256 cycleId) internal view returns (Cycle memory) {\n        uint256 index = _getCycleIndex(cycleId);\n\n        return Cycles[index];\n    }\n\n    function _getCycleFinancial(uint256 cycleId)\n        internal\n        view\n        returns (CycleFinancial memory)\n    {\n        uint256 index = _getCycleFinancialIndex(cycleId);\n\n        CycleFinancial memory cycleFinancial = CycleFinancials[index];\n        return cycleFinancial;\n    }\n\n    function doesCycleMemberExist(uint256 cycleId, address depositor)\n        external\n        view\n        returns (bool)\n    {\n        return _doesCycleMemberExist(cycleId, depositor);\n    }\n\n    function _doesCycleMemberExist(uint256 cycleId, address depositor)\n        internal\n        view\n        returns (bool)\n    {\n        return CycleMembersDeepIndexer[cycleId][depositor].exists;\n    }\n}\n",
  "sourcePath": "/Users/mac/Desktop/BinaryHiils/yearn-savings/Tests/contracts/Cycle.sol",
  "compiler": {
    "name": "solc",
    "version": "0.6.6+commit.6c089d02.Emscripten.clang"
  },
  "schemaVersion": "3.3.2",
  "updatedAt": "2021-02-03T15:04:17.030Z",
  "networkType": "ethereum",
  "devdoc": {
    "methods": {}
  },
  "userdoc": {
    "methods": {}
  }
}