{
  "contractName": "EsusuService",
  "abi": [
    {
      "inputs": [],
      "stateMutability": "nonpayable",
      "type": "constructor"
    },
    {
      "inputs": [
        {
          "internalType": "address",
          "name": "account",
          "type": "address"
        }
      ],
      "name": "TransferOwnership",
      "outputs": [],
      "stateMutability": "nonpayable",
      "type": "function"
    },
    {
      "inputs": [
        {
          "internalType": "address",
          "name": "adapterAddress",
          "type": "address"
        }
      ],
      "name": "UpdateAdapter",
      "outputs": [],
      "stateMutability": "nonpayable",
      "type": "function"
    },
    {
      "inputs": [
        {
          "internalType": "address",
          "name": "delegateAddress",
          "type": "address"
        }
      ],
      "name": "UpdateAdapterWithdrawalDelegate",
      "outputs": [],
      "stateMutability": "nonpayable",
      "type": "function"
    },
    {
      "inputs": [
        {
          "internalType": "string",
          "name": "name",
          "type": "string"
        }
      ],
      "name": "GetGroupInformationByName",
      "outputs": [
        {
          "internalType": "uint256",
          "name": "groupId",
          "type": "uint256"
        },
        {
          "internalType": "string",
          "name": "groupName",
          "type": "string"
        },
        {
          "internalType": "string",
          "name": "groupSymbol",
          "type": "string"
        },
        {
          "internalType": "address",
          "name": "groupCreatorAddress",
          "type": "address"
        }
      ],
      "stateMutability": "view",
      "type": "function",
      "constant": true
    },
    {
      "inputs": [],
      "name": "GetEsusuAdapterAddress",
      "outputs": [
        {
          "internalType": "address",
          "name": "",
          "type": "address"
        }
      ],
      "stateMutability": "view",
      "type": "function",
      "constant": true
    },
    {
      "inputs": [
        {
          "internalType": "string",
          "name": "name",
          "type": "string"
        },
        {
          "internalType": "string",
          "name": "symbol",
          "type": "string"
        }
      ],
      "name": "CreateGroup",
      "outputs": [],
      "stateMutability": "nonpayable",
      "type": "function"
    },
    {
      "inputs": [
        {
          "internalType": "uint256",
          "name": "groupId",
          "type": "uint256"
        },
        {
          "internalType": "uint256",
          "name": "depositAmount",
          "type": "uint256"
        },
        {
          "internalType": "uint256",
          "name": "payoutIntervalSeconds",
          "type": "uint256"
        },
        {
          "internalType": "uint256",
          "name": "startTimeInSeconds",
          "type": "uint256"
        },
        {
          "internalType": "uint256",
          "name": "maxMembers",
          "type": "uint256"
        }
      ],
      "name": "CreateEsusu",
      "outputs": [],
      "stateMutability": "nonpayable",
      "type": "function"
    },
    {
      "inputs": [
        {
          "internalType": "uint256",
          "name": "esusuCycleId",
          "type": "uint256"
        },
        {
          "internalType": "address",
          "name": "member",
          "type": "address"
        }
      ],
      "name": "JoinEsusu",
      "outputs": [],
      "stateMutability": "nonpayable",
      "type": "function"
    },
    {
      "inputs": [
        {
          "internalType": "address",
          "name": "memberAddress",
          "type": "address"
        },
        {
          "internalType": "uint256",
          "name": "esusuCycleId",
          "type": "uint256"
        }
      ],
      "name": "GetMemberCycleInfo",
      "outputs": [
        {
          "internalType": "uint256",
          "name": "CycleId",
          "type": "uint256"
        },
        {
          "internalType": "address",
          "name": "MemberId",
          "type": "address"
        },
        {
          "internalType": "uint256",
          "name": "TotalAmountDepositedInCycle",
          "type": "uint256"
        },
        {
          "internalType": "uint256",
          "name": "TotalPayoutReceivedInCycle",
          "type": "uint256"
        },
        {
          "internalType": "uint256",
          "name": "memberPosition",
          "type": "uint256"
        }
      ],
      "stateMutability": "view",
      "type": "function",
      "constant": true
    },
    {
      "inputs": [
        {
          "internalType": "uint256",
          "name": "esusuCycleId",
          "type": "uint256"
        }
      ],
      "name": "GetEsusuCycle",
      "outputs": [
        {
          "internalType": "uint256",
          "name": "CycleId",
          "type": "uint256"
        },
        {
          "internalType": "uint256",
          "name": "DepositAmount",
          "type": "uint256"
        },
        {
          "internalType": "uint256",
          "name": "PayoutIntervalSeconds",
          "type": "uint256"
        },
        {
          "internalType": "uint256",
          "name": "CycleState",
          "type": "uint256"
        },
        {
          "internalType": "uint256",
          "name": "TotalMembers",
          "type": "uint256"
        },
        {
          "internalType": "uint256",
          "name": "TotalAmountDeposited",
          "type": "uint256"
        },
        {
          "internalType": "uint256",
          "name": "TotalShares",
          "type": "uint256"
        },
        {
          "internalType": "uint256",
          "name": "TotalCycleDurationInSeconds",
          "type": "uint256"
        },
        {
          "internalType": "uint256",
          "name": "TotalCapitalWithdrawn",
          "type": "uint256"
        },
        {
          "internalType": "uint256",
          "name": "CycleStartTimeInSeconds",
          "type": "uint256"
        },
        {
          "internalType": "uint256",
          "name": "TotalBeneficiaries",
          "type": "uint256"
        },
        {
          "internalType": "uint256",
          "name": "MaxMembers",
          "type": "uint256"
        }
      ],
      "stateMutability": "view",
      "type": "function",
      "constant": true
    },
    {
      "inputs": [
        {
          "internalType": "uint256",
          "name": "esusuCycleId",
          "type": "uint256"
        }
      ],
      "name": "StartEsusuCycle",
      "outputs": [],
      "stateMutability": "nonpayable",
      "type": "function"
    },
    {
      "inputs": [
        {
          "internalType": "uint256",
          "name": "esusuCycleId",
          "type": "uint256"
        }
      ],
      "name": "WithdrawROIFromEsusuCycle",
      "outputs": [],
      "stateMutability": "nonpayable",
      "type": "function"
    },
    {
      "inputs": [
        {
          "internalType": "uint256",
          "name": "esusuCycleId",
          "type": "uint256"
        }
      ],
      "name": "WithdrawCapitalFromEsusuCycle",
      "outputs": [],
      "stateMutability": "nonpayable",
      "type": "function"
    },
    {
      "inputs": [
        {
          "internalType": "uint256",
          "name": "esusuCycleId",
          "type": "uint256"
        },
        {
          "internalType": "address",
          "name": "member",
          "type": "address"
        }
      ],
      "name": "IsMemberEligibleToWithdrawROI",
      "outputs": [
        {
          "internalType": "bool",
          "name": "",
          "type": "bool"
        }
      ],
      "stateMutability": "view",
      "type": "function",
      "constant": true
    },
    {
      "inputs": [
        {
          "internalType": "uint256",
          "name": "esusuCycleId",
          "type": "uint256"
        },
        {
          "internalType": "address",
          "name": "member",
          "type": "address"
        }
      ],
      "name": "IsMemberEligibleToWithdrawCapital",
      "outputs": [
        {
          "internalType": "bool",
          "name": "",
          "type": "bool"
        }
      ],
      "stateMutability": "view",
      "type": "function",
      "constant": true
    },
    {
      "inputs": [],
      "name": "GetCurrentEsusuCycleId",
      "outputs": [
        {
          "internalType": "uint256",
          "name": "",
          "type": "uint256"
        }
      ],
      "stateMutability": "view",
      "type": "function",
      "constant": true
    },
    {
      "inputs": [],
      "name": "GetTotalDeposits",
      "outputs": [
        {
          "internalType": "uint256",
          "name": "",
          "type": "uint256"
        }
      ],
      "stateMutability": "view",
      "type": "function",
      "constant": true
    }
  ],
  "bytecode": "0x608060405234801561001057600080fd5b50336000806101000a81548173ffffffffffffffffffffffffffffffffffffffff021916908373ffffffffffffffffffffffffffffffffffffffff16021790555061187d806100606000396000f3fe608060405234801561001057600080fd5b506004361061010b5760003560e01c8063608ad5a3116100a2578063cea07b1311610071578063cea07b1314610535578063cfaaa2661461059b578063e1c39f15146105df578063ebd9c46a14610635578063fc323210146107cd5761010b565b8063608ad5a3146103a75780636a327586146103eb57806378fe7a5114610419578063a0bbeb65146104e75761010b565b806323caec69116100de57806323caec691461020c57806324943907146102505780634e8304661461026e57806357ac7703146102fd5761010b565b8063011966f9146101105780630590b905146101765780630d0353c9146101a45780631f82c5de146101ee575b600080fd5b61015c6004803603604081101561012657600080fd5b8101908080359060200190929190803573ffffffffffffffffffffffffffffffffffffffff1690602001909291905050506107fb565b604051808215151515815260200191505060405180910390f35b6101a26004803603602081101561018c57600080fd5b81019080803590602001909291905050506108e6565b005b6101ac6109aa565b604051808273ffffffffffffffffffffffffffffffffffffffff1673ffffffffffffffffffffffffffffffffffffffff16815260200191505060405180910390f35b6101f66109d4565b6040518082815260200191505060405180910390f35b61024e6004803603602081101561022257600080fd5b81019080803573ffffffffffffffffffffffffffffffffffffffff169060200190929190505050610a7e565b005b610258610b84565b6040518082815260200191505060405180910390f35b61029a6004803603602081101561028457600080fd5b8101908080359060200190929190505050610c2e565b604051808d81526020018c81526020018b81526020018a81526020018981526020018881526020018781526020018681526020018581526020018481526020018381526020018281526020019c5050505050505050505050505060405180910390f35b6103496004803603604081101561031357600080fd5b81019080803573ffffffffffffffffffffffffffffffffffffffff16906020019092919080359060200190929190505050610d85565b604051808681526020018573ffffffffffffffffffffffffffffffffffffffff1673ffffffffffffffffffffffffffffffffffffffff1681526020018481526020018381526020018281526020019550505050505060405180910390f35b6103e9600480360360208110156103bd57600080fd5b81019080803573ffffffffffffffffffffffffffffffffffffffff169060200190929190505050610eab565b005b6104176004803603602081101561040157600080fd5b8101908080359060200190929190505050610fb1565b005b6104e56004803603604081101561042f57600080fd5b810190808035906020019064010000000081111561044c57600080fd5b82018360208201111561045e57600080fd5b8035906020019184600183028401116401000000008311171561048057600080fd5b9091929391929390803590602001906401000000008111156104a157600080fd5b8201836020820111156104b357600080fd5b803590602001918460018302840111640100000000831117156104d557600080fd5b9091929391929390505050611075565b005b610533600480360360408110156104fd57600080fd5b8101908080359060200190929190803573ffffffffffffffffffffffffffffffffffffffff16906020019092919050505061119c565b005b6105816004803603604081101561054b57600080fd5b8101908080359060200190929190803573ffffffffffffffffffffffffffffffffffffffff169060200190929190505050611261565b604051808215151515815260200191505060405180910390f35b6105dd600480360360208110156105b157600080fd5b81019080803573ffffffffffffffffffffffffffffffffffffffff16906020019092919050505061134c565b005b610633600480360360a08110156105f557600080fd5b810190808035906020019092919080359060200190929190803590602001909291908035906020019092919080359060200190929190505050611451565b005b6106ac6004803603602081101561064b57600080fd5b810190808035906020019064010000000081111561066857600080fd5b82018360208201111561067a57600080fd5b8035906020019184600183028401116401000000008311171561069c57600080fd5b9091929391929390505050611539565b6040518085815260200180602001806020018473ffffffffffffffffffffffffffffffffffffffff1673ffffffffffffffffffffffffffffffffffffffff168152602001838103835286818151815260200191508051906020019080838360005b8381101561072857808201518184015260208101905061070d565b50505050905090810190601f1680156107555780820380516001836020036101000a031916815260200191505b50838103825285818151815260200191508051906020019080838360005b8381101561078e578082015181840152602081019050610773565b50505050905090810190601f1680156107bb5780820380516001836020036101000a031916815260200191505b50965050505050505060405180910390f35b6107f9600480360360208110156107e357600080fd5b81019080803590602001909291905050506117b7565b005b6000600260009054906101000a900473ffffffffffffffffffffffffffffffffffffffff1673ffffffffffffffffffffffffffffffffffffffff1663011966f984846040518363ffffffff1660e01b8152600401808381526020018273ffffffffffffffffffffffffffffffffffffffff1673ffffffffffffffffffffffffffffffffffffffff1681526020019250505060206040518083038186803b1580156108a457600080fd5b505afa1580156108b8573d6000803e3d6000fd5b505050506040513d60208110156108ce57600080fd5b81019080805190602001909291905050505092915050565b600260009054906101000a900473ffffffffffffffffffffffffffffffffffffffff1673ffffffffffffffffffffffffffffffffffffffff166353a86be582336040518363ffffffff1660e01b8152600401808381526020018273ffffffffffffffffffffffffffffffffffffffff1673ffffffffffffffffffffffffffffffffffffffff16815260200192505050600060405180830381600087803b15801561098f57600080fd5b505af11580156109a3573d6000803e3d6000fd5b5050505050565b6000600160009054906101000a900473ffffffffffffffffffffffffffffffffffffffff16905090565b6000600160009054906101000a900473ffffffffffffffffffffffffffffffffffffffff1673ffffffffffffffffffffffffffffffffffffffff16631f82c5de6040518163ffffffff1660e01b815260040160206040518083038186803b158015610a3e57600080fd5b505afa158015610a52573d6000803e3d6000fd5b505050506040513d6020811015610a6857600080fd5b8101908080519060200190929190505050905090565b3373ffffffffffffffffffffffffffffffffffffffff166000809054906101000a900473ffffffffffffffffffffffffffffffffffffffff1673ffffffffffffffffffffffffffffffffffffffff1614610b40576040517f08c379a000000000000000000000000000000000000000000000000000000000815260040180806020018281038252601d8152602001807f4f6e6c79206f776e65722063616e206d616b6520746869732063616c6c00000081525060200191505060405180910390fd5b80600160006101000a81548173ffffffffffffffffffffffffffffffffffffffff021916908373ffffffffffffffffffffffffffffffffffffffff16021790555050565b6000600160009054906101000a900473ffffffffffffffffffffffffffffffffffffffff1673ffffffffffffffffffffffffffffffffffffffff1663249439076040518163ffffffff1660e01b815260040160206040518083038186803b158015610bee57600080fd5b505afa158015610c02573d6000803e3d6000fd5b505050506040513d6020811015610c1857600080fd5b8101908080519060200190929190505050905090565b600080600080600080600080600080600080600160009054906101000a900473ffffffffffffffffffffffffffffffffffffffff1673ffffffffffffffffffffffffffffffffffffffff16634e8304668e6040518263ffffffff1660e01b8152600401808281526020019150506101806040518083038186803b158015610cb457600080fd5b505afa158015610cc8573d6000803e3d6000fd5b505050506040513d610180811015610cdf57600080fd5b810190808051906020019092919080519060200190929190805190602001909291908051906020019092919080519060200190929190805190602001909291908051906020019092919080519060200190929190805190602001909291908051906020019092919080519060200190929190805190602001909291905050509b509b509b509b509b509b509b509b509b509b509b509b5091939597999b5091939597999b565b6000806000806000600160009054906101000a900473ffffffffffffffffffffffffffffffffffffffff1673ffffffffffffffffffffffffffffffffffffffff166357ac770388886040518363ffffffff1660e01b8152600401808373ffffffffffffffffffffffffffffffffffffffff1673ffffffffffffffffffffffffffffffffffffffff1681526020018281526020019250505060a06040518083038186803b158015610e3457600080fd5b505afa158015610e48573d6000803e3d6000fd5b505050506040513d60a0811015610e5e57600080fd5b810190808051906020019092919080519060200190929190805190602001909291908051906020019092919080519060200190929190505050945094509450945094509295509295909350565b3373ffffffffffffffffffffffffffffffffffffffff166000809054906101000a900473ffffffffffffffffffffffffffffffffffffffff1673ffffffffffffffffffffffffffffffffffffffff1614610f6d576040517f08c379a000000000000000000000000000000000000000000000000000000000815260040180806020018281038252601d8152602001807f4f6e6c79206f776e65722063616e206d616b6520746869732063616c6c00000081525060200191505060405180910390fd5b80600260006101000a81548173ffffffffffffffffffffffffffffffffffffffff021916908373ffffffffffffffffffffffffffffffffffffffff16021790555050565b600260009054906101000a900473ffffffffffffffffffffffffffffffffffffffff1673ffffffffffffffffffffffffffffffffffffffff1663958efd1d82336040518363ffffffff1660e01b8152600401808381526020018273ffffffffffffffffffffffffffffffffffffffff1673ffffffffffffffffffffffffffffffffffffffff16815260200192505050600060405180830381600087803b15801561105a57600080fd5b505af115801561106e573d6000803e3d6000fd5b5050505050565b600160009054906101000a900473ffffffffffffffffffffffffffffffffffffffff1673ffffffffffffffffffffffffffffffffffffffff16637b3a173f85858585336040518663ffffffff1660e01b81526004018080602001806020018473ffffffffffffffffffffffffffffffffffffffff1673ffffffffffffffffffffffffffffffffffffffff1681526020018381038352888882818152602001925080828437600081840152601f19601f8201169050808301925050508381038252868682818152602001925080828437600081840152601f19601f820116905080830192505050975050505050505050600060405180830381600087803b15801561117e57600080fd5b505af1158015611192573d6000803e3d6000fd5b5050505050505050565b600160009054906101000a900473ffffffffffffffffffffffffffffffffffffffff1673ffffffffffffffffffffffffffffffffffffffff1663a0bbeb6583836040518363ffffffff1660e01b8152600401808381526020018273ffffffffffffffffffffffffffffffffffffffff1673ffffffffffffffffffffffffffffffffffffffff16815260200192505050600060405180830381600087803b15801561124557600080fd5b505af1158015611259573d6000803e3d6000fd5b505050505050565b6000600260009054906101000a900473ffffffffffffffffffffffffffffffffffffffff1673ffffffffffffffffffffffffffffffffffffffff1663cea07b1384846040518363ffffffff1660e01b8152600401808381526020018273ffffffffffffffffffffffffffffffffffffffff1673ffffffffffffffffffffffffffffffffffffffff1681526020019250505060206040518083038186803b15801561130a57600080fd5b505afa15801561131e573d6000803e3d6000fd5b505050506040513d602081101561133457600080fd5b81019080805190602001909291905050505092915050565b3373ffffffffffffffffffffffffffffffffffffffff166000809054906101000a900473ffffffffffffffffffffffffffffffffffffffff1673ffffffffffffffffffffffffffffffffffffffff161461140e576040517f08c379a000000000000000000000000000000000000000000000000000000000815260040180806020018281038252601d8152602001807f4f6e6c79206f776e65722063616e206d616b6520746869732063616c6c00000081525060200191505060405180910390fd5b806000806101000a81548173ffffffffffffffffffffffffffffffffffffffff021916908373ffffffffffffffffffffffffffffffffffffffff16021790555050565b600160009054906101000a900473ffffffffffffffffffffffffffffffffffffffff1673ffffffffffffffffffffffffffffffffffffffff1663e11ffee58686868633876040518763ffffffff1660e01b8152600401808781526020018681526020018581526020018481526020018373ffffffffffffffffffffffffffffffffffffffff1673ffffffffffffffffffffffffffffffffffffffff1681526020018281526020019650505050505050600060405180830381600087803b15801561151a57600080fd5b505af115801561152e573d6000803e3d6000fd5b505050505050505050565b60006060806000600160009054906101000a900473ffffffffffffffffffffffffffffffffffffffff1673ffffffffffffffffffffffffffffffffffffffff1663ebd9c46a87876040518363ffffffff1660e01b815260040180806020018281038252848482818152602001925080828437600081840152601f19601f820116905080830192505050935050505060006040518083038186803b1580156115df57600080fd5b505afa1580156115f3573d6000803e3d6000fd5b505050506040513d6000823e3d601f19601f82011682018060405250608081101561161d57600080fd5b81019080805190602001909291908051604051939291908464010000000082111561164757600080fd5b8382019150602082018581111561165d57600080fd5b825186600182028301116401000000008211171561167a57600080fd5b8083526020830192505050908051906020019080838360005b838110156116ae578082015181840152602081019050611693565b50505050905090810190601f1680156116db5780820380516001836020036101000a031916815260200191505b50604052602001805160405193929190846401000000008211156116fe57600080fd5b8382019150602082018581111561171457600080fd5b825186600182028301116401000000008211171561173157600080fd5b8083526020830192505050908051906020019080838360005b8381101561176557808201518184015260208101905061174a565b50505050905090810190601f1680156117925780820380516001836020036101000a031916815260200191505b5060405260200180519060200190929190505050935093509350935092959194509250565b600160009054906101000a900473ffffffffffffffffffffffffffffffffffffffff1673ffffffffffffffffffffffffffffffffffffffff1663fc323210826040518263ffffffff1660e01b815260040180828152602001915050600060405180830381600087803b15801561182c57600080fd5b505af1158015611840573d6000803e3d6000fd5b505050505056fea264697066735822122026b5ec9560033cd52597d4d151acdb1ff161f34c3e930dd0dc7dee6ad0f96c3c64736f6c63430006060033",
  "immutableReferences": {},
  "source": "pragma solidity >=0.6.6;\n\nimport \"./EsusuAdapter.sol\";\nimport \"./EsusuAdapterWithdrawalDelegate.sol\";\n\n\ncontract EsusuService{\n\n    address _owner;\n    EsusuAdapter _esusuAdapter;\n    EsusuAdapterWithdrawalDelegate _esusuAdapterWithdrawalDelegate;\n\n    mapping(address => uint) userDaiDeposits;\n\n    constructor() public {\n        _owner = msg.sender;\n    }\n\n    function TransferOwnership(address account) onlyOwner() external{\n        _owner = account;\n    }\n\n    function UpdateAdapter(address adapterAddress) onlyOwner() external{\n        _esusuAdapter = EsusuAdapter(adapterAddress);\n    }\n\n    function UpdateAdapterWithdrawalDelegate(address delegateAddress) onlyOwner() external{\n        _esusuAdapterWithdrawalDelegate = EsusuAdapterWithdrawalDelegate(delegateAddress);\n    }\n\n    function GetGroupInformationByName(string calldata name) external view returns (uint groupId, string memory groupName, string memory groupSymbol, address groupCreatorAddress){\n\n\n        return _esusuAdapter.GetGroupInformationByName(name);\n    }\n\n    function GetEsusuAdapterAddress() external view returns (address){\n        return address(_esusuAdapter);\n    }\n\n\n    function CreateGroup(string calldata name, string calldata symbol) external {\n\n           _esusuAdapter.CreateGroup(name,symbol,msg.sender);\n\n    }\n\n    function CreateEsusu(uint groupId, uint depositAmount, uint payoutIntervalSeconds,uint startTimeInSeconds,uint maxMembers) external {\n\n        _esusuAdapter.CreateEsusu(groupId,depositAmount,payoutIntervalSeconds,startTimeInSeconds,msg.sender,maxMembers);\n    }\n\n    /*\n        NOTE: member must approve _esusuAdapter to transfer deposit amount on his/her behalf\n    */\n    function JoinEsusu(uint esusuCycleId, address member) external {\n        _esusuAdapter.JoinEsusu(esusuCycleId,member);\n    }\n\n\n    /*\n        This function returns information about a member in an esusu Cycle\n    */\n    function GetMemberCycleInfo(address memberAddress, uint esusuCycleId)\n                                external view returns(uint CycleId, address MemberId, uint TotalAmountDepositedInCycle,\n                                uint TotalPayoutReceivedInCycle, uint memberPosition){\n\n        return _esusuAdapter.GetMemberCycleInfo(memberAddress,esusuCycleId);\n    }\n\n     function GetEsusuCycle(uint esusuCycleId) external view returns(uint CycleId, uint DepositAmount,\n                                                            uint PayoutIntervalSeconds, uint CycleState,\n                                                            uint TotalMembers, uint TotalAmountDeposited, uint TotalShares,\n                                                            uint TotalCycleDurationInSeconds, uint TotalCapitalWithdrawn, uint CycleStartTimeInSeconds,\n                                                            uint TotalBeneficiaries, uint MaxMembers){\n\n        return _esusuAdapter.GetEsusuCycle(esusuCycleId);\n    }\n\n    function StartEsusuCycle(uint esusuCycleId) external {\n        _esusuAdapter.StartEsusuCycle(esusuCycleId);\n    }\n\n    function WithdrawROIFromEsusuCycle(uint esusuCycleId) external{\n        _esusuAdapterWithdrawalDelegate.WithdrawROIFromEsusuCycle(esusuCycleId,msg.sender);\n    }\n\n    function WithdrawCapitalFromEsusuCycle(uint esusuCycleId) external{\n        _esusuAdapterWithdrawalDelegate.WithdrawCapitalFromEsusuCycle(esusuCycleId,msg.sender);\n    }\n\n    function IsMemberEligibleToWithdrawROI(uint esusuCycleId, address member) external view returns(bool){\n        _esusuAdapterWithdrawalDelegate.IsMemberEligibleToWithdrawROI(esusuCycleId,member);\n    }\n\n    function IsMemberEligibleToWithdrawCapital(uint esusuCycleId, address member) external view returns(bool){\n        _esusuAdapterWithdrawalDelegate.IsMemberEligibleToWithdrawCapital(esusuCycleId,member);\n    }\n\n    function GetCurrentEsusuCycleId() external view returns(uint){\n        return _esusuAdapter.GetCurrentEsusuCycleId();\n    }\n\n    function GetTotalDeposits() external view returns(uint)  {\n        return _esusuAdapter.GetTotalDeposits();\n    }\n    modifier onlyOwner(){\n        require(_owner == msg.sender, \"Only owner can make this call\");\n        _;\n    }\n\n\n}\n",
  "sourcePath": "/home/cally/BinaryHills/xend/xend-finance/esusu/Test/contracts/EsusuService.sol",
  "compiler": {
    "name": "solc",
    "version": "0.6.6+commit.6c089d02.Emscripten.clang"
  },
  "schemaVersion": "3.3.1",
  "updatedAt": "2021-02-15T11:41:23.884Z",
  "networkType": "ethereum",
  "devdoc": {
    "methods": {}
  },
  "userdoc": {
    "methods": {}
  }
}