{
  "contractName": "EsusuStorage",
  "abi": [
    {
      "inputs": [],
      "stateMutability": "nonpayable",
      "type": "constructor"
    },
    {
      "inputs": [
        {
          "internalType": "address",
          "name": "adapterContract",
          "type": "address"
        },
        {
          "internalType": "address",
          "name": "adapterDelegateContract",
          "type": "address"
        }
      ],
      "name": "UpdateAdapterAndAdapterDelegateAddresses",
      "outputs": [],
      "stateMutability": "nonpayable",
      "type": "function"
    },
    {
      "inputs": [],
      "name": "GetEsusuCycleId",
      "outputs": [
        {
          "internalType": "uint256",
          "name": "",
          "type": "uint256"
        }
      ],
      "stateMutability": "view",
      "type": "function"
    },
    {
      "inputs": [],
      "name": "IncrementEsusuCycleId",
      "outputs": [],
      "stateMutability": "nonpayable",
      "type": "function"
    },
    {
      "inputs": [
        {
          "internalType": "uint256",
          "name": "groupId",
          "type": "uint256"
        },
        {
          "internalType": "uint256",
          "name": "depositAmount",
          "type": "uint256"
        },
        {
          "internalType": "uint256",
          "name": "payoutIntervalSeconds",
          "type": "uint256"
        },
        {
          "internalType": "uint256",
          "name": "startTimeInSeconds",
          "type": "uint256"
        },
        {
          "internalType": "address",
          "name": "owner",
          "type": "address"
        },
        {
          "internalType": "uint256",
          "name": "maxMembers",
          "type": "uint256"
        }
      ],
      "name": "CreateEsusuCycleMapping",
      "outputs": [],
      "stateMutability": "nonpayable",
      "type": "function"
    },
    {
      "inputs": [
        {
          "internalType": "uint256",
          "name": "esusuCycleId",
          "type": "uint256"
        }
      ],
      "name": "GetEsusuCycle",
      "outputs": [
        {
          "internalType": "uint256",
          "name": "CycleId",
          "type": "uint256"
        },
        {
          "internalType": "uint256",
          "name": "DepositAmount",
          "type": "uint256"
        },
        {
          "internalType": "uint256",
          "name": "PayoutIntervalSeconds",
          "type": "uint256"
        },
        {
          "internalType": "uint256",
          "name": "CycleState",
          "type": "uint256"
        },
        {
          "internalType": "uint256",
          "name": "TotalMembers",
          "type": "uint256"
        },
        {
          "internalType": "uint256",
          "name": "TotalAmountDeposited",
          "type": "uint256"
        },
        {
          "internalType": "uint256",
          "name": "TotalShares",
          "type": "uint256"
        },
        {
          "internalType": "uint256",
          "name": "TotalCycleDurationInSeconds",
          "type": "uint256"
        },
        {
          "internalType": "uint256",
          "name": "TotalCapitalWithdrawn",
          "type": "uint256"
        },
        {
          "internalType": "uint256",
          "name": "CycleStartTimeInSeconds",
          "type": "uint256"
        },
        {
          "internalType": "uint256",
          "name": "TotalBeneficiaries",
          "type": "uint256"
        },
        {
          "internalType": "uint256",
          "name": "MaxMembers",
          "type": "uint256"
        }
      ],
      "stateMutability": "view",
      "type": "function"
    },
    {
      "inputs": [
        {
          "internalType": "uint256",
          "name": "esusuCycleId",
          "type": "uint256"
        }
      ],
      "name": "GetEsusuCycleStartTime",
      "outputs": [
        {
          "internalType": "uint256",
          "name": "EsusuCycleStartTime",
          "type": "uint256"
        }
      ],
      "stateMutability": "view",
      "type": "function"
    },
    {
      "inputs": [
        {
          "internalType": "uint256",
          "name": "groupId",
          "type": "uint256"
        }
      ],
      "name": "GetCycleIndexFromGroupId",
      "outputs": [
        {
          "internalType": "uint256",
          "name": "",
          "type": "uint256"
        }
      ],
      "stateMutability": "view",
      "type": "function"
    },
    {
      "inputs": [
        {
          "internalType": "uint256",
          "name": "groupId",
          "type": "uint256"
        },
        {
          "internalType": "uint256",
          "name": "cycleIndex",
          "type": "uint256"
        }
      ],
      "name": "GetCycleIdFromCycleIndexAndGroupId",
      "outputs": [
        {
          "internalType": "uint256",
          "name": "",
          "type": "uint256"
        }
      ],
      "stateMutability": "view",
      "type": "function"
    },
    {
      "inputs": [
        {
          "internalType": "address",
          "name": "cycleCreator",
          "type": "address"
        }
      ],
      "name": "GetCycleIndexFromCycleCreator",
      "outputs": [
        {
          "internalType": "uint256",
          "name": "",
          "type": "uint256"
        }
      ],
      "stateMutability": "view",
      "type": "function"
    },
    {
      "inputs": [
        {
          "internalType": "uint256",
          "name": "cycleIndex",
          "type": "uint256"
        },
        {
          "internalType": "address",
          "name": "cycleCreator",
          "type": "address"
        }
      ],
      "name": "GetCycleIdFromCycleIndexAndCycleCreator",
      "outputs": [
        {
          "internalType": "uint256",
          "name": "",
          "type": "uint256"
        }
      ],
      "stateMutability": "view",
      "type": "function"
    },
    {
      "inputs": [
        {
          "internalType": "address",
          "name": "member",
          "type": "address"
        }
      ],
      "name": "GetCycleIndexFromCycleMember",
      "outputs": [
        {
          "internalType": "uint256",
          "name": "",
          "type": "uint256"
        }
      ],
      "stateMutability": "view",
      "type": "function"
    },
    {
      "inputs": [
        {
          "internalType": "uint256",
          "name": "cycleIndex",
          "type": "uint256"
        },
        {
          "internalType": "address",
          "name": "member",
          "type": "address"
        }
      ],
      "name": "GetCycleIdFromCycleIndexAndCycleMember",
      "outputs": [
        {
          "internalType": "uint256",
          "name": "",
          "type": "uint256"
        }
      ],
      "stateMutability": "view",
      "type": "function"
    },
    {
      "inputs": [
        {
          "internalType": "uint256",
          "name": "esusuCycleId",
          "type": "uint256"
        }
      ],
      "name": "GetEsusuCycleBasicInformation",
      "outputs": [
        {
          "internalType": "uint256",
          "name": "CycleId",
          "type": "uint256"
        },
        {
          "internalType": "uint256",
          "name": "DepositAmount",
          "type": "uint256"
        },
        {
          "internalType": "uint256",
          "name": "CycleState",
          "type": "uint256"
        },
        {
          "internalType": "uint256",
          "name": "TotalMembers",
          "type": "uint256"
        },
        {
          "internalType": "uint256",
          "name": "MaxMembers",
          "type": "uint256"
        },
        {
          "internalType": "uint256",
          "name": "PayoutIntervalSeconds",
          "type": "uint256"
        },
        {
          "internalType": "uint256",
          "name": "GroupId",
          "type": "uint256"
        }
      ],
      "stateMutability": "view",
      "type": "function"
    },
    {
      "inputs": [
        {
          "internalType": "uint256",
          "name": "esusuCycleId",
          "type": "uint256"
        }
      ],
      "name": "GetEsusuCycleTotalShares",
      "outputs": [
        {
          "internalType": "uint256",
          "name": "TotalShares",
          "type": "uint256"
        }
      ],
      "stateMutability": "view",
      "type": "function"
    },
    {
      "inputs": [
        {
          "internalType": "uint256",
          "name": "esusuCycleId",
          "type": "uint256"
        }
      ],
      "name": "GetEsusuCycleTotalSharesAtStart",
      "outputs": [
        {
          "internalType": "uint256",
          "name": "TotalSharesAtStart",
          "type": "uint256"
        }
      ],
      "stateMutability": "view",
      "type": "function"
    },
    {
      "inputs": [
        {
          "internalType": "uint256",
          "name": "esusuCycleId",
          "type": "uint256"
        }
      ],
      "name": "GetEsusuCycleStartonlyOwnerAdapterAndAdapterDelegateContractTime",
      "outputs": [
        {
          "internalType": "uint256",
          "name": "EsusuCycleStartTime",
          "type": "uint256"
        }
      ],
      "stateMutability": "view",
      "type": "function"
    },
    {
      "inputs": [
        {
          "internalType": "uint256",
          "name": "esusuCycleId",
          "type": "uint256"
        }
      ],
      "name": "GetEsusuCyclePayoutInterval",
      "outputs": [
        {
          "internalType": "uint256",
          "name": "EsusuCyclePayoutInterval",
          "type": "uint256"
        }
      ],
      "stateMutability": "view",
      "type": "function"
    },
    {
      "inputs": [
        {
          "internalType": "uint256",
          "name": "esusuCycleId",
          "type": "uint256"
        }
      ],
      "name": "GetEsusuCycleTotalAmountDeposited",
      "outputs": [
        {
          "internalType": "uint256",
          "name": "EsusuCycleTotalAmountDeposited",
          "type": "uint256"
        }
      ],
      "stateMutability": "view",
      "type": "function"
    },
    {
      "inputs": [
        {
          "internalType": "uint256",
          "name": "esusuCycleId",
          "type": "uint256"
        }
      ],
      "name": "GetCycleOwner",
      "outputs": [
        {
          "internalType": "address",
          "name": "EsusuCycleOwner",
          "type": "address"
        }
      ],
      "stateMutability": "view",
      "type": "function"
    },
    {
      "inputs": [
        {
          "internalType": "uint256",
          "name": "esusuCycleId",
          "type": "uint256"
        }
      ],
      "name": "GetEsusuCycleDuration",
      "outputs": [
        {
          "internalType": "uint256",
          "name": "EsusuCycleDuration",
          "type": "uint256"
        }
      ],
      "stateMutability": "view",
      "type": "function"
    },
    {
      "inputs": [
        {
          "internalType": "uint256",
          "name": "esusuCycleId",
          "type": "uint256"
        }
      ],
      "name": "GetEsusuCycleTotalCapitalWithdrawn",
      "outputs": [
        {
          "internalType": "uint256",
          "name": "EsusuCycleTotalCapitalWithdrawn",
          "type": "uint256"
        }
      ],
      "stateMutability": "view",
      "type": "function"
    },
    {
      "inputs": [
        {
          "internalType": "uint256",
          "name": "esusuCycleId",
          "type": "uint256"
        }
      ],
      "name": "GetEsusuCycleTotalBeneficiaries",
      "outputs": [
        {
          "internalType": "uint256",
          "name": "EsusuCycleTotalBeneficiaries",
          "type": "uint256"
        }
      ],
      "stateMutability": "view",
      "type": "function"
    },
    {
      "inputs": [
        {
          "internalType": "uint256",
          "name": "esusuCycleId",
          "type": "uint256"
        },
        {
          "internalType": "address",
          "name": "memberAddress",
          "type": "address"
        }
      ],
      "name": "GetMemberWithdrawnCapitalInEsusuCycle",
      "outputs": [
        {
          "internalType": "uint256",
          "name": "",
          "type": "uint256"
        }
      ],
      "stateMutability": "view",
      "type": "function"
    },
    {
      "inputs": [
        {
          "internalType": "uint256",
          "name": "esusuCycleId",
          "type": "uint256"
        },
        {
          "internalType": "address",
          "name": "memberAddress",
          "type": "address"
        }
      ],
      "name": "GetMemberCycleToBeneficiaryMapping",
      "outputs": [
        {
          "internalType": "uint256",
          "name": "",
          "type": "uint256"
        }
      ],
      "stateMutability": "view",
      "type": "function"
    },
    {
      "inputs": [
        {
          "internalType": "address",
          "name": "memberAddress",
          "type": "address"
        },
        {
          "internalType": "uint256",
          "name": "esusuCycleId",
          "type": "uint256"
        }
      ],
      "name": "IsMemberInCycle",
      "outputs": [
        {
          "internalType": "bool",
          "name": "",
          "type": "bool"
        }
      ],
      "stateMutability": "view",
      "type": "function"
    },
    {
      "inputs": [
        {
          "internalType": "uint256",
          "name": "esusuCycleId",
          "type": "uint256"
        },
        {
          "internalType": "uint256",
          "name": "amount",
          "type": "uint256"
        }
      ],
      "name": "IncreaseTotalAmountDepositedInCycle",
      "outputs": [
        {
          "internalType": "uint256",
          "name": "",
          "type": "uint256"
        }
      ],
      "stateMutability": "nonpayable",
      "type": "function"
    },
    {
      "inputs": [
        {
          "internalType": "address",
          "name": "member",
          "type": "address"
        },
        {
          "internalType": "uint256",
          "name": "esusuCycleId",
          "type": "uint256"
        }
      ],
      "name": "CreateMemberAddressToMemberCycleMapping",
      "outputs": [],
      "stateMutability": "nonpayable",
      "type": "function"
    },
    {
      "inputs": [
        {
          "internalType": "uint256",
          "name": "esusuCycleId",
          "type": "uint256"
        }
      ],
      "name": "IncreaseTotalMembersInCycle",
      "outputs": [],
      "stateMutability": "nonpayable",
      "type": "function"
    },
    {
      "inputs": [
        {
          "internalType": "uint256",
          "name": "esusuCycleId",
          "type": "uint256"
        },
        {
          "internalType": "address",
          "name": "member",
          "type": "address"
        }
      ],
      "name": "CreateMemberPositionMapping",
      "outputs": [],
      "stateMutability": "nonpayable",
      "type": "function"
    },
    {
      "inputs": [
        {
          "internalType": "uint256",
          "name": "esusuCycleBalance",
          "type": "uint256"
        }
      ],
      "name": "IncreaseTotalDeposits",
      "outputs": [],
      "stateMutability": "nonpayable",
      "type": "function"
    },
    {
      "inputs": [
        {
          "internalType": "uint256",
          "name": "esusuCycleId",
          "type": "uint256"
        },
        {
          "internalType": "uint256",
          "name": "cycleStateEnum",
          "type": "uint256"
        },
        {
          "internalType": "uint256",
          "name": "toalCycleDuration",
          "type": "uint256"
        },
        {
          "internalType": "uint256",
          "name": "totalShares",
          "type": "uint256"
        },
        {
          "internalType": "uint256",
          "name": "currentTime",
          "type": "uint256"
        }
      ],
      "name": "UpdateEsusuCycleDuringStart",
      "outputs": [],
      "stateMutability": "nonpayable",
      "type": "function"
    },
    {
      "inputs": [
        {
          "internalType": "uint256",
          "name": "esusuCycleId",
          "type": "uint256"
        },
        {
          "internalType": "uint256",
          "name": "cycleStateEnum",
          "type": "uint256"
        }
      ],
      "name": "UpdateEsusuCycleState",
      "outputs": [],
      "stateMutability": "nonpayable",
      "type": "function"
    },
    {
      "inputs": [
        {
          "internalType": "address",
          "name": "memberAddress",
          "type": "address"
        },
        {
          "internalType": "uint256",
          "name": "esusuCycleId",
          "type": "uint256"
        }
      ],
      "name": "GetMemberCycleInfo",
      "outputs": [
        {
          "internalType": "uint256",
          "name": "CycleId",
          "type": "uint256"
        },
        {
          "internalType": "address",
          "name": "MemberId",
          "type": "address"
        },
        {
          "internalType": "uint256",
          "name": "TotalAmountDepositedInCycle",
          "type": "uint256"
        },
        {
          "internalType": "uint256",
          "name": "TotalPayoutReceivedInCycle",
          "type": "uint256"
        },
        {
          "internalType": "uint256",
          "name": "memberPosition",
          "type": "uint256"
        },
        {
          "internalType": "uint256",
          "name": "memberShares",
          "type": "uint256"
        }
      ],
      "stateMutability": "view",
      "type": "function"
    },
    {
      "inputs": [
        {
          "internalType": "uint256",
          "name": "esusuCycleId",
          "type": "uint256"
        },
        {
          "internalType": "address",
          "name": "member",
          "type": "address"
        }
      ],
      "name": "CreateMemberCapitalMapping",
      "outputs": [],
      "stateMutability": "nonpayable",
      "type": "function"
    },
    {
      "inputs": [
        {
          "internalType": "uint256",
          "name": "esusuCycleId",
          "type": "uint256"
        },
        {
          "internalType": "uint256",
          "name": "cycleTotalShares",
          "type": "uint256"
        },
        {
          "internalType": "uint256",
          "name": "totalCapitalWithdrawnInCycle",
          "type": "uint256"
        }
      ],
      "name": "UpdateEsusuCycleDuringCapitalWithdrawal",
      "outputs": [],
      "stateMutability": "nonpayable",
      "type": "function"
    },
    {
      "inputs": [
        {
          "internalType": "uint256",
          "name": "esusuCycleId",
          "type": "uint256"
        },
        {
          "internalType": "uint256",
          "name": "totalShares",
          "type": "uint256"
        },
        {
          "internalType": "uint256",
          "name": "totalBeneficiaries",
          "type": "uint256"
        }
      ],
      "name": "UpdateEsusuCycleDuringROIWithdrawal",
      "outputs": [],
      "stateMutability": "nonpayable",
      "type": "function"
    },
    {
      "inputs": [
        {
          "internalType": "uint256",
          "name": "esusuCycleId",
          "type": "uint256"
        },
        {
          "internalType": "address",
          "name": "memberAddress",
          "type": "address"
        },
        {
          "internalType": "uint256",
          "name": "memberROINet",
          "type": "uint256"
        }
      ],
      "name": "CreateEsusuCycleToBeneficiaryMapping",
      "outputs": [],
      "stateMutability": "nonpayable",
      "type": "function"
    },
    {
      "inputs": [
        {
          "internalType": "uint256",
          "name": "cycleId",
          "type": "uint256"
        },
        {
          "internalType": "address",
          "name": "member",
          "type": "address"
        }
      ],
      "name": "CalculateMemberWithdrawalTime",
      "outputs": [
        {
          "internalType": "uint256",
          "name": "",
          "type": "uint256"
        }
      ],
      "stateMutability": "view",
      "type": "function"
    },
    {
      "inputs": [
        {
          "internalType": "address",
          "name": "member",
          "type": "address"
        },
        {
          "internalType": "uint256",
          "name": "esusuCycleId",
          "type": "uint256"
        }
      ],
      "name": "CreateMemberToCycleIndexToCycleIDMapping",
      "outputs": [],
      "stateMutability": "nonpayable",
      "type": "function"
    },
    {
      "inputs": [],
      "name": "GetTotalDeposits",
      "outputs": [
        {
          "internalType": "uint256",
          "name": "",
          "type": "uint256"
        }
      ],
      "stateMutability": "view",
      "type": "function"
    },
    {
      "inputs": [
        {
          "internalType": "uint256",
          "name": "esusuCycleId",
          "type": "uint256"
        }
      ],
      "name": "GetEsusuCycleState",
      "outputs": [
        {
          "internalType": "uint256",
          "name": "",
          "type": "uint256"
        }
      ],
      "stateMutability": "view",
      "type": "function"
    },
    {
      "inputs": [
        {
          "internalType": "address",
          "name": "member",
          "type": "address"
        },
        {
          "internalType": "uint256",
          "name": "rewardAmount",
          "type": "uint256"
        }
      ],
      "name": "UpdateMemberToXendTokeRewardMapping",
      "outputs": [],
      "stateMutability": "nonpayable",
      "type": "function"
    },
    {
      "inputs": [
        {
          "internalType": "address",
          "name": "member",
          "type": "address"
        }
      ],
      "name": "GetMemberXendTokenReward",
      "outputs": [
        {
          "internalType": "uint256",
          "name": "",
          "type": "uint256"
        }
      ],
      "stateMutability": "nonpayable",
      "type": "function"
    }
  ],
  "bytecode": "0x60c0604052600e60808190527f44616920537461626c65636f696e00000000000000000000000000000000000060a09081526200004091600091906200006c565b5060006003553480156200005357600080fd5b5060018054600160a060020a0319163317905562000111565b828054600181600116156101000203166002900490600052602060002090601f016020900481019282601f10620000af57805160ff1916838001178555620000df565b82800160010185558215620000df579182015b82811115620000df578251825591602001919060010190620000c2565b50620000ed929150620000f1565b5090565b6200010e91905b80821115620000ed5760008155600101620000f8565b90565b612ae680620001216000396000f3fe608060405234801561001057600080fd5b5060043610610286576000357c0100000000000000000000000000000000000000000000000000000000900480635e4f0ca91161016e578063c86dde9c116100e0578063d2e29b50116100a4578063d2e29b501461089a578063d5a532d5146108b7578063da2a5ace146108e9578063e16483e614610906578063eec562c31461093f578063f06c8bbd1461096557610286565b8063c86dde9c146107ff578063ca533a3a1461081c578063cbe47cb314610848578063cc314df5146102c0578063d17e1b021461087d57610286565b8063a90e2d5a11610132578063a90e2d5a14610766578063aa6aac7314610792578063ab30d5391461079a578063b02d1ddb146107a2578063b4392797146107bf578063bce7c952146107dc57610286565b80635e4f0ca91461068b578063776cdc5b146106cb57806382da9fdf146106f1578063879ddf261461070e5780638ea3cf241461073a57610286565b8063299c88171161020757806342d96ea0116101cb57806342d96ea0146104ec5780634c215b04146105185780634e8304661461053b57806357ac7703146105b75780635a4c4da01461061e5780635c0615a81461066257610286565b8063299c8817146103f05780633409b07e1461044557806337ddff4b1461046e578063388b011c1461049a57806339bca241146104c657610286565b806313becce41161024e57806313becce4146103565780631942d571146103735780631a9db7a8146103905780631f82c5de146103bc5780632254d236146103c457610286565b8063083c2f591461028b5780630853c1f4146102c05780630d2737d5146102dd5780630d43acd31461030d57806311cbe90d14610339575b600080fd5b6102ae600480360360408110156102a157600080fd5b5080359060200135610982565b60408051918252519081900360200190f35b6102ae600480360360208110156102d657600080fd5b50356109a3565b61030b600480360360408110156102f357600080fd5b50600160a060020a0381358116916020013516610b07565b005b61030b6004803603604081101561032357600080fd5b5080359060200135600160a060020a0316610b92565b6102ae6004803603602081101561034f57600080fd5b5035610c3e565b61030b6004803603602081101561036c57600080fd5b5035610da1565b6102ae6004803603602081101561038957600080fd5b5035610e35565b6102ae600480360360408110156103a657600080fd5b5080359060200135600160a060020a0316610e5a565b6102ae610e82565b61030b600480360360408110156103da57600080fd5b50600160a060020a038135169060200135610e88565b61040d6004803603602081101561040657600080fd5b5035610f5f565b604080519788526020880196909652868601949094526060860192909252608085015260a084015260c0830152519081900360e00190f35b61030b6004803603606081101561045b57600080fd5b5080359060208101359060400135611109565b61030b6004803603604081101561048457600080fd5b5080359060200135600160a060020a03166111a2565b6102ae600480360360408110156104b057600080fd5b5080359060200135600160a060020a031661124e565b6102ae600480360360208110156104dc57600080fd5b5035600160a060020a0316611273565b6102ae6004803603604081101561050257600080fd5b5080359060200135600160a060020a031661128e565b6102ae6004803603604081101561052e57600080fd5b50803590602001356112b3565b6105586004803603602081101561055157600080fd5b50356113be565b604080519c8d5260208d019b909b528b8b019990995260608b019790975260808a019590955260a089019390935260c088019190915260e087015261010086015261012085015261014084015261016083015251908190036101800190f35b6105e3600480360360408110156105cd57600080fd5b50600160a060020a03813516906020013561159e565b60408051968752600160a060020a039095166020870152858501939093526060850191909152608084015260a0830152519081900360c00190f35b61030b600480360360c081101561063457600080fd5b50803590602081013590604081013590606081013590600160a060020a036080820135169060a0013561165e565b61030b6004803603606081101561067857600080fd5b5080359060208101359060400135611829565b6106b7600480360360408110156106a157600080fd5b50600160a060020a0381351690602001356118c0565b604080519115158252519081900360200190f35b6102ae600480360360208110156106e157600080fd5b5035600160a060020a03166118fe565b6102ae6004803603602081101561070757600080fd5b5035611919565b6102ae6004803603604081101561072457600080fd5b5080359060200135600160a060020a0316611a7d565b61030b6004803603604081101561075057600080fd5b50600160a060020a038135169060200135611aef565b61030b6004803603604081101561077c57600080fd5b50600160a060020a038135169060200135611bb2565b61030b611cde565b6102ae611d63565b6102ae600480360360208110156107b857600080fd5b5035611d69565b6102ae600480360360208110156107d557600080fd5b5035611ecd565b61030b600480360360408110156107f257600080fd5b508035906020013561202e565b61030b6004803603602081101561081557600080fd5b50356120e4565b6102ae6004803603604081101561083257600080fd5b5080359060200135600160a060020a0316612177565b61030b600480360360a081101561085e57600080fd5b508035906020810135906040810135906060810135906080013561219f565b6102ae6004803603602081101561089357600080fd5b5035612290565b6102ae600480360360208110156108b057600080fd5b50356123f5565b61030b600480360360608110156108cd57600080fd5b50803590600160a060020a036020820135169060400135612559565b6102ae600480360360208110156108ff57600080fd5b50356125f9565b6109236004803603602081101561091c57600080fd5b503561260b565b60408051600160a060020a039092168252519081900360200190f35b6102ae6004803603602081101561095557600080fd5b5035600160a060020a0316612770565b6102ae6004803603602081101561097b57600080fd5b503561278b565b6000828152600a602090815260408083208484529091529020545b92915050565b600080821180156109b657506003548211155b6109f45760405160e560020a62461bcd028152600401808060200182810382526030815260200180612a406030913960400191505060405180910390fd5b6109fc6129af565b60008381526004602081815260409283902083516102008101855281548152600182015492810192909252600281015493820193909352600383015460608201529082015460808201526005820154600160a060020a031660a0820152600682015460c0820152600782015460e0820152600882015490919061010083019060ff168015610a8657fe5b8015610a8e57fe5b81526020016008820160019054906101000a900460ff166003811115610ab057fe5b6003811115610abb57fe5b815260098201546020820152600a8201546040820152600b8201546060820152600c8201546080820152600d82015460a0820152600e9091015460c09091015261018001519392505050565b600154600160a060020a03163314610b57576040805160e560020a62461bcd02815260206004820152601f6024820152600080516020612a70833981519152604482015290519081900360640190fd5b60118054600160a060020a0393841673ffffffffffffffffffffffffffffffffffffffff199182161790915560128054929093169116179055565b600154600160a060020a0316331480610bb55750601254600160a060020a031633145b80610bca5750601154600160a060020a031633145b610c0c576040805160e560020a62461bcd02815260206004820152601f6024820152600080516020612a70833981519152604482015290519081900360640190fd5b60009182526006602090815260408084206004835281852060030154600160a060020a03909416855290915290912055565b60008082118015610c5157506003548211155b610c8f5760405160e560020a62461bcd028152600401808060200182810382526030815260200180612a406030913960400191505060405180910390fd5b610c976129af565b60008381526004602081815260409283902083516102008101855281548152600182015492810192909252600281015493820193909352600383015460608201529082015460808201526005820154600160a060020a031660a0820152600682015460c0820152600782015460e0820152600882015490919061010083019060ff168015610d2157fe5b8015610d2957fe5b81526020016008820160019054906101000a900460ff166003811115610d4b57fe5b6003811115610d5657fe5b815260098201546020820152600a8201546040820152600b8201546060820152600c8201546080820152600d82015460a0820152600e9091015460c09091015260e001519392505050565b600154600160a060020a0316331480610dc45750601254600160a060020a031633145b80610dd95750601154600160a060020a031633145b610e1b576040805160e560020a62461bcd02815260206004820152601f6024820152600080516020612a70833981519152604482015290519081900360640190fd5b600090815260046020526040902060030180546001019055565b600081815260046020526040812060080154610100900460ff16600381111561099d57fe5b6000918252600860209081526040808420600160a060020a0393909316845291905290205490565b60105490565b600154600160a060020a0316331480610eab5750601254600160a060020a031633145b80610ec05750601154600160a060020a031633145b610f02576040805160e560020a62461bcd02815260206004820152601f6024820152600080516020612a70833981519152604482015290519081900360640190fd5b600160a060020a0382166000908152600d6020526040902054610f2c90600163ffffffff6128ef16565b600160a060020a039092166000908152600d60209081526040808320859055600e82528083209483529390529190912055565b60008060008060008060008088118015610f7b57506003548811155b610fb95760405160e560020a62461bcd028152600401808060200182810382526030815260200180612a406030913960400191505060405180910390fd5b610fc16129af565b60008981526004602081815260409283902083516102008101855281548152600182015492810192909252600281015493820193909352600383015460608201529082015460808201526005820154600160a060020a031660a0820152600682015460c0820152600782015460e0820152600882015490919061010083019060ff16801561104b57fe5b801561105357fe5b81526020016008820160019054906101000a900460ff16600381111561107557fe5b600381111561108057fe5b815260200160098201548152602001600a8201548152602001600b8201548152602001600c8201548152602001600d8201548152602001600e8201548152505090508060000151816040015182610120015160038111156110dd57fe5b60608401516101c085015160c0860151602090960151949e939d50919b50995097509195509350915050565b600154600160a060020a031633148061112c5750601254600160a060020a031633145b806111415750601154600160a060020a031633145b611183576040805160e560020a62461bcd02815260206004820152601f6024820152600080516020612a70833981519152604482015290519081900360640190fd5b600092835260046020526040909220600a810192909255600c90910155565b600154600160a060020a03163314806111c55750601254600160a060020a031633145b806111da5750601154600160a060020a031633145b61121c576040805160e560020a62461bcd02815260206004820152601f6024820152600080516020612a70833981519152604482015290519081900360640190fd5b60009182526008602090815260408084206004835281852060020154600160a060020a03909416855290915290912055565b600160a060020a03166000908152600c60209081526040808320938352929052205490565b600160a060020a03166000908152600b602052604090205490565b600160a060020a03166000908152600e60209081526040808320938352929052205490565b600154600090600160a060020a03163314806112d95750601254600160a060020a031633145b806112ee5750601154600160a060020a031633145b611330576040805160e560020a62461bcd02815260206004820152601f6024820152600080516020612a70833981519152604482015290519081900360640190fd5b60008311801561134257506003548311155b6113805760405160e560020a62461bcd028152600401808060200182810382526030815260200180612a406030913960400191505060405180910390fd5b6000838152600460205260409020600901546113a2908363ffffffff6128ef16565b6000848152600460205260409020600901819055905092915050565b60008060008060008060008060008060008060008d1180156113e257506003548d11155b6114205760405160e560020a62461bcd028152600401808060200182810382526030815260200180612a406030913960400191505060405180910390fd5b6114286129af565b60008e81526004602081815260409283902083516102008101855281548152600182015492810192909252600281015493820193909352600383015460608201529082015460808201526005820154600160a060020a031660a0820152600682015460c0820152600782015460e0820152600882015490919061010083019060ff1680156114b257fe5b80156114ba57fe5b81526020016008820160019054906101000a900460ff1660038111156114dc57fe5b60038111156114e757fe5b815260200160098201548152602001600a8201548152602001600b8201548152602001600c8201548152602001600d8201548152602001600e820154815250509050806000015181604001518260c00151836101200151600381111561154957fe5b8460600151856101400151866101a001518760e001518861016001518961018001518a608001518b6101c001519c509c509c509c509c509c509c509c509c509c509c509c505091939597999b5091939597999b565b6000806000806000806000871180156115b957506003548711155b6115f75760405160e560020a62461bcd028152600401808060200182810382526030815260200180612a406030913960400191505060405180910390fd5b50505050600160a060020a039384166000818152600560209081526040808320878452600683528184208184528285208054600182015460028301546003840154998952938752948720549a90965291909352600401549298971696909592945091925090565b600154600160a060020a03163314806116815750601254600160a060020a031633145b806116965750601154600160a060020a031633145b6116d8576040805160e560020a62461bcd02815260206004820152601f6024820152600080516020612a70833981519152604482015290519081900360640190fd5b600380546001908101808355600081815260046020908152604080832093845560029093018a905584548252828220600601899055845482528282206008908101805460ff191690558554835283832001805461ff001916905584548252828220600501805473ffffffffffffffffffffffffffffffffffffffff1916600160a060020a03891617905584548252828220600d0186905584548252828220600b018890559354815281812083018a905589815260099093529091205461179d916128ef565b6000878152600960209081526040808320849055600a825280832060035485855281845282852055600160a060020a0387168452600b909252909120546117eb90600163ffffffff6128ef16565b600160a060020a039094166000908152600b60209081526040808320879055600c825280832060035497845290915290209390935550505050505050565b600154600160a060020a031633148061184c5750601254600160a060020a031633145b806118615750601154600160a060020a031633145b6118a3576040805160e560020a62461bcd02815260206004820152601f6024820152600080516020612a70833981519152604482015290519081900360640190fd5b600092835260046020819052604090932092830155600c90910155565b600160a060020a038216600090815260056020908152604080832084845291829052822054156118f457600191505061099d565b600091505061099d565b600160a060020a03166000908152600d602052604090205490565b6000808211801561192c57506003548211155b61196a5760405160e560020a62461bcd028152600401808060200182810382526030815260200180612a406030913960400191505060405180910390fd5b6119726129af565b60008381526004602081815260409283902083516102008101855281548152600182015492810192909252600281015493820193909352600383015460608201529082015460808201526005820154600160a060020a031660a0820152600682015460c0820152600782015460e0820152600882015490919061010083019060ff1680156119fc57fe5b8015611a0457fe5b81526020016008820160019054906101000a900460ff166003811115611a2657fe5b6003811115611a3157fe5b815260098201546020820152600a8201546040820152600b8201546060820152600c8201546080820152600d82015460a0820152600e9091015460c0909101526101a001519392505050565b6000828152600660208181526040808420600160a060020a0386168552808352818520548786526004909352908420909201548390611ae590611ac790849063ffffffff61295316565b6000888152600460205260409020600b01549063ffffffff6128ef16565b9695505050505050565b600154600160a060020a0316331480611b125750601254600160a060020a031633145b80611b275750601154600160a060020a031633145b611b69576040805160e560020a62461bcd02815260206004820152601f6024820152600080516020612a70833981519152604482015290519081900360640190fd5b600160a060020a0382166000908152600f6020526040902054611b92908263ffffffff6128ef16565b600160a060020a039092166000908152600f602052604090209190915550565b600154600160a060020a0316331480611bd55750601254600160a060020a031633145b80611bea5750601154600160a060020a031633145b611c2c576040805160e560020a62461bcd02815260206004820152601f6024820152600080516020612a70833981519152604482015290519081900360640190fd5b600160a060020a038216600081815260056020908152604080832085845280835281842086815560018101805473ffffffffffffffffffffffffffffffffffffffff191690961790955560048352922060029081015491839052909201549091611c9c919063ffffffff6128ef16565b60008381526020839052604081206002810192909255600390910154611cc79163ffffffff6128ef16565b600092835260209190915260409091206003015550565b600154600160a060020a0316331480611d015750601254600160a060020a031633145b80611d165750601154600160a060020a031633145b611d58576040805160e560020a62461bcd02815260206004820152601f6024820152600080516020612a70833981519152604482015290519081900360640190fd5b600380546001019055565b60035490565b60008082118015611d7c57506003548211155b611dba5760405160e560020a62461bcd028152600401808060200182810382526030815260200180612a406030913960400191505060405180910390fd5b611dc26129af565b60008381526004602081815260409283902083516102008101855281548152600182015492810192909252600281015493820193909352600383015460608201529082015460808201526005820154600160a060020a031660a0820152600682015460c0820152600782015460e0820152600882015490919061010083019060ff168015611e4c57fe5b8015611e5457fe5b81526020016008820160019054906101000a900460ff166003811115611e7657fe5b6003811115611e8157fe5b815260098201546020820152600a8201546040820152600b8201546060820152600c8201546080820152600d82015460a0820152600e9091015460c09091015261016001519392505050565b60008082118015611ee057506003548211155b611f1e5760405160e560020a62461bcd028152600401808060200182810382526030815260200180612a406030913960400191505060405180910390fd5b611f266129af565b60008381526004602081815260409283902083516102008101855281548152600182015492810192909252600281015493820193909352600383015460608201529082015460808201526005820154600160a060020a031660a0820152600682015460c0820152600782015460e0820152600882015490919061010083019060ff168015611fb057fe5b8015611fb857fe5b81526020016008820160019054906101000a900460ff166003811115611fda57fe5b6003811115611fe557fe5b815260098201546020820152600a8201546040820152600b8201546060820152600c8201546080820152600d82015460a0820152600e9091015460c09182015201519392505050565b600154600160a060020a03163314806120515750601254600160a060020a031633145b806120665750601154600160a060020a031633145b6120a8576040805160e560020a62461bcd02815260206004820152601f6024820152600080516020612a70833981519152604482015290519081900360640190fd5b8060038111156120b457fe5b6000838152600460205260409020600801805461ff0019166101008360038111156120db57fe5b02179055505050565b600154600160a060020a03163314806121075750601254600160a060020a031633145b8061211c5750601154600160a060020a031633145b61215e576040805160e560020a62461bcd02815260206004820152601f6024820152600080516020612a70833981519152604482015290519081900360640190fd5b601054612171908263ffffffff6128ef16565b60105550565b6000918252600760209081526040808420600160a060020a0393909316845291905290205490565b600154600160a060020a03163314806121c25750601254600160a060020a031633145b806121d75750601154600160a060020a031633145b612219576040805160e560020a62461bcd02815260206004820152601f6024820152600080516020612a70833981519152604482015290519081900360640190fd5b600085815260046020526040902060070183905583600381111561223957fe5b6000868152600460205260409020600801805461ff00191661010083600381111561226057fe5b0217905550600094855260046020526040909420600c8101829055600b810194909455600e909301929092555050565b600080821180156122a357506003548211155b6122e15760405160e560020a62461bcd028152600401808060200182810382526030815260200180612a406030913960400191505060405180910390fd5b6122e96129af565b60008381526004602081815260409283902083516102008101855281548152600182015492810192909252600281015493820193909352600383015460608201529082015460808201526005820154600160a060020a031660a0820152600682015460c0820152600782015460e0820152600882015490919061010083019060ff16801561237357fe5b801561237b57fe5b81526020016008820160019054906101000a900460ff16600381111561239d57fe5b60038111156123a857fe5b815260098201546020820152600a8201546040820152600b8201546060820152600c820154608080830191909152600d83015460a0830152600e9092015460c09091015201519392505050565b6000808211801561240857506003548211155b6124465760405160e560020a62461bcd028152600401808060200182810382526030815260200180612a406030913960400191505060405180910390fd5b61244e6129af565b60008381526004602081815260409283902083516102008101855281548152600182015492810192909252600281015493820193909352600383015460608201529082015460808201526005820154600160a060020a031660a0820152600682015460c0820152600782015460e0820152600882015490919061010083019060ff1680156124d857fe5b80156124e057fe5b81526020016008820160019054906101000a900460ff16600381111561250257fe5b600381111561250d57fe5b815260098201546020820152600a8201546040820152600b8201546060820152600c8201546080820152600d82015460a0820152600e9091015460c0909101526101e001519392505050565b600154600160a060020a031633148061257c5750601254600160a060020a031633145b806125915750601154600160a060020a031633145b6125d3576040805160e560020a62461bcd02815260206004820152601f6024820152600080516020612a70833981519152604482015290519081900360640190fd5b6000928352600760209081526040808520600160a060020a039094168552929052912055565b60009081526009602052604090205490565b6000808211801561261e57506003548211155b61265c5760405160e560020a62461bcd028152600401808060200182810382526030815260200180612a406030913960400191505060405180910390fd5b6126646129af565b60008381526004602081815260409283902083516102008101855281548152600182015492810192909252600281015493820193909352600383015460608201529082015460808201526005820154600160a060020a031660a0820152600682015460c0820152600782015460e0820152600882015490919061010083019060ff1680156126ee57fe5b80156126f657fe5b81526020016008820160019054906101000a900460ff16600381111561271857fe5b600381111561272357fe5b815260098201546020820152600a8201546040820152600b8201546060820152600c8201546080820152600d82015460a080830191909152600e9092015460c09091015201519392505050565b600160a060020a03166000908152600f602052604090205490565b6000808211801561279e57506003548211155b6127dc5760405160e560020a62461bcd028152600401808060200182810382526030815260200180612a406030913960400191505060405180910390fd5b6127e46129af565b60008381526004602081815260409283902083516102008101855281548152600182015492810192909252600281015493820193909352600383015460608201529082015460808201526005820154600160a060020a031660a0820152600682015460c0820152600782015460e0820152600882015490919061010083019060ff16801561286e57fe5b801561287657fe5b81526020016008820160019054906101000a900460ff16600381111561289857fe5b60038111156128a357fe5b815260098201546020820152600a8201546040820152600b8201546060820152600c8201546080820152600d82015460a0820152600e9091015460c09091015261014001519392505050565b60008282018381101561294c576040805160e560020a62461bcd02815260206004820152601b60248201527f536166654d6174683a206164646974696f6e206f766572666c6f770000000000604482015290519081900360640190fd5b9392505050565b6000826129625750600061099d565b8282028284828161296f57fe5b041461294c5760405160e560020a62461bcd028152600401808060200182810382526021815260200180612a906021913960400191505060405180910390fd5b60405180610200016040528060008152602001600081526020016000815260200160008152602001600081526020016000600160a060020a031681526020016000815260200160008152602001600080811115612a0857fe5b815260200160008152602001600081526020016000815260200160008152602001600081526020016000815260200160008152509056fe4379636c65204944206d7573742062652077697468696e2076616c69642045737573754379636c6549642072616e6765556e617574686f72697a65642061636365737320746f20636f6e747261637400536166654d6174683a206d756c7469706c69636174696f6e206f766572666c6f77a264697066735822122018f669cd0fe45391ff3151a5c443ee35eb5437de0420be087ce4d3a6efc3cd1464736f6c63430006060033",
  "immutableReferences": {},
  "source": "\npragma solidity >=0.6.6;\n\nimport \"./SafeMath.sol\";\n\n\ncontract EsusuStorage {\n\n    using SafeMath for uint256;\n\n    /*  Enum definitions */\n    enum CurrencyEnum{\n        Dai\n    }\n\n    enum CycleStateEnum{\n        Idle,               // Cycle has just been created and members can join in this state\n        Active,             // Cycle has started and members can take their ROI\n        Expired,            // Cycle Duration has elapsed and members can withdraw their capital as well as ROI\n        Inactive            // Total beneficiaries is equal to Total members, so all members have withdrawn their Capital and ROI\n    }\n\n    /*  Struct Definitions */\n    struct EsusuCycle{\n        uint CycleId;\n        uint GroupId;                   //  Group this Esusu Cycle belongs to\n        uint DepositAmount;\n        uint TotalMembers;\n        uint TotalBeneficiaries;        //  This is the total number of members that have withdrawn their ROI\n        address Owner;                  //  This is the creator of the cycle who is also the creator of the group\n        uint PayoutIntervalSeconds;     //  Time each member receives overall ROI within one Esusu Cycle in seconds\n        uint TotalCycleDuration;        //  The total time it will take for all users to be paid which is (number of members * payout interval)\n        CurrencyEnum Currency;          //  Currency supported in this Esusu Cycle\n        CycleStateEnum CycleState;      //  The current state of the Esusu Cycle\n        uint TotalAmountDeposited;   // Total  Dai Deposited\n        uint TotalCapitalWithdrawn;     // Total Capital In Dai Withdrawn\n        uint CycleStartTime;            //  Time which the cycle will start when it has elapsed. Anyone can start cycle after this time has elapsed\n        uint TotalShares;               //  Total yDai Shares\n        uint MaxMembers;                //  Maximum number of members that can join this esusu cycle\n        uint TotalSharesAtStart;        //  Total shares at the start of the cycle, will use this to estimate the number of shares that belongs to each member\n    }\n\n    struct Member{\n        address MemberId;\n        uint TotalDeposited;\n        uint TotalPayoutReceived;\n    }\n\n    struct MemberCycle{\n        uint CycleId;\n        address MemberId;\n        uint TotalAmountDepositedInCycle;\n        uint TotalPayoutReceivedInCycle;\n        uint MemberShares;\n    }\n\n        /*  Model definition starts */\n    string Dai = \"Dai Stablecoin\";\n\n\n    /* Model definition ends */\n\n    //  Member variables\n    address _owner;\n\n    string _feeRuleKey;\n\n    uint EsusuCycleId = 0;\n\n\n    mapping(uint => EsusuCycle) EsusuCycleMapping;\n\n\n    mapping(address=>mapping(uint=>MemberCycle)) MemberAddressToMemberCycleMapping;\n\n    mapping(uint=>mapping(address=>uint)) CycleToMemberPositionMapping;   //  This tracks position of the  member in an Esusu Cycle\n\n    mapping(uint=>mapping(address=> uint)) CycleToBeneficiaryMapping;  // This tracks members that have received overall ROI and amount received within an Esusu Cycle\n\n    mapping(uint=>mapping(address=> uint)) CycleToMemberWithdrawnCapitalMapping;    // This tracks members that have withdrawn their capital and the amount withdrawn\n\n    mapping(uint=>uint) GroupToCycleIndexMapping; //  This tracks the total number of cycles that belong to a group\n\n    mapping(uint=>mapping(uint=>uint)) GroupToCycleIndexToCycleIDMapping; //  This maps the Group to the cycle index and then the cycle ID\n\n    mapping(address=>uint) OwnerToCycleIndexMapping; //  This tracks the number of cycles by index created by an owner\n\n    mapping(address=>mapping(uint=>uint)) OwnerToCycleIndexToCycleIDMapping; //  This maps the owner to the cycle index and then to the cycle ID\n\n    mapping(address=>uint) MemberToCycleIndexMapping; //  This tracks the number of cycles by index created by a member\n\n    mapping(address=>mapping(uint=>uint)) MemberToCycleIndexToCycleIDMapping; //  This maps the member to the cycle index and then to the cycle ID\n\n    mapping(address=>uint) MemberToXendTokenRewardMapping;  //  This tracks the total amount of xend token rewards a member has received\n\n    uint TotalDeposits; //  This holds all the dai amounts users have deposited in this contract\n\n\n    address  _adapterContract;\n    address _adapterDelegateContract;\n\n    constructor () public {\n        _owner = msg.sender;\n    }\n\n    function UpdateAdapterAndAdapterDelegateAddresses(address adapterContract, address adapterDelegateContract) onlyOwner external {\n            _adapterContract = adapterContract;\n            _adapterDelegateContract = adapterDelegateContract;\n    }\n\n    function GetEsusuCycleId() external view returns (uint){\n        return EsusuCycleId;\n    }\n\n    function IncrementEsusuCycleId() external onlyOwnerAdapterAndAdapterDelegateContract {\n        EsusuCycleId += 1;\n    }\n\n    function CreateEsusuCycleMapping(uint groupId, uint depositAmount, uint payoutIntervalSeconds,uint startTimeInSeconds, address owner, uint maxMembers) external onlyOwnerAdapterAndAdapterDelegateContract {\n\n        EsusuCycleId += 1;\n\n        EsusuCycleMapping[EsusuCycleId].CycleId = EsusuCycleId;\n        EsusuCycleMapping[EsusuCycleId].DepositAmount = depositAmount;\n        EsusuCycleMapping[EsusuCycleId].PayoutIntervalSeconds = payoutIntervalSeconds;\n        EsusuCycleMapping[EsusuCycleId].Currency = CurrencyEnum.Dai;\n        EsusuCycleMapping[EsusuCycleId].CycleState = CycleStateEnum.Idle;\n        EsusuCycleMapping[EsusuCycleId].Owner = owner;\n        EsusuCycleMapping[EsusuCycleId].MaxMembers = maxMembers;\n\n\n        //  Set the Cycle start time\n        EsusuCycleMapping[EsusuCycleId].CycleStartTime = startTimeInSeconds;\n\n         //  Assign groupId\n        EsusuCycleMapping[EsusuCycleId].GroupId = groupId;\n        GroupToCycleIndexMapping[groupId] = GroupToCycleIndexMapping[groupId].add(1); //  Increase the cycle index in the group by 1\n\n        uint cycleIndex = GroupToCycleIndexMapping[groupId];\n        mapping(uint=>uint) storage cylceIndexToCycleId = GroupToCycleIndexToCycleIDMapping[groupId];\n        cylceIndexToCycleId[cycleIndex] = EsusuCycleId;\n\n        // Increase the number of cycles created by the owner\n        OwnerToCycleIndexMapping[owner] = OwnerToCycleIndexMapping[owner].add(1);\n\n        uint ownerCreatedCycleIndex = OwnerToCycleIndexMapping[owner];\n        mapping(uint=>uint) storage ownerCreatedCylceIndexToCycleId = OwnerToCycleIndexToCycleIDMapping[owner];\n        ownerCreatedCylceIndexToCycleId[ownerCreatedCycleIndex] = EsusuCycleId;\n    }\n\n    function GetEsusuCycle(uint esusuCycleId) external view returns(uint CycleId, uint DepositAmount,\n                                                            uint PayoutIntervalSeconds, uint CycleState,\n                                                            uint TotalMembers, uint TotalAmountDeposited, uint TotalShares,\n                                                            uint TotalCycleDurationInSeconds, uint TotalCapitalWithdrawn, uint CycleStartTimeInSeconds,\n                                                            uint TotalBeneficiaries, uint MaxMembers){\n\n        require(esusuCycleId > 0 && esusuCycleId <= EsusuCycleId, \"Cycle ID must be within valid EsusuCycleId range\");\n\n        EsusuCycle memory cycle = EsusuCycleMapping[esusuCycleId];\n\n        return (cycle.CycleId, cycle.DepositAmount,  cycle.PayoutIntervalSeconds,\n                uint256(cycle.CycleState),\n                cycle.TotalMembers, cycle.TotalAmountDeposited, cycle.TotalShares,\n                cycle.TotalCycleDuration, cycle.TotalCapitalWithdrawn, cycle.CycleStartTime,\n                cycle.TotalBeneficiaries, cycle.MaxMembers);\n\n    }\n\n\n    function GetEsusuCycleStartTime(uint esusuCycleId)external view returns(uint EsusuCycleStartTime){\n\n        require(esusuCycleId > 0 && esusuCycleId <= EsusuCycleId, \"Cycle ID must be within valid EsusuCycleId range\");\n\n        EsusuCycle memory cycle = EsusuCycleMapping[esusuCycleId];\n\n        return (cycle.CycleStartTime);\n    }\n\n\n    function GetCycleIndexFromGroupId(uint groupId) external view returns(uint){\n\n        return GroupToCycleIndexMapping[groupId];\n    }\n\n    function GetCycleIdFromCycleIndexAndGroupId(uint groupId, uint cycleIndex) external view returns(uint){\n\n      mapping(uint=>uint) storage cylceIndexToCycleId = GroupToCycleIndexToCycleIDMapping[groupId];\n\n      return cylceIndexToCycleId[cycleIndex];\n    }\n\n    function GetCycleIndexFromCycleCreator(address cycleCreator) external view returns(uint){\n\n        return OwnerToCycleIndexMapping[cycleCreator];\n    }\n\n    function GetCycleIdFromCycleIndexAndCycleCreator(uint cycleIndex, address cycleCreator) external view returns(uint){\n\n      mapping(uint=>uint) storage ownerCreatedCylceIndexToCycleId = OwnerToCycleIndexToCycleIDMapping[cycleCreator];\n\n      return ownerCreatedCylceIndexToCycleId[cycleIndex];\n    }\n\n    function GetCycleIndexFromCycleMember(address member) external view returns(uint){\n\n        return MemberToCycleIndexMapping[member];\n    }\n\n    function GetCycleIdFromCycleIndexAndCycleMember(uint cycleIndex, address member) external view returns(uint){\n\n      mapping(uint=>uint) storage memberCreatedCylceIndexToCycleId = MemberToCycleIndexToCycleIDMapping[member];\n\n      return memberCreatedCylceIndexToCycleId[cycleIndex];\n    }\n\n\n\n    function GetEsusuCycleBasicInformation(uint esusuCycleId) external view returns(uint CycleId, uint DepositAmount, uint CycleState,uint TotalMembers,uint MaxMembers, uint PayoutIntervalSeconds, uint GroupId){\n\n        require(esusuCycleId > 0 && esusuCycleId <= EsusuCycleId, \"Cycle ID must be within valid EsusuCycleId range\");\n\n        EsusuCycle memory cycle = EsusuCycleMapping[esusuCycleId];\n\n        return (cycle.CycleId, cycle.DepositAmount,\n                uint256(cycle.CycleState),\n                cycle.TotalMembers, cycle.MaxMembers, cycle.PayoutIntervalSeconds,cycle.GroupId);\n\n    }\n\n    function GetEsusuCycleTotalShares(uint esusuCycleId) external view returns(uint TotalShares){\n\n        require(esusuCycleId > 0 && esusuCycleId <= EsusuCycleId, \"Cycle ID must be within valid EsusuCycleId range\");\n\n        EsusuCycle memory cycle = EsusuCycleMapping[esusuCycleId];\n\n        return (cycle.TotalShares);\n    }\n    function GetEsusuCycleTotalSharesAtStart(uint esusuCycleId) external view returns(uint TotalSharesAtStart){\n\n        require(esusuCycleId > 0 && esusuCycleId <= EsusuCycleId, \"Cycle ID must be within valid EsusuCycleId range\");\n\n        EsusuCycle memory cycle = EsusuCycleMapping[esusuCycleId];\n\n        return (cycle.TotalSharesAtStart);\n    }\n    function GetEsusuCycleStartonlyOwnerAdapterAndAdapterDelegateContractTime(uint esusuCycleId)external view returns(uint EsusuCycleStartTime){\n\n        require(esusuCycleId > 0 && esusuCycleId <= EsusuCycleId, \"Cycle ID must be within valid EsusuCycleId range\");\n\n        EsusuCycle memory cycle = EsusuCycleMapping[esusuCycleId];\n\n        return (cycle.CycleStartTime);\n    }\n\n\n    function GetEsusuCyclePayoutInterval(uint esusuCycleId)external view returns(uint EsusuCyclePayoutInterval){\n\n        require(esusuCycleId > 0 && esusuCycleId <= EsusuCycleId, \"Cycle ID must be within valid EsusuCycleId range\");\n\n        EsusuCycle memory cycle = EsusuCycleMapping[esusuCycleId];\n\n        return (cycle.PayoutIntervalSeconds);\n    }\n\n    function GetEsusuCycleTotalAmountDeposited(uint esusuCycleId)external view returns(uint EsusuCycleTotalAmountDeposited){\n\n        require(esusuCycleId > 0 && esusuCycleId <= EsusuCycleId, \"Cycle ID must be within valid EsusuCycleId range\");\n\n        EsusuCycle memory cycle = EsusuCycleMapping[esusuCycleId];\n\n        return (cycle.TotalAmountDeposited);\n    }\n\n    function GetCycleOwner(uint esusuCycleId)external view returns(address EsusuCycleOwner){\n\n        require(esusuCycleId > 0 && esusuCycleId <= EsusuCycleId, \"Cycle ID must be within valid EsusuCycleId range\");\n\n        EsusuCycle memory cycle = EsusuCycleMapping[esusuCycleId];\n\n        return (cycle.Owner);\n\n    }\n\n    function GetEsusuCycleDuration(uint esusuCycleId)external view returns(uint EsusuCycleDuration){\n        require(esusuCycleId > 0 && esusuCycleId <= EsusuCycleId, \"Cycle ID must be within valid EsusuCycleId range\");\n\n        EsusuCycle memory cycle = EsusuCycleMapping[esusuCycleId];\n\n        return (cycle.TotalCycleDuration);\n    }\n\n    function GetEsusuCycleTotalCapitalWithdrawn(uint esusuCycleId)external view returns(uint EsusuCycleTotalCapitalWithdrawn){\n\n        require(esusuCycleId > 0 && esusuCycleId <= EsusuCycleId, \"Cycle ID must be within valid EsusuCycleId range\");\n\n        EsusuCycle memory cycle = EsusuCycleMapping[esusuCycleId];\n\n        return (cycle.TotalCapitalWithdrawn);\n    }\n\n    function GetEsusuCycleTotalBeneficiaries(uint esusuCycleId)external view returns(uint EsusuCycleTotalBeneficiaries){\n\n        require(esusuCycleId > 0 && esusuCycleId <= EsusuCycleId, \"Cycle ID must be within valid EsusuCycleId range\");\n\n        EsusuCycle memory cycle = EsusuCycleMapping[esusuCycleId];\n\n        return (cycle.TotalBeneficiaries);\n    }\n    \n    function GetMemberWithdrawnCapitalInEsusuCycle(uint esusuCycleId,address memberAddress) external view returns (uint) {\n\n        mapping(address=>uint) storage memberWithdrawnCapitalMapping =  CycleToMemberWithdrawnCapitalMapping[esusuCycleId];\n\n        uint amount = memberWithdrawnCapitalMapping[memberAddress];\n\n        return amount;\n    }\n\n    function GetMemberCycleToBeneficiaryMapping(uint esusuCycleId,address memberAddress) external view returns(uint){\n\n        mapping(address=>uint) storage beneficiaryMapping =  CycleToBeneficiaryMapping[esusuCycleId];\n\n        uint amount = beneficiaryMapping[memberAddress];\n\n        return amount;\n    }\n\n    function IsMemberInCycle(address memberAddress,uint esusuCycleId ) external view returns(bool){\n\n        mapping(uint=>MemberCycle) storage memberCycleMapping =  MemberAddressToMemberCycleMapping[memberAddress];\n\n        //  If member is in cycle, the cycle ID should be greater than 0\n        if(memberCycleMapping[esusuCycleId].CycleId > 0){\n\n            return true;\n        }else{\n            return false;\n        }\n    }\n\n    function IncreaseTotalAmountDepositedInCycle(uint esusuCycleId, uint amount) external onlyOwnerAdapterAndAdapterDelegateContract returns (uint){\n\n        require(esusuCycleId > 0 && esusuCycleId <= EsusuCycleId, \"Cycle ID must be within valid EsusuCycleId range\");\n\n        EsusuCycleMapping[esusuCycleId].TotalAmountDeposited =  EsusuCycleMapping[esusuCycleId].TotalAmountDeposited.add(amount);\n\n        return EsusuCycleMapping[esusuCycleId].TotalAmountDeposited;\n    }\n\n    function CreateMemberAddressToMemberCycleMapping(address member,uint esusuCycleId) external onlyOwnerAdapterAndAdapterDelegateContract{\n\n        //  Increment the total deposited amount for the member cycle struct\n        mapping(uint=>MemberCycle) storage memberCycleMapping =  MemberAddressToMemberCycleMapping[member];\n\n\n        memberCycleMapping[esusuCycleId].CycleId = esusuCycleId;\n        memberCycleMapping[esusuCycleId].MemberId = member;\n        memberCycleMapping[esusuCycleId].TotalAmountDepositedInCycle = memberCycleMapping[esusuCycleId].TotalAmountDepositedInCycle.add( EsusuCycleMapping[esusuCycleId].DepositAmount);\n        memberCycleMapping[esusuCycleId].TotalPayoutReceivedInCycle = memberCycleMapping[esusuCycleId].TotalPayoutReceivedInCycle.add(0);\n    }\n\n    function IncreaseTotalMembersInCycle(uint esusuCycleId) external onlyOwnerAdapterAndAdapterDelegateContract{\n        //  Increase TotalMembers count by 1\n\n        EsusuCycleMapping[esusuCycleId].TotalMembers +=1;\n    }\n\n    function CreateMemberPositionMapping(uint esusuCycleId, address member) onlyOwnerAdapterAndAdapterDelegateContract external{\n\n        mapping(address=>uint) storage memberPositionMapping =  CycleToMemberPositionMapping[esusuCycleId];\n\n        //  Assign Position to Member In this Cycle\n        memberPositionMapping[member] = EsusuCycleMapping[esusuCycleId].TotalMembers;\n    }\n\n    function IncreaseTotalDeposits(uint esusuCycleBalance) external onlyOwnerAdapterAndAdapterDelegateContract {\n\n        TotalDeposits = TotalDeposits.add(esusuCycleBalance);\n\n    }\n\n    function UpdateEsusuCycleDuringStart(uint esusuCycleId,uint cycleStateEnum, uint toalCycleDuration, uint totalShares,uint currentTime) external onlyOwnerAdapterAndAdapterDelegateContract{\n\n        EsusuCycleMapping[esusuCycleId].TotalCycleDuration = toalCycleDuration;\n        EsusuCycleMapping[esusuCycleId].CycleState = CycleStateEnum(cycleStateEnum);\n        EsusuCycleMapping[esusuCycleId].TotalShares = totalShares;\n        EsusuCycleMapping[esusuCycleId].CycleStartTime = currentTime;\n        EsusuCycleMapping[esusuCycleId].TotalSharesAtStart = totalShares;\n\n    }\n\n    function UpdateEsusuCycleState(uint esusuCycleId,uint cycleStateEnum) external onlyOwnerAdapterAndAdapterDelegateContract{\n\n        EsusuCycleMapping[esusuCycleId].CycleState = CycleStateEnum(cycleStateEnum);\n\n    }\n    function GetMemberCycleInfo(address memberAddress, uint esusuCycleId) external view returns(uint CycleId, address MemberId, uint TotalAmountDepositedInCycle, uint TotalPayoutReceivedInCycle, uint memberPosition, uint memberShares){\n\n        require(esusuCycleId > 0 && esusuCycleId <= EsusuCycleId, \"Cycle ID must be within valid EsusuCycleId range\");\n\n        mapping(uint=>MemberCycle) storage memberCycleMapping =  MemberAddressToMemberCycleMapping[memberAddress];\n\n        mapping(address=>uint) storage memberPositionMapping =  CycleToMemberPositionMapping[esusuCycleId];\n\n\n        return  (memberCycleMapping[esusuCycleId].CycleId,memberCycleMapping[esusuCycleId].MemberId,\n        memberCycleMapping[esusuCycleId].TotalAmountDepositedInCycle,\n        memberCycleMapping[esusuCycleId].TotalPayoutReceivedInCycle,memberPositionMapping[memberAddress],memberCycleMapping[esusuCycleId].MemberShares );\n    }\n\n    function CreateMemberCapitalMapping(uint esusuCycleId, address member) external onlyOwnerAdapterAndAdapterDelegateContract {\n\n        mapping(address=>uint) storage memberCapitalMapping =  CycleToMemberWithdrawnCapitalMapping[esusuCycleId];\n        memberCapitalMapping[member] = EsusuCycleMapping[esusuCycleId].DepositAmount;\n    }\n\n    function UpdateEsusuCycleDuringCapitalWithdrawal(uint esusuCycleId, uint cycleTotalShares, uint totalCapitalWithdrawnInCycle) external onlyOwnerAdapterAndAdapterDelegateContract{\n\n        EsusuCycleMapping[esusuCycleId].TotalCapitalWithdrawn = totalCapitalWithdrawnInCycle;\n        EsusuCycleMapping[esusuCycleId].TotalShares = cycleTotalShares;\n    }\n\n    function UpdateEsusuCycleDuringROIWithdrawal(uint esusuCycleId, uint totalShares, uint totalBeneficiaries) external onlyOwnerAdapterAndAdapterDelegateContract{\n        EsusuCycleMapping[esusuCycleId].TotalBeneficiaries = totalBeneficiaries;\n        EsusuCycleMapping[esusuCycleId].TotalShares = totalShares;\n    }\n\n    function CreateEsusuCycleToBeneficiaryMapping(uint esusuCycleId, address memberAddress, uint memberROINet) external onlyOwnerAdapterAndAdapterDelegateContract{\n\n        mapping(address=>uint) storage beneficiaryMapping =  CycleToBeneficiaryMapping[esusuCycleId];\n\n        beneficiaryMapping[memberAddress] = memberROINet;\n    }\n\n    function CalculateMemberWithdrawalTime(uint cycleId, address member) external view returns(uint){\n\n        mapping(address=>uint) storage memberPositionMapping =  CycleToMemberPositionMapping[cycleId];\n\n        uint memberPosition = memberPositionMapping[member];\n\n        uint withdrawalTime = (EsusuCycleMapping[cycleId].CycleStartTime.add(memberPosition.mul(EsusuCycleMapping[cycleId].PayoutIntervalSeconds)));\n        return withdrawalTime;\n    }\n\n    function CreateMemberToCycleIndexToCycleIDMapping(address member, uint esusuCycleId) external onlyOwnerAdapterAndAdapterDelegateContract {\n      // Increase the number of cycles joined by the member\n      MemberToCycleIndexMapping[member] = MemberToCycleIndexMapping[member].add(1);\n\n      uint memberCreatedCycleIndex = MemberToCycleIndexMapping[member];\n      mapping(uint=>uint) storage memberCreatedCylceIndexToCycleId = MemberToCycleIndexToCycleIDMapping[member];\n      memberCreatedCylceIndexToCycleId[memberCreatedCycleIndex] = esusuCycleId;\n    }\n\n    function GetTotalDeposits() external view returns (uint){\n        return TotalDeposits;\n    }\n\n    function GetEsusuCycleState(uint esusuCycleId) external view returns (uint){\n\n        return uint(EsusuCycleMapping[esusuCycleId].CycleState);\n\n    }\n\n    function UpdateMemberToXendTokeRewardMapping(address member, uint rewardAmount) external onlyOwnerAdapterAndAdapterDelegateContract {\n        MemberToXendTokenRewardMapping[member] = MemberToXendTokenRewardMapping[member].add(rewardAmount);\n    }\n\n        function GetMemberXendTokenReward(address member) external returns(uint) {\n        return MemberToXendTokenRewardMapping[member];\n    }\n\n    modifier onlyOwner() {\n        require(msg.sender == _owner, \"Unauthorized access to contract\");\n        _;\n    }\n\n    modifier onlyOwnerAdapterAndAdapterDelegateContract() {\n        require(\n            msg.sender == _owner || msg.sender == _adapterDelegateContract || msg.sender == _adapterContract,\n            \"Unauthorized access to contract\"\n        );\n        _;\n    }\n\n}\n",
  "sourcePath": "/Users/mac/Desktop/BinaryHiils/esusu-1/Test/contracts/EsusuStorage.sol",
  "compiler": {
    "name": "solc",
    "version": "0.6.6+commit.6c089d02.Emscripten.clang"
  },
  "schemaVersion": "3.3.2",
  "updatedAt": "2021-02-04T15:19:12.443Z",
  "devdoc": {
    "methods": {}
  },
  "userdoc": {
    "methods": {}
  }
}