{
  "contractName": "Groups",
  "abi": [
    {
      "inputs": [
        {
          "internalType": "address",
          "name": "oracle",
          "type": "address"
        }
      ],
      "name": "activateStorageOracle",
      "outputs": [],
      "stateMutability": "nonpayable",
      "type": "function"
    },
    {
      "inputs": [
        {
          "internalType": "address",
          "name": "oracle",
          "type": "address"
        }
      ],
      "name": "deactivateStorageOracle",
      "outputs": [],
      "stateMutability": "nonpayable",
      "type": "function"
    },
    {
      "inputs": [
        {
          "internalType": "address",
          "name": "newOracle",
          "type": "address"
        }
      ],
      "name": "reAssignStorageOracle",
      "outputs": [],
      "stateMutability": "nonpayable",
      "type": "function"
    },
    {
      "inputs": [
        {
          "internalType": "address payable",
          "name": "newOwner",
          "type": "address"
        }
      ],
      "name": "transferOwnership",
      "outputs": [],
      "stateMutability": "nonpayable",
      "type": "function"
    },
    {
      "inputs": [],
      "name": "getLengthOfTokenAddressesUsedInDeposit",
      "outputs": [
        {
          "internalType": "uint256",
          "name": "",
          "type": "uint256"
        }
      ],
      "stateMutability": "view",
      "type": "function",
      "constant": true
    },
    {
      "inputs": [
        {
          "internalType": "address",
          "name": "tokenAddress",
          "type": "address"
        },
        {
          "internalType": "uint256",
          "name": "amount",
          "type": "uint256"
        }
      ],
      "name": "incrementTokenDeposit",
      "outputs": [
        {
          "internalType": "uint256",
          "name": "",
          "type": "uint256"
        }
      ],
      "stateMutability": "nonpayable",
      "type": "function"
    },
    {
      "inputs": [
        {
          "internalType": "address",
          "name": "tokenAddress",
          "type": "address"
        },
        {
          "internalType": "uint256",
          "name": "amount",
          "type": "uint256"
        }
      ],
      "name": "decrementTokenDeposit",
      "outputs": [
        {
          "internalType": "uint256",
          "name": "",
          "type": "uint256"
        }
      ],
      "stateMutability": "nonpayable",
      "type": "function"
    },
    {
      "inputs": [
        {
          "internalType": "address",
          "name": "tokenAddress",
          "type": "address"
        }
      ],
      "name": "getTokenDeposit",
      "outputs": [
        {
          "internalType": "uint256",
          "name": "",
          "type": "uint256"
        }
      ],
      "stateMutability": "view",
      "type": "function",
      "constant": true
    },
    {
      "inputs": [
        {
          "internalType": "uint256",
          "name": "amount",
          "type": "uint256"
        }
      ],
      "name": "incrementEtherDeposit",
      "outputs": [
        {
          "internalType": "uint256",
          "name": "",
          "type": "uint256"
        }
      ],
      "stateMutability": "nonpayable",
      "type": "function"
    },
    {
      "inputs": [
        {
          "internalType": "uint256",
          "name": "amount",
          "type": "uint256"
        }
      ],
      "name": "decrementEtherDeposit",
      "outputs": [
        {
          "internalType": "uint256",
          "name": "",
          "type": "uint256"
        }
      ],
      "stateMutability": "nonpayable",
      "type": "function"
    },
    {
      "inputs": [],
      "name": "getEtherDeposit",
      "outputs": [
        {
          "internalType": "uint256",
          "name": "",
          "type": "uint256"
        }
      ],
      "stateMutability": "view",
      "type": "function",
      "constant": true
    },
    {
      "inputs": [
        {
          "internalType": "address payable",
          "name": "depositor",
          "type": "address"
        }
      ],
      "name": "createMember",
      "outputs": [],
      "stateMutability": "nonpayable",
      "type": "function"
    },
    {
      "inputs": [
        {
          "internalType": "address",
          "name": "_address",
          "type": "address"
        }
      ],
      "name": "getMember",
      "outputs": [
        {
          "internalType": "address",
          "name": "",
          "type": "address"
        }
      ],
      "stateMutability": "view",
      "type": "function",
      "constant": true
    },
    {
      "inputs": [
        {
          "internalType": "string",
          "name": "name",
          "type": "string"
        },
        {
          "internalType": "string",
          "name": "symbol",
          "type": "string"
        },
        {
          "internalType": "address",
          "name": "groupCreator",
          "type": "address"
        }
      ],
      "name": "createGroup",
      "outputs": [
        {
          "internalType": "uint256",
          "name": "",
          "type": "uint256"
        }
      ],
      "stateMutability": "nonpayable",
      "type": "function"
    },
    {
      "inputs": [
        {
          "internalType": "uint256",
          "name": "id",
          "type": "uint256"
        },
        {
          "internalType": "string",
          "name": "name",
          "type": "string"
        },
        {
          "internalType": "string",
          "name": "symbol",
          "type": "string"
        },
        {
          "internalType": "address payable",
          "name": "creatorAddress",
          "type": "address"
        }
      ],
      "name": "updateGroup",
      "outputs": [],
      "stateMutability": "nonpayable",
      "type": "function"
    },
    {
      "inputs": [
        {
          "internalType": "uint256",
          "name": "groupId",
          "type": "uint256"
        }
      ],
      "name": "doesGroupExist",
      "outputs": [
        {
          "internalType": "bool",
          "name": "",
          "type": "bool"
        }
      ],
      "stateMutability": "view",
      "type": "function",
      "constant": true
    },
    {
      "inputs": [
        {
          "internalType": "string",
          "name": "groupName",
          "type": "string"
        }
      ],
      "name": "doesGroupExist",
      "outputs": [
        {
          "internalType": "bool",
          "name": "",
          "type": "bool"
        }
      ],
      "stateMutability": "view",
      "type": "function",
      "constant": true
    },
    {
      "inputs": [
        {
          "internalType": "address",
          "name": "depositor",
          "type": "address"
        }
      ],
      "name": "doesMemberExist",
      "outputs": [
        {
          "internalType": "bool",
          "name": "",
          "type": "bool"
        }
      ],
      "stateMutability": "view",
      "type": "function",
      "constant": true
    },
    {
      "inputs": [
        {
          "internalType": "uint256",
          "name": "groupId",
          "type": "uint256"
        },
        {
          "internalType": "address payable",
          "name": "depositor",
          "type": "address"
        }
      ],
      "name": "createGroupMember",
      "outputs": [],
      "stateMutability": "nonpayable",
      "type": "function"
    },
    {
      "inputs": [
        {
          "internalType": "uint256",
          "name": "index",
          "type": "uint256"
        }
      ],
      "name": "getGroupMember",
      "outputs": [
        {
          "internalType": "address payable",
          "name": "_address",
          "type": "address"
        },
        {
          "internalType": "uint256",
          "name": "groupId",
          "type": "uint256"
        }
      ],
      "stateMutability": "view",
      "type": "function",
      "constant": true
    },
    {
      "inputs": [
        {
          "internalType": "uint256",
          "name": "groupId",
          "type": "uint256"
        },
        {
          "internalType": "address",
          "name": "depositor",
          "type": "address"
        }
      ],
      "name": "getGroupMembersDeepIndexer",
      "outputs": [
        {
          "internalType": "bool",
          "name": "exists",
          "type": "bool"
        },
        {
          "internalType": "uint256",
          "name": "index",
          "type": "uint256"
        }
      ],
      "stateMutability": "view",
      "type": "function",
      "constant": true
    },
    {
      "inputs": [
        {
          "internalType": "uint256",
          "name": "groupId",
          "type": "uint256"
        }
      ],
      "name": "getRecordIndexLengthForGroupMembersIndexer",
      "outputs": [
        {
          "internalType": "uint256",
          "name": "",
          "type": "uint256"
        }
      ],
      "stateMutability": "view",
      "type": "function",
      "constant": true
    },
    {
      "inputs": [
        {
          "internalType": "address",
          "name": "depositor",
          "type": "address"
        }
      ],
      "name": "getRecordIndexLengthForGroupMembersIndexerByDepositor",
      "outputs": [
        {
          "internalType": "uint256",
          "name": "",
          "type": "uint256"
        }
      ],
      "stateMutability": "view",
      "type": "function",
      "constant": true
    },
    {
      "inputs": [
        {
          "internalType": "uint256",
          "name": "groupId",
          "type": "uint256"
        },
        {
          "internalType": "uint256",
          "name": "indexerLocation",
          "type": "uint256"
        }
      ],
      "name": "getGroupMembersIndexer",
      "outputs": [
        {
          "internalType": "bool",
          "name": "exist",
          "type": "bool"
        },
        {
          "internalType": "uint256",
          "name": "index",
          "type": "uint256"
        }
      ],
      "stateMutability": "view",
      "type": "function",
      "constant": true
    },
    {
      "inputs": [
        {
          "internalType": "address",
          "name": "depositor",
          "type": "address"
        },
        {
          "internalType": "uint256",
          "name": "indexerLocation",
          "type": "uint256"
        }
      ],
      "name": "getGroupMembersIndexerByDepositor",
      "outputs": [
        {
          "internalType": "bool",
          "name": "exist",
          "type": "bool"
        },
        {
          "internalType": "uint256",
          "name": "index",
          "type": "uint256"
        }
      ],
      "stateMutability": "view",
      "type": "function",
      "constant": true
    },
    {
      "inputs": [
        {
          "internalType": "uint256",
          "name": "groupId",
          "type": "uint256"
        },
        {
          "internalType": "address",
          "name": "depositor",
          "type": "address"
        }
      ],
      "name": "doesGroupMemberExist",
      "outputs": [
        {
          "internalType": "bool",
          "name": "",
          "type": "bool"
        }
      ],
      "stateMutability": "view",
      "type": "function",
      "constant": true
    },
    {
      "inputs": [
        {
          "internalType": "uint256",
          "name": "groupId",
          "type": "uint256"
        }
      ],
      "name": "getGroupIndexer",
      "outputs": [
        {
          "internalType": "bool",
          "name": "exist",
          "type": "bool"
        },
        {
          "internalType": "uint256",
          "name": "index",
          "type": "uint256"
        }
      ],
      "stateMutability": "view",
      "type": "function",
      "constant": true
    },
    {
      "inputs": [
        {
          "internalType": "address",
          "name": "groupCreator",
          "type": "address"
        }
      ],
      "name": "getRecordIndexLengthForCreator",
      "outputs": [
        {
          "internalType": "uint256",
          "name": "",
          "type": "uint256"
        }
      ],
      "stateMutability": "view",
      "type": "function",
      "constant": true
    },
    {
      "inputs": [
        {
          "internalType": "address",
          "name": "groupCreator",
          "type": "address"
        },
        {
          "internalType": "uint256",
          "name": "indexerLocation",
          "type": "uint256"
        }
      ],
      "name": "getGroupForCreatorIndexer",
      "outputs": [
        {
          "internalType": "bool",
          "name": "exist",
          "type": "bool"
        },
        {
          "internalType": "uint256",
          "name": "index",
          "type": "uint256"
        }
      ],
      "stateMutability": "view",
      "type": "function",
      "constant": true
    },
    {
      "inputs": [
        {
          "internalType": "string",
          "name": "groupName",
          "type": "string"
        }
      ],
      "name": "getGroupIndexerByName",
      "outputs": [
        {
          "internalType": "bool",
          "name": "exist",
          "type": "bool"
        },
        {
          "internalType": "uint256",
          "name": "index",
          "type": "uint256"
        }
      ],
      "stateMutability": "view",
      "type": "function",
      "constant": true
    },
    {
      "inputs": [
        {
          "internalType": "uint256",
          "name": "groupId",
          "type": "uint256"
        }
      ],
      "name": "getGroupById",
      "outputs": [
        {
          "internalType": "uint256",
          "name": "",
          "type": "uint256"
        },
        {
          "internalType": "string",
          "name": "",
          "type": "string"
        },
        {
          "internalType": "string",
          "name": "",
          "type": "string"
        },
        {
          "internalType": "address payable",
          "name": "",
          "type": "address"
        }
      ],
      "stateMutability": "view",
      "type": "function",
      "constant": true
    },
    {
      "inputs": [
        {
          "internalType": "uint256",
          "name": "index",
          "type": "uint256"
        }
      ],
      "name": "getGroupByIndex",
      "outputs": [
        {
          "internalType": "uint256",
          "name": "",
          "type": "uint256"
        },
        {
          "internalType": "string",
          "name": "",
          "type": "string"
        },
        {
          "internalType": "string",
          "name": "",
          "type": "string"
        },
        {
          "internalType": "address payable",
          "name": "",
          "type": "address"
        }
      ],
      "stateMutability": "view",
      "type": "function",
      "constant": true
    },
    {
      "inputs": [],
      "name": "getGroupsLength",
      "outputs": [
        {
          "internalType": "uint256",
          "name": "length",
          "type": "uint256"
        }
      ],
      "stateMutability": "view",
      "type": "function",
      "constant": true
    },
    {
      "inputs": [
        {
          "internalType": "uint256",
          "name": "groupId",
          "type": "uint256"
        }
      ],
      "name": "getGroupIndex",
      "outputs": [
        {
          "internalType": "uint256",
          "name": "",
          "type": "uint256"
        }
      ],
      "stateMutability": "view",
      "type": "function",
      "constant": true
    }
  ],
  "bytecode": "0x6080604052336000806101000a81548173ffffffffffffffffffffffffffffffffffffffff021916908373ffffffffffffffffffffffffffffffffffffffff1602179055506138b2806100536000396000f3fe608060405234801561001057600080fd5b50600436106102065760003560e01c806352bc00c41161011a57806381ea68fe116100ad578063d1f442781161007c578063d1f4427814610ee9578063d73c9de414610f07578063daf0cf4314610f7c578063e824f2b514610fd3578063f2fde38b1461104057610206565b806381ea68fe14610cd55780638c22482614610d2d5780638edb1a0614610d8f5780639a25979814610de757610206565b80636cc29ea0116100e95780636cc29ea014610b085780636d3524f514610c555780636f583ba614610c7357806380abc21a14610cb757610206565b806352bc00c4146109445780635e82c389146109865780636041fc8814610a7e5780636b2c46d514610ac257610206565b80632bd10bbc1161019d5780633ac179f81161016c5780633ac179f8146107755780634448d5e1146107b7578063458a8c071461082457806348c88923146108b557806348cf9e5c1461090257610206565b80632bd10bbc1461052c5780632e367f9f1461056e5780633037faf1146105d05780633525e9c41461071d57610206565b80630fdf80ed116101d95780630fdf80ed146103c4578063165301a5146104085780632124d529146104645780632ada2596146104a857610206565b806308099b5d1461020b57806309080945146102a35780630c202741146103105780630d15c07d1461035e575b600080fd5b6102826004803603602081101561022157600080fd5b810190808035906020019064010000000081111561023e57600080fd5b82018360208201111561025057600080fd5b8035906020019184600183028401116401000000008311171561027257600080fd5b9091929391929390505050611084565b60405180831515151581526020018281526020019250505060405180910390f35b6102ef600480360360408110156102b957600080fd5b8101908080359060200190929190803573ffffffffffffffffffffffffffffffffffffffff1690602001909291905050506110fe565b60405180831515151581526020018281526020019250505060405180910390f35b61035c6004803603604081101561032657600080fd5b8101908080359060200190929190803573ffffffffffffffffffffffffffffffffffffffff1690602001909291905050506111a1565b005b6103aa6004803603604081101561037457600080fd5b8101908080359060200190929190803573ffffffffffffffffffffffffffffffffffffffff169060200190929190505050611575565b604051808215151515815260200191505060405180910390f35b610406600480360360208110156103da57600080fd5b81019080803573ffffffffffffffffffffffffffffffffffffffff169060200190929190505050611589565b005b61044a6004803603602081101561041e57600080fd5b81019080803573ffffffffffffffffffffffffffffffffffffffff169060200190929190505050611700565b604051808215151515815260200191505060405180910390f35b6104a66004803603602081101561047a57600080fd5b81019080803573ffffffffffffffffffffffffffffffffffffffff169060200190929190505050611712565b005b6104ea600480360360208110156104be57600080fd5b81019080803573ffffffffffffffffffffffffffffffffffffffff1690602001909291905050506119c1565b604051808273ffffffffffffffffffffffffffffffffffffffff1673ffffffffffffffffffffffffffffffffffffffff16815260200191505060405180910390f35b6105586004803603602081101561054257600080fd5b8101908080359060200190929190505050611a7a565b6040518082815260200191505060405180910390f35b6105ba6004803603604081101561058457600080fd5b81019080803573ffffffffffffffffffffffffffffffffffffffff16906020019092919080359060200190929190505050611bb5565b6040518082815260200191505060405180910390f35b6105fc600480360360208110156105e657600080fd5b8101908080359060200190929190505050611dae565b6040518085815260200180602001806020018473ffffffffffffffffffffffffffffffffffffffff1673ffffffffffffffffffffffffffffffffffffffff168152602001838103835286818151815260200191508051906020019080838360005b8381101561067857808201518184015260208101905061065d565b50505050905090810190601f1680156106a55780820380516001836020036101000a031916815260200191505b50838103825285818151815260200191508051906020019080838360005b838110156106de5780820151818401526020810190506106c3565b50505050905090810190601f16801561070b5780820380516001836020036101000a031916815260200191505b50965050505050505060405180910390f35b61075f6004803603602081101561073357600080fd5b81019080803573ffffffffffffffffffffffffffffffffffffffff169060200190929190505050611dcd565b6040518082815260200191505060405180910390f35b6107a16004803603602081101561078b57600080fd5b8101908080359060200190929190505050611e19565b6040518082815260200191505060405180910390f35b610803600480360360408110156107cd57600080fd5b81019080803573ffffffffffffffffffffffffffffffffffffffff16906020019092919080359060200190929190505050611e39565b60405180831515151581526020018281526020019250505060405180910390f35b61089b6004803603602081101561083a57600080fd5b810190808035906020019064010000000081111561085757600080fd5b82018360208201111561086957600080fd5b8035906020019184600183028401116401000000008311171561088b57600080fd5b9091929391929390505050611ee4565b604051808215151515815260200191505060405180910390f35b6108e1600480360360208110156108cb57600080fd5b8101908080359060200190929190505050611f3b565b60405180831515151581526020018281526020019250505060405180910390f35b61092e6004803603602081101561091857600080fd5b8101908080359060200190929190505050611f9f565b6040518082815260200191505060405180910390f35b6109706004803603602081101561095a57600080fd5b8101908080359060200190929190505050611fb1565b6040518082815260200191505060405180910390f35b610a7c6004803603608081101561099c57600080fd5b8101908080359060200190929190803590602001906401000000008111156109c357600080fd5b8201836020820111156109d557600080fd5b803590602001918460018302840111640100000000831117156109f757600080fd5b909192939192939080359060200190640100000000811115610a1857600080fd5b820183602082011115610a2a57600080fd5b80359060200191846001830284011164010000000083111715610a4c57600080fd5b9091929391929390803573ffffffffffffffffffffffffffffffffffffffff169060200190929190505050612091565b005b610ac060048036036020811015610a9457600080fd5b81019080803573ffffffffffffffffffffffffffffffffffffffff169060200190929190505050612225565b005b610aee60048036036020811015610ad857600080fd5b8101908080359060200190929190505050612342565b604051808215151515815260200191505060405180910390f35b610b3460048036036020811015610b1e57600080fd5b8101908080359060200190929190505050612354565b6040518085815260200180602001806020018473ffffffffffffffffffffffffffffffffffffffff1673ffffffffffffffffffffffffffffffffffffffff168152602001838103835286818151815260200191508051906020019080838360005b83811015610bb0578082015181840152602081019050610b95565b50505050905090810190601f168015610bdd5780820380516001836020036101000a031916815260200191505b50838103825285818151815260200191508051906020019080838360005b83811015610c16578082015181840152602081019050610bfb565b50505050905090810190601f168015610c435780820380516001836020036101000a031916815260200191505b50965050505050505060405180910390f35b610c5d612501565b6040518082815260200191505060405180910390f35b610cb560048036036020811015610c8957600080fd5b81019080803573ffffffffffffffffffffffffffffffffffffffff169060200190929190505050612511565b005b610cbf61262d565b6040518082815260200191505060405180910390f35b610d1760048036036020811015610ceb57600080fd5b81019080803573ffffffffffffffffffffffffffffffffffffffff16906020019092919050505061263a565b6040518082815260200191505060405180910390f35b610d7960048036036040811015610d4357600080fd5b81019080803573ffffffffffffffffffffffffffffffffffffffff16906020019092919080359060200190929190505050612686565b6040518082815260200191505060405180910390f35b610dd160048036036020811015610da557600080fd5b81019080803573ffffffffffffffffffffffffffffffffffffffff16906020019092919050505061288d565b6040518082815260200191505060405180910390f35b610ed360048036036060811015610dfd57600080fd5b8101908080359060200190640100000000811115610e1a57600080fd5b820183602082011115610e2c57600080fd5b80359060200191846001830284011164010000000083111715610e4e57600080fd5b909192939192939080359060200190640100000000811115610e6f57600080fd5b820183602082011115610e8157600080fd5b80359060200191846001830284011164010000000083111715610ea357600080fd5b9091929391929390803573ffffffffffffffffffffffffffffffffffffffff1690602001909291905050506128d6565b6040518082815260200191505060405180910390f35b610ef1612d90565b6040518082815260200191505060405180910390f35b610f3360048036036020811015610f1d57600080fd5b8101908080359060200190929190505050612d9a565b604051808373ffffffffffffffffffffffffffffffffffffffff1673ffffffffffffffffffffffffffffffffffffffff1681526020018281526020019250505060405180910390f35b610fb260048036036040811015610f9257600080fd5b810190808035906020019092919080359060200190929190505050612e5c565b60405180831515151581526020018281526020019250505060405180910390f35b61101f60048036036040811015610fe957600080fd5b81019080803573ffffffffffffffffffffffffffffffffffffffff16906020019092919080359060200190929190505050612edb565b60405180831515151581526020018281526020019250505060405180910390f35b6110826004803603602081101561105657600080fd5b81019080803573ffffffffffffffffffffffffffffffffffffffff169060200190929190505050612f86565b005b60008061108f613661565b6005858560405180838380828437808301925050509250505090815260200160405180910390206040518060400160405290816000820160009054906101000a900460ff1615151515815260200160018201548152505090508060000151816020015192509250509250929050565b600080611109613661565b6009600086815260200190815260200160002060008573ffffffffffffffffffffffffffffffffffffffff1673ffffffffffffffffffffffffffffffffffffffff1681526020019081526020016000206040518060400160405290816000820160009054906101000a900460ff1615151515815260200160018201548152505090508060000151816020015192509250509250929050565b6000600160003373ffffffffffffffffffffffffffffffffffffffff1673ffffffffffffffffffffffffffffffffffffffff16815260200190815260200160002060009054906101000a900460ff16905080611265576040517f08c379a000000000000000000000000000000000000000000000000000000000815260040180806020018281038252601f8152602001807f756e617574686f72697a65642061636365737320746f20636f6e74726163740081525060200191505060405180910390fd5b600061127184846130c0565b905060001515811515146112ed576040517f08c379a00000000000000000000000000000000000000000000000000000000081526004018080602001828103825260138152602001807f47726f7570206d656d626572206578697374730000000000000000000000000081525060200191505060405180910390fd5b6112f5613661565b6040518060400160405280600115158152602001600680549050815250905061131c61367d565b60405180606001604052806001151581526020018673ffffffffffffffffffffffffffffffffffffffff1681526020018781525090506007600087815260200190815260200160002082908060018154018082558091505060019003906000526020600020906002020160009091909190915060008201518160000160006101000a81548160ff021916908315150217905550602082015181600101555050600860008673ffffffffffffffffffffffffffffffffffffffff1673ffffffffffffffffffffffffffffffffffffffff16815260200190815260200160002082908060018154018082558091505060019003906000526020600020906002020160009091909190915060008201518160000160006101000a81548160ff021916908315150217905550602082015181600101555050816009600088815260200190815260200160002060008773ffffffffffffffffffffffffffffffffffffffff1673ffffffffffffffffffffffffffffffffffffffff16815260200190815260200160002060008201518160000160006101000a81548160ff02191690831515021790555060208201518160010155905050600681908060018154018082558091505060019003906000526020600020906002020160009091909190915060008201518160000160006101000a81548160ff02191690831515021790555060208201518160000160016101000a81548173ffffffffffffffffffffffffffffffffffffffff021916908373ffffffffffffffffffffffffffffffffffffffff160217905550604082015181600101555050505050505050565b600061158183836130c0565b905092915050565b6000600160003373ffffffffffffffffffffffffffffffffffffffff1673ffffffffffffffffffffffffffffffffffffffff16815260200190815260200160002060009054906101000a900460ff1690508061164d576040517f08c379a000000000000000000000000000000000000000000000000000000000815260040180806020018281038252601f8152602001807f756e617574686f72697a65642061636365737320746f20636f6e74726163740081525060200191505060405180910390fd5b6000600160003373ffffffffffffffffffffffffffffffffffffffff1673ffffffffffffffffffffffffffffffffffffffff16815260200190815260200160002060006101000a81548160ff02191690831515021790555060018060008473ffffffffffffffffffffffffffffffffffffffff1673ffffffffffffffffffffffffffffffffffffffff16815260200190815260200160002060006101000a81548160ff0219169083151502179055505050565b600061170b82613130565b9050919050565b6000600160003373ffffffffffffffffffffffffffffffffffffffff1673ffffffffffffffffffffffffffffffffffffffff16815260200190815260200160002060009054906101000a900460ff169050806117d6576040517f08c379a000000000000000000000000000000000000000000000000000000000815260040180806020018281038252601f8152602001807f756e617574686f72697a65642061636365737320746f20636f6e74726163740081525060200191505060405180910390fd5b6117de6136b6565b60405180604001604052806001151581526020018473ffffffffffffffffffffffffffffffffffffffff168152509050600061181984613130565b90506000151581151514611895576040517f08c379a00000000000000000000000000000000000000000000000000000000081526004018080602001828103825260158152602001807f4d656d62657220616c726561647920657869737473000000000000000000000081525060200191505060405180910390fd5b61189d613661565b6040518060400160405280600115158152602001600a805490508152509050600a839080600181540180825580915050600190039060005260206000200160009091909190915060008201518160000160006101000a81548160ff02191690831515021790555060208201518160000160016101000a81548173ffffffffffffffffffffffffffffffffffffffff021916908373ffffffffffffffffffffffffffffffffffffffff160217905550505080600b60008773ffffffffffffffffffffffffffffffffffffffff1673ffffffffffffffffffffffffffffffffffffffff16815260200190815260200160002060008201518160000160006101000a81548160ff021916908315150217905550602082015181600101559050505050505050565b6000806119cd836131a0565b90506119d76136b6565b600a82815481106119e457fe5b906000526020600020016040518060400160405290816000820160009054906101000a900460ff161515151581526020016000820160019054906101000a900473ffffffffffffffffffffffffffffffffffffffff1673ffffffffffffffffffffffffffffffffffffffff1673ffffffffffffffffffffffffffffffffffffffff16815250509050806020015192505050919050565b600080600160003373ffffffffffffffffffffffffffffffffffffffff1673ffffffffffffffffffffffffffffffffffffffff16815260200190815260200160002060009054906101000a900460ff16905080611b3f576040517f08c379a000000000000000000000000000000000000000000000000000000000815260040180806020018281038252601f8152602001807f756e617574686f72697a65642061636365737320746f20636f6e74726163740081525060200191505060405180910390fd5b82600e541015611b9a576040517f08c379a00000000000000000000000000000000000000000000000000000000081526004018080602001828103825260288152602001806138556028913960400191505060405180910390fd5b82600e60008282540392505081905550600e54915050919050565b600080600160003373ffffffffffffffffffffffffffffffffffffffff1673ffffffffffffffffffffffffffffffffffffffff16815260200190815260200160002060009054906101000a900460ff16905080611c7a576040517f08c379a000000000000000000000000000000000000000000000000000000000815260040180806020018281038252601f8152602001807f756e617574686f72697a65642061636365737320746f20636f6e74726163740081525060200191505060405180910390fd5b6000600f60008673ffffffffffffffffffffffffffffffffffffffff1673ffffffffffffffffffffffffffffffffffffffff16815260200190815260200160002054905083811015611d17576040517f08c379a00000000000000000000000000000000000000000000000000000000081526004018080602001828103825260288152602001806138556028913960400191505060405180910390fd5b83600f60008773ffffffffffffffffffffffffffffffffffffffff1673ffffffffffffffffffffffffffffffffffffffff16815260200190815260200160002060008282540392505081905550600f60008673ffffffffffffffffffffffffffffffffffffffff1673ffffffffffffffffffffffffffffffffffffffff168152602001908152602001600020549250505092915050565b60006060806000611dbe856132c0565b93509350935093509193509193565b6000600460008373ffffffffffffffffffffffffffffffffffffffff1673ffffffffffffffffffffffffffffffffffffffff168152602001908152602001600020805490509050919050565b600060076000838152602001908152602001600020805490509050919050565b600080611e44613661565b600460008673ffffffffffffffffffffffffffffffffffffffff1673ffffffffffffffffffffffffffffffffffffffff1681526020019081526020016000208481548110611e8e57fe5b90600052602060002090600202016040518060400160405290816000820160009054906101000a900460ff1615151515815260200160018201548152505090508060000151816020015192509250509250929050565b6000611f3383838080601f016020809104026020016040519081016040528093929190818152602001838380828437600081840152601f19601f820116905080830192505050505050506134df565b905092915050565b600080611f46613661565b600360008581526020019081526020016000206040518060400160405290816000820160009054906101000a900460ff161515151581526020016001820154815250509050806000015181602001519250925050915091565b6000611faa82613567565b9050919050565b600080600160003373ffffffffffffffffffffffffffffffffffffffff1673ffffffffffffffffffffffffffffffffffffffff16815260200190815260200160002060009054906101000a900460ff16905080612076576040517f08c379a000000000000000000000000000000000000000000000000000000000815260040180806020018281038252601f8152602001807f756e617574686f72697a65642061636365737320746f20636f6e74726163740081525060200191505060405180910390fd5b82600e60008282540192505081905550600e54915050919050565b6000600160003373ffffffffffffffffffffffffffffffffffffffff1673ffffffffffffffffffffffffffffffffffffffff16815260200190815260200160002060009054906101000a900460ff16905080612155576040517f08c379a000000000000000000000000000000000000000000000000000000000815260040180806020018281038252601f8152602001807f756e617574686f72697a65642061636365737320746f20636f6e74726163740081525060200191505060405180910390fd5b600061216088613567565b905086866002838154811061217157fe5b9060005260206000209060050201600201919061218f9291906136e8565b5084846002838154811061219f57fe5b906000526020600020906005020160030191906121bd9291906136e8565b5082600282815481106121cc57fe5b906000526020600020906005020160040160006101000a81548173ffffffffffffffffffffffffffffffffffffffff021916908373ffffffffffffffffffffffffffffffffffffffff1602179055505050505050505050565b6000809054906101000a900473ffffffffffffffffffffffffffffffffffffffff1673ffffffffffffffffffffffffffffffffffffffff163373ffffffffffffffffffffffffffffffffffffffff16146122e7576040517f08c379a000000000000000000000000000000000000000000000000000000000815260040180806020018281038252601f8152602001807f756e617574686f72697a65642061636365737320746f20636f6e74726163740081525060200191505060405180910390fd5b6000600160008373ffffffffffffffffffffffffffffffffffffffff1673ffffffffffffffffffffffffffffffffffffffff16815260200190815260200160002060006101000a81548160ff02191690831515021790555050565b600061234d8261362f565b9050919050565b600060608060008061236586613567565b905060006002828154811061237657fe5b90600052602060002090600502019050806001015481600201826003018360040160009054906101000a900473ffffffffffffffffffffffffffffffffffffffff16828054600181600116156101000203166002900480601f01602080910402602001604051908101604052809291908181526020018280546001816001161561010002031660029004801561244d5780601f106124225761010080835404028352916020019161244d565b820191906000526020600020905b81548152906001019060200180831161243057829003601f168201915b50505050509250818054600181600116156101000203166002900480601f0160208091040260200160405190810160405280929190818152602001828054600181600116156101000203166002900480156124e95780601f106124be576101008083540402835291602001916124e9565b820191906000526020600020905b8154815290600101906020018083116124cc57829003601f168201915b50505050509150955095509550955050509193509193565b6000600280549050905080905090565b6000809054906101000a900473ffffffffffffffffffffffffffffffffffffffff1673ffffffffffffffffffffffffffffffffffffffff163373ffffffffffffffffffffffffffffffffffffffff16146125d3576040517f08c379a000000000000000000000000000000000000000000000000000000000815260040180806020018281038252601f8152602001807f756e617574686f72697a65642061636365737320746f20636f6e74726163740081525060200191505060405180910390fd5b60018060008373ffffffffffffffffffffffffffffffffffffffff1673ffffffffffffffffffffffffffffffffffffffff16815260200190815260200160002060006101000a81548160ff02191690831515021790555050565b6000600d80549050905090565b6000600860008373ffffffffffffffffffffffffffffffffffffffff1673ffffffffffffffffffffffffffffffffffffffff168152602001908152602001600020805490509050919050565b600080600160003373ffffffffffffffffffffffffffffffffffffffff1673ffffffffffffffffffffffffffffffffffffffff16815260200190815260200160002060009054906101000a900460ff1690508061274b576040517f08c379a000000000000000000000000000000000000000000000000000000000815260040180806020018281038252601f8152602001807f756e617574686f72697a65642061636365737320746f20636f6e74726163740081525060200191505060405180910390fd5b6000600f60008673ffffffffffffffffffffffffffffffffffffffff1673ffffffffffffffffffffffffffffffffffffffff1681526020019081526020016000205414156127f757600d849080600181540180825580915050600190039060005260206000200160009091909190916101000a81548173ffffffffffffffffffffffffffffffffffffffff021916908373ffffffffffffffffffffffffffffffffffffffff1602179055505b82600f60008673ffffffffffffffffffffffffffffffffffffffff1673ffffffffffffffffffffffffffffffffffffffff16815260200190815260200160002060008282540192505081905550600f60008573ffffffffffffffffffffffffffffffffffffffff1673ffffffffffffffffffffffffffffffffffffffff1681526020019081526020016000205491505092915050565b6000600f60008373ffffffffffffffffffffffffffffffffffffffff1673ffffffffffffffffffffffffffffffffffffffff168152602001908152602001600020549050919050565b600080600160003373ffffffffffffffffffffffffffffffffffffffff1673ffffffffffffffffffffffffffffffffffffffff16815260200190815260200160002060009054906101000a900460ff1690508061299b576040517f08c379a000000000000000000000000000000000000000000000000000000000815260040180806020018281038252601f8152602001807f756e617574686f72697a65642061636365737320746f20636f6e74726163740081525060200191505060405180910390fd5b60006129ea88888080601f016020809104026020016040519081016040528093929190818152602001838380828437600081840152601f19601f820116905080830192505050505050506134df565b90506000151581151514612a66576040517f08c379a00000000000000000000000000000000000000000000000000000000081526004018080602001828103825260208152602001807f47726f7570206e616d652068617320616c7265616479206265656e207573656481525060200191505060405180910390fd5b6001600c60008282540192505081905550612a7f613768565b6040518060a00160405280600115158152602001600c5481526020018a8a8080601f016020809104026020016040519081016040528093929190818152602001838380828437600081840152601f19601f82011690508083019250505050505050815260200188888080601f016020809104026020016040519081016040528093929190818152602001838380828437600081840152601f19601f8201169050808301925050505050505081526020018673ffffffffffffffffffffffffffffffffffffffff16815250905060006002805490509050612b5d613661565b6040518060400160405280600115158152602001838152509050600283908060018154018082558091505060019003906000526020600020906005020160009091909190915060008201518160000160006101000a81548160ff021916908315150217905550602082015181600101556040820151816002019080519060200190612be99291906137af565b506060820151816003019080519060200190612c069291906137af565b5060808201518160040160006101000a81548173ffffffffffffffffffffffffffffffffffffffff021916908373ffffffffffffffffffffffffffffffffffffffff16021790555050508060036000600c54815260200190815260200160002060008201518160000160006101000a81548160ff021916908315150217905550602082015181600101559050508060058c8c604051808383808284378083019250505092505050908152602001604051809103902060008201518160000160006101000a81548160ff02191690831515021790555060208201518160010155905050600460008873ffffffffffffffffffffffffffffffffffffffff1673ffffffffffffffffffffffffffffffffffffffff16815260200190815260200160002081908060018154018082558091505060019003906000526020600020906002020160009091909190915060008201518160000160006101000a81548160ff021916908315150217905550602082015181600101555050600c549550505050505095945050505050565b6000600e54905090565b600080612da561367d565b60068481548110612db257fe5b90600052602060002090600202016040518060600160405290816000820160009054906101000a900460ff161515151581526020016000820160019054906101000a900473ffffffffffffffffffffffffffffffffffffffff1673ffffffffffffffffffffffffffffffffffffffff1673ffffffffffffffffffffffffffffffffffffffff1681526020016001820154815250509050806020015181604001519250925050915091565b600080612e67613661565b600760008681526020019081526020016000208481548110612e8557fe5b90600052602060002090600202016040518060400160405290816000820160009054906101000a900460ff1615151515815260200160018201548152505090508060000151816020015192509250509250929050565b600080612ee6613661565b600860008673ffffffffffffffffffffffffffffffffffffffff1673ffffffffffffffffffffffffffffffffffffffff1681526020019081526020016000208481548110612f3057fe5b90600052602060002090600202016040518060400160405290816000820160009054906101000a900460ff1615151515815260200160018201548152505090508060000151816020015192509250509250929050565b6000809054906101000a900473ffffffffffffffffffffffffffffffffffffffff1673ffffffffffffffffffffffffffffffffffffffff163373ffffffffffffffffffffffffffffffffffffffff1614613048576040517f08c379a000000000000000000000000000000000000000000000000000000000815260040180806020018281038252601f8152602001807f756e617574686f72697a65642061636365737320746f20636f6e74726163740081525060200191505060405180910390fd5b600073ffffffffffffffffffffffffffffffffffffffff168173ffffffffffffffffffffffffffffffffffffffff16146130bd57806000806101000a81548173ffffffffffffffffffffffffffffffffffffffff021916908373ffffffffffffffffffffffffffffffffffffffff1602179055505b50565b6000806009600085815260200190815260200160002060008473ffffffffffffffffffffffffffffffffffffffff1673ffffffffffffffffffffffffffffffffffffffff16815260200190815260200160002060000160009054906101000a900460ff1690508091505092915050565b600080600b60008473ffffffffffffffffffffffffffffffffffffffff1673ffffffffffffffffffffffffffffffffffffffff16815260200190815260200160002060000160009054906101000a900460ff169050801561319557600191505061319b565b60009150505b919050565b600080600b60008473ffffffffffffffffffffffffffffffffffffffff1673ffffffffffffffffffffffffffffffffffffffff16815260200190815260200160002060000160009054906101000a900460ff169050600115158115151461326f576040517f08c379a00000000000000000000000000000000000000000000000000000000081526004018080602001828103825260108152602001807f4d656d626572206e6f7420666f756e640000000000000000000000000000000081525060200191505060405180910390fd5b6000600b60008573ffffffffffffffffffffffffffffffffffffffff1673ffffffffffffffffffffffffffffffffffffffff1681526020019081526020016000206001015490508092505050919050565b60006060806000806002805490509050858111613345576040517f08c379a000000000000000000000000000000000000000000000000000000000815260040180806020018281038252600c8152602001807f4f7574206f662072616e6765000000000000000000000000000000000000000081525060200191505060405180910390fd5b60006002878154811061335457fe5b90600052602060002090600502019050806001015481600201826003018360040160009054906101000a900473ffffffffffffffffffffffffffffffffffffffff16828054600181600116156101000203166002900480601f01602080910402602001604051908101604052809291908181526020018280546001816001161561010002031660029004801561342b5780601f106134005761010080835404028352916020019161342b565b820191906000526020600020905b81548152906001019060200180831161340e57829003601f168201915b50505050509250818054600181600116156101000203166002900480601f0160208091040260200160405190810160405280929190818152602001828054600181600116156101000203166002900480156134c75780601f1061349c576101008083540402835291602001916134c7565b820191906000526020600020905b8154815290600101906020018083116134aa57829003601f168201915b50505050509150955095509550955050509193509193565b6000806005836040518082805190602001908083835b6020831061351857805182526020820191506020810190506020830392506134f5565b6001836020036101000a038019825116818451168082178552505050505050905001915050908152602001604051809103902060000160009054906101000a900460ff16905080915050919050565b6000806003600084815260200190815260200160002060000160009054906101000a900460ff169050600115158115151461360a576040517f08c379a000000000000000000000000000000000000000000000000000000000815260040180806020018281038252600f8152602001807f47726f7570206e6f7420666f756e64000000000000000000000000000000000081525060200191505060405180910390fd5b6000600360008581526020019081526020016000206001015490508092505050919050565b6000806003600084815260200190815260200160002060000160009054906101000a900460ff16905080915050919050565b6040518060400160405280600015158152602001600081525090565b6040518060600160405280600015158152602001600073ffffffffffffffffffffffffffffffffffffffff168152602001600081525090565b6040518060400160405280600015158152602001600073ffffffffffffffffffffffffffffffffffffffff1681525090565b828054600181600116156101000203166002900490600052602060002090601f016020900481019282601f1061372957803560ff1916838001178555613757565b82800160010185558215613757579182015b8281111561375657823582559160200191906001019061373b565b5b509050613764919061382f565b5090565b6040518060a00160405280600015158152602001600081526020016060815260200160608152602001600073ffffffffffffffffffffffffffffffffffffffff1681525090565b828054600181600116156101000203166002900490600052602060002090601f016020900481019282601f106137f057805160ff191683800117855561381e565b8280016001018555821561381e579182015b8281111561381d578251825591602001919060010190613802565b5b50905061382b919061382f565b5090565b61385191905b8082111561384d576000816000905550600101613835565b5090565b9056fe6465706f7369742062616c616e6365206f7665726472616674206973206e6f7420616c6c6f776564a264697066735822122029cc148de6f7c64b6b154d65fa9a5e3b6e190835a4c2631616141bdd45ca7d0964736f6c63430006060033",
  "immutableReferences": {},
  "source": "pragma solidity ^0.6.0;\n\nimport \"../interfaces/IGroupSchema.sol\";\nimport \"./StorageOwners.sol\";\n\ncontract Groups is IGroupSchema, StorageOwners {\n    // list of group records\n    Group[] private Groups;\n    //Mapping that enables ease of traversal of the group records\n    mapping(uint256 => RecordIndex) private GroupIndexer;\n\n    // Mapping that enables ease of traversal of groups created by an addressor\n    mapping(address => RecordIndex[]) private GroupForCreatorIndexer;\n\n    // indexes a group location using the group name\n    mapping(string => RecordIndex) private GroupIndexerByName;\n\n    GroupMember[] GroupMembers;\n\n    //Mapping of a groups members. Key is the group id,\n    mapping(uint256 => RecordIndex[]) private GroupMembersIndexer;\n\n    mapping(address => RecordIndex[]) private GroupMembersIndexerByDepositor;\n    mapping(uint256 => mapping(address => RecordIndex))\n        private GroupMembersDeepIndexer;\n\n    // list of group records\n    Member[] private Members;\n\n    //Mapping that enables ease of traversal of the member records. key is the member address\n    mapping(address => RecordIndex) private MemberIndexer;\n\n    uint256 lastGroupId;\n\n    address[] tokenAddresses;\n    uint256 totalEthersDeposited;\n    mapping(address => uint256) totalTokensDeposited;\n\n    function getLengthOfTokenAddressesUsedInDeposit()\n        external\n        view\n        returns (uint256)\n    {\n        return tokenAddresses.length;\n    }\n\n    function incrementTokenDeposit(address tokenAddress, uint256 amount)\n        external\n        onlyStorageOracle\n        returns (uint256)\n    {\n        if (totalTokensDeposited[tokenAddress] == 0) {\n            tokenAddresses.push(tokenAddress);\n        }\n        totalTokensDeposited[tokenAddress] += amount;\n        return totalTokensDeposited[tokenAddress];\n    }\n\n    function decrementTokenDeposit(address tokenAddress, uint256 amount)\n        external\n        onlyStorageOracle\n        returns (uint256)\n    {\n        uint256 currentAmount = totalTokensDeposited[tokenAddress];\n        require(\n            currentAmount >= amount,\n            \"deposit balance overdraft is not allowed\"\n        );\n        totalTokensDeposited[tokenAddress] -= amount;\n        return totalTokensDeposited[tokenAddress];\n    }\n\n    function getTokenDeposit(address tokenAddress)\n        external\n        view\n        returns (uint256)\n    {\n        return totalTokensDeposited[tokenAddress];\n    }\n\n    function incrementEtherDeposit(uint256 amount)\n        external\n        onlyStorageOracle\n        returns (uint256)\n    {\n        totalEthersDeposited += amount;\n        return totalEthersDeposited;\n    }\n\n    function decrementEtherDeposit(uint256 amount)\n        external\n        onlyStorageOracle\n        returns (uint256)\n    {\n        require(\n            totalEthersDeposited >= amount,\n            \"deposit balance overdraft is not allowed\"\n        );\n        totalEthersDeposited -= amount;\n        return totalEthersDeposited;\n    }\n\n    function getEtherDeposit() external view returns (uint256) {\n        return totalEthersDeposited;\n    }\n\n    function createMember(address payable depositor)\n        external\n        onlyStorageOracle\n    {\n        Member memory member = Member(true, depositor);\n\n        bool exist = _doesMemberExist(depositor);\n\n        require(exist == false, \"Member already exists\");\n\n        RecordIndex memory recordIndex = RecordIndex(true, Members.length);\n\n        Members.push(member);\n        MemberIndexer[depositor] = recordIndex;\n    }\n\n    function getMember(address _address) external view returns (address) {\n        uint256 index = _getMemberIndex(_address);\n        Member memory member = Members[index];\n\n        return (member._address);\n    }\n\n    function _getMemberIndex(address _address) internal view returns (uint256) {\n        bool doesMemberExist = MemberIndexer[_address].exists;\n        require(doesMemberExist == true, \"Member not found\");\n\n        uint256 index = MemberIndexer[_address].index;\n        return index;\n    }\n\n    function createGroup(\n        string calldata name,\n        string calldata symbol,\n        address groupCreator\n    ) external onlyStorageOracle returns (uint256) {\n        bool exist = _doesGroupExist(name);\n        require(exist == false, \"Group name has already been used\");\n\n        lastGroupId += 1;\n        Group memory group = Group(\n            true,\n            lastGroupId,\n            name,\n            symbol,\n            payable(groupCreator)\n        );\n        uint256 index = Groups.length;\n        RecordIndex memory recordIndex = RecordIndex(true, index);\n        Groups.push(group);\n        GroupIndexer[lastGroupId] = recordIndex;\n        GroupIndexerByName[name] = recordIndex;\n        GroupForCreatorIndexer[groupCreator].push(recordIndex);\n\n        return lastGroupId;\n    }\n\n    function updateGroup(\n        uint256 id,\n        string calldata name,\n        string calldata symbol,\n        address payable creatorAddress\n    ) external onlyStorageOracle {\n        uint256 index = _getGroupIndex(id);\n        Groups[index].name = name;\n        Groups[index].symbol = symbol;\n        Groups[index].creatorAddress = creatorAddress;\n    }\n\n    function doesGroupExist(uint256 groupId) external view returns (bool) {\n        return _doesGroupExist(groupId);\n    }\n\n    function _doesGroupExist(uint256 groupId) internal view returns (bool) {\n        bool groupExist = GroupIndexer[groupId].exists;\n        return groupExist;\n    }\n\n    function doesGroupExist(string calldata groupName)\n        external\n        view\n        returns (bool)\n    {\n        return _doesGroupExist(groupName);\n    }\n\n    function _doesGroupExist(string memory groupName)\n        internal\n        view\n        returns (bool)\n    {\n        bool groupExist = GroupIndexerByName[groupName].exists;\n\n        return groupExist;\n    }\n\n    function doesMemberExist(address depositor) external view returns (bool) {\n        return _doesMemberExist(depositor);\n    }\n\n    function _doesMemberExist(address depositor) internal view returns (bool) {\n        bool exist = MemberIndexer[depositor].exists;\n\n        if (exist) return true;\n        else return false;\n    }\n\n    function createGroupMember(uint256 groupId, address payable depositor)\n        external\n        onlyStorageOracle\n    {\n        bool exist = _doesGroupMemberExist(groupId, depositor);\n        require(exist == false, \"Group member exists\");\n\n        RecordIndex memory recordIndex = RecordIndex(true, GroupMembers.length);\n\n        GroupMember memory groupMember = GroupMember(true, depositor, groupId);\n\n        GroupMembersIndexer[groupId].push(recordIndex);\n        GroupMembersIndexerByDepositor[depositor].push(recordIndex);\n        GroupMembersDeepIndexer[groupId][depositor] = recordIndex;\n        GroupMembers.push(groupMember);\n    }\n\n    function getGroupMember(uint256 index)\n        external\n        view\n        returns (address payable _address, uint256 groupId)\n    {\n        GroupMember memory groupMember = GroupMembers[index];\n        return (groupMember._address, groupMember.groupId);\n    }\n\n    function getGroupMembersDeepIndexer(uint256 groupId, address depositor)\n        external\n        view\n        returns (bool exists, uint256 index)\n    {\n\n            RecordIndex memory recordIndex\n         = GroupMembersDeepIndexer[groupId][depositor];\n        return (recordIndex.exists, recordIndex.index);\n    }\n\n    function getRecordIndexLengthForGroupMembersIndexer(uint256 groupId)\n        external\n        view\n        returns (uint256)\n    {\n        return GroupMembersIndexer[groupId].length;\n    }\n\n    function getRecordIndexLengthForGroupMembersIndexerByDepositor(\n        address depositor\n    ) external view returns (uint256) {\n        return GroupMembersIndexerByDepositor[depositor].length;\n    }\n\n    function getGroupMembersIndexer(uint256 groupId, uint256 indexerLocation)\n        external\n        view\n        returns (bool exist, uint256 index)\n    {\n\n            RecordIndex memory recordIndex\n         = GroupMembersIndexer[groupId][indexerLocation];\n        return (recordIndex.exists, recordIndex.index);\n    }\n\n    function getGroupMembersIndexerByDepositor(\n        address depositor,\n        uint256 indexerLocation\n    ) external view returns (bool exist, uint256 index) {\n\n            RecordIndex memory recordIndex\n         = GroupMembersIndexerByDepositor[depositor][indexerLocation];\n        return (recordIndex.exists, recordIndex.index);\n    }\n\n    function doesGroupMemberExist(uint256 groupId, address depositor)\n        external\n        view\n        returns (bool)\n    {\n        return _doesGroupMemberExist(groupId, depositor);\n    }\n\n    function _doesGroupMemberExist(uint256 groupId, address depositor)\n        internal\n        view\n        returns (bool)\n    {\n        bool exist = GroupMembersDeepIndexer[groupId][depositor].exists;\n        return exist;\n    }\n\n    function getGroupIndexer(uint256 groupId)\n        external\n        view\n        returns (bool exist, uint256 index)\n    {\n        RecordIndex memory recordIndex = GroupIndexer[groupId];\n        return (recordIndex.exists, recordIndex.index);\n    }\n\n    function getRecordIndexLengthForCreator(address groupCreator)\n        external\n        view\n        returns (uint256)\n    {\n        return GroupForCreatorIndexer[groupCreator].length;\n    }\n\n    function getGroupForCreatorIndexer(\n        address groupCreator,\n        uint256 indexerLocation\n    ) external view returns (bool exist, uint256 index) {\n\n            RecordIndex memory recordIndex\n         = GroupForCreatorIndexer[groupCreator][indexerLocation];\n        return (recordIndex.exists, recordIndex.index);\n    }\n\n    function getGroupIndexerByName(string calldata groupName)\n        external\n        view\n        returns (bool exist, uint256 index)\n    {\n        RecordIndex memory recordIndex = GroupIndexerByName[groupName];\n        return (recordIndex.exists, recordIndex.index);\n    }\n\n    function getGroupById(uint256 groupId)\n        external\n        view\n        returns (\n            uint256,\n            string memory,\n            string memory,\n            address payable\n        )\n    {\n        uint256 index = _getGroupIndex(groupId);\n\n        Group storage group = Groups[index];\n        return (group.id, group.name, group.symbol, group.creatorAddress);\n    }\n\n    function getGroupByIndex(uint256 index)\n        external\n        view\n        returns (\n            uint256,\n            string memory,\n            string memory,\n            address payable\n        )\n    {\n        return _getGroupByIndex(index);\n    }\n\n    function getGroupsLength() external view returns (uint256 length) {\n        length = Groups.length;\n        return length;\n    }\n\n    function _getGroupByIndex(uint256 index)\n        internal\n        view\n        returns (\n            uint256,\n            string memory,\n            string memory,\n            address payable\n        )\n    {\n        uint256 length = Groups.length;\n        require(length > index, \"Out of range\");\n        Group storage group = Groups[index];\n        return (group.id, group.name, group.symbol, group.creatorAddress);\n    }\n\n    function getGroupIndex(uint256 groupId) external view returns (uint256) {\n        return _getGroupIndex(groupId);\n    }\n\n    function _getGroupIndex(uint256 groupId) internal view returns (uint256) {\n        bool doesGroupExist = GroupIndexer[groupId].exists;\n        require(doesGroupExist == true, \"Group not found\");\n        uint256 index = GroupIndexer[groupId].index;\n        return index;\n    }\n}\n",
  "sourcePath": "/home/cally/BinaryHills/xend/xend-finance/esusu/Test/contracts/Groups.sol",
  "compiler": {
    "name": "solc",
    "version": "0.6.6+commit.6c089d02.Emscripten.clang"
  },
  "schemaVersion": "3.3.1",
  "updatedAt": "2021-02-15T11:41:23.859Z",
  "networkType": "ethereum",
  "devdoc": {
    "methods": {}
  },
  "userdoc": {
    "methods": {}
  }
}