{
  "contractName": "XendFinanceIndividual_Yearn_V1",
  "abi": [
    {
      "inputs": [
        {
          "internalType": "address",
          "name": "lendingServiceAddress",
          "type": "address"
        },
        {
          "internalType": "address",
          "name": "tokenAddress",
          "type": "address"
        },
        {
          "internalType": "address",
          "name": "clientRecordStorageAddress",
          "type": "address"
        },
        {
          "internalType": "address",
          "name": "savingsConfigAddress",
          "type": "address"
        },
        {
          "internalType": "address",
          "name": "derivativeTokenAddress",
          "type": "address"
        },
        {
          "internalType": "address",
          "name": "rewardConfigAddress",
          "type": "address"
        },
        {
          "internalType": "address",
          "name": "xendTokenAddress",
          "type": "address"
        },
        {
          "internalType": "address",
          "name": "treasuryAddress",
          "type": "address"
        }
      ],
      "stateMutability": "nonpayable",
      "type": "constructor"
    },
    {
      "anonymous": false,
      "inputs": [
        {
          "indexed": false,
          "internalType": "address payable",
          "name": "user",
          "type": "address"
        },
        {
          "indexed": false,
          "internalType": "uint256",
          "name": "underlyingAmount",
          "type": "uint256"
        },
        {
          "indexed": false,
          "internalType": "uint256",
          "name": "derivativeAmount",
          "type": "uint256"
        },
        {
          "indexed": false,
          "internalType": "uint256",
          "name": "balance",
          "type": "uint256"
        }
      ],
      "name": "DerivativeAssetWithdrawn",
      "type": "event"
    },
    {
      "anonymous": false,
      "inputs": [
        {
          "indexed": false,
          "internalType": "address payable",
          "name": "user",
          "type": "address"
        },
        {
          "indexed": false,
          "internalType": "uint256",
          "name": "underlyingAmount",
          "type": "uint256"
        },
        {
          "indexed": false,
          "internalType": "uint256",
          "name": "derivativeAmount",
          "type": "uint256"
        },
        {
          "indexed": false,
          "internalType": "uint256",
          "name": "balance",
          "type": "uint256"
        }
      ],
      "name": "UnderlyingAssetDeposited",
      "type": "event"
    },
    {
      "anonymous": false,
      "inputs": [
        {
          "indexed": false,
          "internalType": "uint256",
          "name": "date",
          "type": "uint256"
        },
        {
          "indexed": false,
          "internalType": "address payable",
          "name": "recipient",
          "type": "address"
        },
        {
          "indexed": false,
          "internalType": "uint256",
          "name": "amount",
          "type": "uint256"
        }
      ],
      "name": "XendTokenReward",
      "type": "event"
    },
    {
      "inputs": [],
      "name": "owner",
      "outputs": [
        {
          "internalType": "address payable",
          "name": "",
          "type": "address"
        }
      ],
      "stateMutability": "view",
      "type": "function"
    },
    {
      "inputs": [
        {
          "internalType": "address payable",
          "name": "newOwner",
          "type": "address"
        }
      ],
      "name": "transferOwnership",
      "outputs": [],
      "stateMutability": "nonpayable",
      "type": "function"
    },
    {
      "inputs": [],
      "name": "setAdapterAddress",
      "outputs": [],
      "stateMutability": "nonpayable",
      "type": "function"
    },
    {
      "inputs": [
        {
          "internalType": "uint256",
          "name": "minimumLockPeriod",
          "type": "uint256"
        }
      ],
      "name": "setMinimumLockPeriod",
      "outputs": [],
      "stateMutability": "nonpayable",
      "type": "function"
    },
    {
      "inputs": [
        {
          "internalType": "address",
          "name": "newServiceAddress",
          "type": "address"
        }
      ],
      "name": "deprecateContract",
      "outputs": [],
      "stateMutability": "nonpayable",
      "type": "function"
    },
    {
      "inputs": [
        {
          "internalType": "address",
          "name": "member",
          "type": "address"
        }
      ],
      "name": "GetMemberXendTokenReward",
      "outputs": [
        {
          "internalType": "uint256",
          "name": "",
          "type": "uint256"
        }
      ],
      "stateMutability": "view",
      "type": "function"
    },
    {
      "inputs": [
        {
          "internalType": "address",
          "name": "depositor",
          "type": "address"
        }
      ],
      "name": "doesClientRecordExist",
      "outputs": [
        {
          "internalType": "bool",
          "name": "",
          "type": "bool"
        }
      ],
      "stateMutability": "view",
      "type": "function"
    },
    {
      "inputs": [
        {
          "internalType": "address",
          "name": "depositor",
          "type": "address"
        }
      ],
      "name": "getClientRecord",
      "outputs": [
        {
          "internalType": "address payable",
          "name": "_address",
          "type": "address"
        },
        {
          "internalType": "uint256",
          "name": "underlyingTotalDeposits",
          "type": "uint256"
        },
        {
          "internalType": "uint256",
          "name": "underlyingTotalWithdrawn",
          "type": "uint256"
        },
        {
          "internalType": "uint256",
          "name": "derivativeBalance",
          "type": "uint256"
        },
        {
          "internalType": "uint256",
          "name": "derivativeTotalDeposits",
          "type": "uint256"
        },
        {
          "internalType": "uint256",
          "name": "derivativeTotalWithdrawn",
          "type": "uint256"
        }
      ],
      "stateMutability": "nonpayable",
      "type": "function"
    },
    {
      "inputs": [],
      "name": "getClientRecord",
      "outputs": [
        {
          "internalType": "address payable",
          "name": "_address",
          "type": "address"
        },
        {
          "internalType": "uint256",
          "name": "underlyingTotalDeposits",
          "type": "uint256"
        },
        {
          "internalType": "uint256",
          "name": "underlyingTotalWithdrawn",
          "type": "uint256"
        },
        {
          "internalType": "uint256",
          "name": "derivativeBalance",
          "type": "uint256"
        },
        {
          "internalType": "uint256",
          "name": "derivativeTotalDeposits",
          "type": "uint256"
        },
        {
          "internalType": "uint256",
          "name": "derivativeTotalWithdrawn",
          "type": "uint256"
        }
      ],
      "stateMutability": "nonpayable",
      "type": "function"
    },
    {
      "inputs": [
        {
          "internalType": "uint256",
          "name": "index",
          "type": "uint256"
        }
      ],
      "name": "getClientRecordByIndex",
      "outputs": [
        {
          "internalType": "address payable",
          "name": "_address",
          "type": "address"
        },
        {
          "internalType": "uint256",
          "name": "underlyingTotalDeposits",
          "type": "uint256"
        },
        {
          "internalType": "uint256",
          "name": "underlyingTotalWithdrawn",
          "type": "uint256"
        },
        {
          "internalType": "uint256",
          "name": "derivativeBalance",
          "type": "uint256"
        },
        {
          "internalType": "uint256",
          "name": "derivativeTotalDeposits",
          "type": "uint256"
        },
        {
          "internalType": "uint256",
          "name": "derivativeTotalWithdrawn",
          "type": "uint256"
        }
      ],
      "stateMutability": "nonpayable",
      "type": "function"
    },
    {
      "inputs": [
        {
          "internalType": "uint256",
          "name": "derivativeAmount",
          "type": "uint256"
        }
      ],
      "name": "withdraw",
      "outputs": [],
      "stateMutability": "nonpayable",
      "type": "function"
    },
    {
      "inputs": [
        {
          "internalType": "address payable",
          "name": "recipient",
          "type": "address"
        },
        {
          "internalType": "uint256",
          "name": "derivativeAmount",
          "type": "uint256"
        }
      ],
      "name": "withdrawDelegate",
      "outputs": [],
      "stateMutability": "nonpayable",
      "type": "function"
    },
    {
      "inputs": [
        {
          "internalType": "uint256",
          "name": "recordId",
          "type": "uint256"
        },
        {
          "internalType": "uint256",
          "name": "amount",
          "type": "uint256"
        },
        {
          "internalType": "uint256",
          "name": "depositDateInSeconds",
          "type": "uint256"
        },
        {
          "internalType": "uint256",
          "name": "lockPeriodInSeconds",
          "type": "uint256"
        }
      ],
      "name": "WithdrawFromFixedDeposit",
      "outputs": [],
      "stateMutability": "nonpayable",
      "type": "function"
    },
    {
      "inputs": [],
      "name": "deposit",
      "outputs": [],
      "stateMutability": "nonpayable",
      "type": "function"
    },
    {
      "inputs": [
        {
          "internalType": "address payable",
          "name": "depositorAddress",
          "type": "address"
        }
      ],
      "name": "depositDelegate",
      "outputs": [],
      "stateMutability": "nonpayable",
      "type": "function"
    },
    {
      "inputs": [
        {
          "internalType": "uint256",
          "name": "depositDateInSeconds",
          "type": "uint256"
        },
        {
          "internalType": "uint256",
          "name": "lockPeriodInSeconds",
          "type": "uint256"
        }
      ],
      "name": "FixedDeposit",
      "outputs": [],
      "stateMutability": "nonpayable",
      "type": "function"
    }
  ],
  "bytecode": "0x608060405262786450600a5534801561001757600080fd5b50604051613662380380613662833981810160405261010081101561003b57600080fd5b508051602082015160408301516060840151608085015160a086015160c087015160e0909701516000805433600160a060020a031991821617825560018055600280548216600160a060020a039a8b16179055600380548216988a16989098179097556004805488169689169690961790955560068054871694881694909417909355600580548616918716919091179055600780548516918616919091179055600880548416918516919091179055600980549092169290931691909117905561355690819061010c90396000f3fe608060405234801561001057600080fd5b50600436106101045760003560e060020a90048063a53b0a0a1161009b578063e08c694c1161006a578063e08c694c146102e0578063e6a71e61146102fd578063eec562c314610305578063f2fde38b1461033d57610104565b8063a53b0a0a14610232578063cf04a19d14610295578063d0e30db0146102b2578063da26ec22146102ba57610104565b80632e1a7d4d116100d75780632e1a7d4d146101a2578063759dc902146101bf5780637d6633d0146101e25780638da5cb5b1461020e57610104565b806306d4a99114610109578063242222e01461013a57806328c38b33146101605780632adc57a614610168575b600080fd5b6101386004803603608081101561011f57600080fd5b5080359060208101359060408101359060600135610363565b005b6101386004803603602081101561015057600080fd5b5035600160a060020a031661089c565b610138610a95565b61018e6004803603602081101561017e57600080fd5b5035600160a060020a0316610b90565b604080519115158252519081900360200190f35b610138600480360360208110156101b857600080fd5b5035610c7b565b610138600480360360408110156101d557600080fd5b5080359060200135610cd2565b610138600480360360408110156101f857600080fd5b50600160a060020a0381351690602001356113a4565b61021661144a565b60408051600160a060020a039092168252519081900360200190f35b6102586004803603602081101561024857600080fd5b5035600160a060020a0316611459565b60408051600160a060020a0390971687526020870195909552858501939093526060850191909152608084015260a0830152519081900360c00190f35b610138600480360360208110156102ab57600080fd5b50356114f6565b610138611597565b610138600480360360208110156102d057600080fd5b5035600160a060020a03166115ee565b610258600480360360208110156102f657600080fd5b5035611696565b6102586116ff565b61032b6004803603602081101561031b57600080fd5b5035600160a060020a031661179b565b60408051918252519081900360200190f35b6101386004803603602081101561035357600080fd5b5035600160a060020a03166117b6565b60095460a060020a900460ff16156103af5760405160e560020a62461bcd0281526004018080602001828103825260248152602001806133bb6024913960400191505060405180910390fd5b336103b861325e565b6103c186611842565b90508383866103cf896118e7565b600254604080517f77f1a4af0000000000000000000000000000000000000000000000000000000081529051600092600160a060020a0316916377f1a4af916004808301926020929190829003018186803b15801561042d57600080fd5b505afa158015610441573d6000803e3d6000fd5b505050506040513d602081101561045757600080fd5b5051600254604080517f6583d12a000000000000000000000000000000000000000000000000000000008152600481018690529051929350600160a060020a0390911691636583d12a9160248082019260009290919082900301818387803b1580156104c257600080fd5b505af11580156104d6573d6000803e3d6000fd5b505050506000600260009054906101000a9004600160a060020a0316600160a060020a03166377f1a4af6040518163ffffffff1660e060020a02815260040160206040518083038186803b15801561052d57600080fd5b505afa158015610541573d6000803e3d6000fd5b505050506040513d602081101561055757600080fd5b50519050600061056d838363ffffffff6119a616565b9050600061057a826119f1565b9050600061058e838363ffffffff6119a616565b6003549091506105ae90600160a060020a03168b8363ffffffff611a7716565b81156106bf576003546008546040805160e060020a63095ea7b3028152600160a060020a039283166004820152602481018690529051919092169163095ea7b39160448083019260209291908290030181600087803b15801561061057600080fd5b505af1158015610624573d6000803e3d6000fd5b505050506040513d602081101561063a57600080fd5b5050600854600354604080517f2fd55265000000000000000000000000000000000000000000000000000000008152600160a060020a03928316600482015290519190921691632fd5526591602480830192600092919082900301818387803b1580156106a657600080fd5b505af11580156106ba573d6000803e3d6000fd5b505050505b600460009054906101000a9004600160a060020a0316600160a060020a0316632848b7d18f888a8c3360016040518763ffffffff1660e060020a0281526004018087815260200186815260200185815260200184815260200183600160a060020a0316600160a060020a03168152602001821515151581526020019650505050505050600060405180830381600087803b15801561075c57600080fd5b505af1158015610770573d6000803e3d6000fd5b50505050600460009054906101000a9004600160a060020a0316600160a060020a0316638b6297d48b8b600001518c606001518b8d60016040518763ffffffff1660e060020a0281526004018087600160a060020a0316600160a060020a03168152602001868152602001858152602001848152602001838152602001821515151581526020019650505050505050600060405180830381600087803b15801561081957600080fd5b505af115801561082d573d6000803e3d6000fd5b5050505061083c87878c611afc565b60408051600160a060020a038c168152602081018590528082018890526060810188905290517fd5468dee606e30ba003497bfa4b158e7a8b1134f21a820a3d72e4b3d8af8514f9181900360800190a15050505050505050505050505050565b600054600160a060020a031633146108ec576040805160e560020a62461bcd02815260206004820152601f6024820152600080516020613375833981519152604482015290519081900360640190fd5b60095460a060020a900460ff16156109385760405160e560020a62461bcd0281526004018080602001828103825260248152602001806133bb6024913960400191505060405180910390fd5b6009805474ff0000000000000000000000000000000000000000191660a060020a17905560048054604080517f0fdf80ed000000000000000000000000000000000000000000000000000000008152600160a060020a038581169482019490945290519290911691630fdf80ed9160248082019260009290919082900301818387803b1580156109c757600080fd5b505af11580156109db573d6000803e3d6000fd5b5050600754604080517f70a08231000000000000000000000000000000000000000000000000000000008152306004820152905160009450600160a060020a0390921692506370a08231916024808301926020929190829003018186803b158015610a4557600080fd5b505afa158015610a59573d6000803e3d6000fd5b505050506040513d6020811015610a6f57600080fd5b5051600754909150610a9190600160a060020a0316838363ffffffff611a7716565b5050565b600054600160a060020a03163314610ae5576040805160e560020a62461bcd02815260206004820152601f6024820152600080516020613375833981519152604482015290519081900360640190fd5b600260009054906101000a9004600160a060020a0316600160a060020a031663593669aa6040518163ffffffff1660e060020a02815260040160206040518083038186803b158015610b3657600080fd5b505afa158015610b4a573d6000803e3d6000fd5b505050506040513d6020811015610b6057600080fd5b5051600c805473ffffffffffffffffffffffffffffffffffffffff1916600160a060020a03909216919091179055565b60095460009060a060020a900460ff1615610bdf5760405160e560020a62461bcd0281526004018080602001828103825260248152602001806133bb6024913960400191505060405180910390fd5b60048054604080517f2adc57a6000000000000000000000000000000000000000000000000000000008152600160a060020a038681169482019490945290519290911691632adc57a691602480820192602092909190829003018186803b158015610c4957600080fd5b505afa158015610c5d573d6000803e3d6000fd5b505050506040513d6020811015610c7357600080fd5b505192915050565b60095460a060020a900460ff1615610cc75760405160e560020a62461bcd0281526004018080602001828103825260248152602001806133bb6024913960400191505060405180910390fd5b33610a918183611c3c565b60095460a060020a900460ff1615610d1e5760405160e560020a62461bcd0281526004018080602001828103825260248152602001806133bb6024913960400191505060405180910390fd5b600354604080517fdd62ed3e0000000000000000000000000000000000000000000000000000000081523360048201819052306024830181905292519093600092600160a060020a039091169163dd62ed3e91604480820192602092909190829003018186803b158015610d9157600080fd5b505afa158015610da5573d6000803e3d6000fd5b505050506040513d6020811015610dbb57600080fd5b5051600a54909150841015610e045760405160e560020a62461bcd0281526004018080602001828103825260248152602001806134fd6024913960400191505060405180910390fd5b60008111610e465760405160e560020a62461bcd0281526004018080602001828103825260318152602001806132e86031913960400191505060405180910390fd5b600354604080517f23b872dd000000000000000000000000000000000000000000000000000000008152600160a060020a038681166004830152858116602483015260448201859052915160009392909216916323b872dd9160648082019260209290919082900301818787803b158015610ec057600080fd5b505af1158015610ed4573d6000803e3d6000fd5b505050506040513d6020811015610eea57600080fd5b5051905080610f2d5760405160e560020a62461bcd02815260040180806020018281038252603681526020018061333f6036913960400191505060405180910390fd5b600354600c546040805160e060020a63095ea7b3028152600160a060020a039283166004820152602481018690529051919092169163095ea7b39160448083019260209291908290030181600087803b158015610f8957600080fd5b505af1158015610f9d573d6000803e3d6000fd5b505050506040513d6020811015610fb357600080fd5b5050600254604080517f0db8d01e0000000000000000000000000000000000000000000000000000000081529051600092600160a060020a031691630db8d01e916004808301926020929190829003018186803b15801561101357600080fd5b505afa158015611027573d6000803e3d6000fd5b505050506040513d602081101561103d57600080fd5b5051600254604080517f1b862027000000000000000000000000000000000000000000000000000000008152600481018790529051929350600160a060020a0390911691631b8620279160248082019260009290919082900301818387803b1580156110a857600080fd5b505af11580156110bc573d6000803e3d6000fd5b505050506000600260009054906101000a9004600160a060020a0316600160a060020a0316630db8d01e6040518163ffffffff1660e060020a02815260040160206040518083038186803b15801561111357600080fd5b505afa158015611127573d6000803e3d6000fd5b505050506040513d602081101561113d57600080fd5b505190506000611153828463ffffffff6119a616565b60048054604080517f30951936000000000000000000000000000000000000000000000000000000008152928301899052602483018c9052604483018d9052600160a060020a038b811660648501526000608485018190529151949550909391169163309519369160a480830192602092919082900301818787803b1580156111db57600080fd5b505af11580156111ef573d6000803e3d6000fd5b505050506040513d602081101561120557600080fd5b505160048054604080517f9ff8325b000000000000000000000000000000000000000000000000000000008152600160a060020a038d811694820194909452602481018590529051939450911691639ff8325b9160448082019260009290919082900301818387803b15801561127a57600080fd5b505af115801561128e573d6000803e3d6000fd5b50505050600460009054906101000a9004600160a060020a0316600160a060020a0316638b6297d48983898d8f60006040518763ffffffff1660e060020a0281526004018087600160a060020a0316600160a060020a03168152602001868152602001858152602001848152602001838152602001821515151581526020019650505050505050600060405180830381600087803b15801561132f57600080fd5b505af1158015611343573d6000803e3d6000fd5b505060408051600160a060020a038c168152602081018a9052808201869052606081018a905290517f86a9dc3904ee8065112f9a0b8fa88e50a3d11fde7dd6d983619db7e3176bd0459350908190036080019150a150505050505050505050565b60095460a060020a900460ff16156113f05760405160e560020a62461bcd0281526004018080602001828103825260248152602001806133bb6024913960400191505060405180910390fd5b600054600160a060020a03163314611440576040805160e560020a62461bcd02815260206004820152601f6024820152600080516020613375833981519152604482015290519081900360640190fd5b610a918282611c3c565b600054600160a060020a031681565b600080600080600080600960149054906101000a900460ff16156114b15760405160e560020a62461bcd0281526004018080602001828103825260248152602001806133bb6024913960400191505060405180910390fd5b6114b961329f565b6114c288612019565b602081015160408201516060830151608084015160a085015160c090950151939d929c50909a509850919650945092505050565b60095460a060020a900460ff16156115425760405160e560020a62461bcd0281526004018080602001828103825260248152602001806133bb6024913960400191505060405180910390fd5b600054600160a060020a03163314611592576040805160e560020a62461bcd02815260206004820152601f6024820152600080516020613375833981519152604482015290519081900360640190fd5b600a55565b60095460a060020a900460ff16156115e35760405160e560020a62461bcd0281526004018080602001828103825260248152602001806133bb6024913960400191505060405180910390fd5b6115ec33612131565b565b60095460a060020a900460ff161561163a5760405160e560020a62461bcd0281526004018080602001828103825260248152602001806133bb6024913960400191505060405180910390fd5b600054600160a060020a0316331461168a576040805160e560020a62461bcd02815260206004820152601f6024820152600080516020613375833981519152604482015290519081900360640190fd5b61169381612131565b50565b600080600080600080600960149054906101000a900460ff16156116ee5760405160e560020a62461bcd0281526004018080602001828103825260248152602001806133bb6024913960400191505060405180910390fd5b6116f661329f565b6114c288612703565b600080600080600080600960149054906101000a900460ff16156117575760405160e560020a62461bcd0281526004018080602001828103825260248152602001806133bb6024913960400191505060405180910390fd5b61175f61329f565b61176833612019565b602081015160408201516060830151608084015160a085015160c090950151939c929b5090995097509195509350915050565b600160a060020a03166000908152600b602052604090205490565b600054600160a060020a03163314611806576040805160e560020a62461bcd02815260206004820152601f6024820152600080516020613375833981519152604482015290519081900360640190fd5b600160a060020a038116156116935760008054600160a060020a03831673ffffffffffffffffffffffffffffffffffffffff1990911617905550565b61184a61325e565b600080600080600080600460009054906101000a9004600160a060020a0316600160a060020a03166335dc275b896040518263ffffffff1660e060020a0281526004018082815260200191505060c06040518083038186803b1580156118af57600080fd5b505afa1580156118c3573d6000803e3d6000fd5b505050506040513d60c08110156118d957600080fd5b509698975050505050505050565b6118ef61325e565b6118f882611842565b60a0810151604082015191925090801561195c576040805160e560020a62461bcd02815260206004820181905260248201527f496e646976696475616c2068617320616c72656164792077697468647261776e604482015290519081900360640190fd5b428281101561199f5760405160e560020a62461bcd0281526004018080602001828103825260368152602001806134276036913960400191505060405180910390fd5b5050505050565b60006119e883836040518060400160405280601e81526020017f536166654d6174683a207375627472616374696f6e206f766572666c6f770000815250612770565b90505b92915050565b6000806119fc61280f565b90506000611a086129f1565b905060008411611a4c5760405160e560020a62461bcd0281526004018080602001828103825260268152602001806133956026913960400191505060405180910390fd5b611a6f6064611a638381888763ffffffff612a9f16565b9063ffffffff612afb16565b949350505050565b60408051600160a060020a038416602482015260448082018490528251808303909101815260649091019091526020810180517bffffffffffffffffffffffffffffffffffffffffffffffffffffffff167fa9059cbb00000000000000000000000000000000000000000000000000000000179052611af7908490612b3d565b505050565b600554604080517feabe85cb00000000000000000000000000000000000000000000000000000000815260048101869052602481018590529051600092600160a060020a03169163eabe85cb916044808301926020929190829003018186803b158015611b6857600080fd5b505afa158015611b7c573d6000803e3d6000fd5b505050506040513d6020811015611b9257600080fd5b505190508015611c3657600954604080517f40c10f19000000000000000000000000000000000000000000000000000000008152600160a060020a03858116600483015260248201859052915191909216916340c10f1991604480830192600092919082900301818387803b158015611c0a57600080fd5b505af1158015611c1e573d6000803e3d6000fd5b50505050611c2c8282612bf1565b611c368282612c86565b50505050565b60026001541415611c97576040805160e560020a62461bcd02815260206004820152601f60248201527f5265656e7472616e637947756172643a207265656e7472616e742063616c6c00604482015290519081900360640190fd5b6002600155611ca68282612cd2565b600254604080517f77f1a4af0000000000000000000000000000000000000000000000000000000081529051600092600160a060020a0316916377f1a4af916004808301926020929190829003018186803b158015611d0457600080fd5b505afa158015611d18573d6000803e3d6000fd5b505050506040513d6020811015611d2e57600080fd5b5051600254604080517f6583d12a000000000000000000000000000000000000000000000000000000008152600481018690529051929350600160a060020a0390911691636583d12a9160248082019260009290919082900301818387803b158015611d9957600080fd5b505af1158015611dad573d6000803e3d6000fd5b505050506000600260009054906101000a9004600160a060020a0316600160a060020a03166377f1a4af6040518163ffffffff1660e060020a02815260040160206040518083038186803b158015611e0457600080fd5b505afa158015611e18573d6000803e3d6000fd5b505050506040513d6020811015611e2e57600080fd5b505190506000611e44838363ffffffff6119a616565b90506000611e51826119f1565b90506000611e65838363ffffffff6119a616565b600354909150611e8590600160a060020a0316888363ffffffff611a7716565b8115611f96576003546008546040805160e060020a63095ea7b3028152600160a060020a039283166004820152602481018690529051919092169163095ea7b39160448083019260209291908290030181600087803b158015611ee757600080fd5b505af1158015611efb573d6000803e3d6000fd5b505050506040513d6020811015611f1157600080fd5b5050600854600354604080517f2fd55265000000000000000000000000000000000000000000000000000000008152600160a060020a03928316600482015290519190921691632fd5526591602480830192600092919082900301818387803b158015611f7d57600080fd5b505af1158015611f91573d6000803e3d6000fd5b505050505b611f9e61329f565b611fa9888589612d2d565b9050611fb481612d9f565b60808082015160408051600160a060020a038c168152602081018890528082018b90526060810192909252517fd5468dee606e30ba003497bfa4b158e7a8b1134f21a820a3d72e4b3d8af8514f929181900390910190a1505060018055505050505050565b61202161329f565b600080600080600080600460009054906101000a9004600160a060020a0316600160a060020a0316637c79ed46896040518263ffffffff1660e060020a0281526004018082600160a060020a0316600160a060020a0316815260200191505060c06040518083038186803b15801561209857600080fd5b505afa1580156120ac573d6000803e3d6000fd5b505050506040513d60c08110156120c257600080fd5b50805160208083015160408085015160608087015160808089015160a0998a0151865160e08101885260018152600160a060020a03909a16988a01989098529488019590955290860191909152918401919091529282019290925260c081019190915298975050505050505050565b600354604080517fdd62ed3e000000000000000000000000000000000000000000000000000000008152600160a060020a03848116600483015230602483018190529251929360009391169163dd62ed3e916044808301926020929190829003018186803b1580156121a257600080fd5b505afa1580156121b6573d6000803e3d6000fd5b505050506040513d60208110156121cc57600080fd5b505190508061220f5760405160e560020a62461bcd0281526004018080602001828103825260318152602001806132e86031913960400191505060405180910390fd5b600354604080517f23b872dd000000000000000000000000000000000000000000000000000000008152600160a060020a038681166004830152858116602483015260448201859052915160009392909216916323b872dd9160648082019260209290919082900301818787803b15801561228957600080fd5b505af115801561229d573d6000803e3d6000fd5b505050506040513d60208110156122b357600080fd5b50519050806122f65760405160e560020a62461bcd02815260040180806020018281038252603681526020018061333f6036913960400191505060405180910390fd5b600354600c546040805160e060020a63095ea7b3028152600160a060020a039283166004820152602481018690529051919092169163095ea7b39160448083019260209291908290030181600087803b15801561235257600080fd5b505af1158015612366573d6000803e3d6000fd5b505050506040513d602081101561237c57600080fd5b5050600254604080517f0db8d01e0000000000000000000000000000000000000000000000000000000081529051600092600160a060020a031691630db8d01e916004808301926020929190829003018186803b1580156123dc57600080fd5b505afa1580156123f0573d6000803e3d6000fd5b505050506040513d602081101561240657600080fd5b5051600254604080517f1b862027000000000000000000000000000000000000000000000000000000008152600481018790529051929350600160a060020a0390911691631b8620279160248082019260009290919082900301818387803b15801561247157600080fd5b505af1158015612485573d6000803e3d6000fd5b505050506000600260009054906101000a9004600160a060020a0316600160a060020a0316630db8d01e6040518163ffffffff1660e060020a02815260040160206040518083038186803b1580156124dc57600080fd5b505afa1580156124f0573d6000803e3d6000fd5b505050506040513d602081101561250657600080fd5b50519050600061251c828463ffffffff6119a616565b905061252661329f565b612531888784612e56565b90506000600460009054906101000a9004600160a060020a0316600160a060020a0316632adc57a68a6040518263ffffffff1660e060020a0281526004018082600160a060020a0316600160a060020a0316815260200191505060206040518083038186803b1580156125a357600080fd5b505afa1580156125b7573d6000803e3d6000fd5b505050506040513d60208110156125cd57600080fd5b5051905080156125e5576125e082612d9f565b6126a1565b6004805460208401516040808601516060870151608088015160a089015160c08a015185517f89694be7000000000000000000000000000000000000000000000000000000008152600160a060020a0397881699810199909952602489019490945260448801929092526064870152608486015260a4850152519116916389694be79160c480830192600092919082900301818387803b15801561268857600080fd5b505af115801561269c573d6000803e3d6000fd5b505050505b60808083015160408051600160a060020a038d168152602081018b90528082018790526060810192909252517f86a9dc3904ee8065112f9a0b8fa88e50a3d11fde7dd6d983619db7e3176bd045929181900390910190a1505050505050505050565b61270b61329f565b600080600080600080600460009054906101000a9004600160a060020a0316600160a060020a031663e08c694c896040518263ffffffff1660e060020a0281526004018082815260200191505060c06040518083038186803b15801561209857600080fd5b600081848411156128025760405160e560020a62461bcd0281526004018080602001828103825283818151815260200191508051906020019080838360005b838110156127c75781810151838201526020016127af565b50505050905090810190601f1680156127f45780820380516001836020036101000a031916815260200191505b509250505060405180910390fd5b50508183035b9392505050565b600654604080518082018252601f81527f58454e445f46494e414e43455f434f4d4d4953494f4e5f4449564944454e4400602080830191825292517f37f2a0240000000000000000000000000000000000000000000000000000000081526004810193845282516024820152825160009586958695869586958695600160a060020a03909516946337f2a02494928392604401918083838b5b838110156128c05781810151838201526020016128a8565b50505050905090810190601f1680156128ed5780820380516001836020036101000a031916815260200191505b509250505060a060405180830381600087803b15801561290c57600080fd5b505af1158015612920573d6000803e3d6000fd5b505050506040513d60a081101561293657600080fd5b508051602082015160408301516060840151608090940151929850909650945090925090508161299a5760405160e560020a62461bcd0281526004018080602001828103825260278152602001806134006027913960400191505060405180910390fd5b60018160018111156129a857fe5b146129e75760405160e560020a62461bcd02815260040180806020018281038252603a8152602001806134c3603a913960400191505060405180910390fd5b5090935050505090565b600654604080518082018252601e81527f58454e445f46494e414e43455f434f4d4d4953494f4e5f44495649534f520000602080830191825292517f37f2a0240000000000000000000000000000000000000000000000000000000081526004810193845282516024820152825160009586958695869586958695600160a060020a03909516946337f2a02494928392604401918083838b83156128c05781810151838201526020016128a8565b600082612aae575060006119eb565b82820282848281612abb57fe5b04146119e85760405160e560020a62461bcd0281526004018080602001828103825260218152602001806133df6021913960400191505060405180910390fd5b60006119e883836040518060400160405280601a81526020017f536166654d6174683a206469766973696f6e206279207a65726f000000000000815250612fb8565b6060612b92826040518060400160405280602081526020017f5361666545524332303a206c6f772d6c6576656c2063616c6c206661696c656481525085600160a060020a03166130209092919063ffffffff16565b805190915015611af757808060200190516020811015612bb157600080fd5b5051611af75760405160e560020a62461bcd02815260040180806020018281038252602a815260200180613499602a913960400191505060405180910390fd5b60095460a060020a900460ff1615612c3d5760405160e560020a62461bcd0281526004018080602001828103825260248152602001806133bb6024913960400191505060405180910390fd5b600160a060020a0382166000908152600b6020526040902054612c66908263ffffffff61302f16565b600160a060020a039092166000908152600b602052604090209190915550565b60408051428152600160a060020a038416602082015280820183905290517fedc02529ff71ee6028ad075806d0f6ac8bc18e48d2230ac2961d468d285f20ba9181900360600190a15050565b612cda61329f565b612ce383612019565b608081015190915082811015611c365760405160e560020a62461bcd02815260040180806020018281038252603c81526020018061345d603c913960400191505060405180910390fd5b612d3561329f565b612d3d61329f565b612d4685612019565b6060810151909150612d5e908563ffffffff61302f16565b606082015260c0810151612d78908463ffffffff61302f16565b60c08201526080810151612d92908463ffffffff6119a616565b6080820152949350505050565b6004805460208301516040808501516060860151608087015160a088015160c089015185517f46854aa7000000000000000000000000000000000000000000000000000000008152600160a060020a0397881699810199909952602489019490945260448801929092526064870152608486015260a4850152519116916346854aa79160c480830192600092919082900301818387803b158015612e4257600080fd5b505af115801561199f573d6000803e3d6000fd5b612e5e61329f565b60048054604080517f2adc57a6000000000000000000000000000000000000000000000000000000008152600160a060020a0388811694820194909452905160009390921691632adc57a691602480820192602092909190829003018186803b158015612eca57600080fd5b505afa158015612ede573d6000803e3d6000fd5b505050506040513d6020811015612ef457600080fd5b5051905080612f4d57612f0561329f565b50506040805160e08101825260018152600160a060020a03861660208201529081018490526000606082018190526080820184905260a0820184905260c08201529050612808565b612f5561329f565b612f5e86612019565b6040810151909150612f76908663ffffffff61302f16565b604082015260a0810151612f90908563ffffffff61302f16565b60a08201526080810151612faa908563ffffffff61302f16565b608082015291506128089050565b6000818361300a5760405160e560020a62461bcd0281526020600482018181528351602484015283519092839260449091019190850190808383600083156127c75781810151838201526020016127af565b50600083858161301657fe5b0495945050505050565b6060611a6f848460008561308c565b6000828201838110156119e8576040805160e560020a62461bcd02815260206004820152601b60248201527f536166654d6174683a206164646974696f6e206f766572666c6f770000000000604482015290519081900360640190fd5b606030318311156130d15760405160e560020a62461bcd0281526004018080602001828103825260268152602001806133196026913960400191505060405180910390fd5b6130da856131ef565b61312e576040805160e560020a62461bcd02815260206004820152601d60248201527f416464726573733a2063616c6c20746f206e6f6e2d636f6e7472616374000000604482015290519081900360640190fd5b6000606086600160a060020a031685876040518082805190602001908083835b6020831061316d5780518252601f19909201916020918201910161314e565b6001836020036101000a03801982511681845116808217855250505050505090500191505060006040518083038185875af1925050503d80600081146131cf576040519150601f19603f3d011682016040523d82523d6000602084013e6131d4565b606091505b50915091506131e48282866131f5565b979650505050505050565b3b151590565b60608315613204575081612808565b8251156132145782518084602001fd5b60405160e560020a62461bcd0281526020600482018181528451602484015284518593919283926044019190850190808383600083156127c75781810151838201526020016127af565b6040518060c00160405280600081526020016000600160a060020a031681526020016000151581526020016000815260200160008152602001600081525090565b6040518060e001604052806000151581526020016000600160a060020a031681526020016000815260200160008152602001600081526020016000815260200160008152509056fe417070726f766520616e20616d6f756e74203e203020666f7220746f6b656e206265666f72652070726f63656564696e67416464726573733a20696e73756666696369656e742062616c616e636520666f722063616c6c436f756c64206e6f7420636f6d706c657465206465706f7369742070726f636573732066726f6d20746f6b656e20636f6e7472616374556e617574686f72697a65642061636365737320746f20636f6e7472616374006d656d626572206465706f736974207265616c6c792069736e277420776f727468206d7563685365727669636520636f6e747261637420686173206265656e2064657072656361746564536166654d6174683a206d756c7469706c69636174696f6e206f766572666c6f77756e737570706f727465642072756c6520646566696e74696f6e20666f722072756c652073657446756e647320617265207374696c6c206c6f636b65642c207761697420756e74696c206c6f636b20706572696f6420657870697265735769746864726177616c2063616e6e6f742062652070726f6365737365732c20726561736f6e3a20496e73756666696369656e742042616c616e63655361666545524332303a204552433230206f7065726174696f6e20646964206e6f742073756363656564756e737570706f727465642072756c6520646566696e74696f6e20666f722070656e616c74792070657263656e746167652072756c65207365744d696e696d756d206c6f636b20706572696f64206d7573742062652033206d6f6e746873a26469706673582212204f7a429500d28527c83ec1b457bcce98303f57f39eea2a41c9a3f10b1293215b64736f6c63430006060033",
  "immutableReferences": {},
  "source": "// SPDX-License-Identifier: MIT\n\npragma solidity 0.6.6;\n\nimport \"./IClientRecordShema.sol\";\nimport \"../interfaces/IGroupSchema.sol\";\nimport \"./SafeERC20.sol\";\nimport \"./ReentrancyGuard.sol\";\nimport \"./SafeMath.sol\";\nimport \"./Ownable.sol\";\nimport \"../interfaces/IDaiLendingService.sol\";\nimport \"../interfaces/IRewardConfig.sol\";\nimport \"./IClientRecord.sol\";\nimport \"../interfaces/IERC20.sol\";\nimport \"./Address.sol\";\nimport \"../interfaces/ISavingsConfig.sol\";\nimport \"../interfaces/ISavingsConfigSchema.sol\";\nimport \"../interfaces/ITreasury.sol\";\nimport \"../interfaces/IXendToken.sol\";\n\ncontract XendFinanceIndividual_Yearn_V1 is\n    Ownable,\n    IClientRecordSchema,\n    ISavingsConfigSchema,\n    ReentrancyGuard\n{\n    using SafeMath for uint256;\n\n    using SafeERC20 for IERC20;\n\n    using Address for address payable;\n\n    event UnderlyingAssetDeposited(\n        address payable user,\n        uint256 underlyingAmount,\n        uint256 derivativeAmount,\n        uint256 balance\n    );\n\n    event DerivativeAssetWithdrawn(\n        address payable user,\n        uint256 underlyingAmount,\n        uint256 derivativeAmount,\n        uint256 balance\n    );\n\n    event XendTokenReward(\n        uint256 date,\n        address payable recipient,\n        uint256 amount\n    );\n\n    IDaiLendingService lendingService;\n    IERC20 daiToken;\n    IClientRecord clientRecordStorage;\n    IRewardConfig rewardConfig;\n    ISavingsConfig savingsConfig;\n    IERC20 derivativeToken;\n    ITreasury treasury;\n    IXendToken xendToken;\n\n    bool isDeprecated;\n\n    uint256 minLockPeriod = 7890000; //minimum lock period is three months by default\n\n    mapping(address => uint256) MemberToXendTokenRewardMapping; //  This tracks the total amount of xend token rewards a member has received\n\n    address LendingAdapterAddress;\n\n    string constant XEND_FINANCE_COMMISION_DIVISOR =\n        \"XEND_FINANCE_COMMISION_DIVISOR\";\n    string constant XEND_FINANCE_COMMISION_DIVIDEND =\n        \"XEND_FINANCE_COMMISION_DIVIDEND\";\n\n    constructor(\n        address lendingServiceAddress,\n        address tokenAddress,\n        address clientRecordStorageAddress,\n        address savingsConfigAddress,\n        address derivativeTokenAddress,\n        address rewardConfigAddress,\n        address xendTokenAddress,\n        address treasuryAddress\n    ) public {\n        lendingService = IDaiLendingService(lendingServiceAddress);\n        daiToken = IERC20(tokenAddress);\n        clientRecordStorage = IClientRecord(clientRecordStorageAddress);\n        savingsConfig = ISavingsConfig(savingsConfigAddress);\n        rewardConfig = IRewardConfig(rewardConfigAddress);\n        derivativeToken = IERC20(derivativeTokenAddress);\n        treasury = ITreasury(treasuryAddress);\n        xendToken = IXendToken(xendTokenAddress);\n    }\n\n    function setAdapterAddress() external onlyOwner {\n        LendingAdapterAddress = lendingService.GetDaiLendingAdapterAddress();\n    }\n\n     function setMinimumLockPeriod(uint256 minimumLockPeriod) external onlyNonDeprecatedCalls onlyOwner {\n        minLockPeriod = minimumLockPeriod;\n    }\n\n    function deprecateContract(address newServiceAddress)\n        external\n        onlyOwner\n        onlyNonDeprecatedCalls\n    {\n        isDeprecated = true;\n        clientRecordStorage.reAssignStorageOracle(newServiceAddress);\n        uint256 derivativeTokenBalance =\n            derivativeToken.balanceOf(address(this));\n        derivativeToken.safeTransfer(newServiceAddress, derivativeTokenBalance);\n    }\n\n    function _UpdateMemberToXendTokeRewardMapping(\n        address member,\n        uint256 rewardAmount\n    ) internal onlyNonDeprecatedCalls {\n        MemberToXendTokenRewardMapping[member] = MemberToXendTokenRewardMapping[\n            member\n        ]\n            .add(rewardAmount);\n    }\n\n    function GetMemberXendTokenReward(address member)\n        external\n        view\n        returns (uint256)\n    {\n        return MemberToXendTokenRewardMapping[member];\n    }\n\n    function doesClientRecordExist(address depositor)\n        external\n        view\n        onlyNonDeprecatedCalls\n        returns (bool)\n    {\n        return clientRecordStorage.doesClientRecordExist(depositor);\n    }\n\n    function getClientRecord(address depositor)\n        external\n        onlyNonDeprecatedCalls\n        returns (\n            address payable _address,\n            uint256 underlyingTotalDeposits,\n            uint256 underlyingTotalWithdrawn,\n            uint256 derivativeBalance,\n            uint256 derivativeTotalDeposits,\n            uint256 derivativeTotalWithdrawn\n        )\n    {\n        ClientRecord memory clientRecord = _getClientRecordByAddress(depositor);\n        return (\n            clientRecord._address,\n            clientRecord.underlyingTotalDeposits,\n            clientRecord.underlyingTotalWithdrawn,\n            clientRecord.derivativeBalance,\n            clientRecord.derivativeTotalDeposits,\n            clientRecord.derivativeTotalWithdrawn\n        );\n    }\n\n    function getClientRecord()\n        external\n        onlyNonDeprecatedCalls\n        returns (\n            address payable _address,\n            uint256 underlyingTotalDeposits,\n            uint256 underlyingTotalWithdrawn,\n            uint256 derivativeBalance,\n            uint256 derivativeTotalDeposits,\n            uint256 derivativeTotalWithdrawn\n        )\n    {\n        ClientRecord memory clientRecord =\n            _getClientRecordByAddress(msg.sender);\n\n        return (\n            clientRecord._address,\n            clientRecord.underlyingTotalDeposits,\n            clientRecord.underlyingTotalWithdrawn,\n            clientRecord.derivativeBalance,\n            clientRecord.derivativeTotalDeposits,\n            clientRecord.derivativeTotalWithdrawn\n        );\n    }\n\n    function getClientRecordByIndex(uint256 index)\n        external\n        onlyNonDeprecatedCalls\n        returns (\n            address payable _address,\n            uint256 underlyingTotalDeposits,\n            uint256 underlyingTotalWithdrawn,\n            uint256 derivativeBalance,\n            uint256 derivativeTotalDeposits,\n            uint256 derivativeTotalWithdrawn\n        )\n    {\n        ClientRecord memory clientRecord = _getClientRecordByIndex(index);\n        return (\n            clientRecord._address,\n            clientRecord.underlyingTotalDeposits,\n            clientRecord.underlyingTotalWithdrawn,\n            clientRecord.derivativeBalance,\n            clientRecord.derivativeTotalDeposits,\n            clientRecord.derivativeTotalWithdrawn\n        );\n    }\n\n    function _getClientRecordByIndex(uint256 index)\n        internal\n        returns (ClientRecord memory)\n    {\n        (\n            address payable _address,\n            uint256 underlyingTotalDeposits,\n            uint256 underlyingTotalWithdrawn,\n            uint256 derivativeBalance,\n            uint256 derivativeTotalDeposits,\n            uint256 derivativeTotalWithdrawn\n        ) = clientRecordStorage.getClientRecordByIndex(index);\n        return\n            ClientRecord(\n                true,\n                _address,\n                underlyingTotalDeposits,\n                underlyingTotalWithdrawn,\n                derivativeBalance,\n                derivativeTotalDeposits,\n                derivativeTotalWithdrawn\n            );\n    }\n\n    function _getClientRecordByAddress(address member)\n        internal\n        view\n        returns (ClientRecord memory)\n    {\n        (\n            address payable _address,\n            uint256 underlyingTotalDeposits,\n            uint256 underlyingTotalWithdrawn,\n            uint256 derivativeBalance,\n            uint256 derivativeTotalDeposits,\n            uint256 derivativeTotalWithdrawn\n        ) = clientRecordStorage.getClientRecordByAddress(member);\n\n        return\n            ClientRecord(\n                true,\n                _address,\n                underlyingTotalDeposits,\n                underlyingTotalWithdrawn,\n                derivativeBalance,\n                derivativeTotalDeposits,\n                derivativeTotalWithdrawn\n            );\n    }\n\n    function withdraw(uint256 derivativeAmount)\n        external\n        onlyNonDeprecatedCalls\n    {\n        address payable recipient = msg.sender;\n        _withdraw(recipient, derivativeAmount);\n    }\n\n    function withdrawDelegate(\n        address payable recipient,\n        uint256 derivativeAmount\n    ) external onlyNonDeprecatedCalls onlyOwner {\n        _withdraw(recipient, derivativeAmount);\n    }\n\n    function WithdrawFromFixedDeposit(\n        uint256 recordId, uint256 amount, uint256 depositDateInSeconds, uint256 lockPeriodInSeconds\n    ) external onlyNonDeprecatedCalls {\n        address payable recipient = msg.sender;\n\n        FixedDepositRecord memory depositRecord =\n            _getFixedDepositRecordById(recordId);\n\n        uint256 depositDate = depositDateInSeconds;\n\n        uint256 lockPeriod = lockPeriodInSeconds;\n\n        uint256 derivativeAmount = amount;\n\n        _validateLockTimeHasElapsedAndHasNotWithdrawn(recordId);\n\n        uint256 balanceBeforeWithdraw = lendingService.userDaiBalance();\n\n        lendingService.WithdrawBySharesOnly(derivativeAmount);\n\n        uint256 balanceAfterWithdraw = lendingService.userDaiBalance();\n\n        uint256 amountOfUnderlyingAssetWithdrawn =\n            balanceBeforeWithdraw.sub(balanceAfterWithdraw);\n\n        uint256 commissionFees =\n            _computeXendFinanceCommisions(amountOfUnderlyingAssetWithdrawn);\n\n        uint256 amountToSendToDepositor =\n            amountOfUnderlyingAssetWithdrawn.sub(commissionFees);\n\n        daiToken.safeTransfer(recipient, amountToSendToDepositor);\n\n        if (commissionFees > 0) {\n            daiToken.approve(address(treasury), commissionFees);\n            treasury.depositToken(address(daiToken));\n        }\n\n        clientRecordStorage.UpdateDepositRecordMapping(\n            recordId,\n            derivativeAmount,\n            lockPeriod,\n            depositDate,\n            msg.sender,\n            true\n        );\n        clientRecordStorage.CreateDepositorAddressToDepositRecordMapping(\n            recipient,\n            depositRecord.recordId,\n            depositRecord.amount,\n            lockPeriod,\n            depositDate,\n            true\n        );\n\n        _rewardUserWithTokens(lockPeriod, derivativeAmount, recipient);\n\n        emit DerivativeAssetWithdrawn(\n            recipient,\n            amountOfUnderlyingAssetWithdrawn,\n            derivativeAmount,\n            derivativeAmount\n        );\n    }\n\n    function _withdraw(address payable recipient, uint256 derivativeAmount)\n        internal\n        nonReentrant\n    {\n        _validateUserBalanceIsSufficient(recipient, derivativeAmount);\n\n        uint256 balanceBeforeWithdraw = lendingService.userDaiBalance();\n\n        lendingService.WithdrawBySharesOnly(derivativeAmount);\n\n        uint256 balanceAfterWithdraw = lendingService.userDaiBalance();\n\n        uint256 amountOfUnderlyingAssetWithdrawn =\n            balanceBeforeWithdraw.sub(balanceAfterWithdraw);\n\n        uint256 commissionFees =\n            _computeXendFinanceCommisions(amountOfUnderlyingAssetWithdrawn);\n\n        uint256 amountToSendToDepositor =\n            amountOfUnderlyingAssetWithdrawn.sub(commissionFees);\n\n        daiToken.safeTransfer(recipient, amountToSendToDepositor);\n\n        if (commissionFees > 0) {\n            daiToken.approve(address(treasury), commissionFees);\n            treasury.depositToken(address(daiToken));\n        }\n\n        ClientRecord memory clientRecord =\n            _updateClientRecordAfterWithdrawal(\n                recipient,\n                amountOfUnderlyingAssetWithdrawn,\n                derivativeAmount\n            );\n        _updateClientRecord(clientRecord);\n\n        emit DerivativeAssetWithdrawn(\n            recipient,\n            amountOfUnderlyingAssetWithdrawn,\n            derivativeAmount,\n            clientRecord.derivativeBalance\n        );\n    }\n\n    function _validateUserBalanceIsSufficient(\n        address payable recipient,\n        uint256 derivativeAmount\n    ) internal {\n        ClientRecord memory clientRecord = _getClientRecordByAddress(recipient);\n\n        uint256 derivativeBalance = clientRecord.derivativeBalance;\n\n        require(\n            derivativeBalance >= derivativeAmount,\n            \"Withdrawal cannot be processes, reason: Insufficient Balance\"\n        );\n    }\n\n    function _computeXendFinanceCommisions(uint256 worthOfMemberDepositNow)\n        internal\n        returns (uint256)\n    {\n        uint256 dividend = _getDividend();\n        uint256 divisor = _getDivisor();\n\n        require(\n            worthOfMemberDepositNow > 0,\n            \"member deposit really isn't worth much\"\n        );\n\n        return worthOfMemberDepositNow.mul(dividend).div(divisor).div(100);\n    }\n\n    function _validateLockTimeHasElapsedAndHasNotWithdrawn(uint256 recordId)\n        internal\n    {\n        FixedDepositRecord memory depositRecord =\n            _getFixedDepositRecordById(recordId);\n\n        uint256 lockPeriod = depositRecord.lockPeriodInSeconds;\n\n        bool hasWithdrawn = depositRecord.hasWithdrawn;\n\n        require(!hasWithdrawn, \"Individual has already withdrawn\");\n\n        uint256 currentTimeStamp = now;\n\n        require(\n            currentTimeStamp >= lockPeriod,\n            \"Funds are still locked, wait until lock period expires\"\n        );\n    }\n\n    function _getDivisor() internal returns (uint256) {\n        (\n            uint256 minimumDivisor,\n            uint256 maximumDivisor,\n            uint256 exactDivisor,\n            bool appliesDivisor,\n            RuleDefinition ruleDefinitionDivisor\n        ) = savingsConfig.getRuleSet(XEND_FINANCE_COMMISION_DIVISOR);\n\n        require(appliesDivisor, \"unsupported rule defintion for rule set\");\n\n        require(\n            ruleDefinitionDivisor == RuleDefinition.VALUE,\n            \"unsupported rule defintion for penalty percentage rule set\"\n        );\n        return exactDivisor;\n    }\n\n    function _getDividend() internal returns (uint256) {\n        (\n            uint256 minimumDividend,\n            uint256 maximumDividend,\n            uint256 exactDividend,\n            bool appliesDividend,\n            RuleDefinition ruleDefinitionDividend\n        ) = savingsConfig.getRuleSet(XEND_FINANCE_COMMISION_DIVIDEND);\n\n        require(appliesDividend, \"unsupported rule defintion for rule set\");\n\n        require(\n            ruleDefinitionDividend == RuleDefinition.VALUE,\n            \"unsupported rule defintion for penalty percentage rule set\"\n        );\n        return exactDividend;\n    }\n\n    function deposit() external onlyNonDeprecatedCalls {\n        _deposit(msg.sender);\n    }\n\n    function depositDelegate(address payable depositorAddress)\n        external\n        onlyNonDeprecatedCalls\n        onlyOwner\n    {\n        _deposit(depositorAddress);\n    }\n\n    function _getFixedDepositRecordById(uint256 recordId)\n        internal\n        returns (FixedDepositRecord memory)\n    {\n        (\n            uint256 recordId,\n            address payable depositorId,\n            uint256 amount,\n            uint256 depositDateInSeconds,\n            uint256 lockPeriodInSeconds,\n            bool hasWithdrawn\n        ) = clientRecordStorage.GetRecordById(recordId);\n    }\n\n    function FixedDeposit(\n        uint256 depositDateInSeconds,\n        uint256 lockPeriodInSeconds\n    ) external onlyNonDeprecatedCalls {\n        address payable depositorAddress = msg.sender;\n\n        address recipient = address(this);\n\n        uint256 amountTransferrable =\n            daiToken.allowance(depositorAddress, recipient);\n\n        require(lockPeriodInSeconds >= minLockPeriod, \"Minimum lock period must be 3 months\");\n\n        require(\n            amountTransferrable > 0,\n            \"Approve an amount > 0 for token before proceeding\"\n        );\n        bool isSuccessful =\n            daiToken.transferFrom(\n                depositorAddress,\n                recipient,\n                amountTransferrable\n            );\n        require(\n            isSuccessful,\n            \"Could not complete deposit process from token contract\"\n        );\n\n        daiToken.approve(LendingAdapterAddress, amountTransferrable);\n\n        uint256 balanceBeforeDeposit = lendingService.userShares();\n\n        lendingService.save(amountTransferrable);\n\n        uint256 balanceAfterDeposit = lendingService.userShares();\n\n        uint256 amountOfyDai = balanceAfterDeposit.sub(balanceBeforeDeposit);\n\n       uint recordId = clientRecordStorage.CreateDepositRecordMapping(\n            amountTransferrable,\n            lockPeriodInSeconds,\n            depositDateInSeconds,\n            depositorAddress,\n            false\n        );\n\n\n        clientRecordStorage\n            .CreateDepositorToDepositRecordIndexToRecordIDMapping(\n            depositorAddress,\n            recordId\n        );\n\n        clientRecordStorage.CreateDepositorAddressToDepositRecordMapping(\n            depositorAddress,\n            recordId,\n            amountTransferrable,\n            lockPeriodInSeconds,\n            depositDateInSeconds,\n            false\n        );\n\n        emit UnderlyingAssetDeposited(\n            depositorAddress,\n            amountTransferrable,\n            amountOfyDai,\n            amountTransferrable\n        );\n    }\n\n    function _deposit(address payable depositorAddress) internal {\n        address recipient = address(this);\n        uint256 amountTransferrable =\n            daiToken.allowance(depositorAddress, recipient);\n\n        require(\n            amountTransferrable > 0,\n            \"Approve an amount > 0 for token before proceeding\"\n        );\n        bool isSuccessful =\n            daiToken.transferFrom(\n                depositorAddress,\n                recipient,\n                amountTransferrable\n            );\n        require(\n            isSuccessful,\n            \"Could not complete deposit process from token contract\"\n        );\n\n        daiToken.approve(LendingAdapterAddress, amountTransferrable);\n\n        uint256 balanceBeforeDeposit = lendingService.userShares();\n\n        lendingService.save(amountTransferrable);\n\n        uint256 balanceAfterDeposit = lendingService.userShares();\n\n        uint256 amountOfyDai = balanceAfterDeposit.sub(balanceBeforeDeposit);\n        ClientRecord memory clientRecord =\n            _updateClientRecordAfterDeposit(\n                depositorAddress,\n                amountTransferrable,\n                amountOfyDai\n            );\n\n        bool exists =\n            clientRecordStorage.doesClientRecordExist(depositorAddress);\n\n        if (exists) _updateClientRecord(clientRecord);\n        else {\n            clientRecordStorage.createClientRecord(\n                clientRecord._address,\n                clientRecord.underlyingTotalDeposits,\n                clientRecord.underlyingTotalWithdrawn,\n                clientRecord.derivativeBalance,\n                clientRecord.derivativeTotalDeposits,\n                clientRecord.derivativeTotalWithdrawn\n            );\n        }\n\n        emit UnderlyingAssetDeposited(\n            depositorAddress,\n            amountTransferrable,\n            amountOfyDai,\n            clientRecord.derivativeBalance\n        );\n    }\n\n    function _updateClientRecordAfterDeposit(\n        address payable client,\n        uint256 underlyingAmountDeposited,\n        uint256 derivativeAmountDeposited\n    ) internal returns (ClientRecord memory) {\n        bool exists = clientRecordStorage.doesClientRecordExist(client);\n        if (!exists) {\n            ClientRecord memory record =\n                ClientRecord(\n                    true,\n                    client,\n                    underlyingAmountDeposited,\n                    0,\n                    derivativeAmountDeposited,\n                    derivativeAmountDeposited,\n                    0\n                );\n\n            return record;\n        } else {\n            ClientRecord memory record = _getClientRecordByAddress(client);\n\n            record.underlyingTotalDeposits = record.underlyingTotalDeposits.add(\n                underlyingAmountDeposited\n            );\n            record.derivativeTotalDeposits = record.derivativeTotalDeposits.add(\n                derivativeAmountDeposited\n            );\n            record.derivativeBalance = record.derivativeBalance.add(\n                derivativeAmountDeposited\n            );\n\n            return record;\n        }\n    }\n\n    function _updateClientRecordAfterWithdrawal(\n        address payable client,\n        uint256 underlyingAmountWithdrawn,\n        uint256 derivativeAmountWithdrawn\n    ) internal returns (ClientRecord memory) {\n        ClientRecord memory record = _getClientRecordByAddress(client);\n\n        record.underlyingTotalWithdrawn = record.underlyingTotalWithdrawn.add(\n            underlyingAmountWithdrawn\n        );\n\n        record.derivativeTotalWithdrawn = record.derivativeTotalWithdrawn.add(\n            derivativeAmountWithdrawn\n        );\n\n        record.derivativeBalance = record.derivativeBalance.sub(\n            derivativeAmountWithdrawn\n        );\n\n        return record;\n    }\n\n    function _updateClientRecord(ClientRecord memory clientRecord) internal {\n        clientRecordStorage.updateClientRecord(\n            clientRecord._address,\n            clientRecord.underlyingTotalDeposits,\n            clientRecord.underlyingTotalWithdrawn,\n            clientRecord.derivativeBalance,\n            clientRecord.derivativeTotalDeposits,\n            clientRecord.derivativeTotalWithdrawn\n        );\n    }\n\n    function _emitXendTokenReward(address payable member, uint256 amount)\n        internal\n    {\n        emit XendTokenReward(now, member, amount);\n    }\n\n    function _rewardUserWithTokens(\n        uint256 totalLockPeriod,\n        uint256 amountDeposited,\n        address payable recipient\n    ) internal {\n        uint256 numberOfRewardTokens =\n            rewardConfig.CalculateIndividualSavingsReward(\n                totalLockPeriod,\n                amountDeposited\n            );\n\n        if (numberOfRewardTokens > 0) {\n            xendToken.mint(recipient, numberOfRewardTokens);\n            _UpdateMemberToXendTokeRewardMapping(\n                recipient,\n                numberOfRewardTokens\n            );\n            _emitXendTokenReward(recipient, numberOfRewardTokens);\n        }\n    }\n\n    modifier onlyNonDeprecatedCalls() {\n        require(!isDeprecated, \"Service contract has been deprecated\");\n        _;\n    }\n}\n",
  "sourcePath": "/Users/mac/Desktop/BinaryHiils/esusu-1/Test/contracts/XendFinanceIndividual_Yearn_V1.sol",
  "compiler": {
    "name": "solc",
    "version": "0.6.6+commit.6c089d02.Emscripten.clang"
  },
  "schemaVersion": "3.3.2",
  "updatedAt": "2021-02-22T17:44:30.365Z",
  "devdoc": {
    "methods": {}
  },
  "userdoc": {
    "methods": {}
  }
}