{
  "contractName": "XendFinanceIndividual_Yearn_V1",
  "abi": [
    {
      "inputs": [
        {
          "internalType": "address",
          "name": "lendingServiceAddress",
          "type": "address"
        },
        {
          "internalType": "address",
          "name": "tokenAddress",
          "type": "address"
        },
        {
          "internalType": "address",
          "name": "clientRecordStorageAddress",
          "type": "address"
        },
        {
          "internalType": "address",
          "name": "savingsConfigAddress",
          "type": "address"
        },
        {
          "internalType": "address",
          "name": "derivativeTokenAddress",
          "type": "address"
        },
        {
          "internalType": "address",
          "name": "rewardConfigAddress",
          "type": "address"
        },
        {
          "internalType": "address",
          "name": "xendTokenAddress",
          "type": "address"
        },
        {
          "internalType": "address",
          "name": "treasuryAddress",
          "type": "address"
        }
      ],
      "stateMutability": "nonpayable",
      "type": "constructor"
    },
    {
      "anonymous": false,
      "inputs": [
        {
          "indexed": false,
          "internalType": "address payable",
          "name": "user",
          "type": "address"
        },
        {
          "indexed": false,
          "internalType": "uint256",
          "name": "underlyingAmount",
          "type": "uint256"
        },
        {
          "indexed": false,
          "internalType": "uint256",
          "name": "derivativeAmount",
          "type": "uint256"
        },
        {
          "indexed": false,
          "internalType": "uint256",
          "name": "balance",
          "type": "uint256"
        }
      ],
      "name": "DerivativeAssetWithdrawn",
      "type": "event"
    },
    {
      "anonymous": false,
      "inputs": [
        {
          "indexed": false,
          "internalType": "address payable",
          "name": "user",
          "type": "address"
        },
        {
          "indexed": false,
          "internalType": "uint256",
          "name": "underlyingAmount",
          "type": "uint256"
        },
        {
          "indexed": false,
          "internalType": "uint256",
          "name": "derivativeAmount",
          "type": "uint256"
        },
        {
          "indexed": false,
          "internalType": "uint256",
          "name": "balance",
          "type": "uint256"
        }
      ],
      "name": "UnderlyingAssetDeposited",
      "type": "event"
    },
    {
      "anonymous": false,
      "inputs": [
        {
          "indexed": false,
          "internalType": "uint256",
          "name": "date",
          "type": "uint256"
        },
        {
          "indexed": false,
          "internalType": "address payable",
          "name": "recipient",
          "type": "address"
        },
        {
          "indexed": false,
          "internalType": "uint256",
          "name": "amount",
          "type": "uint256"
        }
      ],
      "name": "XendTokenReward",
      "type": "event"
    },
    {
      "inputs": [],
      "name": "owner",
      "outputs": [
        {
          "internalType": "address payable",
          "name": "",
          "type": "address"
        }
      ],
      "stateMutability": "view",
      "type": "function",
      "constant": true
    },
    {
      "inputs": [
        {
          "internalType": "address payable",
          "name": "newOwner",
          "type": "address"
        }
      ],
      "name": "transferOwnership",
      "outputs": [],
      "stateMutability": "nonpayable",
      "type": "function"
    },
    {
      "inputs": [],
      "name": "setAdapterAddress",
      "outputs": [],
      "stateMutability": "nonpayable",
      "type": "function"
    },
    {
      "inputs": [
        {
          "internalType": "uint256",
          "name": "minimumLockPeriod",
          "type": "uint256"
        }
      ],
      "name": "setMinimumLockPeriod",
      "outputs": [],
      "stateMutability": "nonpayable",
      "type": "function"
    },
    {
      "inputs": [],
      "name": "GetTotalTokenRewardDistributed",
      "outputs": [
        {
          "internalType": "uint256",
          "name": "",
          "type": "uint256"
        }
      ],
      "stateMutability": "view",
      "type": "function",
      "constant": true
    },
    {
      "inputs": [
        {
          "internalType": "address",
          "name": "newServiceAddress",
          "type": "address"
        }
      ],
      "name": "deprecateContract",
      "outputs": [],
      "stateMutability": "nonpayable",
      "type": "function"
    },
    {
      "inputs": [
        {
          "internalType": "address",
          "name": "member",
          "type": "address"
        }
      ],
      "name": "GetMemberXendTokenReward",
      "outputs": [
        {
          "internalType": "uint256",
          "name": "",
          "type": "uint256"
        }
      ],
      "stateMutability": "view",
      "type": "function",
      "constant": true
    },
    {
      "inputs": [
        {
          "internalType": "address",
          "name": "depositor",
          "type": "address"
        }
      ],
      "name": "doesClientRecordExist",
      "outputs": [
        {
          "internalType": "bool",
          "name": "",
          "type": "bool"
        }
      ],
      "stateMutability": "view",
      "type": "function",
      "constant": true
    },
    {
      "inputs": [
        {
          "internalType": "address",
          "name": "depositor",
          "type": "address"
        }
      ],
      "name": "getClientRecord",
      "outputs": [
        {
          "internalType": "address payable",
          "name": "_address",
          "type": "address"
        },
        {
          "internalType": "uint256",
          "name": "underlyingTotalDeposits",
          "type": "uint256"
        },
        {
          "internalType": "uint256",
          "name": "underlyingTotalWithdrawn",
          "type": "uint256"
        },
        {
          "internalType": "uint256",
          "name": "derivativeBalance",
          "type": "uint256"
        },
        {
          "internalType": "uint256",
          "name": "derivativeTotalDeposits",
          "type": "uint256"
        },
        {
          "internalType": "uint256",
          "name": "derivativeTotalWithdrawn",
          "type": "uint256"
        }
      ],
      "stateMutability": "nonpayable",
      "type": "function"
    },
    {
      "inputs": [],
      "name": "getClientRecord",
      "outputs": [
        {
          "internalType": "address payable",
          "name": "_address",
          "type": "address"
        },
        {
          "internalType": "uint256",
          "name": "underlyingTotalDeposits",
          "type": "uint256"
        },
        {
          "internalType": "uint256",
          "name": "underlyingTotalWithdrawn",
          "type": "uint256"
        },
        {
          "internalType": "uint256",
          "name": "derivativeBalance",
          "type": "uint256"
        },
        {
          "internalType": "uint256",
          "name": "derivativeTotalDeposits",
          "type": "uint256"
        },
        {
          "internalType": "uint256",
          "name": "derivativeTotalWithdrawn",
          "type": "uint256"
        }
      ],
      "stateMutability": "nonpayable",
      "type": "function"
    },
    {
      "inputs": [
        {
          "internalType": "uint256",
          "name": "index",
          "type": "uint256"
        }
      ],
      "name": "getClientRecordByIndex",
      "outputs": [
        {
          "internalType": "address payable",
          "name": "_address",
          "type": "address"
        },
        {
          "internalType": "uint256",
          "name": "underlyingTotalDeposits",
          "type": "uint256"
        },
        {
          "internalType": "uint256",
          "name": "underlyingTotalWithdrawn",
          "type": "uint256"
        },
        {
          "internalType": "uint256",
          "name": "derivativeBalance",
          "type": "uint256"
        },
        {
          "internalType": "uint256",
          "name": "derivativeTotalDeposits",
          "type": "uint256"
        },
        {
          "internalType": "uint256",
          "name": "derivativeTotalWithdrawn",
          "type": "uint256"
        }
      ],
      "stateMutability": "nonpayable",
      "type": "function"
    },
    {
      "inputs": [
        {
          "internalType": "uint256",
          "name": "derivativeAmount",
          "type": "uint256"
        }
      ],
      "name": "withdraw",
      "outputs": [],
      "stateMutability": "nonpayable",
      "type": "function"
    },
    {
      "inputs": [
        {
          "internalType": "address payable",
          "name": "recipient",
          "type": "address"
        },
        {
          "internalType": "uint256",
          "name": "derivativeAmount",
          "type": "uint256"
        }
      ],
      "name": "withdrawDelegate",
      "outputs": [],
      "stateMutability": "nonpayable",
      "type": "function"
    },
    {
      "inputs": [
        {
          "internalType": "uint256",
          "name": "recordId",
          "type": "uint256"
        },
        {
          "internalType": "uint256",
          "name": "derivativeAmount",
          "type": "uint256"
        }
      ],
      "name": "WithdrawFromFixedDeposit",
      "outputs": [],
      "stateMutability": "nonpayable",
      "type": "function"
    },
    {
      "inputs": [],
      "name": "deposit",
      "outputs": [],
      "stateMutability": "nonpayable",
      "type": "function"
    },
    {
      "inputs": [
        {
          "internalType": "address payable",
          "name": "depositorAddress",
          "type": "address"
        }
      ],
      "name": "depositDelegate",
      "outputs": [],
      "stateMutability": "nonpayable",
      "type": "function"
    },
    {
      "inputs": [
        {
          "internalType": "uint256",
          "name": "depositDateInSeconds",
          "type": "uint256"
        },
        {
          "internalType": "uint256",
          "name": "lockPeriodInSeconds",
          "type": "uint256"
        }
      ],
      "name": "FixedDeposit",
      "outputs": [],
      "stateMutability": "nonpayable",
      "type": "function"
    }
  ],
  "bytecode": "0x608060405262786450600a5534801561001757600080fd5b5060405161384b38038061384b833981810160405261010081101561003b57600080fd5b508051602082015160408301516060840151608085015160a086015160c087015160e0909701516000805433600160a060020a031991821617825560018055600280548216600160a060020a039a8b16179055600380548216988a16989098179097556004805488169689169690961790955560068054871694881694909417909355600580548616918716919091179055600780548516918616919091179055600880548416918516919091179055600980549092169290931691909117905561373f90819061010c90396000f3fe608060405234801561001057600080fd5b506004361061010f5760003560e060020a90048063a53b0a0a116100a6578063da26ec2211610075578063da26ec22146102d3578063e08c694c146102f9578063e6a71e6114610316578063eec562c31461031e578063f2fde38b146103445761010f565b8063a53b0a0a14610231578063c459b73114610294578063cf04a19d146102ae578063d0e30db0146102cb5761010f565b80636f664a9d116100e25780636f664a9d1461019b578063759dc902146101be5780637d6633d0146101e15780638da5cb5b1461020d5761010f565b8063242222e01461011457806328c38b331461013c5780632adc57a6146101445780632e1a7d4d1461017e575b600080fd5b61013a6004803603602081101561012a57600080fd5b5035600160a060020a031661036a565b005b61013a610575565b61016a6004803603602081101561015a57600080fd5b5035600160a060020a0316610682565b604080519115158252519081900360200190f35b61013a6004803603602081101561019457600080fd5b503561076d565b61013a600480360360408110156101b157600080fd5b50803590602001356107c4565b61013a600480360360408110156101d457600080fd5b5080359060200135610d02565b61013a600480360360408110156101f757600080fd5b50600160a060020a038135169060200135611485565b61021561153d565b60408051600160a060020a039092168252519081900360200190f35b6102576004803603602081101561024757600080fd5b5035600160a060020a031661154c565b60408051600160a060020a0390971687526020870195909552858501939093526060850191909152608084015260a0830152519081900360c00190f35b61029c6115e9565b60408051918252519081900360200190f35b61013a600480360360208110156102c457600080fd5b50356115ef565b61013a6116a2565b61013a600480360360208110156102e957600080fd5b5035600160a060020a03166116f9565b6102576004803603602081101561030f57600080fd5b50356117b3565b61025761181c565b61029c6004803603602081101561033457600080fd5b5035600160a060020a03166118b8565b61013a6004803603602081101561035a57600080fd5b5035600160a060020a03166118d3565b600054600160a060020a031633146103cc576040805160e560020a62461bcd02815260206004820152601f60248201527f556e617574686f72697a65642061636365737320746f20636f6e747261637400604482015290519081900360640190fd5b60095460a060020a900460ff16156104185760405160e560020a62461bcd0281526004018080602001828103825260248152602001806135a46024913960400191505060405180910390fd5b6009805474ff0000000000000000000000000000000000000000191660a060020a17905560048054604080517f0fdf80ed000000000000000000000000000000000000000000000000000000008152600160a060020a038581169482019490945290519290911691630fdf80ed9160248082019260009290919082900301818387803b1580156104a757600080fd5b505af11580156104bb573d6000803e3d6000fd5b5050600754604080517f70a08231000000000000000000000000000000000000000000000000000000008152306004820152905160009450600160a060020a0390921692506370a08231916024808301926020929190829003018186803b15801561052557600080fd5b505afa158015610539573d6000803e3d6000fd5b505050506040513d602081101561054f57600080fd5b505160075490915061057190600160a060020a0316838363ffffffff61197116565b5050565b600054600160a060020a031633146105d7576040805160e560020a62461bcd02815260206004820152601f60248201527f556e617574686f72697a65642061636365737320746f20636f6e747261637400604482015290519081900360640190fd5b600260009054906101000a9004600160a060020a0316600160a060020a031663593669aa6040518163ffffffff1660e060020a02815260040160206040518083038186803b15801561062857600080fd5b505afa15801561063c573d6000803e3d6000fd5b505050506040513d602081101561065257600080fd5b5051600d805473ffffffffffffffffffffffffffffffffffffffff1916600160a060020a03909216919091179055565b60095460009060a060020a900460ff16156106d15760405160e560020a62461bcd0281526004018080602001828103825260248152602001806135a46024913960400191505060405180910390fd5b60048054604080517f2adc57a6000000000000000000000000000000000000000000000000000000008152600160a060020a038681169482019490945290519290911691632adc57a691602480820192602092909190829003018186803b15801561073b57600080fd5b505afa15801561074f573d6000803e3d6000fd5b505050506040513d602081101561076557600080fd5b505192915050565b60095460a060020a900460ff16156107b95760405160e560020a62461bcd0281526004018080602001828103825260248152602001806135a46024913960400191505060405180910390fd5b3361057181836119f6565b60095460a060020a900460ff16156108105760405160e560020a62461bcd0281526004018080602001828103825260248152602001806135a46024913960400191505060405180910390fd5b33610819613467565b61082284611de9565b608081015160a08201519192509061083986611e8e565b600254604080517f77f1a4af0000000000000000000000000000000000000000000000000000000081529051600092600160a060020a0316916377f1a4af916004808301926020929190829003018186803b15801561089757600080fd5b505afa1580156108ab573d6000803e3d6000fd5b505050506040513d60208110156108c157600080fd5b5051600254604080517f6583d12a000000000000000000000000000000000000000000000000000000008152600481018a90529051929350600160a060020a0390911691636583d12a9160248082019260009290919082900301818387803b15801561092c57600080fd5b505af1158015610940573d6000803e3d6000fd5b505050506000600260009054906101000a9004600160a060020a0316600160a060020a03166377f1a4af6040518163ffffffff1660e060020a02815260040160206040518083038186803b15801561099757600080fd5b505afa1580156109ab573d6000803e3d6000fd5b505050506040513d60208110156109c157600080fd5b5051905060006109d7838363ffffffff611f4d16565b905060006109e482611f98565b905060006109f8838363ffffffff611f4d16565b600354909150610a1890600160a060020a03168a8363ffffffff61197116565b8115610b3f57600354600854604080517f095ea7b3000000000000000000000000000000000000000000000000000000008152600160a060020a039283166004820152602481018690529051919092169163095ea7b39160448083019260209291908290030181600087803b158015610a9057600080fd5b505af1158015610aa4573d6000803e3d6000fd5b505050506040513d6020811015610aba57600080fd5b5050600854600354604080517f2fd55265000000000000000000000000000000000000000000000000000000008152600160a060020a03928316600482015290519190921691632fd5526591602480830192600092919082900301818387803b158015610b2657600080fd5b505af1158015610b3a573d6000803e3d6000fd5b505050505b60048054604080517f2848b7d10000000000000000000000000000000000000000000000000000000081529283018e9052602483018d905260448301899052606483018a9052336084840152600160a484015251600160a060020a0390911691632848b7d19160c480830192600092919082900301818387803b158015610bc557600080fd5b505af1158015610bd9573d6000803e3d6000fd5b50505050600460009054906101000a9004600160a060020a0316600160a060020a0316638b6297d48a8a600001518b606001518a8c60016040518763ffffffff1660e060020a0281526004018087600160a060020a0316600160a060020a03168152602001868152602001858152602001848152602001838152602001821515151581526020019650505050505050600060405180830381600087803b158015610c8257600080fd5b505af1158015610c96573d6000803e3d6000fd5b50505050610ca5868b8b61201e565b60408051600160a060020a038b168152602081018590528082018c9052606081018c905290517fd5468dee606e30ba003497bfa4b158e7a8b1134f21a820a3d72e4b3d8af8514f9181900360800190a15050505050505050505050565b60095460a060020a900460ff1615610d4e5760405160e560020a62461bcd0281526004018080602001828103825260248152602001806135a46024913960400191505060405180910390fd5b600354604080517fdd62ed3e0000000000000000000000000000000000000000000000000000000081523360048201819052306024830181905292519093600092600160a060020a039091169163dd62ed3e91604480820192602092909190829003018186803b158015610dc157600080fd5b505afa158015610dd5573d6000803e3d6000fd5b505050506040513d6020811015610deb57600080fd5b5051600a54909150841015610e345760405160e560020a62461bcd0281526004018080602001828103825260248152602001806136e66024913960400191505060405180910390fd5b60008111610e765760405160e560020a62461bcd0281526004018080602001828103825260318152602001806134f16031913960400191505060405180910390fd5b600354604080517f23b872dd000000000000000000000000000000000000000000000000000000008152600160a060020a038681166004830152858116602483015260448201859052915160009392909216916323b872dd9160648082019260209290919082900301818787803b158015610ef057600080fd5b505af1158015610f04573d6000803e3d6000fd5b505050506040513d6020811015610f1a57600080fd5b5051905080610f5d5760405160e560020a62461bcd0281526004018080602001828103825260368152602001806135486036913960400191505060405180910390fd5b600260009054906101000a9004600160a060020a0316600160a060020a031663593669aa6040518163ffffffff1660e060020a02815260040160206040518083038186803b158015610fae57600080fd5b505afa158015610fc2573d6000803e3d6000fd5b505050506040513d6020811015610fd857600080fd5b5051600d805473ffffffffffffffffffffffffffffffffffffffff1916600160a060020a039283161790819055600354604080517f095ea7b30000000000000000000000000000000000000000000000000000000081529284166004840152602483018690525192169163095ea7b3916044808201926020929091908290030181600087803b15801561106a57600080fd5b505af115801561107e573d6000803e3d6000fd5b505050506040513d602081101561109457600080fd5b5050600254604080517f0db8d01e0000000000000000000000000000000000000000000000000000000081529051600092600160a060020a031691630db8d01e916004808301926020929190829003018186803b1580156110f457600080fd5b505afa158015611108573d6000803e3d6000fd5b505050506040513d602081101561111e57600080fd5b5051600254604080517f1b862027000000000000000000000000000000000000000000000000000000008152600481018790529051929350600160a060020a0390911691631b8620279160248082019260009290919082900301818387803b15801561118957600080fd5b505af115801561119d573d6000803e3d6000fd5b505050506000600260009054906101000a9004600160a060020a0316600160a060020a0316630db8d01e6040518163ffffffff1660e060020a02815260040160206040518083038186803b1580156111f457600080fd5b505afa158015611208573d6000803e3d6000fd5b505050506040513d602081101561121e57600080fd5b505190506000611234828463ffffffff611f4d16565b60048054604080517f30951936000000000000000000000000000000000000000000000000000000008152928301899052602483018c9052604483018d9052600160a060020a038b811660648501526000608485018190529151949550909391169163309519369160a480830192602092919082900301818787803b1580156112bc57600080fd5b505af11580156112d0573d6000803e3d6000fd5b505050506040513d60208110156112e657600080fd5b505160048054604080517f9ff8325b000000000000000000000000000000000000000000000000000000008152600160a060020a038d811694820194909452602481018590529051939450911691639ff8325b9160448082019260009290919082900301818387803b15801561135b57600080fd5b505af115801561136f573d6000803e3d6000fd5b50505050600460009054906101000a9004600160a060020a0316600160a060020a0316638b6297d48983898d8f60006040518763ffffffff1660e060020a0281526004018087600160a060020a0316600160a060020a03168152602001868152602001858152602001848152602001838152602001821515151581526020019650505050505050600060405180830381600087803b15801561141057600080fd5b505af1158015611424573d6000803e3d6000fd5b505060408051600160a060020a038c168152602081018a9052808201869052606081018a905290517f86a9dc3904ee8065112f9a0b8fa88e50a3d11fde7dd6d983619db7e3176bd0459350908190036080019150a150505050505050505050565b60095460a060020a900460ff16156114d15760405160e560020a62461bcd0281526004018080602001828103825260248152602001806135a46024913960400191505060405180910390fd5b600054600160a060020a03163314611533576040805160e560020a62461bcd02815260206004820152601f60248201527f556e617574686f72697a65642061636365737320746f20636f6e747261637400604482015290519081900360640190fd5b61057182826119f6565b600054600160a060020a031681565b600080600080600080600960149054906101000a900460ff16156115a45760405160e560020a62461bcd0281526004018080602001828103825260248152602001806135a46024913960400191505060405180910390fd5b6115ac6134a8565b6115b588612174565b602081015160408201516060830151608084015160a085015160c090950151939d929c50909a509850919650945092505050565b600c5490565b60095460a060020a900460ff161561163b5760405160e560020a62461bcd0281526004018080602001828103825260248152602001806135a46024913960400191505060405180910390fd5b600054600160a060020a0316331461169d576040805160e560020a62461bcd02815260206004820152601f60248201527f556e617574686f72697a65642061636365737320746f20636f6e747261637400604482015290519081900360640190fd5b600a55565b60095460a060020a900460ff16156116ee5760405160e560020a62461bcd0281526004018080602001828103825260248152602001806135a46024913960400191505060405180910390fd5b6116f73361228c565b565b60095460a060020a900460ff16156117455760405160e560020a62461bcd0281526004018080602001828103825260248152602001806135a46024913960400191505060405180910390fd5b600054600160a060020a031633146117a7576040805160e560020a62461bcd02815260206004820152601f60248201527f556e617574686f72697a65642061636365737320746f20636f6e747261637400604482015290519081900360640190fd5b6117b08161228c565b50565b600080600080600080600960149054906101000a900460ff161561180b5760405160e560020a62461bcd0281526004018080602001828103825260248152602001806135a46024913960400191505060405180910390fd5b6118136134a8565b6115b58861290f565b600080600080600080600960149054906101000a900460ff16156118745760405160e560020a62461bcd0281526004018080602001828103825260248152602001806135a46024913960400191505060405180910390fd5b61187c6134a8565b61188533612174565b602081015160408201516060830151608084015160a085015160c090950151939c929b5090995097509195509350915050565b600160a060020a03166000908152600b602052604090205490565b600054600160a060020a03163314611935576040805160e560020a62461bcd02815260206004820152601f60248201527f556e617574686f72697a65642061636365737320746f20636f6e747261637400604482015290519081900360640190fd5b600160a060020a038116156117b05760008054600160a060020a03831673ffffffffffffffffffffffffffffffffffffffff1990911617905550565b60408051600160a060020a038416602482015260448082018490528251808303909101815260649091019091526020810180517bffffffffffffffffffffffffffffffffffffffffffffffffffffffff167fa9059cbb000000000000000000000000000000000000000000000000000000001790526119f190849061297c565b505050565b60026001541415611a51576040805160e560020a62461bcd02815260206004820152601f60248201527f5265656e7472616e637947756172643a207265656e7472616e742063616c6c00604482015290519081900360640190fd5b6002600155611a608282612a30565b600254604080517f77f1a4af0000000000000000000000000000000000000000000000000000000081529051600092600160a060020a0316916377f1a4af916004808301926020929190829003018186803b158015611abe57600080fd5b505afa158015611ad2573d6000803e3d6000fd5b505050506040513d6020811015611ae857600080fd5b5051600254604080517f6583d12a000000000000000000000000000000000000000000000000000000008152600481018690529051929350600160a060020a0390911691636583d12a9160248082019260009290919082900301818387803b158015611b5357600080fd5b505af1158015611b67573d6000803e3d6000fd5b505050506000600260009054906101000a9004600160a060020a0316600160a060020a03166377f1a4af6040518163ffffffff1660e060020a02815260040160206040518083038186803b158015611bbe57600080fd5b505afa158015611bd2573d6000803e3d6000fd5b505050506040513d6020811015611be857600080fd5b505190506000611bfe838363ffffffff611f4d16565b90506000611c0b82611f98565b90506000611c1f838363ffffffff611f4d16565b600354909150611c3f90600160a060020a0316888363ffffffff61197116565b8115611d6657600354600854604080517f095ea7b3000000000000000000000000000000000000000000000000000000008152600160a060020a039283166004820152602481018690529051919092169163095ea7b39160448083019260209291908290030181600087803b158015611cb757600080fd5b505af1158015611ccb573d6000803e3d6000fd5b505050506040513d6020811015611ce157600080fd5b5050600854600354604080517f2fd55265000000000000000000000000000000000000000000000000000000008152600160a060020a03928316600482015290519190921691632fd5526591602480830192600092919082900301818387803b158015611d4d57600080fd5b505af1158015611d61573d6000803e3d6000fd5b505050505b611d6e6134a8565b611d79888589612a8b565b9050611d8481612aff565b60808082015160408051600160a060020a038c168152602081018890528082018b90526060810192909252517fd5468dee606e30ba003497bfa4b158e7a8b1134f21a820a3d72e4b3d8af8514f929181900390910190a1505060018055505050505050565b611df1613467565b600080600080600080600460009054906101000a9004600160a060020a0316600160a060020a03166335dc275b896040518263ffffffff1660e060020a0281526004018082815260200191505060c06040518083038186803b158015611e5657600080fd5b505afa158015611e6a573d6000803e3d6000fd5b505050506040513d60c0811015611e8057600080fd5b509698975050505050505050565b611e96613467565b611e9f82611de9565b60a08101516040820151919250908015611f03576040805160e560020a62461bcd02815260206004820181905260248201527f496e646976696475616c2068617320616c72656164792077697468647261776e604482015290519081900360640190fd5b4282811015611f465760405160e560020a62461bcd0281526004018080602001828103825260368152602001806136106036913960400191505060405180910390fd5b5050505050565b6000611f8f83836040518060400160405280601e81526020017f536166654d6174683a207375627472616374696f6e206f766572666c6f770000815250612bb6565b90505b92915050565b600080611fa3612c50565b90506000611faf612e32565b905060008411611ff35760405160e560020a62461bcd02815260040180806020018281038252602681526020018061357e6026913960400191505060405180910390fd5b612016606461200a8381888763ffffffff612ee016565b9063ffffffff612f3c16565b949350505050565b600554604080517feabe85cb00000000000000000000000000000000000000000000000000000000815260048101869052602481018590529051600092600160a060020a03169163eabe85cb916044808301926020929190829003018186803b15801561208a57600080fd5b505afa15801561209e573d6000803e3d6000fd5b505050506040513d60208110156120b457600080fd5b50519050801561216e57600954604080517f40c10f19000000000000000000000000000000000000000000000000000000008152600160a060020a03858116600483015260248201859052915191909216916340c10f1991604480830192600092919082900301818387803b15801561212c57600080fd5b505af1158015612140573d6000803e3d6000fd5b5050505061214e8282612f7e565b600c54612161908263ffffffff61301316565b600c5561216e8282613070565b50505050565b61217c6134a8565b600080600080600080600460009054906101000a9004600160a060020a0316600160a060020a0316637c79ed46896040518263ffffffff1660e060020a0281526004018082600160a060020a0316600160a060020a0316815260200191505060c06040518083038186803b1580156121f357600080fd5b505afa158015612207573d6000803e3d6000fd5b505050506040513d60c081101561221d57600080fd5b50805160208083015160408085015160608087015160808089015160a0998a0151865160e08101885260018152600160a060020a03909a16988a01989098529488019590955290860191909152918401919091529282019290925260c081019190915298975050505050505050565b600354604080517fdd62ed3e000000000000000000000000000000000000000000000000000000008152600160a060020a03848116600483015230602483018190529251929360009391169163dd62ed3e916044808301926020929190829003018186803b1580156122fd57600080fd5b505afa158015612311573d6000803e3d6000fd5b505050506040513d602081101561232757600080fd5b505190508061236a5760405160e560020a62461bcd0281526004018080602001828103825260318152602001806134f16031913960400191505060405180910390fd5b600354604080517f23b872dd000000000000000000000000000000000000000000000000000000008152600160a060020a038681166004830152858116602483015260448201859052915160009392909216916323b872dd9160648082019260209290919082900301818787803b1580156123e457600080fd5b505af11580156123f8573d6000803e3d6000fd5b505050506040513d602081101561240e57600080fd5b50519050806124515760405160e560020a62461bcd0281526004018080602001828103825260368152602001806135486036913960400191505060405180910390fd5b600260009054906101000a9004600160a060020a0316600160a060020a031663593669aa6040518163ffffffff1660e060020a02815260040160206040518083038186803b1580156124a257600080fd5b505afa1580156124b6573d6000803e3d6000fd5b505050506040513d60208110156124cc57600080fd5b5051600d805473ffffffffffffffffffffffffffffffffffffffff1916600160a060020a039283161790819055600354604080517f095ea7b30000000000000000000000000000000000000000000000000000000081529284166004840152602483018690525192169163095ea7b3916044808201926020929091908290030181600087803b15801561255e57600080fd5b505af1158015612572573d6000803e3d6000fd5b505050506040513d602081101561258857600080fd5b5050600254604080517f0db8d01e0000000000000000000000000000000000000000000000000000000081529051600092600160a060020a031691630db8d01e916004808301926020929190829003018186803b1580156125e857600080fd5b505afa1580156125fc573d6000803e3d6000fd5b505050506040513d602081101561261257600080fd5b5051600254604080517f1b862027000000000000000000000000000000000000000000000000000000008152600481018790529051929350600160a060020a0390911691631b8620279160248082019260009290919082900301818387803b15801561267d57600080fd5b505af1158015612691573d6000803e3d6000fd5b505050506000600260009054906101000a9004600160a060020a0316600160a060020a0316630db8d01e6040518163ffffffff1660e060020a02815260040160206040518083038186803b1580156126e857600080fd5b505afa1580156126fc573d6000803e3d6000fd5b505050506040513d602081101561271257600080fd5b505190506000612728828463ffffffff611f4d16565b90506127326134a8565b61273d8887846130bc565b90506000600460009054906101000a9004600160a060020a0316600160a060020a0316632adc57a68a6040518263ffffffff1660e060020a0281526004018082600160a060020a0316600160a060020a0316815260200191505060206040518083038186803b1580156127af57600080fd5b505afa1580156127c3573d6000803e3d6000fd5b505050506040513d60208110156127d957600080fd5b5051905080156127f1576127ec82612aff565b6128ad565b6004805460208401516040808601516060870151608088015160a089015160c08a015185517f89694be7000000000000000000000000000000000000000000000000000000008152600160a060020a0397881699810199909952602489019490945260448801929092526064870152608486015260a4850152519116916389694be79160c480830192600092919082900301818387803b15801561289457600080fd5b505af11580156128a8573d6000803e3d6000fd5b505050505b60808083015160408051600160a060020a038d168152602081018b90528082018790526060810192909252517f86a9dc3904ee8065112f9a0b8fa88e50a3d11fde7dd6d983619db7e3176bd045929181900390910190a1505050505050505050565b6129176134a8565b600080600080600080600460009054906101000a9004600160a060020a0316600160a060020a031663e08c694c896040518263ffffffff1660e060020a0281526004018082815260200191505060c06040518083038186803b1580156121f357600080fd5b60606129d1826040518060400160405280602081526020017f5361666545524332303a206c6f772d6c6576656c2063616c6c206661696c656481525085600160a060020a031661321e9092919063ffffffff16565b8051909150156119f1578080602001905160208110156129f057600080fd5b50516119f15760405160e560020a62461bcd02815260040180806020018281038252602a815260200180613682602a913960400191505060405180910390fd5b612a386134a8565b612a4183612174565b60808101519091508281101561216e5760405160e560020a62461bcd02815260040180806020018281038252603c815260200180613646603c913960400191505060405180910390fd5b612a936134a8565b612a9b6134a8565b612aa485612174565b6060810151909150612abc908563ffffffff61301316565b606082015260c0810151612ad6908463ffffffff61301316565b60c08201526080810151612af0908463ffffffff611f4d16565b608082015290505b9392505050565b6004805460208301516040808501516060860151608087015160a088015160c089015185517f46854aa7000000000000000000000000000000000000000000000000000000008152600160a060020a0397881699810199909952602489019490945260448801929092526064870152608486015260a4850152519116916346854aa79160c480830192600092919082900301818387803b158015612ba257600080fd5b505af1158015611f46573d6000803e3d6000fd5b60008184841115612c485760405160e560020a62461bcd0281526004018080602001828103825283818151815260200191508051906020019080838360005b83811015612c0d578181015183820152602001612bf5565b50505050905090810190601f168015612c3a5780820380516001836020036101000a031916815260200191505b509250505060405180910390fd5b505050900390565b600654604080518082018252601f81527f58454e445f46494e414e43455f434f4d4d4953494f4e5f4449564944454e4400602080830191825292517f37f2a0240000000000000000000000000000000000000000000000000000000081526004810193845282516024820152825160009586958695869586958695600160a060020a03909516946337f2a02494928392604401918083838b5b83811015612d01578181015183820152602001612ce9565b50505050905090810190601f168015612d2e5780820380516001836020036101000a031916815260200191505b509250505060a060405180830381600087803b158015612d4d57600080fd5b505af1158015612d61573d6000803e3d6000fd5b505050506040513d60a0811015612d7757600080fd5b5080516020820151604083015160608401516080909401519298509096509450909250905081612ddb5760405160e560020a62461bcd0281526004018080602001828103825260278152602001806135e96027913960400191505060405180910390fd5b6001816001811115612de957fe5b14612e285760405160e560020a62461bcd02815260040180806020018281038252603a8152602001806136ac603a913960400191505060405180910390fd5b5090935050505090565b600654604080518082018252601e81527f58454e445f46494e414e43455f434f4d4d4953494f4e5f44495649534f520000602080830191825292517f37f2a0240000000000000000000000000000000000000000000000000000000081526004810193845282516024820152825160009586958695869586958695600160a060020a03909516946337f2a02494928392604401918083838b8315612d01578181015183820152602001612ce9565b600082612eef57506000611f92565b82820282848281612efc57fe5b0414611f8f5760405160e560020a62461bcd0281526004018080602001828103825260218152602001806135c86021913960400191505060405180910390fd5b6000611f8f83836040518060400160405280601a81526020017f536166654d6174683a206469766973696f6e206279207a65726f00000000000081525061322d565b60095460a060020a900460ff1615612fca5760405160e560020a62461bcd0281526004018080602001828103825260248152602001806135a46024913960400191505060405180910390fd5b600160a060020a0382166000908152600b6020526040902054612ff3908263ffffffff61301316565b600160a060020a039092166000908152600b602052604090209190915550565b600082820183811015611f8f576040805160e560020a62461bcd02815260206004820152601b60248201527f536166654d6174683a206164646974696f6e206f766572666c6f770000000000604482015290519081900360640190fd5b60408051428152600160a060020a038416602082015280820183905290517fedc02529ff71ee6028ad075806d0f6ac8bc18e48d2230ac2961d468d285f20ba9181900360600190a15050565b6130c46134a8565b60048054604080517f2adc57a6000000000000000000000000000000000000000000000000000000008152600160a060020a0388811694820194909452905160009390921691632adc57a691602480820192602092909190829003018186803b15801561313057600080fd5b505afa158015613144573d6000803e3d6000fd5b505050506040513d602081101561315a57600080fd5b50519050806131b35761316b6134a8565b50506040805160e08101825260018152600160a060020a03861660208201529081018490526000606082018190526080820184905260a0820184905260c08201529050612af8565b6131bb6134a8565b6131c486612174565b60408101519091506131dc908663ffffffff61301316565b604082015260a08101516131f6908563ffffffff61301316565b60a08201526080810151613210908563ffffffff61301316565b60808201529150612af89050565b60606120168484600085613295565b6000818361327f5760405160e560020a62461bcd028152602060048201818152835160248401528351909283926044909101919085019080838360008315612c0d578181015183820152602001612bf5565b50600083858161328b57fe5b0495945050505050565b606030318311156132da5760405160e560020a62461bcd0281526004018080602001828103825260268152602001806135226026913960400191505060405180910390fd5b6132e3856133f8565b613337576040805160e560020a62461bcd02815260206004820152601d60248201527f416464726573733a2063616c6c20746f206e6f6e2d636f6e7472616374000000604482015290519081900360640190fd5b6000606086600160a060020a031685876040518082805190602001908083835b602083106133765780518252601f199092019160209182019101613357565b6001836020036101000a03801982511681845116808217855250505050505090500191505060006040518083038185875af1925050503d80600081146133d8576040519150601f19603f3d011682016040523d82523d6000602084013e6133dd565b606091505b50915091506133ed8282866133fe565b979650505050505050565b3b151590565b6060831561340d575081612af8565b82511561341d5782518084602001fd5b60405160e560020a62461bcd028152602060048201818152845160248401528451859391928392604401919085019080838360008315612c0d578181015183820152602001612bf5565b6040518060c00160405280600081526020016000600160a060020a031681526020016000151581526020016000815260200160008152602001600081525090565b6040518060e001604052806000151581526020016000600160a060020a031681526020016000815260200160008152602001600081526020016000815260200160008152509056fe417070726f766520616e20616d6f756e74203e203020666f7220746f6b656e206265666f72652070726f63656564696e67416464726573733a20696e73756666696369656e742062616c616e636520666f722063616c6c436f756c64206e6f7420636f6d706c657465206465706f7369742070726f636573732066726f6d20746f6b656e20636f6e74726163746d656d626572206465706f736974207265616c6c792069736e277420776f727468206d7563685365727669636520636f6e747261637420686173206265656e2064657072656361746564536166654d6174683a206d756c7469706c69636174696f6e206f766572666c6f77756e737570706f727465642072756c6520646566696e74696f6e20666f722072756c652073657446756e647320617265207374696c6c206c6f636b65642c207761697420756e74696c206c6f636b20706572696f6420657870697265735769746864726177616c2063616e6e6f742062652070726f6365737365732c20726561736f6e3a20496e73756666696369656e742042616c616e63655361666545524332303a204552433230206f7065726174696f6e20646964206e6f742073756363656564756e737570706f727465642072756c6520646566696e74696f6e20666f722070656e616c74792070657263656e746167652072756c65207365744d696e696d756d206c6f636b20706572696f64206d7573742062652033206d6f6e746873a264697066735822122017788f4f32313a9d66c3a84a86a19e56239e29a3534d9fdf45da25968bbb4a7464736f6c63430006060033",
  "immutableReferences": {},
  "source": "// SPDX-License-Identifier: MIT\n\npragma solidity 0.6.6;\n\nimport \"./IClientRecordShema.sol\";\nimport \"./IGroupSchema.sol\";\nimport \"./SafeERC20.sol\";\nimport \"./ReentrancyGuard.sol\";\nimport \"./SafeMath.sol\";\nimport \"./Ownable.sol\";\nimport \"./IDaiLendingService.sol\";\nimport \"./IRewardConfig.sol\";\nimport \"./IClientRecord.sol\";\nimport \"./IERC20.sol\";\nimport \"./Address.sol\";\nimport \"./ISavingsConfig.sol\";\nimport \"./ISavingsConfigSchema.sol\";\nimport \"./ITreasury.sol\";\nimport \"./IXendToken.sol\";\n\ncontract XendFinanceIndividual_Yearn_V1 is\n    Ownable,\n    IClientRecordSchema,\n    ISavingsConfigSchema,\n    ReentrancyGuard\n{\n    using SafeMath for uint256;\n\n    using SafeERC20 for IERC20;\n\n    using Address for address payable;\n\n    event UnderlyingAssetDeposited(\n        address payable user,\n        uint256 underlyingAmount,\n        uint256 derivativeAmount,\n        uint256 balance\n    );\n\n    event DerivativeAssetWithdrawn(\n        address payable user,\n        uint256 underlyingAmount,\n        uint256 derivativeAmount,\n        uint256 balance\n    );\n\n    event XendTokenReward(\n        uint256 date,\n        address payable recipient,\n        uint256 amount\n    );\n\n    IDaiLendingService lendingService;\n    IERC20 daiToken;\n    IClientRecord clientRecordStorage;\n    IRewardConfig rewardConfig;\n    ISavingsConfig savingsConfig;\n    IERC20 derivativeToken;\n    ITreasury treasury;\n    IXendToken xendToken;\n\n    bool isDeprecated;\n\n    uint256 minLockPeriod = 7890000; //minimum lock period is three months by default\n\n    mapping(address => uint256) MemberToXendTokenRewardMapping; //  This tracks the total amount of xend token rewards a member has received\n\n      uint256 _totalTokenReward;      //  This tracks the total number of token rewards distributed on the individual savings\n\n      \n\n    address LendingAdapterAddress;\n\n    string constant XEND_FINANCE_COMMISION_DIVISOR =\n        \"XEND_FINANCE_COMMISION_DIVISOR\";\n    string constant XEND_FINANCE_COMMISION_DIVIDEND =\n        \"XEND_FINANCE_COMMISION_DIVIDEND\";\n\n    constructor(\n        address lendingServiceAddress,\n        address tokenAddress,\n        address clientRecordStorageAddress,\n        address savingsConfigAddress,\n        address derivativeTokenAddress,\n        address rewardConfigAddress,\n        address xendTokenAddress,\n        address treasuryAddress\n    ) public {\n        lendingService = IDaiLendingService(lendingServiceAddress);\n        daiToken = IERC20(tokenAddress);\n        clientRecordStorage = IClientRecord(clientRecordStorageAddress);\n        savingsConfig = ISavingsConfig(savingsConfigAddress);\n        rewardConfig = IRewardConfig(rewardConfigAddress);\n        derivativeToken = IERC20(derivativeTokenAddress);\n        treasury = ITreasury(treasuryAddress);\n        xendToken = IXendToken(xendTokenAddress);\n    }\n\n    function setAdapterAddress() external onlyOwner {\n        LendingAdapterAddress = lendingService.GetDaiLendingAdapterAddress();\n    }\n\n    function setMinimumLockPeriod (uint256 minimumLockPeriod) external onlyNonDeprecatedCalls onlyOwner {\n        minLockPeriod = minimumLockPeriod;\n    }\n\n     function GetTotalTokenRewardDistributed() external view returns(uint256){\n            return _totalTokenReward;\n        }\n\n    function deprecateContract(address newServiceAddress)\n        external\n        onlyOwner\n        onlyNonDeprecatedCalls\n    {\n        isDeprecated = true;\n        clientRecordStorage.reAssignStorageOracle(newServiceAddress);\n        uint256 derivativeTokenBalance =\n            derivativeToken.balanceOf(address(this));\n        derivativeToken.safeTransfer(newServiceAddress, derivativeTokenBalance);\n    }\n\n    function _UpdateMemberToXendTokeRewardMapping(\n        address member,\n        uint256 rewardAmount\n    ) internal onlyNonDeprecatedCalls {\n        MemberToXendTokenRewardMapping[member] = MemberToXendTokenRewardMapping[\n            member\n        ]\n            .add(rewardAmount);\n    }\n\n    function GetMemberXendTokenReward(address member)\n        external\n        view\n        returns (uint256)\n    {\n        return MemberToXendTokenRewardMapping[member];\n    }\n\n    function doesClientRecordExist(address depositor)\n        external\n        view\n        onlyNonDeprecatedCalls\n        returns (bool)\n    {\n        return clientRecordStorage.doesClientRecordExist(depositor);\n    }\n\n    function getClientRecord(address depositor)\n        external\n        onlyNonDeprecatedCalls\n        returns (\n            address payable _address,\n            uint256 underlyingTotalDeposits,\n            uint256 underlyingTotalWithdrawn,\n            uint256 derivativeBalance,\n            uint256 derivativeTotalDeposits,\n            uint256 derivativeTotalWithdrawn\n        )\n    {\n        ClientRecord memory clientRecord = _getClientRecordByAddress(depositor);\n        return (\n            clientRecord._address,\n            clientRecord.underlyingTotalDeposits,\n            clientRecord.underlyingTotalWithdrawn,\n            clientRecord.derivativeBalance,\n            clientRecord.derivativeTotalDeposits,\n            clientRecord.derivativeTotalWithdrawn\n        );\n    }\n\n    function getClientRecord()\n        external\n        onlyNonDeprecatedCalls\n        returns (\n            address payable _address,\n            uint256 underlyingTotalDeposits,\n            uint256 underlyingTotalWithdrawn,\n            uint256 derivativeBalance,\n            uint256 derivativeTotalDeposits,\n            uint256 derivativeTotalWithdrawn\n        )\n    {\n        ClientRecord memory clientRecord =\n            _getClientRecordByAddress(msg.sender);\n\n        return (\n            clientRecord._address,\n            clientRecord.underlyingTotalDeposits,\n            clientRecord.underlyingTotalWithdrawn,\n            clientRecord.derivativeBalance,\n            clientRecord.derivativeTotalDeposits,\n            clientRecord.derivativeTotalWithdrawn\n        );\n    }\n\n    function getClientRecordByIndex(uint256 index)\n        external\n        onlyNonDeprecatedCalls\n        returns (\n            address payable _address,\n            uint256 underlyingTotalDeposits,\n            uint256 underlyingTotalWithdrawn,\n            uint256 derivativeBalance,\n            uint256 derivativeTotalDeposits,\n            uint256 derivativeTotalWithdrawn\n        )\n    {\n        ClientRecord memory clientRecord = _getClientRecordByIndex(index);\n        return (\n            clientRecord._address,\n            clientRecord.underlyingTotalDeposits,\n            clientRecord.underlyingTotalWithdrawn,\n            clientRecord.derivativeBalance,\n            clientRecord.derivativeTotalDeposits,\n            clientRecord.derivativeTotalWithdrawn\n        );\n    }\n\n    function _getClientRecordByIndex(uint256 index)\n        internal\n        returns (ClientRecord memory)\n    {\n        (\n            address payable _address,\n            uint256 underlyingTotalDeposits,\n            uint256 underlyingTotalWithdrawn,\n            uint256 derivativeBalance,\n            uint256 derivativeTotalDeposits,\n            uint256 derivativeTotalWithdrawn\n        ) = clientRecordStorage.getClientRecordByIndex(index);\n        return\n            ClientRecord(\n                true,\n                _address,\n                underlyingTotalDeposits,\n                underlyingTotalWithdrawn,\n                derivativeBalance,\n                derivativeTotalDeposits,\n                derivativeTotalWithdrawn\n            );\n    }\n\n    function _getClientRecordByAddress(address member)\n        internal\n        view\n        returns (ClientRecord memory)\n    {\n        (\n            address payable _address,\n            uint256 underlyingTotalDeposits,\n            uint256 underlyingTotalWithdrawn,\n            uint256 derivativeBalance,\n            uint256 derivativeTotalDeposits,\n            uint256 derivativeTotalWithdrawn\n        ) = clientRecordStorage.getClientRecordByAddress(member);\n\n        return\n            ClientRecord(\n                true,\n                _address,\n                underlyingTotalDeposits,\n                underlyingTotalWithdrawn,\n                derivativeBalance,\n                derivativeTotalDeposits,\n                derivativeTotalWithdrawn\n            );\n    }\n\n    function withdraw(uint256 derivativeAmount)\n        external\n        onlyNonDeprecatedCalls\n    {\n        address payable recipient = msg.sender;\n        _withdraw(recipient, derivativeAmount);\n    }\n\n    function withdrawDelegate(\n        address payable recipient,\n        uint256 derivativeAmount\n    ) external onlyNonDeprecatedCalls onlyOwner {\n        _withdraw(recipient, derivativeAmount);\n    }\n\n    function WithdrawFromFixedDeposit(\n        uint256 recordId,\n        uint256 derivativeAmount\n    ) external onlyNonDeprecatedCalls {\n        address payable recipient = msg.sender;\n\n        FixedDepositRecord memory depositRecord =\n            _getFixedDepositRecordById(recordId);\n\n        uint256 depositDate = depositRecord.depositDateInSeconds;\n\n        uint256 lockPeriod = depositRecord.lockPeriodInSeconds;\n\n        _validateLockTimeHasElapsedAndHasNotWithdrawn(recordId);\n\n        uint256 balanceBeforeWithdraw = lendingService.userDaiBalance();\n\n        lendingService.WithdrawBySharesOnly(derivativeAmount);\n\n        uint256 balanceAfterWithdraw = lendingService.userDaiBalance();\n\n        uint256 amountOfUnderlyingAssetWithdrawn =\n            balanceBeforeWithdraw.sub(balanceAfterWithdraw);\n\n        uint256 commissionFees =\n            _computeXendFinanceCommisions(amountOfUnderlyingAssetWithdrawn);\n\n        uint256 amountToSendToDepositor =\n            amountOfUnderlyingAssetWithdrawn.sub(commissionFees);\n\n        daiToken.safeTransfer(recipient, amountToSendToDepositor);\n\n        if (commissionFees > 0) {\n            daiToken.approve(address(treasury), commissionFees);\n            treasury.depositToken(address(daiToken));\n        }\n\n        clientRecordStorage.UpdateDepositRecordMapping(\n            recordId,\n            derivativeAmount,\n            lockPeriod,\n            depositDate,\n            msg.sender,\n            true\n        );\n        clientRecordStorage.CreateDepositorAddressToDepositRecordMapping(\n            recipient,\n            depositRecord.recordId,\n            depositRecord.amount,\n            lockPeriod,\n            depositDate,\n            true\n        );\n\n        _rewardUserWithTokens(lockPeriod, derivativeAmount, recipient);\n\n        emit DerivativeAssetWithdrawn(\n            recipient,\n            amountOfUnderlyingAssetWithdrawn,\n            derivativeAmount,\n            derivativeAmount\n        );\n    }\n\n    function _withdraw(address payable recipient, uint256 derivativeAmount)\n        internal\n        nonReentrant\n    {\n        _validateUserBalanceIsSufficient(recipient, derivativeAmount);\n\n        uint256 balanceBeforeWithdraw = lendingService.userDaiBalance();\n\n        lendingService.WithdrawBySharesOnly(derivativeAmount);\n\n        uint256 balanceAfterWithdraw = lendingService.userDaiBalance();\n\n        uint256 amountOfUnderlyingAssetWithdrawn =\n            balanceBeforeWithdraw.sub(balanceAfterWithdraw);\n\n        uint256 commissionFees =\n            _computeXendFinanceCommisions(amountOfUnderlyingAssetWithdrawn);\n\n        uint256 amountToSendToDepositor =\n            amountOfUnderlyingAssetWithdrawn.sub(commissionFees);\n\n        daiToken.safeTransfer(recipient, amountToSendToDepositor);\n\n        if (commissionFees > 0) {\n            daiToken.approve(address(treasury), commissionFees);\n            treasury.depositToken(address(daiToken));\n        }\n\n        ClientRecord memory clientRecord =\n            _updateClientRecordAfterWithdrawal(\n                recipient,\n                amountOfUnderlyingAssetWithdrawn,\n                derivativeAmount\n            );\n        _updateClientRecord(clientRecord);\n\n        emit DerivativeAssetWithdrawn(\n            recipient,\n            amountOfUnderlyingAssetWithdrawn,\n            derivativeAmount,\n            clientRecord.derivativeBalance\n        );\n    }\n\n    function _validateUserBalanceIsSufficient(\n        address payable recipient,\n        uint256 derivativeAmount\n    ) internal {\n        ClientRecord memory clientRecord = _getClientRecordByAddress(recipient);\n\n        uint256 derivativeBalance = clientRecord.derivativeBalance;\n\n        require(\n            derivativeBalance >= derivativeAmount,\n            \"Withdrawal cannot be processes, reason: Insufficient Balance\"\n        );\n    }\n\n    function _computeXendFinanceCommisions(uint256 worthOfMemberDepositNow)\n        internal\n        returns (uint256)\n    {\n        uint256 dividend = _getDividend();\n        uint256 divisor = _getDivisor();\n\n        require(\n            worthOfMemberDepositNow > 0,\n            \"member deposit really isn't worth much\"\n        );\n\n        return worthOfMemberDepositNow.mul(dividend).div(divisor).div(100);\n    }\n\n    function _validateLockTimeHasElapsedAndHasNotWithdrawn(uint256 recordId)\n        internal\n    {\n        FixedDepositRecord memory depositRecord =\n            _getFixedDepositRecordById(recordId);\n\n        uint256 lockPeriod = depositRecord.lockPeriodInSeconds;\n\n        bool hasWithdrawn = depositRecord.hasWithdrawn;\n\n        require(!hasWithdrawn, \"Individual has already withdrawn\");\n\n        uint256 currentTimeStamp = now;\n\n        require(\n            currentTimeStamp >= lockPeriod,\n            \"Funds are still locked, wait until lock period expires\"\n        );\n    }\n\n    function _getDivisor() internal returns (uint256) {\n        (\n            uint256 minimumDivisor,\n            uint256 maximumDivisor,\n            uint256 exactDivisor,\n            bool appliesDivisor,\n            RuleDefinition ruleDefinitionDivisor\n        ) = savingsConfig.getRuleSet(XEND_FINANCE_COMMISION_DIVISOR);\n\n        require(appliesDivisor, \"unsupported rule defintion for rule set\");\n\n        require(\n            ruleDefinitionDivisor == RuleDefinition.VALUE,\n            \"unsupported rule defintion for penalty percentage rule set\"\n        );\n        return exactDivisor;\n    }\n\n    function _getDividend() internal returns (uint256) {\n        (\n            uint256 minimumDividend,\n            uint256 maximumDividend,\n            uint256 exactDividend,\n            bool appliesDividend,\n            RuleDefinition ruleDefinitionDividend\n        ) = savingsConfig.getRuleSet(XEND_FINANCE_COMMISION_DIVIDEND);\n\n        require(appliesDividend, \"unsupported rule defintion for rule set\");\n\n        require(\n            ruleDefinitionDividend == RuleDefinition.VALUE,\n            \"unsupported rule defintion for penalty percentage rule set\"\n        );\n        return exactDividend;\n    }\n\n    function deposit() external onlyNonDeprecatedCalls {\n        _deposit(msg.sender);\n    }\n\n    function depositDelegate(address payable depositorAddress)\n        external\n        onlyNonDeprecatedCalls\n        onlyOwner\n    {\n        _deposit(depositorAddress);\n    }\n\n    function _getFixedDepositRecordById(uint256 recordId)\n        internal\n        returns (FixedDepositRecord memory)\n    {\n        (\n            uint256 recordId,\n            address payable depositorId,\n            uint256 amount,\n            uint256 depositDateInSeconds,\n            uint256 lockPeriodInSeconds,\n            bool hasWithdrawn\n        ) = clientRecordStorage.GetRecordById(recordId);\n    }\n\n    function FixedDeposit(\n        uint256 depositDateInSeconds,\n        uint256 lockPeriodInSeconds\n    ) external onlyNonDeprecatedCalls {\n        address payable depositorAddress = msg.sender;\n\n        address recipient = address(this);\n\n        uint256 amountTransferrable =\n            daiToken.allowance(depositorAddress, recipient);\n\n            require(lockPeriodInSeconds >= minLockPeriod, \"Minimum lock period must be 3 months\");\n\n        require(\n            amountTransferrable > 0,\n            \"Approve an amount > 0 for token before proceeding\"\n        );\n        bool isSuccessful =\n            daiToken.transferFrom(\n                depositorAddress,\n                recipient,\n                amountTransferrable\n            );\n        require(\n            isSuccessful,\n            \"Could not complete deposit process from token contract\"\n        );\n\n        LendingAdapterAddress = lendingService.GetDaiLendingAdapterAddress();\n\n        daiToken.approve(LendingAdapterAddress, amountTransferrable);\n\n        uint256 balanceBeforeDeposit = lendingService.userShares();\n\n        lendingService.save(amountTransferrable);\n\n        uint256 balanceAfterDeposit = lendingService.userShares();\n\n        uint256 amountOfyDai = balanceAfterDeposit.sub(balanceBeforeDeposit);\n\n       uint recordId = clientRecordStorage.CreateDepositRecordMapping(\n            amountTransferrable,\n            lockPeriodInSeconds,\n            depositDateInSeconds,\n            depositorAddress,\n            false\n        );\n\n\n        clientRecordStorage\n            .CreateDepositorToDepositRecordIndexToRecordIDMapping(\n            depositorAddress,\n            recordId\n        );\n\n        clientRecordStorage.CreateDepositorAddressToDepositRecordMapping(\n            depositorAddress,\n            recordId,\n            amountTransferrable,\n            lockPeriodInSeconds,\n            depositDateInSeconds,\n            false\n        );\n\n        emit UnderlyingAssetDeposited(\n            depositorAddress,\n            amountTransferrable,\n            amountOfyDai,\n            amountTransferrable\n        );\n    }\n\n    function _deposit(address payable depositorAddress) internal {\n        address recipient = address(this);\n        uint256 amountTransferrable =\n            daiToken.allowance(depositorAddress, recipient);\n\n        require(\n            amountTransferrable > 0,\n            \"Approve an amount > 0 for token before proceeding\"\n        );\n        bool isSuccessful =\n            daiToken.transferFrom(\n                depositorAddress,\n                recipient,\n                amountTransferrable\n            );\n        require(\n            isSuccessful,\n            \"Could not complete deposit process from token contract\"\n        );\n\n        LendingAdapterAddress = lendingService.GetDaiLendingAdapterAddress();\n\n        daiToken.approve(LendingAdapterAddress, amountTransferrable);\n\n        uint256 balanceBeforeDeposit = lendingService.userShares();\n\n        lendingService.save(amountTransferrable);\n\n        uint256 balanceAfterDeposit = lendingService.userShares();\n\n        uint256 amountOfyDai = balanceAfterDeposit.sub(balanceBeforeDeposit);\n        ClientRecord memory clientRecord =\n            _updateClientRecordAfterDeposit(\n                depositorAddress,\n                amountTransferrable,\n                amountOfyDai\n            );\n\n        bool exists =\n            clientRecordStorage.doesClientRecordExist(depositorAddress);\n\n        if (exists) _updateClientRecord(clientRecord);\n        else {\n            clientRecordStorage.createClientRecord(\n                clientRecord._address,\n                clientRecord.underlyingTotalDeposits,\n                clientRecord.underlyingTotalWithdrawn,\n                clientRecord.derivativeBalance,\n                clientRecord.derivativeTotalDeposits,\n                clientRecord.derivativeTotalWithdrawn\n            );\n        }\n\n        emit UnderlyingAssetDeposited(\n            depositorAddress,\n            amountTransferrable,\n            amountOfyDai,\n            clientRecord.derivativeBalance\n        );\n    }\n\n    function _updateClientRecordAfterDeposit(\n        address payable client,\n        uint256 underlyingAmountDeposited,\n        uint256 derivativeAmountDeposited\n    ) internal returns (ClientRecord memory) {\n        bool exists = clientRecordStorage.doesClientRecordExist(client);\n        if (!exists) {\n            ClientRecord memory record =\n                ClientRecord(\n                    true,\n                    client,\n                    underlyingAmountDeposited,\n                    0,\n                    derivativeAmountDeposited,\n                    derivativeAmountDeposited,\n                    0\n                );\n\n            return record;\n        } else {\n            ClientRecord memory record = _getClientRecordByAddress(client);\n\n            record.underlyingTotalDeposits = record.underlyingTotalDeposits.add(\n                underlyingAmountDeposited\n            );\n            record.derivativeTotalDeposits = record.derivativeTotalDeposits.add(\n                derivativeAmountDeposited\n            );\n            record.derivativeBalance = record.derivativeBalance.add(\n                derivativeAmountDeposited\n            );\n\n            return record;\n        }\n    }\n\n    function _updateClientRecordAfterWithdrawal(\n        address payable client,\n        uint256 underlyingAmountWithdrawn,\n        uint256 derivativeAmountWithdrawn\n    ) internal returns (ClientRecord memory) {\n        ClientRecord memory record = _getClientRecordByAddress(client);\n\n        record.underlyingTotalWithdrawn = record.underlyingTotalWithdrawn.add(\n            underlyingAmountWithdrawn\n        );\n\n        record.derivativeTotalWithdrawn = record.derivativeTotalWithdrawn.add(\n            derivativeAmountWithdrawn\n        );\n\n        record.derivativeBalance = record.derivativeBalance.sub(\n            derivativeAmountWithdrawn\n        );\n\n        return record;\n    }\n\n    function _updateClientRecord(ClientRecord memory clientRecord) internal {\n        clientRecordStorage.updateClientRecord(\n            clientRecord._address,\n            clientRecord.underlyingTotalDeposits,\n            clientRecord.underlyingTotalWithdrawn,\n            clientRecord.derivativeBalance,\n            clientRecord.derivativeTotalDeposits,\n            clientRecord.derivativeTotalWithdrawn\n        );\n    }\n\n    function _emitXendTokenReward(address payable member, uint256 amount)\n        internal\n    {\n        emit XendTokenReward(now, member, amount);\n    }\n\n    function _rewardUserWithTokens(\n        uint256 totalLockPeriod,\n        uint256 amountDeposited,\n        address payable recipient\n    ) internal {\n        uint256 numberOfRewardTokens =\n            rewardConfig.CalculateIndividualSavingsReward(\n                totalLockPeriod,\n                amountDeposited\n            );\n\n        if (numberOfRewardTokens > 0) {\n            xendToken.mint(recipient, numberOfRewardTokens);\n            _UpdateMemberToXendTokeRewardMapping(\n                recipient,\n                numberOfRewardTokens\n            );\n             //  increase the total number of xend token rewards distributed\n            _totalTokenReward = _totalTokenReward.add(numberOfRewardTokens);\n            _emitXendTokenReward(recipient, numberOfRewardTokens);\n        }\n    }\n\n    modifier onlyNonDeprecatedCalls() {\n        require(!isDeprecated, \"Service contract has been deprecated\");\n        _;\n    }\n}\n",
  "sourcePath": "/Users/mac/Desktop/BinaryHiils/yearn-savings/Tests/contracts/XendFinanceIndividual_Yearn_V1.sol",
  "compiler": {
    "name": "solc",
    "version": "0.6.6+commit.6c089d02.Emscripten.clang"
  },
  "schemaVersion": "3.3.2",
  "updatedAt": "2021-02-25T10:24:37.672Z",
  "networkType": "ethereum",
  "devdoc": {
    "methods": {}
  },
  "userdoc": {
    "methods": {}
  }
}