{
  "contractName": "XendToken",
  "abi": [
    {
      "inputs": [
        {
          "internalType": "string",
          "name": "name",
          "type": "string"
        },
        {
          "internalType": "string",
          "name": "symbol",
          "type": "string"
        },
        {
          "internalType": "uint8",
          "name": "decimals",
          "type": "uint8"
        },
        {
          "internalType": "uint256",
          "name": "totalSupply",
          "type": "uint256"
        }
      ],
      "stateMutability": "nonpayable",
      "type": "constructor"
    },
    {
      "anonymous": false,
      "inputs": [
        {
          "indexed": true,
          "internalType": "address",
          "name": "owner",
          "type": "address"
        },
        {
          "indexed": true,
          "internalType": "address",
          "name": "spender",
          "type": "address"
        },
        {
          "indexed": false,
          "internalType": "uint256",
          "name": "value",
          "type": "uint256"
        }
      ],
      "name": "Approval",
      "type": "event"
    },
    {
      "anonymous": false,
      "inputs": [
        {
          "indexed": false,
          "internalType": "address",
          "name": "account",
          "type": "address"
        }
      ],
      "name": "Paused",
      "type": "event"
    },
    {
      "anonymous": false,
      "inputs": [
        {
          "indexed": true,
          "internalType": "address",
          "name": "from",
          "type": "address"
        },
        {
          "indexed": true,
          "internalType": "address",
          "name": "to",
          "type": "address"
        },
        {
          "indexed": false,
          "internalType": "uint256",
          "name": "value",
          "type": "uint256"
        }
      ],
      "name": "Transfer",
      "type": "event"
    },
    {
      "anonymous": false,
      "inputs": [
        {
          "indexed": false,
          "internalType": "address",
          "name": "account",
          "type": "address"
        }
      ],
      "name": "Unpaused",
      "type": "event"
    },
    {
      "inputs": [
        {
          "internalType": "address",
          "name": "owner",
          "type": "address"
        },
        {
          "internalType": "address",
          "name": "spender",
          "type": "address"
        }
      ],
      "name": "allowance",
      "outputs": [
        {
          "internalType": "uint256",
          "name": "",
          "type": "uint256"
        }
      ],
      "stateMutability": "view",
      "type": "function"
    },
    {
      "inputs": [
        {
          "internalType": "address",
          "name": "spender",
          "type": "address"
        },
        {
          "internalType": "uint256",
          "name": "amount",
          "type": "uint256"
        }
      ],
      "name": "approve",
      "outputs": [
        {
          "internalType": "bool",
          "name": "",
          "type": "bool"
        }
      ],
      "stateMutability": "nonpayable",
      "type": "function"
    },
    {
      "inputs": [
        {
          "internalType": "address",
          "name": "account",
          "type": "address"
        }
      ],
      "name": "balanceOf",
      "outputs": [
        {
          "internalType": "uint256",
          "name": "",
          "type": "uint256"
        }
      ],
      "stateMutability": "view",
      "type": "function"
    },
    {
      "inputs": [],
      "name": "decimals",
      "outputs": [
        {
          "internalType": "uint8",
          "name": "",
          "type": "uint8"
        }
      ],
      "stateMutability": "view",
      "type": "function"
    },
    {
      "inputs": [
        {
          "internalType": "address",
          "name": "spender",
          "type": "address"
        },
        {
          "internalType": "uint256",
          "name": "subtractedValue",
          "type": "uint256"
        }
      ],
      "name": "decreaseAllowance",
      "outputs": [
        {
          "internalType": "bool",
          "name": "",
          "type": "bool"
        }
      ],
      "stateMutability": "nonpayable",
      "type": "function"
    },
    {
      "inputs": [
        {
          "internalType": "address",
          "name": "minter",
          "type": "address"
        }
      ],
      "name": "grantAccess",
      "outputs": [],
      "stateMutability": "nonpayable",
      "type": "function"
    },
    {
      "inputs": [
        {
          "internalType": "address",
          "name": "spender",
          "type": "address"
        },
        {
          "internalType": "uint256",
          "name": "addedValue",
          "type": "uint256"
        }
      ],
      "name": "increaseAllowance",
      "outputs": [
        {
          "internalType": "bool",
          "name": "",
          "type": "bool"
        }
      ],
      "stateMutability": "nonpayable",
      "type": "function"
    },
    {
      "inputs": [
        {
          "internalType": "address",
          "name": "",
          "type": "address"
        }
      ],
      "name": "minters",
      "outputs": [
        {
          "internalType": "bool",
          "name": "",
          "type": "bool"
        }
      ],
      "stateMutability": "view",
      "type": "function"
    },
    {
      "inputs": [],
      "name": "name",
      "outputs": [
        {
          "internalType": "string",
          "name": "",
          "type": "string"
        }
      ],
      "stateMutability": "view",
      "type": "function"
    },
    {
      "inputs": [],
      "name": "owner",
      "outputs": [
        {
          "internalType": "address payable",
          "name": "",
          "type": "address"
        }
      ],
      "stateMutability": "view",
      "type": "function"
    },
    {
      "inputs": [],
      "name": "paused",
      "outputs": [
        {
          "internalType": "bool",
          "name": "",
          "type": "bool"
        }
      ],
      "stateMutability": "view",
      "type": "function"
    },
    {
      "inputs": [
        {
          "internalType": "address",
          "name": "minter",
          "type": "address"
        }
      ],
      "name": "revokeAccess",
      "outputs": [],
      "stateMutability": "nonpayable",
      "type": "function"
    },
    {
      "inputs": [],
      "name": "symbol",
      "outputs": [
        {
          "internalType": "string",
          "name": "",
          "type": "string"
        }
      ],
      "stateMutability": "view",
      "type": "function"
    },
    {
      "inputs": [],
      "name": "totalSupply",
      "outputs": [
        {
          "internalType": "uint256",
          "name": "",
          "type": "uint256"
        }
      ],
      "stateMutability": "view",
      "type": "function"
    },
    {
      "inputs": [
        {
          "internalType": "address",
          "name": "recipient",
          "type": "address"
        },
        {
          "internalType": "uint256",
          "name": "amount",
          "type": "uint256"
        }
      ],
      "name": "transfer",
      "outputs": [
        {
          "internalType": "bool",
          "name": "",
          "type": "bool"
        }
      ],
      "stateMutability": "nonpayable",
      "type": "function"
    },
    {
      "inputs": [
        {
          "internalType": "address",
          "name": "sender",
          "type": "address"
        },
        {
          "internalType": "address",
          "name": "recipient",
          "type": "address"
        },
        {
          "internalType": "uint256",
          "name": "amount",
          "type": "uint256"
        }
      ],
      "name": "transferFrom",
      "outputs": [
        {
          "internalType": "bool",
          "name": "",
          "type": "bool"
        }
      ],
      "stateMutability": "nonpayable",
      "type": "function"
    },
    {
      "inputs": [
        {
          "internalType": "address payable",
          "name": "newOwner",
          "type": "address"
        }
      ],
      "name": "transferOwnership",
      "outputs": [],
      "stateMutability": "nonpayable",
      "type": "function"
    },
    {
      "stateMutability": "payable",
      "type": "receive"
    },
    {
      "inputs": [
        {
          "internalType": "address payable",
          "name": "recipient",
          "type": "address"
        },
        {
          "internalType": "uint256",
          "name": "amount",
          "type": "uint256"
        }
      ],
      "name": "mint",
      "outputs": [],
      "stateMutability": "nonpayable",
      "type": "function"
    },
    {
      "inputs": [
        {
          "internalType": "uint256",
          "name": "amount",
          "type": "uint256"
        }
      ],
      "name": "mint",
      "outputs": [],
      "stateMutability": "nonpayable",
      "type": "function"
    },
    {
      "inputs": [],
      "name": "withdraw",
      "outputs": [],
      "stateMutability": "nonpayable",
      "type": "function"
    },
    {
      "inputs": [],
      "name": "price",
      "outputs": [
        {
          "internalType": "uint256",
          "name": "",
          "type": "uint256"
        }
      ],
      "stateMutability": "view",
      "type": "function"
    },
    {
      "inputs": [
        {
          "internalType": "uint256",
          "name": "priceInWei",
          "type": "uint256"
        }
      ],
      "name": "SetPrice",
      "outputs": [],
      "stateMutability": "nonpayable",
      "type": "function"
    },
    {
      "inputs": [
        {
          "internalType": "uint256",
          "name": "amount",
          "type": "uint256"
        }
      ],
      "name": "burn",
      "outputs": [],
      "stateMutability": "nonpayable",
      "type": "function"
    },
    {
      "inputs": [
        {
          "internalType": "address",
          "name": "account",
          "type": "address"
        },
        {
          "internalType": "uint256",
          "name": "amount",
          "type": "uint256"
        }
      ],
      "name": "burnFrom",
      "outputs": [],
      "stateMutability": "nonpayable",
      "type": "function"
    }
  ],
  "bytecode": "0x60806040523480156200001157600080fd5b5060405162001ab438038062001ab4833981810160405260808110156200003757600080fd5b81019080805160405193929190846401000000008211156200005857600080fd5b9083019060208201858111156200006e57600080fd5b82516401000000008111828201881017156200008957600080fd5b82525081516020918201929091019080838360005b83811015620000b85781810151838201526020016200009e565b50505050905090810190601f168015620000e65780820380516001836020036101000a031916815260200191505b50604052602001805160405193929190846401000000008211156200010a57600080fd5b9083019060208201858111156200012057600080fd5b82516401000000008111828201881017156200013b57600080fd5b82525081516020918201929091019080838360005b838110156200016a57818101518382015260200162000150565b50505050905090810190601f168015620001985780820380516001836020036101000a031916815260200191505b506040908152602082810151929091015160008054600160a060020a03191633179055865192945092508591859185918591620001db91600591870190620002f3565b508251620001f1906006906020860190620002f3565b506007805460ff191660ff84161790556004819055620002208180640100000000620002778102620010ea1704565b600455306000908152600260205260409020546200024d9082640100000000620010ea6200027782021704565b3060009081526002602052604090205550506007805461ff00191690555062000398945050505050565b600082820183811015620002ec57604080517f08c379a000000000000000000000000000000000000000000000000000000000815260206004820152601b60248201527f536166654d6174683a206164646974696f6e206f766572666c6f770000000000604482015290519081900360640190fd5b9392505050565b828054600181600116156101000203166002900490600052602060002090601f016020900481019282601f106200033657805160ff191683800117855562000366565b8280016001018555821562000366579182015b828111156200036657825182559160200191906001019062000349565b506200037492915062000378565b5090565b6200039591905b808211156200037457600081556001016200037f565b90565b61170c80620003a86000396000f3fe60806040526004361061016c576000357c01000000000000000000000000000000000000000000000000000000009004806370a08231116100d3578063a0712d681161008c578063a0712d681461054f578063a457c2d714610579578063a9059cbb146105b2578063dd62ed3e146105eb578063f2fde38b14610626578063f46eccc414610659576101bf565b806370a082311461045557806379cc67901461048857806385e68531146104c15780638da5cb5b146104f457806395d89b4114610525578063a035b1fe1461053a576101bf565b8063395093511161012557806339509351146103655780633ccfd60b1461039e57806340c10f19146103b357806342966c68146103ec5780634f5539c0146104165780635c975abb14610440576101bf565b806306fdde03146101c4578063095ea7b31461024e5780630ae5e7391461029b57806318160ddd146102d057806323b872dd146102f7578063313ce5671461033a576101bf565b366101bf573033600061017d61068c565b60ff16905060006101ac6008546101a084600a0a3461069590919063ffffffff16565b9063ffffffff6106fa16565b90506101b984848361073c565b50505050005b600080fd5b3480156101d057600080fd5b506101d96108ab565b6040805160208082528351818301528351919283929083019185019080838360005b838110156102135781810151838201526020016101fb565b50505050905090810190601f1680156102405780820380516001836020036101000a031916815260200191505b509250505060405180910390f35b34801561025a57600080fd5b506102876004803603604081101561027157600080fd5b50600160a060020a038135169060200135610941565b604080519115158252519081900360200190f35b3480156102a757600080fd5b506102ce600480360360208110156102be57600080fd5b5035600160a060020a031661095e565b005b3480156102dc57600080fd5b506102e5610a32565b60408051918252519081900360200190f35b34801561030357600080fd5b506102876004803603606081101561031a57600080fd5b50600160a060020a03813581169160208101359091169060400135610a38565b34801561034657600080fd5b5061034f61068c565b6040805160ff9092168252519081900360200190f35b34801561037157600080fd5b506102876004803603604081101561038857600080fd5b50600160a060020a038135169060200135610ac5565b3480156103aa57600080fd5b506102ce610b19565b3480156103bf57600080fd5b506102ce600480360360408110156103d657600080fd5b50600160a060020a038135169060200135610b9d565b3480156103f857600080fd5b506102ce6004803603602081101561040f57600080fd5b5035610c06565b34801561042257600080fd5b506102ce6004803603602081101561043957600080fd5b5035610c1a565b34801561044c57600080fd5b50610287610c1f565b34801561046157600080fd5b506102e56004803603602081101561047857600080fd5b5035600160a060020a0316610c2d565b34801561049457600080fd5b506102ce600480360360408110156104ab57600080fd5b50600160a060020a038135169060200135610c48565b3480156104cd57600080fd5b506102ce600480360360208110156104e457600080fd5b5035600160a060020a0316610ca3565b34801561050057600080fd5b50610509610d77565b60408051600160a060020a039092168252519081900360200190f35b34801561053157600080fd5b506101d9610d86565b34801561054657600080fd5b506102e5610de7565b34801561055b57600080fd5b506102ce6004803603602081101561057257600080fd5b5035610ded565b34801561058557600080fd5b506102876004803603604081101561059c57600080fd5b50600160a060020a038135169060200135610e48565b3480156105be57600080fd5b50610287600480360360408110156105d557600080fd5b50600160a060020a038135169060200135610eb6565b3480156105f757600080fd5b506102e56004803603604081101561060e57600080fd5b50600160a060020a0381358116916020013516610eca565b34801561063257600080fd5b506102ce6004803603602081101561064957600080fd5b5035600160a060020a0316610ef5565b34801561066557600080fd5b506102876004803603602081101561067c57600080fd5b5035600160a060020a0316610f81565b60075460ff1690565b6000826106a4575060006106f4565b828202828482816106b157fe5b04146106f15760405160e560020a62461bcd02815260040180806020018281038252602181526020018061158b6021913960400191505060405180910390fd5b90505b92915050565b60006106f183836040518060400160405280601a81526020017f536166654d6174683a206469766973696f6e206279207a65726f000000000000815250610f96565b600160a060020a0383166107845760405160e560020a62461bcd0281526004018080602001828103825260258152602001806116196025913960400191505060405180910390fd5b600160a060020a0382166107cc5760405160e560020a62461bcd02815260040180806020018281038252602381526020018061148c6023913960400191505060405180910390fd5b6107d783838361103b565b61081a8160405180606001604052806026815260200161151560269139600160a060020a038616600090815260026020526040902054919063ffffffff61108d16565b600160a060020a03808516600090815260026020526040808220939093559084168152205461084f908263ffffffff6110ea16565b600160a060020a0380841660008181526002602090815260409182902094909455805185815290519193928716927fddf252ad1be2c89b69c2b068fc378daa952ba7f163c4a11628f55a4df523b3ef92918290030190a3505050565b60058054604080516020601f60026000196101006001881615020190951694909404938401819004810282018101909252828152606093909290918301828280156109375780601f1061090c57610100808354040283529160200191610937565b820191906000526020600020905b81548152906001019060200180831161091a57829003601f168201915b5050505050905090565b600061095561094e611147565b848461114b565b50600192915050565b600054600160a060020a031633146109ae576040805160e560020a62461bcd02815260206004820152601f602482015260008051602061153b833981519152604482015290519081900360640190fd5b600160a060020a03811660009081526001602052604090205460ff168015610a0a5760405160e560020a62461bcd0281526004018080602001828103825260268152602001806116b16026913960400191505060405180910390fd5b50600160a060020a03166000908152600160208190526040909120805460ff19169091179055565b60045490565b6000610a4584848461073c565b610abb84610a51611147565b610ab6856040518060600160405280602881526020016115ac60289139600160a060020a038a16600090815260036020526040812090610a8f611147565b600160a060020a03168152602081019190915260400160002054919063ffffffff61108d16565b61114b565b5060019392505050565b6000610955610ad2611147565b84610ab68560036000610ae3611147565b600160a060020a03908116825260208083019390935260409182016000908120918c16815292529020549063ffffffff6110ea16565b600054600160a060020a03163314610b69576040805160e560020a62461bcd02815260206004820152601f602482015260008051602061153b833981519152604482015290519081900360640190fd5b604051303190339082156108fc029083906000818181858888f19350505050158015610b99573d6000803e3d6000fd5b5050565b3360009081526001602081905260409091205460ff169081151514610bf65760405160e560020a62461bcd02815260040180806020018281038252603081526020018061155b6030913960400191505060405180910390fd5b610c0130848461073c565b505050565b610c17610c11611147565b8261123d565b50565b600855565b600754610100900460ff1690565b600160a060020a031660009081526002602052604090205490565b6000610c85826040518060600160405280602481526020016115d460249139610c7886610c73611147565b610eca565b919063ffffffff61108d16565b9050610c9983610c93611147565b8361114b565b610c01838361123d565b600054600160a060020a03163314610cf3576040805160e560020a62461bcd02815260206004820152601f602482015260008051602061153b833981519152604482015290519081900360640190fd5b600160a060020a03811660009081526001602081905260409091205460ff169081151514610d555760405160e560020a62461bcd0281526004018080602001828103825260228152602001806114d16022913960400191505060405180910390fd5b50600160a060020a03166000908152600160205260409020805460ff19169055565b600054600160a060020a031681565b60068054604080516020601f60026000196101006001881615020190951694909404938401819004810282018101909252828152606093909290918301828280156109375780601f1061090c57610100808354040283529160200191610937565b60085490565b600054600160a060020a03163314610e3d576040805160e560020a62461bcd02815260206004820152601f602482015260008051602061153b833981519152604482015290519081900360640190fd5b30610b998183611348565b6000610955610e55611147565b84610ab6856040518060600160405280602581526020016116626025913960036000610e7f611147565b600160a060020a03908116825260208083019390935260409182016000908120918d1681529252902054919063ffffffff61108d16565b6000610955610ec3611147565b848461073c565b600160a060020a03918216600090815260036020908152604080832093909416825291909152205490565b600054600160a060020a03163314610f45576040805160e560020a62461bcd02815260206004820152601f602482015260008051602061153b833981519152604482015290519081900360640190fd5b600160a060020a03811615610c175760008054600160a060020a03831673ffffffffffffffffffffffffffffffffffffffff1990911617905550565b60016020526000908152604090205460ff1681565b600081836110255760405160e560020a62461bcd0281526004018080602001828103825283818151815260200191508051906020019080838360005b83811015610fea578181015183820152602001610fd2565b50505050905090810190601f1680156110175780820380516001836020036101000a031916815260200191505b509250505060405180910390fd5b50600083858161103157fe5b0495945050505050565b611046838383610c01565b61104e610c1f565b15610c015760405160e560020a62461bcd02815260040180806020018281038252602a815260200180611687602a913960400191505060405180910390fd5b600081848411156110e25760405160e560020a62461bcd028152602060048201818152835160248401528351909283926044909101919085019080838360008315610fea578181015183820152602001610fd2565b505050900390565b6000828201838110156106f1576040805160e560020a62461bcd02815260206004820152601b60248201527f536166654d6174683a206164646974696f6e206f766572666c6f770000000000604482015290519081900360640190fd5b3390565b600160a060020a0383166111935760405160e560020a62461bcd02815260040180806020018281038252602481526020018061163e6024913960400191505060405180910390fd5b600160a060020a0382166111db5760405160e560020a62461bcd0281526004018080602001828103825260228152602001806114f36022913960400191505060405180910390fd5b600160a060020a03808416600081815260036020908152604080832094871680845294825291829020859055815185815291517f8c5be1e5ebec7d5bd14f71427d1e84f3dd0314c0f7b2291e5b200ac8c7c3b9259281900390910190a3505050565b600160a060020a0382166112855760405160e560020a62461bcd0281526004018080602001828103825260218152602001806115f86021913960400191505060405180910390fd5b6112918260008361103b565b6112d4816040518060600160405280602281526020016114af60229139600160a060020a038516600090815260026020526040902054919063ffffffff61108d16565b600160a060020a038316600090815260026020526040902055600454611300908263ffffffff61144916565b600455604080518281529051600091600160a060020a038516917fddf252ad1be2c89b69c2b068fc378daa952ba7f163c4a11628f55a4df523b3ef9181900360200190a35050565b600160a060020a0382166113a6576040805160e560020a62461bcd02815260206004820152601f60248201527f45524332303a206d696e7420746f20746865207a65726f206164647265737300604482015290519081900360640190fd5b6113b26000838361103b565b6004546113c5908263ffffffff6110ea16565b600455600160a060020a0382166000908152600260205260409020546113f1908263ffffffff6110ea16565b600160a060020a03831660008181526002602090815260408083209490945583518581529351929391927fddf252ad1be2c89b69c2b068fc378daa952ba7f163c4a11628f55a4df523b3ef9281900390910190a35050565b60006106f183836040518060400160405280601e81526020017f536166654d6174683a207375627472616374696f6e206f766572666c6f77000081525061108d56fe45524332303a207472616e7366657220746f20746865207a65726f206164647265737345524332303a206275726e20616d6f756e7420657863656564732062616c616e63656d696e74657220686173206e6f74206265656e206772616e7465642061636365737345524332303a20617070726f766520746f20746865207a65726f206164647265737345524332303a207472616e7366657220616d6f756e7420657863656564732062616c616e6365556e617574686f72697a65642061636365737320746f20636f6e7472616374006d696e742061636365737320686173206e6f74206265656e206772616e74656420746f2074686973206163636f756e74536166654d6174683a206d756c7469706c69636174696f6e206f766572666c6f7745524332303a207472616e7366657220616d6f756e74206578636565647320616c6c6f77616e636545524332303a206275726e20616d6f756e74206578636565647320616c6c6f77616e636545524332303a206275726e2066726f6d20746865207a65726f206164647265737345524332303a207472616e736665722066726f6d20746865207a65726f206164647265737345524332303a20617070726f76652066726f6d20746865207a65726f206164647265737345524332303a2064656372656173656420616c6c6f77616e63652062656c6f77207a65726f45524332305061757361626c653a20746f6b656e207472616e73666572207768696c65207061757365646d696e7465722068617320616c7265616479206265656e206772616e74656420616363657373a26469706673582212207933f4aaa20986e6a760a84c58a1a58453226e5738b78efde27355e12219ef9464736f6c63430006060033",
  "immutableReferences": {},
  "source": "// SPDX-License-Identifier: MIT\n\npragma solidity ^0.6.0;\nimport \"./Context.sol\";\nimport \"./ERC20Pausable.sol\";\nimport \"./ERC20Burnable.sol\";\nimport \"./ERC20.sol\";\nimport \"./SafeMath.sol\";\n\ncontract MintAccessor {\n    address payable public owner;\n\n    constructor() internal {\n        owner = msg.sender;\n    }\n\n    modifier onlyOwner() {\n        require(msg.sender == owner, \"Unauthorized access to contract\");\n        _;\n    }\n\n    function transferOwnership(address payable newOwner) public onlyOwner {\n        if (newOwner != address(0)) {\n            owner = newOwner;\n        }\n    }\n}\n\ncontract XendToken is ERC20Pausable {\n    using SafeMath for uint256;\n\n    uint256 private _price;\n\n    constructor(\n        string memory name,\n        string memory symbol,\n        uint8 decimals,\n        uint256 totalSupply\n    ) public ERC20(name, symbol, decimals, totalSupply) {}\n\n    receive() external payable {\n        address sender = address(this);\n\n        address recipient = msg.sender;\n\n        uint256 decimal = decimals();\n        uint256 amount = msg.value.mul(10**uint256(decimal)).div(_price); // calculates the amount\n\n        _transfer(sender, recipient, amount);\n    }\n\n    function mint(uint256 amount) public virtual onlyOwner {\n        address account = address(this);\n        _mint(account, amount);\n    }\n\n    function mint(address payable recipient, uint256 amount)\n        public\n        virtual\n        onlyMinter\n    {\n        _transfer(address(this), recipient, amount);\n    }\n\n    function withdraw() public virtual onlyOwner {\n        uint256 etherBalance = address(this).balance;\n        msg.sender.transfer(etherBalance);\n    }\n\n    function price() public view returns (uint256) {\n        return _price;\n    }\n\n    function SetPrice(uint256 priceInWei) public {\n        _price = priceInWei;\n    }\n\n    /**\n     * @dev Destroys `amount` tokens from the caller.\n     *\n     * See {ERC20-_burn}.\n     */\n    function burn(uint256 amount) public virtual {\n        _burn(_msgSender(), amount);\n    }\n\n    /**\n     * @dev Destroys `amount` tokens from `account`, deducting from the caller's\n     * allowance.\n     *\n     * See {ERC20-_burn} and {ERC20-allowance}.\n     *\n     * Requirements:\n     *\n     * - the caller must have allowance for ``accounts``'s tokens of at least\n     * `amount`.\n     */\n    function burnFrom(address account, uint256 amount) public virtual {\n        uint256 decreasedAllowance = allowance(account, _msgSender()).sub(\n            amount,\n            \"ERC20: burn amount exceeds allowance\"\n        );\n\n        _approve(account, _msgSender(), decreasedAllowance);\n        _burn(account, amount);\n    }\n}\n",
  "sourcePath": "/Users/mac/Desktop/BinaryHiils/esusu-1/Test/contracts/XendToken.sol",
  "compiler": {
    "name": "solc",
    "version": "0.6.6+commit.6c089d02.Emscripten.clang"
  },
  "schemaVersion": "3.3.2",
  "updatedAt": "2021-02-04T15:19:12.492Z",
  "devdoc": {
    "methods": {
      "allowance(address,address)": {
        "details": "See {IERC20-allowance}."
      },
      "approve(address,uint256)": {
        "details": "See {IERC20-approve}.     * Requirements:     * - `spender` cannot be the zero address."
      },
      "balanceOf(address)": {
        "details": "See {IERC20-balanceOf}."
      },
      "burn(uint256)": {
        "details": "Destroys `amount` tokens from the caller.     * See {ERC20-_burn}."
      },
      "burnFrom(address,uint256)": {
        "details": "Destroys `amount` tokens from `account`, deducting from the caller's allowance.     * See {ERC20-_burn} and {ERC20-allowance}.     * Requirements:     * - the caller must have allowance for ``accounts``'s tokens of at least `amount`."
      },
      "decimals()": {
        "details": "Returns the number of decimals used to get its user representation. For example, if `decimals` equals `2`, a balance of `505` tokens should be displayed to a user as `5,05` (`505 / 10 ** 2`).     * Tokens usually opt for a value of 18, imitating the relationship between Ether and Wei. This is the value {ERC20} uses, unless {_setupDecimals} is called.     * NOTE: This information is only used for _display_ purposes: it in no way affects any of the arithmetic of the contract, including {IERC20-balanceOf} and {IERC20-transfer}."
      },
      "decreaseAllowance(address,uint256)": {
        "details": "Atomically decreases the allowance granted to `spender` by the caller.     * This is an alternative to {approve} that can be used as a mitigation for problems described in {IERC20-approve}.     * Emits an {Approval} event indicating the updated allowance.     * Requirements:     * - `spender` cannot be the zero address. - `spender` must have allowance for the caller of at least `subtractedValue`."
      },
      "increaseAllowance(address,uint256)": {
        "details": "Atomically increases the allowance granted to `spender` by the caller.     * This is an alternative to {approve} that can be used as a mitigation for problems described in {IERC20-approve}.     * Emits an {Approval} event indicating the updated allowance.     * Requirements:     * - `spender` cannot be the zero address."
      },
      "name()": {
        "details": "Returns the name of the token."
      },
      "paused()": {
        "details": "Returns true if the contract is paused, and false otherwise."
      },
      "symbol()": {
        "details": "Returns the symbol of the token, usually a shorter version of the name."
      },
      "totalSupply()": {
        "details": "See {IERC20-totalSupply}."
      },
      "transfer(address,uint256)": {
        "details": "See {IERC20-transfer}.     * Requirements:     * - `recipient` cannot be the zero address. - the caller must have a balance of at least `amount`."
      },
      "transferFrom(address,address,uint256)": {
        "details": "See {IERC20-transferFrom}.     * Emits an {Approval} event indicating the updated allowance. This is not required by the EIP. See the note at the beginning of {ERC20};     * Requirements: - `sender` and `recipient` cannot be the zero address. - `sender` must have a balance of at least `amount`. - the caller must have allowance for ``sender``'s tokens of at least `amount`."
      }
    }
  },
  "userdoc": {
    "methods": {}
  }
}