{
  "contractName": "ClientRecord",
  "abi": [
    {
      "inputs": [
        {
          "internalType": "address",
          "name": "",
          "type": "address"
        }
      ],
      "name": "ClientRecordIndexer",
      "outputs": [
        {
          "internalType": "bool",
          "name": "exists",
          "type": "bool"
        },
        {
          "internalType": "uint256",
          "name": "index",
          "type": "uint256"
        }
      ],
      "stateMutability": "view",
      "type": "function",
      "constant": true
    },
    {
      "inputs": [
        {
          "internalType": "address",
          "name": "oracle",
          "type": "address"
        }
      ],
      "name": "activateStorageOracle",
      "outputs": [],
      "stateMutability": "nonpayable",
      "type": "function"
    },
    {
      "inputs": [
        {
          "internalType": "address",
          "name": "oracle",
          "type": "address"
        }
      ],
      "name": "deactivateStorageOracle",
      "outputs": [],
      "stateMutability": "nonpayable",
      "type": "function"
    },
    {
      "inputs": [
        {
          "internalType": "address",
          "name": "newOracle",
          "type": "address"
        }
      ],
      "name": "reAssignStorageOracle",
      "outputs": [],
      "stateMutability": "nonpayable",
      "type": "function"
    },
    {
      "inputs": [
        {
          "internalType": "address payable",
          "name": "newOwner",
          "type": "address"
        }
      ],
      "name": "transferOwnership",
      "outputs": [],
      "stateMutability": "nonpayable",
      "type": "function"
    },
    {
      "inputs": [
        {
          "internalType": "address",
          "name": "depositor",
          "type": "address"
        }
      ],
      "name": "doesClientRecordExist",
      "outputs": [
        {
          "internalType": "bool",
          "name": "",
          "type": "bool"
        }
      ],
      "stateMutability": "view",
      "type": "function",
      "constant": true
    },
    {
      "inputs": [
        {
          "internalType": "address",
          "name": "depositor",
          "type": "address"
        }
      ],
      "name": "getRecordIndex",
      "outputs": [
        {
          "internalType": "uint256",
          "name": "",
          "type": "uint256"
        }
      ],
      "stateMutability": "view",
      "type": "function",
      "constant": true
    },
    {
      "inputs": [
        {
          "internalType": "address payable",
          "name": "_address",
          "type": "address"
        },
        {
          "internalType": "uint256",
          "name": "underlyingTotalDeposits",
          "type": "uint256"
        },
        {
          "internalType": "uint256",
          "name": "underlyingTotalWithdrawn",
          "type": "uint256"
        },
        {
          "internalType": "uint256",
          "name": "derivativeBalance",
          "type": "uint256"
        },
        {
          "internalType": "uint256",
          "name": "derivativeTotalDeposits",
          "type": "uint256"
        },
        {
          "internalType": "uint256",
          "name": "derivativeTotalWithdrawn",
          "type": "uint256"
        }
      ],
      "name": "createClientRecord",
      "outputs": [],
      "stateMutability": "nonpayable",
      "type": "function"
    },
    {
      "inputs": [
        {
          "internalType": "address payable",
          "name": "_address",
          "type": "address"
        },
        {
          "internalType": "uint256",
          "name": "underlyingTotalDeposits",
          "type": "uint256"
        },
        {
          "internalType": "uint256",
          "name": "underlyingTotalWithdrawn",
          "type": "uint256"
        },
        {
          "internalType": "uint256",
          "name": "derivativeBalance",
          "type": "uint256"
        },
        {
          "internalType": "uint256",
          "name": "derivativeTotalDeposits",
          "type": "uint256"
        },
        {
          "internalType": "uint256",
          "name": "derivativeTotalWithdrawn",
          "type": "uint256"
        }
      ],
      "name": "updateClientRecord",
      "outputs": [],
      "stateMutability": "nonpayable",
      "type": "function"
    },
    {
      "inputs": [],
      "name": "getLengthOfClientRecords",
      "outputs": [
        {
          "internalType": "uint256",
          "name": "",
          "type": "uint256"
        }
      ],
      "stateMutability": "nonpayable",
      "type": "function"
    },
    {
      "inputs": [
        {
          "internalType": "uint256",
          "name": "index",
          "type": "uint256"
        }
      ],
      "name": "getClientRecordByIndex",
      "outputs": [
        {
          "internalType": "address payable",
          "name": "_address",
          "type": "address"
        },
        {
          "internalType": "uint256",
          "name": "underlyingTotalDeposits",
          "type": "uint256"
        },
        {
          "internalType": "uint256",
          "name": "underlyingTotalWithdrawn",
          "type": "uint256"
        },
        {
          "internalType": "uint256",
          "name": "derivativeBalance",
          "type": "uint256"
        },
        {
          "internalType": "uint256",
          "name": "derivativeTotalDeposits",
          "type": "uint256"
        },
        {
          "internalType": "uint256",
          "name": "derivativeTotalWithdrawn",
          "type": "uint256"
        }
      ],
      "stateMutability": "view",
      "type": "function",
      "constant": true
    },
    {
      "inputs": [
        {
          "internalType": "address",
          "name": "depositor",
          "type": "address"
        }
      ],
      "name": "getClientRecordByAddress",
      "outputs": [
        {
          "internalType": "address payable",
          "name": "_address",
          "type": "address"
        },
        {
          "internalType": "uint256",
          "name": "underlyingTotalDeposits",
          "type": "uint256"
        },
        {
          "internalType": "uint256",
          "name": "underlyingTotalWithdrawn",
          "type": "uint256"
        },
        {
          "internalType": "uint256",
          "name": "derivativeBalance",
          "type": "uint256"
        },
        {
          "internalType": "uint256",
          "name": "derivativeTotalDeposits",
          "type": "uint256"
        },
        {
          "internalType": "uint256",
          "name": "derivativeTotalWithdrawn",
          "type": "uint256"
        }
      ],
      "stateMutability": "view",
      "type": "function",
      "constant": true
    },
    {
      "inputs": [
        {
          "internalType": "address",
          "name": "member",
          "type": "address"
        }
      ],
      "name": "GetRecordIndexFromDepositor",
      "outputs": [
        {
          "internalType": "uint256",
          "name": "",
          "type": "uint256"
        }
      ],
      "stateMutability": "view",
      "type": "function",
      "constant": true
    },
    {
      "inputs": [
        {
          "internalType": "uint256",
          "name": "recordIndex",
          "type": "uint256"
        },
        {
          "internalType": "address",
          "name": "depositor",
          "type": "address"
        }
      ],
      "name": "GetRecordIdFromRecordIndexAndDepositorRecord",
      "outputs": [
        {
          "internalType": "uint256",
          "name": "",
          "type": "uint256"
        }
      ],
      "stateMutability": "view",
      "type": "function",
      "constant": true
    },
    {
      "inputs": [
        {
          "internalType": "uint256",
          "name": "amount",
          "type": "uint256"
        },
        {
          "internalType": "uint256",
          "name": "lockPeriodInSeconds",
          "type": "uint256"
        },
        {
          "internalType": "uint256",
          "name": "depositDateInSeconds",
          "type": "uint256"
        },
        {
          "internalType": "address payable",
          "name": "depositor",
          "type": "address"
        },
        {
          "internalType": "bool",
          "name": "hasWithdrawn",
          "type": "bool"
        }
      ],
      "name": "CreateDepositRecordMapping",
      "outputs": [
        {
          "internalType": "uint256",
          "name": "",
          "type": "uint256"
        }
      ],
      "stateMutability": "nonpayable",
      "type": "function"
    },
    {
      "inputs": [
        {
          "internalType": "uint256",
          "name": "DepositRecordId",
          "type": "uint256"
        },
        {
          "internalType": "uint256",
          "name": "amount",
          "type": "uint256"
        },
        {
          "internalType": "uint256",
          "name": "lockPeriodInSeconds",
          "type": "uint256"
        },
        {
          "internalType": "uint256",
          "name": "depositDateInSeconds",
          "type": "uint256"
        },
        {
          "internalType": "address payable",
          "name": "depositor",
          "type": "address"
        },
        {
          "internalType": "bool",
          "name": "hasWithdrawn",
          "type": "bool"
        }
      ],
      "name": "UpdateDepositRecordMapping",
      "outputs": [],
      "stateMutability": "nonpayable",
      "type": "function"
    },
    {
      "inputs": [],
      "name": "GetRecordId",
      "outputs": [
        {
          "internalType": "uint256",
          "name": "",
          "type": "uint256"
        }
      ],
      "stateMutability": "view",
      "type": "function",
      "constant": true
    },
    {
      "inputs": [
        {
          "internalType": "uint256",
          "name": "depositRecordId",
          "type": "uint256"
        }
      ],
      "name": "GetRecordById",
      "outputs": [
        {
          "internalType": "uint256",
          "name": "recordId",
          "type": "uint256"
        },
        {
          "internalType": "address payable",
          "name": "depositorId",
          "type": "address"
        },
        {
          "internalType": "uint256",
          "name": "amount",
          "type": "uint256"
        },
        {
          "internalType": "uint256",
          "name": "depositDateInSeconds",
          "type": "uint256"
        },
        {
          "internalType": "uint256",
          "name": "lockPeriodInSeconds",
          "type": "uint256"
        },
        {
          "internalType": "bool",
          "name": "hasWithdrawn",
          "type": "bool"
        }
      ],
      "stateMutability": "view",
      "type": "function",
      "constant": true
    },
    {
      "inputs": [],
      "name": "GetRecords",
      "outputs": [
        {
          "components": [
            {
              "internalType": "uint256",
              "name": "recordId",
              "type": "uint256"
            },
            {
              "internalType": "address payable",
              "name": "depositorId",
              "type": "address"
            },
            {
              "internalType": "bool",
              "name": "hasWithdrawn",
              "type": "bool"
            },
            {
              "internalType": "uint256",
              "name": "amount",
              "type": "uint256"
            },
            {
              "internalType": "uint256",
              "name": "depositDateInSeconds",
              "type": "uint256"
            },
            {
              "internalType": "uint256",
              "name": "lockPeriodInSeconds",
              "type": "uint256"
            }
          ],
          "internalType": "struct IClientRecordSchema.FixedDepositRecord[]",
          "name": "",
          "type": "tuple[]"
        }
      ],
      "stateMutability": "view",
      "type": "function",
      "constant": true
    },
    {
      "inputs": [
        {
          "internalType": "address payable",
          "name": "depositor",
          "type": "address"
        },
        {
          "internalType": "uint256",
          "name": "recordId",
          "type": "uint256"
        }
      ],
      "name": "CreateDepositorToDepositRecordIndexToRecordIDMapping",
      "outputs": [],
      "stateMutability": "nonpayable",
      "type": "function"
    },
    {
      "inputs": [
        {
          "internalType": "address payable",
          "name": "depositor",
          "type": "address"
        },
        {
          "internalType": "uint256",
          "name": "recordId",
          "type": "uint256"
        },
        {
          "internalType": "uint256",
          "name": "amountDeposited",
          "type": "uint256"
        },
        {
          "internalType": "uint256",
          "name": "lockPeriodInSeconds",
          "type": "uint256"
        },
        {
          "internalType": "uint256",
          "name": "depositDateInSeconds",
          "type": "uint256"
        },
        {
          "internalType": "bool",
          "name": "hasWithdrawn",
          "type": "bool"
        }
      ],
      "name": "CreateDepositorAddressToDepositRecordMapping",
      "outputs": [],
      "stateMutability": "nonpayable",
      "type": "function"
    }
  ],
  "bytecode": "0x6080604052600060028190558054600160a060020a0319163317905561156c8061002a6000396000f3fe608060405234801561001057600080fd5b5060043610610154576000357c0100000000000000000000000000000000000000000000000000000000900480637c79ed46116100d5578063d4efcbe811610099578063d4efcbe8146102c2578063e08c694c146102d5578063eac1bbe8146102e8578063f2fde38b146102fb578063fbae33721461030e578063ff1b9e211461031657610154565b80637c79ed461461025157806389694be7146102765780638b6297d4146102895780639ff8325b1461029c578063b103cccf146102af57610154565b806331703b5f1161011c57806331703b5f146101d257806335dc275b146101f357806346854aa7146102185780636041fc881461022b5780636f583ba61461023e57610154565b80630fdf80ed146101595780632848b7d11461016e5780632a02ab55146101815780632adc57a61461019f57806330951936146101bf575b600080fd5b61016c6101673660046110fb565b61032b565b005b61016c61017c366004611286565b6103a0565b610189610545565b60405161019691906114d7565b60405180910390f35b6101b26101ad3660046110fb565b61054b565b60405161019691906113a9565b6101896101cd366004611231565b610569565b6101e56101e03660046110fb565b61071d565b6040516101969291906113b4565b6102066102013660046111ea565b61073c565b604051610196969594939291906114e0565b61016c61022636600461119f565b6107ca565b61016c6102393660046110fb565b6108af565b61016c61024c3660046110fb565b6108fd565b61026461025f3660046110fb565b610951565b604051610196969594939291906112ec565b61016c61028436600461119f565b610a67565b61016c610297366004611142565b610c70565b61016c6102aa366004611117565b610d2c565b6101896102bd366004611202565b610dbd565b6101896102d03660046110fb565b610de2565b6102646102e33660046111ea565b610dfd565b6101896102f63660046110fb565b610ea9565b61016c6103093660046110fb565b610f18565b610189610f80565b61031e610f86565b604051610196919061131f565b3360009081526001602052604090205460ff16806103675760405160e560020a62461bcd02815260040161035e906113c4565b60405180910390fd5b50336000908152600160208190526040808320805460ff19908116909155600160a060020a039490941683529091208054909216179055565b3360009081526001602052604090205460ff16806103d35760405160e560020a62461bcd02815260040161035e906113c4565b5060008681526004602081905260408220978855600288019687558701948555600380880194855560018089018054600160a060020a0396871673ffffffffffffffffffffffffffffffffffffffff1996151560a060020a90810274ff0000000000000000000000000000000000000000199384161788169190911783558454938401855593909452985460059091027fc2575a0e9e593c00f959f8c92f12db2869c3395a3b0502d05e2516446f71f85b81019190915588547fc2575a0e9e593c00f959f8c92f12db2869c3395a3b0502d05e2516446f71f85c82018054909516951694909417808455975481900460ff1615150296169590951790945591547fc2575a0e9e593c00f959f8c92f12db2869c3395a3b0502d05e2516446f71f85d84015590547fc2575a0e9e593c00f959f8c92f12db2869c3395a3b0502d05e2516446f71f85e830155547fc2575a0e9e593c00f959f8c92f12db2869c3395a3b0502d05e2516446f71f85f90910155565b60085490565b600160a060020a031660009081526009602052604090205460ff1690565b3360009081526001602052604081205460ff168061059c5760405160e560020a62461bcd02815260040161035e906113c4565b505060028054600190810180835560008181526004602081905260408220928355828501998a5582019788556003808301978855828401805474ff00000000000000000000000000000000000000001990811660a060020a98151589021773ffffffffffffffffffffffffffffffffffffffff19908116600160a060020a039a8b16178355835496870184559290935292547fc2575a0e9e593c00f959f8c92f12db2869c3395a3b0502d05e2516446f71f85b60059095029485015582547fc2575a0e9e593c00f959f8c92f12db2869c3395a3b0502d05e2516446f71f85c85018054919098169116178087559154911660ff918590049190911615159093029290921790925593547fc2575a0e9e593c00f959f8c92f12db2869c3395a3b0502d05e2516446f71f85d85015590547fc2575a0e9e593c00f959f8c92f12db2869c3395a3b0502d05e2516446f71f85e84015590547fc2575a0e9e593c00f959f8c92f12db2869c3395a3b0502d05e2516446f71f85f909201919091555490565b6009602052600090815260409020805460019091015460ff9091169082565b60008060008060008061074d61105b565b5050506000948552505060046020818152604094859020855160c08101875281548082526001830154600160a060020a03811694830185905260a060020a900460ff161515978201889052600283015460608301819052600384015460808401819052939095015460a09092018290529792969395509093509190565b3360009081526001602052604090205460ff16806107fd5760405160e560020a62461bcd02815260040161035e906113c4565b61080561109c565b50600160a060020a0387166000908152600960209081526040918290208251808401909352805460ff161515808452600190910154918301919091526108605760405160e560020a62461bcd02815260040161035e90611432565b6108686110b3565b50506040805160e08101825260018152600160a060020a0390981660208901528701959095526060860193909352608085019190915260a084015260c09092019190915250565b600054600160a060020a031633146108dc5760405160e560020a62461bcd02815260040161035e906113c4565b600160a060020a03166000908152600160205260409020805460ff19169055565b600054600160a060020a0316331461092a5760405160e560020a62461bcd02815260040161035e906113c4565b600160a060020a03166000908152600160208190526040909120805460ff19169091179055565b60008060008060008061096261109c565b50600160a060020a0387166000908152600960209081526040918290208251808401909352805460ff161515808452600190910154918301919091526109bd5760405160e560020a62461bcd02815260040161035e90611432565b60208101516109ca6110b3565b600882815481106109d757fe5b60009182526020918290206040805160e081018252600693909302909101805460ff8116151584526101009004600160a060020a03169383018490526001810154918301829052600281015460608401819052600382015460808501819052600483015460a0860181905260059093015460c0909501859052949f929e509c50929a509198509650945050505050565b3360009081526001602052604090205460ff1680610a9a5760405160e560020a62461bcd02815260040161035e906113c4565b610aa261109c565b50600160a060020a0387166000908152600960209081526040918290208251808401909352805460ff16158015845260019091015491830191909152610afd5760405160e560020a62461bcd02815260040161035e906114a0565b610b056110b3565b6040518060e001604052806001151581526020018a600160a060020a0316815260200189815260200188815260200187815260200186815260200185815250905060405180604001604052806001151581526020016008805490508152509150600881908060018154018082558091505060019003906000526020600020906006020160009091909190915060008201518160000160006101000a81548160ff02191690831515021790555060208201518160000160016101000a815481600160a060020a030219169083600160a060020a0316021790555060408201518160010155606082015181600201556080820151816003015560a0820151816004015560c08201518160050155505081600960008b600160a060020a0316600160a060020a0316815260200190815260200160002060008201518160000160006101000a81548160ff02191690831515021790555060208201518160010155905050505050505050505050565b3360009081526001602052604090205460ff1680610ca35760405160e560020a62461bcd02815260040161035e906113c4565b50600160a060020a03909516600081815260056020908152604080832088845290915290209485556001850180546002870195909555600386019290925560049094019190915592151560a060020a0274ff00000000000000000000000000000000000000001973ffffffffffffffffffffffffffffffffffffffff1990921690921716179055565b3360009081526001602052604090205460ff1680610d5f5760405160e560020a62461bcd02815260040161035e906113c4565b600160a060020a038316600090815260066020526040902054610d8990600163ffffffff61102c16565b600160a060020a03909316600090815260066020908152604080832086905560078252808320958352949052929092205550565b600160a060020a03166000908152600760209081526040808320938352929052205490565b600160a060020a031660009081526006602052604090205490565b600080600080600080610e0e6110b3565b60088881548110610e1b57fe5b60009182526020918290206040805160e081018252600693909302909101805460ff8116151584526101009004600160a060020a03169383018490526001810154918301829052600281015460608401819052600382015460808501819052600483015460a0860181905260059093015460c0909501859052949d929c509a50929850919650945092505050565b6000610eb361109c565b50600160a060020a0382166000908152600960209081526040918290208251808401909352805460ff16151580845260019091015491830191909152610f0e5760405160e560020a62461bcd02815260040161035e90611469565b6020015192915050565b600054600160a060020a03163314610f455760405160e560020a62461bcd02815260040161035e906113c4565b600160a060020a03811615610f7d576000805473ffffffffffffffffffffffffffffffffffffffff1916600160a060020a0383161790555b50565b60025490565b60606003805480602002602001604051908101604052809291908181526020016000905b828210156110235760008481526020908190206040805160c0810182526005860290920180548352600180820154600160a060020a0381168587015260a060020a900460ff1615159284019290925260028101546060840152600381015460808401526004015460a08301529083529092019101610faa565b50505050905090565b6000828201838110156110545760405160e560020a62461bcd02815260040161035e906113fb565b9392505050565b6040518060c00160405280600081526020016000600160a060020a031681526020016000151581526020016000815260200160008152602001600081525090565b604080518082019091526000808252602082015290565b6040518060e001604052806000151581526020016000600160a060020a0316815260200160008152602001600081526020016000815260200160008152602001600081525090565b60006020828403121561110c578081fd5b813561105481611513565b60008060408385031215611129578081fd5b823561113481611513565b946020939093013593505050565b60008060008060008060c0878903121561115a578182fd5b863561116581611513565b95506020870135945060408701359350606087013592506080870135915060a087013561119181611528565b809150509295509295509295565b60008060008060008060c087890312156111b7578182fd5b86356111c281611513565b9860208801359850604088013597606081013597506080810135965060a00135945092505050565b6000602082840312156111fb578081fd5b5035919050565b60008060408385031215611214578182fd5b82359150602083013561122681611513565b809150509250929050565b600080600080600060a08688031215611248578081fd5b853594506020860135935060408601359250606086013561126881611513565b9150608086013561127881611528565b809150509295509295909350565b60008060008060008060c0878903121561129e578182fd5b8635955060208701359450604087013593506060870135925060808701356112c581611513565b915060a08701358015158114611191578182fd5b600160a060020a03169052565b15159052565b600160a060020a03969096168652602086019490945260408501929092526060840152608083015260a082015260c00190565b602080825282518282018190526000919060409081850190868401855b8281101561139c578151805185528681015161135a888701826112d9565b508581015161136b878701826112e6565b50606081810151908601526080808201519086015260a0908101519085015260c0909301929085019060010161133c565b5091979650505050505050565b901515815260200190565b9115158252602082015260400190565b6020808252601f908201527f756e617574686f72697a65642061636365737320746f20636f6e747261637400604082015260600190565b6020808252601b908201527f536166654d6174683a206164646974696f6e206f766572666c6f770000000000604082015260600190565b6020808252601a908201527f6465706f7369746f72207265636f7264206e6f7420666f756e64000000000000604082015260600190565b60208082526017908201527f6d656d626572207265636f7264206e6f7420666f756e64000000000000000000604082015260600190565b6020808252601f908201527f6465706f7369746f72207265636f726420616c72656164792065786973747300604082015260600190565b90815260200190565b958652600160a060020a03949094166020860152604085019290925260608401526080830152151560a082015260c00190565b600160a060020a0381168114610f7d57600080fd5b8015158114610f7d57600080fdfea2646970667358221220cfb72ec821956985d4cab33e4f694b103b9a35e1da16c211120f2cce849b3f6764736f6c63430006060033",
  "immutableReferences": {},
  "source": "pragma solidity 0.6.6;\n\n\nimport \"./IClientRecordShema.sol\";\nimport \"./StorageOwners.sol\";\nimport \"./SafeMath.sol\";\npragma experimental ABIEncoderV2;\n\ncontract ClientRecord is IClientRecordSchema, StorageOwners {\n\n    uint DepositRecordId = 0;\n\n    using SafeMath for uint256;\n    \n    FixedDepositRecord[] fixedDepositRecords;\n    \n    mapping(uint => FixedDepositRecord) DepositRecordMapping;\n    \n    \n    mapping (address => mapping(uint => FixedDepositRecord)) DepositRecordToDepositorMapping; //depositor address to depositor cycle mapping\n    \n     mapping(address=>uint) DepositorToDepositorRecordIndexMapping; //  This tracks the number of records by index created by a depositor\n\n    mapping(address=>mapping(uint=>uint)) DepositorToRecordIndexToRecordIDMapping; //  This maps the depositor to the record index and then to the record ID\n\n    // list of CLient Records\n    ClientRecord[] ClientRecords;\n    //Mapping that enables ease of traversal of the Client Records\n    mapping(address => RecordIndex) public ClientRecordIndexer;\n\n    function doesClientRecordExist(address depositor)\n        external\n        view\n        returns (bool)\n    {\n       return ClientRecordIndexer[depositor].exists;\n        \n    }\n\n    function getRecordIndex(address depositor) external view returns (uint256) {\n        RecordIndex memory recordIndex = ClientRecordIndexer[depositor];\n        require(recordIndex.exists, \"member record not found\");\n        return recordIndex.index;\n    }\n\n    function createClientRecord(\n        address payable _address,\n        uint256 underlyingTotalDeposits,\n        uint256 underlyingTotalWithdrawn,\n        uint256 derivativeBalance,\n        uint256 derivativeTotalDeposits,\n        uint256 derivativeTotalWithdrawn\n    ) external onlyStorageOracle {\n        RecordIndex memory recordIndex = ClientRecordIndexer[_address];\n        require(\n            !recordIndex.exists,\n            \"depositor record already exists\"\n        );\n        ClientRecord memory clientRecord = ClientRecord(\n            true,\n            _address,\n            underlyingTotalDeposits,\n            underlyingTotalWithdrawn,\n            derivativeBalance,\n            derivativeTotalDeposits,\n            derivativeTotalWithdrawn\n        );\n\n        recordIndex = RecordIndex(true, ClientRecords.length);\n        ClientRecords.push(clientRecord);\n        ClientRecordIndexer[_address] = recordIndex;\n    }\n\n    function updateClientRecord(\n        address payable _address,\n        uint256 underlyingTotalDeposits,\n        uint256 underlyingTotalWithdrawn,\n        uint256 derivativeBalance,\n        uint256 derivativeTotalDeposits,\n        uint256 derivativeTotalWithdrawn\n    ) external onlyStorageOracle {\n        RecordIndex memory recordIndex = ClientRecordIndexer[_address];\n        require(recordIndex.exists, \"depositor record not found\");\n        ClientRecord memory clientRecord = ClientRecord(\n            true,\n            _address,\n            underlyingTotalDeposits,\n            underlyingTotalWithdrawn,\n            derivativeBalance,\n            derivativeTotalDeposits,\n            derivativeTotalWithdrawn\n        );\nclientRecord.underlyingTotalDeposits = underlyingTotalDeposits;\nclientRecord.underlyingTotalWithdrawn = underlyingTotalWithdrawn;\nclientRecord.derivativeBalance = derivativeBalance;\nclientRecord.derivativeTotalDeposits = derivativeTotalDeposits;\nclientRecord.derivativeTotalWithdrawn = derivativeTotalWithdrawn;\n    }\n\n    function getLengthOfClientRecords() external returns (uint256) {\n        return ClientRecords.length;\n    }\n\n    function getClientRecordByIndex(uint256 index)\n        external\n        view\n        returns (\n            address payable _address,\n            uint256 underlyingTotalDeposits,\n            uint256 underlyingTotalWithdrawn,\n            uint256 derivativeBalance,\n            uint256 derivativeTotalDeposits,\n            uint256 derivativeTotalWithdrawn\n        )\n    {\n        ClientRecord memory clientRecord = ClientRecords[index];\n        return (\n            clientRecord._address,\n            clientRecord.underlyingTotalDeposits,\n            clientRecord.underlyingTotalWithdrawn,\n            clientRecord.derivativeBalance,\n            clientRecord.derivativeTotalDeposits,\n            clientRecord.derivativeTotalWithdrawn\n        );\n    }\n\n    function getClientRecordByAddress(address depositor)\n        external\n        view\n        returns (\n            address payable _address,\n            uint256 underlyingTotalDeposits,\n            uint256 underlyingTotalWithdrawn,\n            uint256 derivativeBalance,\n            uint256 derivativeTotalDeposits,\n            uint256 derivativeTotalWithdrawn\n        )\n    {\n        RecordIndex memory recordIndex = ClientRecordIndexer[depositor];\n        require(recordIndex.exists, \"depositor record not found\");\n        uint256 index = recordIndex.index;\n\n        ClientRecord memory clientRecord = ClientRecords[index];\n        return (\n            clientRecord._address,\n            clientRecord.underlyingTotalDeposits,\n            clientRecord.underlyingTotalWithdrawn,\n            clientRecord.derivativeBalance,\n            clientRecord.derivativeTotalDeposits,\n            clientRecord.derivativeTotalWithdrawn\n        );\n    }\n\n      function GetRecordIndexFromDepositor(address member) external view returns(uint){\n\n        return DepositorToDepositorRecordIndexMapping[member];\n    }\n    \n     function GetRecordIdFromRecordIndexAndDepositorRecord(uint recordIndex, address depositor) external view returns(uint){\n\n      mapping(uint=>uint) storage depositorCreatedRecordIndexToRecordId = DepositorToRecordIndexToRecordIDMapping[depositor];\n\n      return depositorCreatedRecordIndexToRecordId[recordIndex];\n    }\n    \n     function CreateDepositRecordMapping(uint amount, uint lockPeriodInSeconds,uint depositDateInSeconds, address payable depositor, bool hasWithdrawn) external   onlyStorageOracle returns (uint)  {\n          \n          DepositRecordId += 1;\n\n         FixedDepositRecord storage _fixedDeposit = DepositRecordMapping[DepositRecordId];\n\n        _fixedDeposit.recordId = DepositRecordId;\n        _fixedDeposit.amount = amount;\n        _fixedDeposit.lockPeriodInSeconds = lockPeriodInSeconds;\n        _fixedDeposit.depositDateInSeconds = depositDateInSeconds;\n        _fixedDeposit.hasWithdrawn = hasWithdrawn;\n        _fixedDeposit.depositorId = depositor;\n        \n        fixedDepositRecords.push(_fixedDeposit);\nreturn DepositRecordId;\n\n    }\n\n     function UpdateDepositRecordMapping(uint DepositRecordId, uint amount, uint lockPeriodInSeconds,uint depositDateInSeconds, address payable depositor, bool hasWithdrawn) external  onlyStorageOracle  {\n         \n         \n         FixedDepositRecord storage _fixedDeposit = DepositRecordMapping[DepositRecordId];\n\n        _fixedDeposit.recordId = DepositRecordId;\n        _fixedDeposit.amount = amount;\n        _fixedDeposit.lockPeriodInSeconds = lockPeriodInSeconds;\n        _fixedDeposit.depositDateInSeconds = depositDateInSeconds;\n        _fixedDeposit.hasWithdrawn = hasWithdrawn;\n        _fixedDeposit.depositorId = depositor;\n        \n        fixedDepositRecords.push(_fixedDeposit);\n\n\n    }\n    \n   function GetRecordId() external view returns (uint){\n        return DepositRecordId;\n    }\n    \n    function GetRecordById(uint depositRecordId) external view returns(uint recordId, address payable depositorId, uint amount, uint depositDateInSeconds, uint lockPeriodInSeconds, bool hasWithdrawn) {\n        \n        FixedDepositRecord memory records = DepositRecordMapping[depositRecordId];\n        \n        return(records.recordId, records.depositorId, records.amount, records.depositDateInSeconds, records.lockPeriodInSeconds, records.hasWithdrawn);\n    }\n    \n    function GetRecords() external view returns (FixedDepositRecord [] memory) {\n        return fixedDepositRecords;\n    }\n    \n     function CreateDepositorToDepositRecordIndexToRecordIDMapping(address payable depositor, uint recordId) external onlyStorageOracle {\n      \n      DepositorToDepositorRecordIndexMapping[depositor] = DepositorToDepositorRecordIndexMapping[depositor].add(1);\n\n      uint DepositorCreatedRecordIndex = DepositorToDepositorRecordIndexMapping[depositor];\n      mapping(uint=>uint) storage depositorCreatedRecordIndexToRecordId = DepositorToRecordIndexToRecordIDMapping[depositor];\n      depositorCreatedRecordIndexToRecordId[DepositorCreatedRecordIndex] = recordId;\n    }\n    \n    function CreateDepositorAddressToDepositRecordMapping (address payable depositor, uint recordId, uint amountDeposited, uint lockPeriodInSeconds, uint depositDateInSeconds, bool hasWithdrawn) external onlyStorageOracle {\n        mapping(uint => FixedDepositRecord) storage depositorAddressMapping = DepositRecordToDepositorMapping[depositor];\n        \n        depositorAddressMapping[recordId].recordId = recordId;\n        depositorAddressMapping[recordId].depositorId = depositor;\n        depositorAddressMapping[recordId].amount = amountDeposited;\n        depositorAddressMapping[recordId].depositDateInSeconds = depositDateInSeconds;\n        depositorAddressMapping[recordId].lockPeriodInSeconds = lockPeriodInSeconds;\n        depositorAddressMapping[recordId].hasWithdrawn = hasWithdrawn;\n        \n    }\n}\n",
  "sourcePath": "/Users/mac/Desktop/BinaryHiils/esusu-1/Test/contracts/ClientRecord.sol",
  "compiler": {
    "name": "solc",
    "version": "0.6.6+commit.6c089d02.Emscripten.clang"
  },
  "schemaVersion": "3.3.2",
  "updatedAt": "2021-02-22T17:17:39.773Z",
  "networkType": "ethereum",
  "devdoc": {
    "methods": {}
  },
  "userdoc": {
    "methods": {}
  }
}