{
  "contractName": "EsusuStorage",
  "abi": [
    {
      "inputs": [],
      "stateMutability": "nonpayable",
      "type": "constructor"
    },
    {
      "inputs": [
        {
          "internalType": "address",
          "name": "adapterContract",
          "type": "address"
        },
        {
          "internalType": "address",
          "name": "adapterDelegateContract",
          "type": "address"
        }
      ],
      "name": "UpdateAdapterAndAdapterDelegateAddresses",
      "outputs": [],
      "stateMutability": "nonpayable",
      "type": "function"
    },
    {
      "inputs": [],
      "name": "GetEsusuCycleId",
      "outputs": [
        {
          "internalType": "uint256",
          "name": "",
          "type": "uint256"
        }
      ],
      "stateMutability": "view",
      "type": "function",
      "constant": true
    },
    {
      "inputs": [],
      "name": "IncrementEsusuCycleId",
      "outputs": [],
      "stateMutability": "nonpayable",
      "type": "function"
    },
    {
      "inputs": [
        {
          "internalType": "uint256",
          "name": "groupId",
          "type": "uint256"
        },
        {
          "internalType": "uint256",
          "name": "depositAmount",
          "type": "uint256"
        },
        {
          "internalType": "uint256",
          "name": "payoutIntervalSeconds",
          "type": "uint256"
        },
        {
          "internalType": "uint256",
          "name": "startTimeInSeconds",
          "type": "uint256"
        },
        {
          "internalType": "address",
          "name": "owner",
          "type": "address"
        },
        {
          "internalType": "uint256",
          "name": "maxMembers",
          "type": "uint256"
        }
      ],
      "name": "CreateEsusuCycleMapping",
      "outputs": [],
      "stateMutability": "nonpayable",
      "type": "function"
    },
    {
      "inputs": [
        {
          "internalType": "uint256",
          "name": "esusuCycleId",
          "type": "uint256"
        }
      ],
      "name": "GetEsusuCycle",
      "outputs": [
        {
          "internalType": "uint256",
          "name": "CycleId",
          "type": "uint256"
        },
        {
          "internalType": "uint256",
          "name": "DepositAmount",
          "type": "uint256"
        },
        {
          "internalType": "uint256",
          "name": "PayoutIntervalSeconds",
          "type": "uint256"
        },
        {
          "internalType": "uint256",
          "name": "CycleState",
          "type": "uint256"
        },
        {
          "internalType": "uint256",
          "name": "TotalMembers",
          "type": "uint256"
        },
        {
          "internalType": "uint256",
          "name": "TotalAmountDeposited",
          "type": "uint256"
        },
        {
          "internalType": "uint256",
          "name": "TotalShares",
          "type": "uint256"
        },
        {
          "internalType": "uint256",
          "name": "TotalCycleDurationInSeconds",
          "type": "uint256"
        },
        {
          "internalType": "uint256",
          "name": "TotalCapitalWithdrawn",
          "type": "uint256"
        },
        {
          "internalType": "uint256",
          "name": "CycleStartTimeInSeconds",
          "type": "uint256"
        },
        {
          "internalType": "uint256",
          "name": "TotalBeneficiaries",
          "type": "uint256"
        },
        {
          "internalType": "uint256",
          "name": "MaxMembers",
          "type": "uint256"
        }
      ],
      "stateMutability": "view",
      "type": "function",
      "constant": true
    },
    {
      "inputs": [
        {
          "internalType": "uint256",
          "name": "esusuCycleId",
          "type": "uint256"
        }
      ],
      "name": "GetEsusuCycleStartTime",
      "outputs": [
        {
          "internalType": "uint256",
          "name": "EsusuCycleStartTime",
          "type": "uint256"
        }
      ],
      "stateMutability": "view",
      "type": "function",
      "constant": true
    },
    {
      "inputs": [
        {
          "internalType": "uint256",
          "name": "groupId",
          "type": "uint256"
        }
      ],
      "name": "GetCycleIndexFromGroupId",
      "outputs": [
        {
          "internalType": "uint256",
          "name": "",
          "type": "uint256"
        }
      ],
      "stateMutability": "view",
      "type": "function",
      "constant": true
    },
    {
      "inputs": [
        {
          "internalType": "uint256",
          "name": "groupId",
          "type": "uint256"
        },
        {
          "internalType": "uint256",
          "name": "cycleIndex",
          "type": "uint256"
        }
      ],
      "name": "GetCycleIdFromCycleIndexAndGroupId",
      "outputs": [
        {
          "internalType": "uint256",
          "name": "",
          "type": "uint256"
        }
      ],
      "stateMutability": "view",
      "type": "function",
      "constant": true
    },
    {
      "inputs": [
        {
          "internalType": "address",
          "name": "cycleCreator",
          "type": "address"
        }
      ],
      "name": "GetCycleIndexFromCycleCreator",
      "outputs": [
        {
          "internalType": "uint256",
          "name": "",
          "type": "uint256"
        }
      ],
      "stateMutability": "view",
      "type": "function",
      "constant": true
    },
    {
      "inputs": [
        {
          "internalType": "uint256",
          "name": "cycleIndex",
          "type": "uint256"
        },
        {
          "internalType": "address",
          "name": "cycleCreator",
          "type": "address"
        }
      ],
      "name": "GetCycleIdFromCycleIndexAndCycleCreator",
      "outputs": [
        {
          "internalType": "uint256",
          "name": "",
          "type": "uint256"
        }
      ],
      "stateMutability": "view",
      "type": "function",
      "constant": true
    },
    {
      "inputs": [
        {
          "internalType": "address",
          "name": "member",
          "type": "address"
        }
      ],
      "name": "GetCycleIndexFromCycleMember",
      "outputs": [
        {
          "internalType": "uint256",
          "name": "",
          "type": "uint256"
        }
      ],
      "stateMutability": "view",
      "type": "function",
      "constant": true
    },
    {
      "inputs": [
        {
          "internalType": "uint256",
          "name": "cycleIndex",
          "type": "uint256"
        },
        {
          "internalType": "address",
          "name": "member",
          "type": "address"
        }
      ],
      "name": "GetCycleIdFromCycleIndexAndCycleMember",
      "outputs": [
        {
          "internalType": "uint256",
          "name": "",
          "type": "uint256"
        }
      ],
      "stateMutability": "view",
      "type": "function",
      "constant": true
    },
    {
      "inputs": [
        {
          "internalType": "uint256",
          "name": "esusuCycleId",
          "type": "uint256"
        }
      ],
      "name": "GetEsusuCycleBasicInformation",
      "outputs": [
        {
          "internalType": "uint256",
          "name": "CycleId",
          "type": "uint256"
        },
        {
          "internalType": "uint256",
          "name": "DepositAmount",
          "type": "uint256"
        },
        {
          "internalType": "uint256",
          "name": "CycleState",
          "type": "uint256"
        },
        {
          "internalType": "uint256",
          "name": "TotalMembers",
          "type": "uint256"
        },
        {
          "internalType": "uint256",
          "name": "MaxMembers",
          "type": "uint256"
        },
        {
          "internalType": "uint256",
          "name": "PayoutIntervalSeconds",
          "type": "uint256"
        },
        {
          "internalType": "uint256",
          "name": "GroupId",
          "type": "uint256"
        }
      ],
      "stateMutability": "view",
      "type": "function",
      "constant": true
    },
    {
      "inputs": [
        {
          "internalType": "uint256",
          "name": "esusuCycleId",
          "type": "uint256"
        }
      ],
      "name": "GetEsusuCycleTotalShares",
      "outputs": [
        {
          "internalType": "uint256",
          "name": "TotalShares",
          "type": "uint256"
        }
      ],
      "stateMutability": "view",
      "type": "function",
      "constant": true
    },
    {
      "inputs": [
        {
          "internalType": "uint256",
          "name": "esusuCycleId",
          "type": "uint256"
        }
      ],
      "name": "GetEsusuCycleTotalSharesAtStart",
      "outputs": [
        {
          "internalType": "uint256",
          "name": "TotalSharesAtStart",
          "type": "uint256"
        }
      ],
      "stateMutability": "view",
      "type": "function",
      "constant": true
    },
    {
      "inputs": [
        {
          "internalType": "uint256",
          "name": "esusuCycleId",
          "type": "uint256"
        }
      ],
      "name": "GetEsusuCycleStartonlyOwnerAdapterAndAdapterDelegateContractTime",
      "outputs": [
        {
          "internalType": "uint256",
          "name": "EsusuCycleStartTime",
          "type": "uint256"
        }
      ],
      "stateMutability": "view",
      "type": "function",
      "constant": true
    },
    {
      "inputs": [
        {
          "internalType": "uint256",
          "name": "esusuCycleId",
          "type": "uint256"
        }
      ],
      "name": "GetEsusuCyclePayoutInterval",
      "outputs": [
        {
          "internalType": "uint256",
          "name": "EsusuCyclePayoutInterval",
          "type": "uint256"
        }
      ],
      "stateMutability": "view",
      "type": "function",
      "constant": true
    },
    {
      "inputs": [
        {
          "internalType": "uint256",
          "name": "esusuCycleId",
          "type": "uint256"
        }
      ],
      "name": "GetEsusuCycleTotalAmountDeposited",
      "outputs": [
        {
          "internalType": "uint256",
          "name": "EsusuCycleTotalAmountDeposited",
          "type": "uint256"
        }
      ],
      "stateMutability": "view",
      "type": "function",
      "constant": true
    },
    {
      "inputs": [
        {
          "internalType": "uint256",
          "name": "esusuCycleId",
          "type": "uint256"
        }
      ],
      "name": "GetCycleOwner",
      "outputs": [
        {
          "internalType": "address",
          "name": "EsusuCycleOwner",
          "type": "address"
        }
      ],
      "stateMutability": "view",
      "type": "function",
      "constant": true
    },
    {
      "inputs": [
        {
          "internalType": "uint256",
          "name": "esusuCycleId",
          "type": "uint256"
        }
      ],
      "name": "GetEsusuCycleDuration",
      "outputs": [
        {
          "internalType": "uint256",
          "name": "EsusuCycleDuration",
          "type": "uint256"
        }
      ],
      "stateMutability": "view",
      "type": "function",
      "constant": true
    },
    {
      "inputs": [
        {
          "internalType": "uint256",
          "name": "esusuCycleId",
          "type": "uint256"
        }
      ],
      "name": "GetEsusuCycleTotalCapitalWithdrawn",
      "outputs": [
        {
          "internalType": "uint256",
          "name": "EsusuCycleTotalCapitalWithdrawn",
          "type": "uint256"
        }
      ],
      "stateMutability": "view",
      "type": "function",
      "constant": true
    },
    {
      "inputs": [
        {
          "internalType": "uint256",
          "name": "esusuCycleId",
          "type": "uint256"
        }
      ],
      "name": "GetEsusuCycleTotalBeneficiaries",
      "outputs": [
        {
          "internalType": "uint256",
          "name": "EsusuCycleTotalBeneficiaries",
          "type": "uint256"
        }
      ],
      "stateMutability": "view",
      "type": "function",
      "constant": true
    },
    {
      "inputs": [
        {
          "internalType": "uint256",
          "name": "esusuCycleId",
          "type": "uint256"
        },
        {
          "internalType": "address",
          "name": "memberAddress",
          "type": "address"
        }
      ],
      "name": "GetMemberWithdrawnCapitalInEsusuCycle",
      "outputs": [
        {
          "internalType": "uint256",
          "name": "",
          "type": "uint256"
        }
      ],
      "stateMutability": "view",
      "type": "function",
      "constant": true
    },
    {
      "inputs": [
        {
          "internalType": "uint256",
          "name": "esusuCycleId",
          "type": "uint256"
        },
        {
          "internalType": "address",
          "name": "memberAddress",
          "type": "address"
        }
      ],
      "name": "GetMemberCycleToBeneficiaryMapping",
      "outputs": [
        {
          "internalType": "uint256",
          "name": "",
          "type": "uint256"
        }
      ],
      "stateMutability": "view",
      "type": "function",
      "constant": true
    },
    {
      "inputs": [
        {
          "internalType": "address",
          "name": "memberAddress",
          "type": "address"
        },
        {
          "internalType": "uint256",
          "name": "esusuCycleId",
          "type": "uint256"
        }
      ],
      "name": "IsMemberInCycle",
      "outputs": [
        {
          "internalType": "bool",
          "name": "",
          "type": "bool"
        }
      ],
      "stateMutability": "view",
      "type": "function",
      "constant": true
    },
    {
      "inputs": [
        {
          "internalType": "uint256",
          "name": "esusuCycleId",
          "type": "uint256"
        },
        {
          "internalType": "uint256",
          "name": "amount",
          "type": "uint256"
        }
      ],
      "name": "IncreaseTotalAmountDepositedInCycle",
      "outputs": [
        {
          "internalType": "uint256",
          "name": "",
          "type": "uint256"
        }
      ],
      "stateMutability": "nonpayable",
      "type": "function"
    },
    {
      "inputs": [
        {
          "internalType": "address",
          "name": "member",
          "type": "address"
        },
        {
          "internalType": "uint256",
          "name": "esusuCycleId",
          "type": "uint256"
        }
      ],
      "name": "CreateMemberAddressToMemberCycleMapping",
      "outputs": [],
      "stateMutability": "nonpayable",
      "type": "function"
    },
    {
      "inputs": [
        {
          "internalType": "uint256",
          "name": "esusuCycleId",
          "type": "uint256"
        }
      ],
      "name": "IncreaseTotalMembersInCycle",
      "outputs": [],
      "stateMutability": "nonpayable",
      "type": "function"
    },
    {
      "inputs": [
        {
          "internalType": "uint256",
          "name": "esusuCycleId",
          "type": "uint256"
        },
        {
          "internalType": "address",
          "name": "member",
          "type": "address"
        }
      ],
      "name": "CreateMemberPositionMapping",
      "outputs": [],
      "stateMutability": "nonpayable",
      "type": "function"
    },
    {
      "inputs": [
        {
          "internalType": "uint256",
          "name": "esusuCycleBalance",
          "type": "uint256"
        }
      ],
      "name": "IncreaseTotalDeposits",
      "outputs": [],
      "stateMutability": "nonpayable",
      "type": "function"
    },
    {
      "inputs": [
        {
          "internalType": "uint256",
          "name": "esusuCycleId",
          "type": "uint256"
        },
        {
          "internalType": "uint256",
          "name": "cycleStateEnum",
          "type": "uint256"
        },
        {
          "internalType": "uint256",
          "name": "toalCycleDuration",
          "type": "uint256"
        },
        {
          "internalType": "uint256",
          "name": "totalShares",
          "type": "uint256"
        },
        {
          "internalType": "uint256",
          "name": "currentTime",
          "type": "uint256"
        }
      ],
      "name": "UpdateEsusuCycleDuringStart",
      "outputs": [],
      "stateMutability": "nonpayable",
      "type": "function"
    },
    {
      "inputs": [
        {
          "internalType": "uint256",
          "name": "esusuCycleId",
          "type": "uint256"
        },
        {
          "internalType": "uint256",
          "name": "cycleStateEnum",
          "type": "uint256"
        }
      ],
      "name": "UpdateEsusuCycleState",
      "outputs": [],
      "stateMutability": "nonpayable",
      "type": "function"
    },
    {
      "inputs": [
        {
          "internalType": "address",
          "name": "memberAddress",
          "type": "address"
        },
        {
          "internalType": "uint256",
          "name": "esusuCycleId",
          "type": "uint256"
        }
      ],
      "name": "GetMemberCycleInfo",
      "outputs": [
        {
          "internalType": "uint256",
          "name": "CycleId",
          "type": "uint256"
        },
        {
          "internalType": "address",
          "name": "MemberId",
          "type": "address"
        },
        {
          "internalType": "uint256",
          "name": "TotalAmountDepositedInCycle",
          "type": "uint256"
        },
        {
          "internalType": "uint256",
          "name": "TotalPayoutReceivedInCycle",
          "type": "uint256"
        },
        {
          "internalType": "uint256",
          "name": "memberPosition",
          "type": "uint256"
        },
        {
          "internalType": "uint256",
          "name": "memberShares",
          "type": "uint256"
        }
      ],
      "stateMutability": "view",
      "type": "function",
      "constant": true
    },
    {
      "inputs": [
        {
          "internalType": "uint256",
          "name": "esusuCycleId",
          "type": "uint256"
        },
        {
          "internalType": "address",
          "name": "member",
          "type": "address"
        }
      ],
      "name": "CreateMemberCapitalMapping",
      "outputs": [],
      "stateMutability": "nonpayable",
      "type": "function"
    },
    {
      "inputs": [
        {
          "internalType": "uint256",
          "name": "esusuCycleId",
          "type": "uint256"
        },
        {
          "internalType": "uint256",
          "name": "cycleTotalShares",
          "type": "uint256"
        },
        {
          "internalType": "uint256",
          "name": "totalCapitalWithdrawnInCycle",
          "type": "uint256"
        }
      ],
      "name": "UpdateEsusuCycleDuringCapitalWithdrawal",
      "outputs": [],
      "stateMutability": "nonpayable",
      "type": "function"
    },
    {
      "inputs": [
        {
          "internalType": "uint256",
          "name": "esusuCycleId",
          "type": "uint256"
        },
        {
          "internalType": "uint256",
          "name": "totalShares",
          "type": "uint256"
        },
        {
          "internalType": "uint256",
          "name": "totalBeneficiaries",
          "type": "uint256"
        }
      ],
      "name": "UpdateEsusuCycleDuringROIWithdrawal",
      "outputs": [],
      "stateMutability": "nonpayable",
      "type": "function"
    },
    {
      "inputs": [
        {
          "internalType": "uint256",
          "name": "esusuCycleId",
          "type": "uint256"
        },
        {
          "internalType": "address",
          "name": "memberAddress",
          "type": "address"
        },
        {
          "internalType": "uint256",
          "name": "memberROINet",
          "type": "uint256"
        }
      ],
      "name": "CreateEsusuCycleToBeneficiaryMapping",
      "outputs": [],
      "stateMutability": "nonpayable",
      "type": "function"
    },
    {
      "inputs": [
        {
          "internalType": "uint256",
          "name": "cycleId",
          "type": "uint256"
        },
        {
          "internalType": "address",
          "name": "member",
          "type": "address"
        }
      ],
      "name": "CalculateMemberWithdrawalTime",
      "outputs": [
        {
          "internalType": "uint256",
          "name": "",
          "type": "uint256"
        }
      ],
      "stateMutability": "view",
      "type": "function",
      "constant": true
    },
    {
      "inputs": [
        {
          "internalType": "address",
          "name": "member",
          "type": "address"
        },
        {
          "internalType": "uint256",
          "name": "esusuCycleId",
          "type": "uint256"
        }
      ],
      "name": "CreateMemberToCycleIndexToCycleIDMapping",
      "outputs": [],
      "stateMutability": "nonpayable",
      "type": "function"
    },
    {
      "inputs": [],
      "name": "GetTotalDeposits",
      "outputs": [
        {
          "internalType": "uint256",
          "name": "",
          "type": "uint256"
        }
      ],
      "stateMutability": "view",
      "type": "function",
      "constant": true
    },
    {
      "inputs": [
        {
          "internalType": "uint256",
          "name": "esusuCycleId",
          "type": "uint256"
        }
      ],
      "name": "GetEsusuCycleState",
      "outputs": [
        {
          "internalType": "uint256",
          "name": "",
          "type": "uint256"
        }
      ],
      "stateMutability": "view",
      "type": "function",
      "constant": true
    },
    {
      "inputs": [
        {
          "internalType": "address",
          "name": "member",
          "type": "address"
        },
        {
          "internalType": "uint256",
          "name": "rewardAmount",
          "type": "uint256"
        }
      ],
      "name": "UpdateMemberToXendTokeRewardMapping",
      "outputs": [],
      "stateMutability": "nonpayable",
      "type": "function"
    },
    {
      "inputs": [
        {
          "internalType": "address",
          "name": "member",
          "type": "address"
        }
      ],
      "name": "GetMemberXendTokenReward",
      "outputs": [
        {
          "internalType": "uint256",
          "name": "",
          "type": "uint256"
        }
      ],
      "stateMutability": "nonpayable",
      "type": "function"
    }
  ],
  "bytecode": "0x60806040526040518060400160405280600e81526020017f44616920537461626c65636f696e0000000000000000000000000000000000008152506000908051906020019062000051929190620000ac565b5060006003553480156200006457600080fd5b5033600160006101000a81548173ffffffffffffffffffffffffffffffffffffffff021916908373ffffffffffffffffffffffffffffffffffffffff1602179055506200015b565b828054600181600116156101000203166002900490600052602060002090601f016020900481019282601f10620000ef57805160ff191683800117855562000120565b8280016001018555821562000120579182015b828111156200011f57825182559160200191906001019062000102565b5b5090506200012f919062000133565b5090565b6200015891905b80821115620001545760008160009055506001016200013a565b5090565b90565b614fbe806200016b6000396000f3fe608060405234801561001057600080fd5b50600436106102695760003560e01c80635e4f0ca911610151578063c86dde9c116100c3578063d2e29b5011610087578063d2e29b5014610dd6578063d5a532d514610e18578063da2a5ace14610e70578063e16483e614610eb2578063eec562c314610f20578063f06c8bbd14610f7857610269565b8063c86dde9c14610c6c578063ca533a3a14610c9a578063cbe47cb314610cfc578063cc314df514610d52578063d17e1b0214610d9457610269565b8063a90e2d5a11610115578063a90e2d5a14610b3a578063aa6aac7314610b88578063ab30d53914610b92578063b02d1ddb14610bb0578063b439279714610bf2578063bce7c95214610c3457610269565b80635e4f0ca91461098a578063776cdc5b146109f057806382da9fdf14610a48578063879ddf2614610a8a5780638ea3cf2414610aec57610269565b8063299c8817116101ea57806342d96ea0116101ae57806342d96ea0146106e45780634c215b04146107465780634e8304661461079257806357ac7703146108215780635a4c4da0146108d25780635c0615a81461094857610269565b8063299c88171461052e5780633409b07e1461059a57806337ddff4b146105dc578063388b011c1461062a57806339bca2411461068c57610269565b806313becce41161023157806313becce4146103f05780631942d5711461041e5780631a9db7a8146104605780631f82c5de146104c25780632254d236146104e057610269565b8063083c2f591461026e5780630853c1f4146102ba5780630d2737d5146102fc5780630d43acd31461036057806311cbe90d146103ae575b600080fd5b6102a46004803603604081101561028457600080fd5b810190808035906020019092919080359060200190929190505050610fba565b6040518082815260200191505060405180910390f35b6102e6600480360360208110156102d057600080fd5b8101908080359060200190929190505050610fee565b6040518082815260200191505060405180910390f35b61035e6004803603604081101561031257600080fd5b81019080803573ffffffffffffffffffffffffffffffffffffffff169060200190929190803573ffffffffffffffffffffffffffffffffffffffff1690602001909291905050506111bf565b005b6103ac6004803603604081101561037657600080fd5b8101908080359060200190929190803573ffffffffffffffffffffffffffffffffffffffff169060200190929190505050611308565b005b6103da600480360360208110156103c457600080fd5b81019080803590602001909291905050506114f0565b6040518082815260200191505060405180910390f35b61041c6004803603602081101561040657600080fd5b81019080803590602001909291905050506116c0565b005b61044a6004803603602081101561043457600080fd5b810190808035906020019092919050505061185b565b6040518082815260200191505060405180910390f35b6104ac6004803603604081101561047657600080fd5b8101908080359060200190929190803573ffffffffffffffffffffffffffffffffffffffff169060200190929190505050611893565b6040518082815260200191505060405180910390f35b6104ca6118f9565b6040518082815260200191505060405180910390f35b61052c600480360360408110156104f657600080fd5b81019080803573ffffffffffffffffffffffffffffffffffffffff16906020019092919080359060200190929190505050611903565b005b61055a6004803603602081101561054457600080fd5b8101908080359060200190929190505050611bb0565b6040518088815260200187815260200186815260200185815260200184815260200183815260200182815260200197505050505050505060405180910390f35b6105da600480360360608110156105b057600080fd5b81019080803590602001909291908035906020019092919080359060200190929190505050611dc6565b005b610628600480360360408110156105f257600080fd5b8101908080359060200190929190803573ffffffffffffffffffffffffffffffffffffffff169060200190929190505050611f74565b005b6106766004803603604081101561064057600080fd5b8101908080359060200190929190803573ffffffffffffffffffffffffffffffffffffffff16906020019092919050505061215c565b6040518082815260200191505060405180910390f35b6106ce600480360360208110156106a257600080fd5b81019080803573ffffffffffffffffffffffffffffffffffffffff1690602001909291905050506121bc565b6040518082815260200191505060405180910390f35b610730600480360360408110156106fa57600080fd5b8101908080359060200190929190803573ffffffffffffffffffffffffffffffffffffffff169060200190929190505050612205565b6040518082815260200191505060405180910390f35b61077c6004803603604081101561075c57600080fd5b810190808035906020019092919080359060200190929190505050612265565b6040518082815260200191505060405180910390f35b6107be600480360360208110156107a857600080fd5b81019080803590602001909291905050506124a3565b604051808d81526020018c81526020018b81526020018a81526020018981526020018881526020018781526020018681526020018581526020018481526020018381526020018281526020019c5050505050505050505050505060405180910390f35b61086d6004803603604081101561083757600080fd5b81019080803573ffffffffffffffffffffffffffffffffffffffff169060200190929190803590602001909291905050506126ec565b604051808781526020018673ffffffffffffffffffffffffffffffffffffffff1673ffffffffffffffffffffffffffffffffffffffff168152602001858152602001848152602001838152602001828152602001965050505050505060405180910390f35b610946600480360360c08110156108e857600080fd5b8101908080359060200190929190803590602001909291908035906020019092919080359060200190929190803573ffffffffffffffffffffffffffffffffffffffff1690602001909291908035906020019092919050505061289b565b005b6109886004803603606081101561095e57600080fd5b81019080803590602001909291908035906020019092919080359060200190929190505050612d62565b005b6109d6600480360360408110156109a057600080fd5b81019080803573ffffffffffffffffffffffffffffffffffffffff16906020019092919080359060200190929190505050612f10565b604051808215151515815260200191505060405180910390f35b610a3260048036036020811015610a0657600080fd5b81019080803573ffffffffffffffffffffffffffffffffffffffff169060200190929190505050612f88565b6040518082815260200191505060405180910390f35b610a7460048036036020811015610a5e57600080fd5b8101908080359060200190929190505050612fd1565b6040518082815260200191505060405180910390f35b610ad660048036036040811015610aa057600080fd5b8101908080359060200190929190803573ffffffffffffffffffffffffffffffffffffffff1690602001909291905050506131a2565b6040518082815260200191505060405180910390f35b610b3860048036036040811015610b0257600080fd5b81019080803573ffffffffffffffffffffffffffffffffffffffff1690602001909291908035906020019092919050505061325e565b005b610b8660048036036040811015610b5057600080fd5b81019080803573ffffffffffffffffffffffffffffffffffffffff1690602001909291908035906020019092919050505061346a565b005b610b9061372c565b005b610b9a6138b2565b6040518082815260200191505060405180910390f35b610bdc60048036036020811015610bc657600080fd5b81019080803590602001909291905050506138bc565b6040518082815260200191505060405180910390f35b610c1e60048036036020811015610c0857600080fd5b8101908080359060200190929190505050613a8d565b6040518082815260200191505060405180910390f35b610c6a60048036036040811015610c4a57600080fd5b810190808035906020019092919080359060200190929190505050613c5d565b005b610c9860048036036020811015610c8257600080fd5b8101908080359060200190929190505050613e16565b005b610ce660048036036040811015610cb057600080fd5b8101908080359060200190929190803573ffffffffffffffffffffffffffffffffffffffff169060200190929190505050613fa7565b6040518082815260200191505060405180910390f35b610d50600480360360a0811015610d1257600080fd5b81019080803590602001909291908035906020019092919080359060200190929190803590602001909291908035906020019092919050505061400d565b005b610d7e60048036036020811015610d6857600080fd5b8101908080359060200190929190505050614235565b6040518082815260200191505060405180910390f35b610dc060048036036020811015610daa57600080fd5b8101908080359060200190929190505050614406565b6040518082815260200191505060405180910390f35b610e0260048036036020811015610dec57600080fd5b81019080803590602001909291905050506145d6565b6040518082815260200191505060405180910390f35b610e6e60048036036060811015610e2e57600080fd5b8101908080359060200190929190803573ffffffffffffffffffffffffffffffffffffffff169060200190929190803590602001909291905050506147a7565b005b610e9c60048036036020811015610e8657600080fd5b810190808035906020019092919050505061497a565b6040518082815260200191505060405180910390f35b610ede60048036036020811015610ec857600080fd5b8101908080359060200190929190505050614997565b604051808273ffffffffffffffffffffffffffffffffffffffff1673ffffffffffffffffffffffffffffffffffffffff16815260200191505060405180910390f35b610f6260048036036020811015610f3657600080fd5b81019080803573ffffffffffffffffffffffffffffffffffffffff169060200190929190505050614b67565b6040518082815260200191505060405180910390f35b610fa460048036036020811015610f8e57600080fd5b8101908080359060200190929190505050614bb0565b6040518082815260200191505060405180910390f35b600080600a600085815260200190815260200160002090508060008481526020019081526020016000205491505092915050565b6000808211801561100157506003548211155b611056576040517f08c379a0000000000000000000000000000000000000000000000000000000008152600401808060200182810382526030815260200180614f386030913960400191505060405180910390fd5b61105e614e8f565b600460008481526020019081526020016000206040518061020001604052908160008201548152602001600182015481526020016002820154815260200160038201548152602001600482015481526020016005820160009054906101000a900473ffffffffffffffffffffffffffffffffffffffff1673ffffffffffffffffffffffffffffffffffffffff1673ffffffffffffffffffffffffffffffffffffffff16815260200160068201548152602001600782015481526020016008820160009054906101000a900460ff16600081111561113757fe5b600081111561114257fe5b81526020016008820160019054906101000a900460ff16600381111561116457fe5b600381111561116f57fe5b815260200160098201548152602001600a8201548152602001600b8201548152602001600c8201548152602001600d8201548152602001600e820154815250509050806101800151915050919050565b600160009054906101000a900473ffffffffffffffffffffffffffffffffffffffff1673ffffffffffffffffffffffffffffffffffffffff163373ffffffffffffffffffffffffffffffffffffffff1614611282576040517f08c379a000000000000000000000000000000000000000000000000000000000815260040180806020018281038252601f8152602001807f556e617574686f72697a65642061636365737320746f20636f6e74726163740081525060200191505060405180910390fd5b81601160006101000a81548173ffffffffffffffffffffffffffffffffffffffff021916908373ffffffffffffffffffffffffffffffffffffffff16021790555080601260006101000a81548173ffffffffffffffffffffffffffffffffffffffff021916908373ffffffffffffffffffffffffffffffffffffffff1602179055505050565b600160009054906101000a900473ffffffffffffffffffffffffffffffffffffffff1673ffffffffffffffffffffffffffffffffffffffff163373ffffffffffffffffffffffffffffffffffffffff1614806113b15750601260009054906101000a900473ffffffffffffffffffffffffffffffffffffffff1673ffffffffffffffffffffffffffffffffffffffff163373ffffffffffffffffffffffffffffffffffffffff16145b806114095750601160009054906101000a900473ffffffffffffffffffffffffffffffffffffffff1673ffffffffffffffffffffffffffffffffffffffff163373ffffffffffffffffffffffffffffffffffffffff16145b61147b576040517f08c379a000000000000000000000000000000000000000000000000000000000815260040180806020018281038252601f8152602001807f556e617574686f72697a65642061636365737320746f20636f6e74726163740081525060200191505060405180910390fd5b600060066000848152602001908152602001600020905060046000848152602001908152602001600020600301548160008473ffffffffffffffffffffffffffffffffffffffff1673ffffffffffffffffffffffffffffffffffffffff16815260200190815260200160002081905550505050565b6000808211801561150357506003548211155b611558576040517f08c379a0000000000000000000000000000000000000000000000000000000008152600401808060200182810382526030815260200180614f386030913960400191505060405180910390fd5b611560614e8f565b600460008481526020019081526020016000206040518061020001604052908160008201548152602001600182015481526020016002820154815260200160038201548152602001600482015481526020016005820160009054906101000a900473ffffffffffffffffffffffffffffffffffffffff1673ffffffffffffffffffffffffffffffffffffffff1673ffffffffffffffffffffffffffffffffffffffff16815260200160068201548152602001600782015481526020016008820160009054906101000a900460ff16600081111561163957fe5b600081111561164457fe5b81526020016008820160019054906101000a900460ff16600381111561166657fe5b600381111561167157fe5b815260200160098201548152602001600a8201548152602001600b8201548152602001600c8201548152602001600d8201548152602001600e8201548152505090508060e00151915050919050565b600160009054906101000a900473ffffffffffffffffffffffffffffffffffffffff1673ffffffffffffffffffffffffffffffffffffffff163373ffffffffffffffffffffffffffffffffffffffff1614806117695750601260009054906101000a900473ffffffffffffffffffffffffffffffffffffffff1673ffffffffffffffffffffffffffffffffffffffff163373ffffffffffffffffffffffffffffffffffffffff16145b806117c15750601160009054906101000a900473ffffffffffffffffffffffffffffffffffffffff1673ffffffffffffffffffffffffffffffffffffffff163373ffffffffffffffffffffffffffffffffffffffff16145b611833576040517f08c379a000000000000000000000000000000000000000000000000000000000815260040180806020018281038252601f8152602001807f556e617574686f72697a65642061636365737320746f20636f6e74726163740081525060200191505060405180910390fd5b6001600460008381526020019081526020016000206003016000828254019250508190555050565b60006004600083815260200190815260200160002060080160019054906101000a900460ff16600381111561188c57fe5b9050919050565b60008060086000858152602001908152602001600020905060008160008573ffffffffffffffffffffffffffffffffffffffff1673ffffffffffffffffffffffffffffffffffffffff168152602001908152602001600020549050809250505092915050565b6000601054905090565b600160009054906101000a900473ffffffffffffffffffffffffffffffffffffffff1673ffffffffffffffffffffffffffffffffffffffff163373ffffffffffffffffffffffffffffffffffffffff1614806119ac5750601260009054906101000a900473ffffffffffffffffffffffffffffffffffffffff1673ffffffffffffffffffffffffffffffffffffffff163373ffffffffffffffffffffffffffffffffffffffff16145b80611a045750601160009054906101000a900473ffffffffffffffffffffffffffffffffffffffff1673ffffffffffffffffffffffffffffffffffffffff163373ffffffffffffffffffffffffffffffffffffffff16145b611a76576040517f08c379a000000000000000000000000000000000000000000000000000000000815260040180806020018281038252601f8152602001807f556e617574686f72697a65642061636365737320746f20636f6e74726163740081525060200191505060405180910390fd5b611ac96001600d60008573ffffffffffffffffffffffffffffffffffffffff1673ffffffffffffffffffffffffffffffffffffffff16815260200190815260200160002054614d8190919063ffffffff16565b600d60008473ffffffffffffffffffffffffffffffffffffffff1673ffffffffffffffffffffffffffffffffffffffff168152602001908152602001600020819055506000600d60008473ffffffffffffffffffffffffffffffffffffffff1673ffffffffffffffffffffffffffffffffffffffff1681526020019081526020016000205490506000600e60008573ffffffffffffffffffffffffffffffffffffffff1673ffffffffffffffffffffffffffffffffffffffff1681526020019081526020016000209050828160008481526020019081526020016000208190555050505050565b60008060008060008060008088118015611bcc57506003548811155b611c21576040517f08c379a0000000000000000000000000000000000000000000000000000000008152600401808060200182810382526030815260200180614f386030913960400191505060405180910390fd5b611c29614e8f565b600460008a81526020019081526020016000206040518061020001604052908160008201548152602001600182015481526020016002820154815260200160038201548152602001600482015481526020016005820160009054906101000a900473ffffffffffffffffffffffffffffffffffffffff1673ffffffffffffffffffffffffffffffffffffffff1673ffffffffffffffffffffffffffffffffffffffff16815260200160068201548152602001600782015481526020016008820160009054906101000a900460ff166000811115611d0257fe5b6000811115611d0d57fe5b81526020016008820160019054906101000a900460ff166003811115611d2f57fe5b6003811115611d3a57fe5b815260200160098201548152602001600a8201548152602001600b8201548152602001600c8201548152602001600d8201548152602001600e820154815250509050806000015181604001518261012001516003811115611d9757fe5b8360600151846101c001518560c001518660200151975097509750975097509750975050919395979092949650565b600160009054906101000a900473ffffffffffffffffffffffffffffffffffffffff1673ffffffffffffffffffffffffffffffffffffffff163373ffffffffffffffffffffffffffffffffffffffff161480611e6f5750601260009054906101000a900473ffffffffffffffffffffffffffffffffffffffff1673ffffffffffffffffffffffffffffffffffffffff163373ffffffffffffffffffffffffffffffffffffffff16145b80611ec75750601160009054906101000a900473ffffffffffffffffffffffffffffffffffffffff1673ffffffffffffffffffffffffffffffffffffffff163373ffffffffffffffffffffffffffffffffffffffff16145b611f39576040517f08c379a000000000000000000000000000000000000000000000000000000000815260040180806020018281038252601f8152602001807f556e617574686f72697a65642061636365737320746f20636f6e74726163740081525060200191505060405180910390fd5b8060046000858152602001908152602001600020600a01819055508160046000858152602001908152602001600020600c0181905550505050565b600160009054906101000a900473ffffffffffffffffffffffffffffffffffffffff1673ffffffffffffffffffffffffffffffffffffffff163373ffffffffffffffffffffffffffffffffffffffff16148061201d5750601260009054906101000a900473ffffffffffffffffffffffffffffffffffffffff1673ffffffffffffffffffffffffffffffffffffffff163373ffffffffffffffffffffffffffffffffffffffff16145b806120755750601160009054906101000a900473ffffffffffffffffffffffffffffffffffffffff1673ffffffffffffffffffffffffffffffffffffffff163373ffffffffffffffffffffffffffffffffffffffff16145b6120e7576040517f08c379a000000000000000000000000000000000000000000000000000000000815260040180806020018281038252601f8152602001807f556e617574686f72697a65642061636365737320746f20636f6e74726163740081525060200191505060405180910390fd5b600060086000848152602001908152602001600020905060046000848152602001908152602001600020600201548160008473ffffffffffffffffffffffffffffffffffffffff1673ffffffffffffffffffffffffffffffffffffffff16815260200190815260200160002081905550505050565b600080600c60008473ffffffffffffffffffffffffffffffffffffffff1673ffffffffffffffffffffffffffffffffffffffff16815260200190815260200160002090508060008581526020019081526020016000205491505092915050565b6000600b60008373ffffffffffffffffffffffffffffffffffffffff1673ffffffffffffffffffffffffffffffffffffffff168152602001908152602001600020549050919050565b600080600e60008473ffffffffffffffffffffffffffffffffffffffff1673ffffffffffffffffffffffffffffffffffffffff16815260200190815260200160002090508060008581526020019081526020016000205491505092915050565b6000600160009054906101000a900473ffffffffffffffffffffffffffffffffffffffff1673ffffffffffffffffffffffffffffffffffffffff163373ffffffffffffffffffffffffffffffffffffffff1614806123105750601260009054906101000a900473ffffffffffffffffffffffffffffffffffffffff1673ffffffffffffffffffffffffffffffffffffffff163373ffffffffffffffffffffffffffffffffffffffff16145b806123685750601160009054906101000a900473ffffffffffffffffffffffffffffffffffffffff1673ffffffffffffffffffffffffffffffffffffffff163373ffffffffffffffffffffffffffffffffffffffff16145b6123da576040517f08c379a000000000000000000000000000000000000000000000000000000000815260040180806020018281038252601f8152602001807f556e617574686f72697a65642061636365737320746f20636f6e74726163740081525060200191505060405180910390fd5b6000831180156123ec57506003548311155b612441576040517f08c379a0000000000000000000000000000000000000000000000000000000008152600401808060200182810382526030815260200180614f386030913960400191505060405180910390fd5b61246a826004600086815260200190815260200160002060090154614d8190919063ffffffff16565b60046000858152602001908152602001600020600901819055506004600084815260200190815260200160002060090154905092915050565b60008060008060008060008060008060008060008d1180156124c757506003548d11155b61251c576040517f08c379a0000000000000000000000000000000000000000000000000000000008152600401808060200182810382526030815260200180614f386030913960400191505060405180910390fd5b612524614e8f565b600460008f81526020019081526020016000206040518061020001604052908160008201548152602001600182015481526020016002820154815260200160038201548152602001600482015481526020016005820160009054906101000a900473ffffffffffffffffffffffffffffffffffffffff1673ffffffffffffffffffffffffffffffffffffffff1673ffffffffffffffffffffffffffffffffffffffff16815260200160068201548152602001600782015481526020016008820160009054906101000a900460ff1660008111156125fd57fe5b600081111561260857fe5b81526020016008820160019054906101000a900460ff16600381111561262a57fe5b600381111561263557fe5b815260200160098201548152602001600a8201548152602001600b8201548152602001600c8201548152602001600d8201548152602001600e820154815250509050806000015181604001518260c00151836101200151600381111561269757fe5b8460600151856101400151866101a001518760e001518861016001518961018001518a608001518b6101c001519c509c509c509c509c509c509c509c509c509c509c509c505091939597999b5091939597999b565b60008060008060008060008711801561270757506003548711155b61275c576040517f08c379a0000000000000000000000000000000000000000000000000000000008152600401808060200182810382526030815260200180614f386030913960400191505060405180910390fd5b6000600560008a73ffffffffffffffffffffffffffffffffffffffff1673ffffffffffffffffffffffffffffffffffffffff16815260200190815260200160002090506000600660008a815260200190815260200160002090508160008a8152602001908152602001600020600001548260008b815260200190815260200160002060010160009054906101000a900473ffffffffffffffffffffffffffffffffffffffff168360008c8152602001908152602001600020600201548460008d8152602001908152602001600020600301548460008f73ffffffffffffffffffffffffffffffffffffffff1673ffffffffffffffffffffffffffffffffffffffff168152602001908152602001600020548660008f81526020019081526020016000206004015497509750975097509750975050509295509295509295565b600160009054906101000a900473ffffffffffffffffffffffffffffffffffffffff1673ffffffffffffffffffffffffffffffffffffffff163373ffffffffffffffffffffffffffffffffffffffff1614806129445750601260009054906101000a900473ffffffffffffffffffffffffffffffffffffffff1673ffffffffffffffffffffffffffffffffffffffff163373ffffffffffffffffffffffffffffffffffffffff16145b8061299c5750601160009054906101000a900473ffffffffffffffffffffffffffffffffffffffff1673ffffffffffffffffffffffffffffffffffffffff163373ffffffffffffffffffffffffffffffffffffffff16145b612a0e576040517f08c379a000000000000000000000000000000000000000000000000000000000815260040180806020018281038252601f8152602001807f556e617574686f72697a65642061636365737320746f20636f6e74726163740081525060200191505060405180910390fd5b60016003600082825401925050819055506003546004600060035481526020019081526020016000206000018190555084600460006003548152602001908152602001600020600201819055508360046000600354815260200190815260200160002060060181905550600060046000600354815260200190815260200160002060080160006101000a81548160ff02191690836000811115612aad57fe5b0217905550600060046000600354815260200190815260200160002060080160016101000a81548160ff02191690836003811115612ae757fe5b02179055508160046000600354815260200190815260200160002060050160006101000a81548173ffffffffffffffffffffffffffffffffffffffff021916908373ffffffffffffffffffffffffffffffffffffffff16021790555080600460006003548152602001908152602001600020600d018190555082600460006003548152602001908152602001600020600b01819055508560046000600354815260200190815260200160002060010181905550612bc160016009600089815260200190815260200160002054614d8190919063ffffffff16565b60096000888152602001908152602001600020819055506000600960008881526020019081526020016000205490506000600a6000898152602001908152602001600020905060035481600084815260200190815260200160002081905550612c736001600b60008773ffffffffffffffffffffffffffffffffffffffff1673ffffffffffffffffffffffffffffffffffffffff16815260200190815260200160002054614d8190919063ffffffff16565b600b60008673ffffffffffffffffffffffffffffffffffffffff1673ffffffffffffffffffffffffffffffffffffffff168152602001908152602001600020819055506000600b60008673ffffffffffffffffffffffffffffffffffffffff1673ffffffffffffffffffffffffffffffffffffffff1681526020019081526020016000205490506000600c60008773ffffffffffffffffffffffffffffffffffffffff1673ffffffffffffffffffffffffffffffffffffffff16815260200190815260200160002090506003548160008481526020019081526020016000208190555050505050505050505050565b600160009054906101000a900473ffffffffffffffffffffffffffffffffffffffff1673ffffffffffffffffffffffffffffffffffffffff163373ffffffffffffffffffffffffffffffffffffffff161480612e0b5750601260009054906101000a900473ffffffffffffffffffffffffffffffffffffffff1673ffffffffffffffffffffffffffffffffffffffff163373ffffffffffffffffffffffffffffffffffffffff16145b80612e635750601160009054906101000a900473ffffffffffffffffffffffffffffffffffffffff1673ffffffffffffffffffffffffffffffffffffffff163373ffffffffffffffffffffffffffffffffffffffff16145b612ed5576040517f08c379a000000000000000000000000000000000000000000000000000000000815260040180806020018281038252601f8152602001807f556e617574686f72697a65642061636365737320746f20636f6e74726163740081525060200191505060405180910390fd5b8060046000858152602001908152602001600020600401819055508160046000858152602001908152602001600020600c0181905550505050565b600080600560008573ffffffffffffffffffffffffffffffffffffffff1673ffffffffffffffffffffffffffffffffffffffff16815260200190815260200160002090506000816000858152602001908152602001600020600001541115612f7c576001915050612f82565b60009150505b92915050565b6000600d60008373ffffffffffffffffffffffffffffffffffffffff1673ffffffffffffffffffffffffffffffffffffffff168152602001908152602001600020549050919050565b60008082118015612fe457506003548211155b613039576040517f08c379a0000000000000000000000000000000000000000000000000000000008152600401808060200182810382526030815260200180614f386030913960400191505060405180910390fd5b613041614e8f565b600460008481526020019081526020016000206040518061020001604052908160008201548152602001600182015481526020016002820154815260200160038201548152602001600482015481526020016005820160009054906101000a900473ffffffffffffffffffffffffffffffffffffffff1673ffffffffffffffffffffffffffffffffffffffff1673ffffffffffffffffffffffffffffffffffffffff16815260200160068201548152602001600782015481526020016008820160009054906101000a900460ff16600081111561311a57fe5b600081111561312557fe5b81526020016008820160019054906101000a900460ff16600381111561314757fe5b600381111561315257fe5b815260200160098201548152602001600a8201548152602001600b8201548152602001600c8201548152602001600d8201548152602001600e820154815250509050806101a00151915050919050565b60008060066000858152602001908152602001600020905060008160008573ffffffffffffffffffffffffffffffffffffffff1673ffffffffffffffffffffffffffffffffffffffff168152602001908152602001600020549050600061325061322b600460008981526020019081526020016000206006015484614e0990919063ffffffff16565b60046000898152602001908152602001600020600b0154614d8190919063ffffffff16565b905080935050505092915050565b600160009054906101000a900473ffffffffffffffffffffffffffffffffffffffff1673ffffffffffffffffffffffffffffffffffffffff163373ffffffffffffffffffffffffffffffffffffffff1614806133075750601260009054906101000a900473ffffffffffffffffffffffffffffffffffffffff1673ffffffffffffffffffffffffffffffffffffffff163373ffffffffffffffffffffffffffffffffffffffff16145b8061335f5750601160009054906101000a900473ffffffffffffffffffffffffffffffffffffffff1673ffffffffffffffffffffffffffffffffffffffff163373ffffffffffffffffffffffffffffffffffffffff16145b6133d1576040517f08c379a000000000000000000000000000000000000000000000000000000000815260040180806020018281038252601f8152602001807f556e617574686f72697a65642061636365737320746f20636f6e74726163740081525060200191505060405180910390fd5b61342381600f60008573ffffffffffffffffffffffffffffffffffffffff1673ffffffffffffffffffffffffffffffffffffffff16815260200190815260200160002054614d8190919063ffffffff16565b600f60008473ffffffffffffffffffffffffffffffffffffffff1673ffffffffffffffffffffffffffffffffffffffff168152602001908152602001600020819055505050565b600160009054906101000a900473ffffffffffffffffffffffffffffffffffffffff1673ffffffffffffffffffffffffffffffffffffffff163373ffffffffffffffffffffffffffffffffffffffff1614806135135750601260009054906101000a900473ffffffffffffffffffffffffffffffffffffffff1673ffffffffffffffffffffffffffffffffffffffff163373ffffffffffffffffffffffffffffffffffffffff16145b8061356b5750601160009054906101000a900473ffffffffffffffffffffffffffffffffffffffff1673ffffffffffffffffffffffffffffffffffffffff163373ffffffffffffffffffffffffffffffffffffffff16145b6135dd576040517f08c379a000000000000000000000000000000000000000000000000000000000815260040180806020018281038252601f8152602001807f556e617574686f72697a65642061636365737320746f20636f6e74726163740081525060200191505060405180910390fd5b6000600560008473ffffffffffffffffffffffffffffffffffffffff1673ffffffffffffffffffffffffffffffffffffffff168152602001908152602001600020905081816000848152602001908152602001600020600001819055508281600084815260200190815260200160002060010160006101000a81548173ffffffffffffffffffffffffffffffffffffffff021916908373ffffffffffffffffffffffffffffffffffffffff1602179055506136cc600460008481526020019081526020016000206002015482600085815260200190815260200160002060020154614d8190919063ffffffff16565b8160008481526020019081526020016000206002018190555061370e600082600085815260200190815260200160002060030154614d8190919063ffffffff16565b81600084815260200190815260200160002060030181905550505050565b600160009054906101000a900473ffffffffffffffffffffffffffffffffffffffff1673ffffffffffffffffffffffffffffffffffffffff163373ffffffffffffffffffffffffffffffffffffffff1614806137d55750601260009054906101000a900473ffffffffffffffffffffffffffffffffffffffff1673ffffffffffffffffffffffffffffffffffffffff163373ffffffffffffffffffffffffffffffffffffffff16145b8061382d5750601160009054906101000a900473ffffffffffffffffffffffffffffffffffffffff1673ffffffffffffffffffffffffffffffffffffffff163373ffffffffffffffffffffffffffffffffffffffff16145b61389f576040517f08c379a000000000000000000000000000000000000000000000000000000000815260040180806020018281038252601f8152602001807f556e617574686f72697a65642061636365737320746f20636f6e74726163740081525060200191505060405180910390fd5b6001600360008282540192505081905550565b6000600354905090565b600080821180156138cf57506003548211155b613924576040517f08c379a0000000000000000000000000000000000000000000000000000000008152600401808060200182810382526030815260200180614f386030913960400191505060405180910390fd5b61392c614e8f565b600460008481526020019081526020016000206040518061020001604052908160008201548152602001600182015481526020016002820154815260200160038201548152602001600482015481526020016005820160009054906101000a900473ffffffffffffffffffffffffffffffffffffffff1673ffffffffffffffffffffffffffffffffffffffff1673ffffffffffffffffffffffffffffffffffffffff16815260200160068201548152602001600782015481526020016008820160009054906101000a900460ff166000811115613a0557fe5b6000811115613a1057fe5b81526020016008820160019054906101000a900460ff166003811115613a3257fe5b6003811115613a3d57fe5b815260200160098201548152602001600a8201548152602001600b8201548152602001600c8201548152602001600d8201548152602001600e820154815250509050806101600151915050919050565b60008082118015613aa057506003548211155b613af5576040517f08c379a0000000000000000000000000000000000000000000000000000000008152600401808060200182810382526030815260200180614f386030913960400191505060405180910390fd5b613afd614e8f565b600460008481526020019081526020016000206040518061020001604052908160008201548152602001600182015481526020016002820154815260200160038201548152602001600482015481526020016005820160009054906101000a900473ffffffffffffffffffffffffffffffffffffffff1673ffffffffffffffffffffffffffffffffffffffff1673ffffffffffffffffffffffffffffffffffffffff16815260200160068201548152602001600782015481526020016008820160009054906101000a900460ff166000811115613bd657fe5b6000811115613be157fe5b81526020016008820160019054906101000a900460ff166003811115613c0357fe5b6003811115613c0e57fe5b815260200160098201548152602001600a8201548152602001600b8201548152602001600c8201548152602001600d8201548152602001600e8201548152505090508060c00151915050919050565b600160009054906101000a900473ffffffffffffffffffffffffffffffffffffffff1673ffffffffffffffffffffffffffffffffffffffff163373ffffffffffffffffffffffffffffffffffffffff161480613d065750601260009054906101000a900473ffffffffffffffffffffffffffffffffffffffff1673ffffffffffffffffffffffffffffffffffffffff163373ffffffffffffffffffffffffffffffffffffffff16145b80613d5e5750601160009054906101000a900473ffffffffffffffffffffffffffffffffffffffff1673ffffffffffffffffffffffffffffffffffffffff163373ffffffffffffffffffffffffffffffffffffffff16145b613dd0576040517f08c379a000000000000000000000000000000000000000000000000000000000815260040180806020018281038252601f8152602001807f556e617574686f72697a65642061636365737320746f20636f6e74726163740081525060200191505060405180910390fd5b806003811115613ddc57fe5b6004600084815260200190815260200160002060080160016101000a81548160ff02191690836003811115613e0d57fe5b02179055505050565b600160009054906101000a900473ffffffffffffffffffffffffffffffffffffffff1673ffffffffffffffffffffffffffffffffffffffff163373ffffffffffffffffffffffffffffffffffffffff161480613ebf5750601260009054906101000a900473ffffffffffffffffffffffffffffffffffffffff1673ffffffffffffffffffffffffffffffffffffffff163373ffffffffffffffffffffffffffffffffffffffff16145b80613f175750601160009054906101000a900473ffffffffffffffffffffffffffffffffffffffff1673ffffffffffffffffffffffffffffffffffffffff163373ffffffffffffffffffffffffffffffffffffffff16145b613f89576040517f08c379a000000000000000000000000000000000000000000000000000000000815260040180806020018281038252601f8152602001807f556e617574686f72697a65642061636365737320746f20636f6e74726163740081525060200191505060405180910390fd5b613f9e81601054614d8190919063ffffffff16565b60108190555050565b60008060076000858152602001908152602001600020905060008160008573ffffffffffffffffffffffffffffffffffffffff1673ffffffffffffffffffffffffffffffffffffffff168152602001908152602001600020549050809250505092915050565b600160009054906101000a900473ffffffffffffffffffffffffffffffffffffffff1673ffffffffffffffffffffffffffffffffffffffff163373ffffffffffffffffffffffffffffffffffffffff1614806140b65750601260009054906101000a900473ffffffffffffffffffffffffffffffffffffffff1673ffffffffffffffffffffffffffffffffffffffff163373ffffffffffffffffffffffffffffffffffffffff16145b8061410e5750601160009054906101000a900473ffffffffffffffffffffffffffffffffffffffff1673ffffffffffffffffffffffffffffffffffffffff163373ffffffffffffffffffffffffffffffffffffffff16145b614180576040517f08c379a000000000000000000000000000000000000000000000000000000000815260040180806020018281038252601f8152602001807f556e617574686f72697a65642061636365737320746f20636f6e74726163740081525060200191505060405180910390fd5b8260046000878152602001908152602001600020600701819055508360038111156141a757fe5b6004600087815260200190815260200160002060080160016101000a81548160ff021916908360038111156141d857fe5b02179055508160046000878152602001908152602001600020600c01819055508060046000878152602001908152602001600020600b01819055508160046000878152602001908152602001600020600e01819055505050505050565b6000808211801561424857506003548211155b61429d576040517f08c379a0000000000000000000000000000000000000000000000000000000008152600401808060200182810382526030815260200180614f386030913960400191505060405180910390fd5b6142a5614e8f565b600460008481526020019081526020016000206040518061020001604052908160008201548152602001600182015481526020016002820154815260200160038201548152602001600482015481526020016005820160009054906101000a900473ffffffffffffffffffffffffffffffffffffffff1673ffffffffffffffffffffffffffffffffffffffff1673ffffffffffffffffffffffffffffffffffffffff16815260200160068201548152602001600782015481526020016008820160009054906101000a900460ff16600081111561437e57fe5b600081111561438957fe5b81526020016008820160019054906101000a900460ff1660038111156143ab57fe5b60038111156143b657fe5b815260200160098201548152602001600a8201548152602001600b8201548152602001600c8201548152602001600d8201548152602001600e820154815250509050806101800151915050919050565b6000808211801561441957506003548211155b61446e576040517f08c379a0000000000000000000000000000000000000000000000000000000008152600401808060200182810382526030815260200180614f386030913960400191505060405180910390fd5b614476614e8f565b600460008481526020019081526020016000206040518061020001604052908160008201548152602001600182015481526020016002820154815260200160038201548152602001600482015481526020016005820160009054906101000a900473ffffffffffffffffffffffffffffffffffffffff1673ffffffffffffffffffffffffffffffffffffffff1673ffffffffffffffffffffffffffffffffffffffff16815260200160068201548152602001600782015481526020016008820160009054906101000a900460ff16600081111561454f57fe5b600081111561455a57fe5b81526020016008820160019054906101000a900460ff16600381111561457c57fe5b600381111561458757fe5b815260200160098201548152602001600a8201548152602001600b8201548152602001600c8201548152602001600d8201548152602001600e8201548152505090508060800151915050919050565b600080821180156145e957506003548211155b61463e576040517f08c379a0000000000000000000000000000000000000000000000000000000008152600401808060200182810382526030815260200180614f386030913960400191505060405180910390fd5b614646614e8f565b600460008481526020019081526020016000206040518061020001604052908160008201548152602001600182015481526020016002820154815260200160038201548152602001600482015481526020016005820160009054906101000a900473ffffffffffffffffffffffffffffffffffffffff1673ffffffffffffffffffffffffffffffffffffffff1673ffffffffffffffffffffffffffffffffffffffff16815260200160068201548152602001600782015481526020016008820160009054906101000a900460ff16600081111561471f57fe5b600081111561472a57fe5b81526020016008820160019054906101000a900460ff16600381111561474c57fe5b600381111561475757fe5b815260200160098201548152602001600a8201548152602001600b8201548152602001600c8201548152602001600d8201548152602001600e820154815250509050806101e00151915050919050565b600160009054906101000a900473ffffffffffffffffffffffffffffffffffffffff1673ffffffffffffffffffffffffffffffffffffffff163373ffffffffffffffffffffffffffffffffffffffff1614806148505750601260009054906101000a900473ffffffffffffffffffffffffffffffffffffffff1673ffffffffffffffffffffffffffffffffffffffff163373ffffffffffffffffffffffffffffffffffffffff16145b806148a85750601160009054906101000a900473ffffffffffffffffffffffffffffffffffffffff1673ffffffffffffffffffffffffffffffffffffffff163373ffffffffffffffffffffffffffffffffffffffff16145b61491a576040517f08c379a000000000000000000000000000000000000000000000000000000000815260040180806020018281038252601f8152602001807f556e617574686f72697a65642061636365737320746f20636f6e74726163740081525060200191505060405180910390fd5b6000600760008581526020019081526020016000209050818160008573ffffffffffffffffffffffffffffffffffffffff1673ffffffffffffffffffffffffffffffffffffffff1681526020019081526020016000208190555050505050565b600060096000838152602001908152602001600020549050919050565b600080821180156149aa57506003548211155b6149ff576040517f08c379a0000000000000000000000000000000000000000000000000000000008152600401808060200182810382526030815260200180614f386030913960400191505060405180910390fd5b614a07614e8f565b600460008481526020019081526020016000206040518061020001604052908160008201548152602001600182015481526020016002820154815260200160038201548152602001600482015481526020016005820160009054906101000a900473ffffffffffffffffffffffffffffffffffffffff1673ffffffffffffffffffffffffffffffffffffffff1673ffffffffffffffffffffffffffffffffffffffff16815260200160068201548152602001600782015481526020016008820160009054906101000a900460ff166000811115614ae057fe5b6000811115614aeb57fe5b81526020016008820160019054906101000a900460ff166003811115614b0d57fe5b6003811115614b1857fe5b815260200160098201548152602001600a8201548152602001600b8201548152602001600c8201548152602001600d8201548152602001600e8201548152505090508060a00151915050919050565b6000600f60008373ffffffffffffffffffffffffffffffffffffffff1673ffffffffffffffffffffffffffffffffffffffff168152602001908152602001600020549050919050565b60008082118015614bc357506003548211155b614c18576040517f08c379a0000000000000000000000000000000000000000000000000000000008152600401808060200182810382526030815260200180614f386030913960400191505060405180910390fd5b614c20614e8f565b600460008481526020019081526020016000206040518061020001604052908160008201548152602001600182015481526020016002820154815260200160038201548152602001600482015481526020016005820160009054906101000a900473ffffffffffffffffffffffffffffffffffffffff1673ffffffffffffffffffffffffffffffffffffffff1673ffffffffffffffffffffffffffffffffffffffff16815260200160068201548152602001600782015481526020016008820160009054906101000a900460ff166000811115614cf957fe5b6000811115614d0457fe5b81526020016008820160019054906101000a900460ff166003811115614d2657fe5b6003811115614d3157fe5b815260200160098201548152602001600a8201548152602001600b8201548152602001600c8201548152602001600d8201548152602001600e820154815250509050806101400151915050919050565b600080828401905083811015614dff576040517f08c379a000000000000000000000000000000000000000000000000000000000815260040180806020018281038252601b8152602001807f536166654d6174683a206164646974696f6e206f766572666c6f77000000000081525060200191505060405180910390fd5b8091505092915050565b600080831415614e1c5760009050614e89565b6000828402905082848281614e2d57fe5b0414614e84576040517f08c379a0000000000000000000000000000000000000000000000000000000008152600401808060200182810382526021815260200180614f686021913960400191505060405180910390fd5b809150505b92915050565b6040518061020001604052806000815260200160008152602001600081526020016000815260200160008152602001600073ffffffffffffffffffffffffffffffffffffffff1681526020016000815260200160008152602001600080811115614ef557fe5b815260200160006003811115614f0757fe5b8152602001600081526020016000815260200160008152602001600081526020016000815260200160008152509056fe4379636c65204944206d7573742062652077697468696e2076616c69642045737573754379636c6549642072616e6765536166654d6174683a206d756c7469706c69636174696f6e206f766572666c6f77a2646970667358221220e0d26f6e451fdb1bf0d2182a2c612827de32d3222bd59e0b328147bf660b386564736f6c63430006060033",
  "immutableReferences": {},
  "source": "\npragma solidity >=0.6.6;\n\nimport \"./SafeMath.sol\";\n\n\ncontract EsusuStorage {\n\n    using SafeMath for uint256;\n\n    /*  Enum definitions */\n    enum CurrencyEnum{\n        Dai\n    }\n\n    enum CycleStateEnum{\n        Idle,               // Cycle has just been created and members can join in this state\n        Active,             // Cycle has started and members can take their ROI\n        Expired,            // Cycle Duration has elapsed and members can withdraw their capital as well as ROI\n        Inactive            // Total beneficiaries is equal to Total members, so all members have withdrawn their Capital and ROI\n    }\n\n    /*  Struct Definitions */\n    struct EsusuCycle{\n        uint CycleId;\n        uint GroupId;                   //  Group this Esusu Cycle belongs to\n        uint DepositAmount;\n        uint TotalMembers;\n        uint TotalBeneficiaries;        //  This is the total number of members that have withdrawn their ROI\n        address Owner;                  //  This is the creator of the cycle who is also the creator of the group\n        uint PayoutIntervalSeconds;     //  Time each member receives overall ROI within one Esusu Cycle in seconds\n        uint TotalCycleDuration;        //  The total time it will take for all users to be paid which is (number of members * payout interval)\n        CurrencyEnum Currency;          //  Currency supported in this Esusu Cycle\n        CycleStateEnum CycleState;      //  The current state of the Esusu Cycle\n        uint TotalAmountDeposited;   // Total  Dai Deposited\n        uint TotalCapitalWithdrawn;     // Total Capital In Dai Withdrawn\n        uint CycleStartTime;            //  Time which the cycle will start when it has elapsed. Anyone can start cycle after this time has elapsed\n        uint TotalShares;               //  Total yDai Shares\n        uint MaxMembers;                //  Maximum number of members that can join this esusu cycle\n        uint TotalSharesAtStart;        //  Total shares at the start of the cycle, will use this to estimate the number of shares that belongs to each member\n    }\n\n    struct Member{\n        address MemberId;\n        uint TotalDeposited;\n        uint TotalPayoutReceived;\n    }\n\n    struct MemberCycle{\n        uint CycleId;\n        address MemberId;\n        uint TotalAmountDepositedInCycle;\n        uint TotalPayoutReceivedInCycle;\n        uint MemberShares;\n    }\n\n        /*  Model definition starts */\n    string Dai = \"Dai Stablecoin\";\n\n\n    /* Model definition ends */\n\n    //  Member variables\n    address _owner;\n\n    string _feeRuleKey;\n\n    uint EsusuCycleId = 0;\n\n\n    mapping(uint => EsusuCycle) EsusuCycleMapping;\n\n\n    mapping(address=>mapping(uint=>MemberCycle)) MemberAddressToMemberCycleMapping;\n\n    mapping(uint=>mapping(address=>uint)) CycleToMemberPositionMapping;   //  This tracks position of the  member in an Esusu Cycle\n\n    mapping(uint=>mapping(address=> uint)) CycleToBeneficiaryMapping;  // This tracks members that have received overall ROI and amount received within an Esusu Cycle\n\n    mapping(uint=>mapping(address=> uint)) CycleToMemberWithdrawnCapitalMapping;    // This tracks members that have withdrawn their capital and the amount withdrawn\n\n    mapping(uint=>uint) GroupToCycleIndexMapping; //  This tracks the total number of cycles that belong to a group\n\n    mapping(uint=>mapping(uint=>uint)) GroupToCycleIndexToCycleIDMapping; //  This maps the Group to the cycle index and then the cycle ID\n\n    mapping(address=>uint) OwnerToCycleIndexMapping; //  This tracks the number of cycles by index created by an owner\n\n    mapping(address=>mapping(uint=>uint)) OwnerToCycleIndexToCycleIDMapping; //  This maps the owner to the cycle index and then to the cycle ID\n\n    mapping(address=>uint) MemberToCycleIndexMapping; //  This tracks the number of cycles by index created by a member\n\n    mapping(address=>mapping(uint=>uint)) MemberToCycleIndexToCycleIDMapping; //  This maps the member to the cycle index and then to the cycle ID\n\n    mapping(address=>uint) MemberToXendTokenRewardMapping;  //  This tracks the total amount of xend token rewards a member has received\n\n    uint TotalDeposits; //  This holds all the dai amounts users have deposited in this contract\n\n\n    address  _adapterContract;\n    address _adapterDelegateContract;\n\n    constructor () public {\n        _owner = msg.sender;\n    }\n\n    function UpdateAdapterAndAdapterDelegateAddresses(address adapterContract, address adapterDelegateContract) onlyOwner external {\n            _adapterContract = adapterContract;\n            _adapterDelegateContract = adapterDelegateContract;\n    }\n\n    function GetEsusuCycleId() external view returns (uint){\n        return EsusuCycleId;\n    }\n\n    function IncrementEsusuCycleId() external onlyOwnerAdapterAndAdapterDelegateContract {\n        EsusuCycleId += 1;\n    }\n\n    function CreateEsusuCycleMapping(uint groupId, uint depositAmount, uint payoutIntervalSeconds,uint startTimeInSeconds, address owner, uint maxMembers) external onlyOwnerAdapterAndAdapterDelegateContract {\n\n        EsusuCycleId += 1;\n\n        EsusuCycleMapping[EsusuCycleId].CycleId = EsusuCycleId;\n        EsusuCycleMapping[EsusuCycleId].DepositAmount = depositAmount;\n        EsusuCycleMapping[EsusuCycleId].PayoutIntervalSeconds = payoutIntervalSeconds;\n        EsusuCycleMapping[EsusuCycleId].Currency = CurrencyEnum.Dai;\n        EsusuCycleMapping[EsusuCycleId].CycleState = CycleStateEnum.Idle;\n        EsusuCycleMapping[EsusuCycleId].Owner = owner;\n        EsusuCycleMapping[EsusuCycleId].MaxMembers = maxMembers;\n\n\n        //  Set the Cycle start time\n        EsusuCycleMapping[EsusuCycleId].CycleStartTime = startTimeInSeconds;\n\n         //  Assign groupId\n        EsusuCycleMapping[EsusuCycleId].GroupId = groupId;\n        GroupToCycleIndexMapping[groupId] = GroupToCycleIndexMapping[groupId].add(1); //  Increase the cycle index in the group by 1\n\n        uint cycleIndex = GroupToCycleIndexMapping[groupId];\n        mapping(uint=>uint) storage cylceIndexToCycleId = GroupToCycleIndexToCycleIDMapping[groupId];\n        cylceIndexToCycleId[cycleIndex] = EsusuCycleId;\n\n        // Increase the number of cycles created by the owner\n        OwnerToCycleIndexMapping[owner] = OwnerToCycleIndexMapping[owner].add(1);\n\n        uint ownerCreatedCycleIndex = OwnerToCycleIndexMapping[owner];\n        mapping(uint=>uint) storage ownerCreatedCylceIndexToCycleId = OwnerToCycleIndexToCycleIDMapping[owner];\n        ownerCreatedCylceIndexToCycleId[ownerCreatedCycleIndex] = EsusuCycleId;\n    }\n\n    function GetEsusuCycle(uint esusuCycleId) external view returns(uint CycleId, uint DepositAmount,\n                                                            uint PayoutIntervalSeconds, uint CycleState,\n                                                            uint TotalMembers, uint TotalAmountDeposited, uint TotalShares,\n                                                            uint TotalCycleDurationInSeconds, uint TotalCapitalWithdrawn, uint CycleStartTimeInSeconds,\n                                                            uint TotalBeneficiaries, uint MaxMembers){\n\n        require(esusuCycleId > 0 && esusuCycleId <= EsusuCycleId, \"Cycle ID must be within valid EsusuCycleId range\");\n\n        EsusuCycle memory cycle = EsusuCycleMapping[esusuCycleId];\n\n        return (cycle.CycleId, cycle.DepositAmount,  cycle.PayoutIntervalSeconds,\n                uint256(cycle.CycleState),\n                cycle.TotalMembers, cycle.TotalAmountDeposited, cycle.TotalShares,\n                cycle.TotalCycleDuration, cycle.TotalCapitalWithdrawn, cycle.CycleStartTime,\n                cycle.TotalBeneficiaries, cycle.MaxMembers);\n\n    }\n\n\n    function GetEsusuCycleStartTime(uint esusuCycleId)external view returns(uint EsusuCycleStartTime){\n\n        require(esusuCycleId > 0 && esusuCycleId <= EsusuCycleId, \"Cycle ID must be within valid EsusuCycleId range\");\n\n        EsusuCycle memory cycle = EsusuCycleMapping[esusuCycleId];\n\n        return (cycle.CycleStartTime);\n    }\n\n\n    function GetCycleIndexFromGroupId(uint groupId) external view returns(uint){\n\n        return GroupToCycleIndexMapping[groupId];\n    }\n\n    function GetCycleIdFromCycleIndexAndGroupId(uint groupId, uint cycleIndex) external view returns(uint){\n\n      mapping(uint=>uint) storage cylceIndexToCycleId = GroupToCycleIndexToCycleIDMapping[groupId];\n\n      return cylceIndexToCycleId[cycleIndex];\n    }\n\n    function GetCycleIndexFromCycleCreator(address cycleCreator) external view returns(uint){\n\n        return OwnerToCycleIndexMapping[cycleCreator];\n    }\n\n    function GetCycleIdFromCycleIndexAndCycleCreator(uint cycleIndex, address cycleCreator) external view returns(uint){\n\n      mapping(uint=>uint) storage ownerCreatedCylceIndexToCycleId = OwnerToCycleIndexToCycleIDMapping[cycleCreator];\n\n      return ownerCreatedCylceIndexToCycleId[cycleIndex];\n    }\n\n    function GetCycleIndexFromCycleMember(address member) external view returns(uint){\n\n        return MemberToCycleIndexMapping[member];\n    }\n\n    function GetCycleIdFromCycleIndexAndCycleMember(uint cycleIndex, address member) external view returns(uint){\n\n      mapping(uint=>uint) storage memberCreatedCylceIndexToCycleId = MemberToCycleIndexToCycleIDMapping[member];\n\n      return memberCreatedCylceIndexToCycleId[cycleIndex];\n    }\n\n\n\n    function GetEsusuCycleBasicInformation(uint esusuCycleId) external view returns(uint CycleId, uint DepositAmount, uint CycleState,uint TotalMembers,uint MaxMembers, uint PayoutIntervalSeconds, uint GroupId){\n\n        require(esusuCycleId > 0 && esusuCycleId <= EsusuCycleId, \"Cycle ID must be within valid EsusuCycleId range\");\n\n        EsusuCycle memory cycle = EsusuCycleMapping[esusuCycleId];\n\n        return (cycle.CycleId, cycle.DepositAmount,\n                uint256(cycle.CycleState),\n                cycle.TotalMembers, cycle.MaxMembers, cycle.PayoutIntervalSeconds,cycle.GroupId);\n\n    }\n\n    function GetEsusuCycleTotalShares(uint esusuCycleId) external view returns(uint TotalShares){\n\n        require(esusuCycleId > 0 && esusuCycleId <= EsusuCycleId, \"Cycle ID must be within valid EsusuCycleId range\");\n\n        EsusuCycle memory cycle = EsusuCycleMapping[esusuCycleId];\n\n        return (cycle.TotalShares);\n    }\n    function GetEsusuCycleTotalSharesAtStart(uint esusuCycleId) external view returns(uint TotalSharesAtStart){\n\n        require(esusuCycleId > 0 && esusuCycleId <= EsusuCycleId, \"Cycle ID must be within valid EsusuCycleId range\");\n\n        EsusuCycle memory cycle = EsusuCycleMapping[esusuCycleId];\n\n        return (cycle.TotalSharesAtStart);\n    }\n    function GetEsusuCycleStartonlyOwnerAdapterAndAdapterDelegateContractTime(uint esusuCycleId)external view returns(uint EsusuCycleStartTime){\n\n        require(esusuCycleId > 0 && esusuCycleId <= EsusuCycleId, \"Cycle ID must be within valid EsusuCycleId range\");\n\n        EsusuCycle memory cycle = EsusuCycleMapping[esusuCycleId];\n\n        return (cycle.CycleStartTime);\n    }\n\n\n    function GetEsusuCyclePayoutInterval(uint esusuCycleId)external view returns(uint EsusuCyclePayoutInterval){\n\n        require(esusuCycleId > 0 && esusuCycleId <= EsusuCycleId, \"Cycle ID must be within valid EsusuCycleId range\");\n\n        EsusuCycle memory cycle = EsusuCycleMapping[esusuCycleId];\n\n        return (cycle.PayoutIntervalSeconds);\n    }\n\n    function GetEsusuCycleTotalAmountDeposited(uint esusuCycleId)external view returns(uint EsusuCycleTotalAmountDeposited){\n\n        require(esusuCycleId > 0 && esusuCycleId <= EsusuCycleId, \"Cycle ID must be within valid EsusuCycleId range\");\n\n        EsusuCycle memory cycle = EsusuCycleMapping[esusuCycleId];\n\n        return (cycle.TotalAmountDeposited);\n    }\n\n    function GetCycleOwner(uint esusuCycleId)external view returns(address EsusuCycleOwner){\n\n        require(esusuCycleId > 0 && esusuCycleId <= EsusuCycleId, \"Cycle ID must be within valid EsusuCycleId range\");\n\n        EsusuCycle memory cycle = EsusuCycleMapping[esusuCycleId];\n\n        return (cycle.Owner);\n\n    }\n\n    function GetEsusuCycleDuration(uint esusuCycleId)external view returns(uint EsusuCycleDuration){\n        require(esusuCycleId > 0 && esusuCycleId <= EsusuCycleId, \"Cycle ID must be within valid EsusuCycleId range\");\n\n        EsusuCycle memory cycle = EsusuCycleMapping[esusuCycleId];\n\n        return (cycle.TotalCycleDuration);\n    }\n\n    function GetEsusuCycleTotalCapitalWithdrawn(uint esusuCycleId)external view returns(uint EsusuCycleTotalCapitalWithdrawn){\n\n        require(esusuCycleId > 0 && esusuCycleId <= EsusuCycleId, \"Cycle ID must be within valid EsusuCycleId range\");\n\n        EsusuCycle memory cycle = EsusuCycleMapping[esusuCycleId];\n\n        return (cycle.TotalCapitalWithdrawn);\n    }\n    function GetEsusuCycleTotalBeneficiaries(uint esusuCycleId)external view returns(uint EsusuCycleTotalBeneficiaries){\n\n        require(esusuCycleId > 0 && esusuCycleId <= EsusuCycleId, \"Cycle ID must be within valid EsusuCycleId range\");\n\n        EsusuCycle memory cycle = EsusuCycleMapping[esusuCycleId];\n\n        return (cycle.TotalBeneficiaries);\n    }\n    function GetMemberWithdrawnCapitalInEsusuCycle(uint esusuCycleId,address memberAddress) external view returns (uint) {\n\n        mapping(address=>uint) storage memberWithdrawnCapitalMapping =  CycleToMemberWithdrawnCapitalMapping[esusuCycleId];\n\n        uint amount = memberWithdrawnCapitalMapping[memberAddress];\n\n        return amount;\n    }\n\n    function GetMemberCycleToBeneficiaryMapping(uint esusuCycleId,address memberAddress) external view returns(uint){\n\n        mapping(address=>uint) storage beneficiaryMapping =  CycleToBeneficiaryMapping[esusuCycleId];\n\n        uint amount = beneficiaryMapping[memberAddress];\n\n        return amount;\n    }\n\n    function IsMemberInCycle(address memberAddress,uint esusuCycleId ) external view returns(bool){\n\n        mapping(uint=>MemberCycle) storage memberCycleMapping =  MemberAddressToMemberCycleMapping[memberAddress];\n\n        //  If member is in cycle, the cycle ID should be greater than 0\n        if(memberCycleMapping[esusuCycleId].CycleId > 0){\n\n            return true;\n        }else{\n            return false;\n        }\n    }\n\n    function IncreaseTotalAmountDepositedInCycle(uint esusuCycleId, uint amount) external onlyOwnerAdapterAndAdapterDelegateContract returns (uint){\n\n        require(esusuCycleId > 0 && esusuCycleId <= EsusuCycleId, \"Cycle ID must be within valid EsusuCycleId range\");\n\n        EsusuCycleMapping[esusuCycleId].TotalAmountDeposited =  EsusuCycleMapping[esusuCycleId].TotalAmountDeposited.add(amount);\n\n        return EsusuCycleMapping[esusuCycleId].TotalAmountDeposited;\n    }\n\n    function CreateMemberAddressToMemberCycleMapping(address member,uint esusuCycleId) external onlyOwnerAdapterAndAdapterDelegateContract{\n\n        //  Increment the total deposited amount for the member cycle struct\n        mapping(uint=>MemberCycle) storage memberCycleMapping =  MemberAddressToMemberCycleMapping[member];\n\n\n        memberCycleMapping[esusuCycleId].CycleId = esusuCycleId;\n        memberCycleMapping[esusuCycleId].MemberId = member;\n        memberCycleMapping[esusuCycleId].TotalAmountDepositedInCycle = memberCycleMapping[esusuCycleId].TotalAmountDepositedInCycle.add( EsusuCycleMapping[esusuCycleId].DepositAmount);\n        memberCycleMapping[esusuCycleId].TotalPayoutReceivedInCycle = memberCycleMapping[esusuCycleId].TotalPayoutReceivedInCycle.add(0);\n    }\n\n    function IncreaseTotalMembersInCycle(uint esusuCycleId) external onlyOwnerAdapterAndAdapterDelegateContract{\n        //  Increase TotalMembers count by 1\n\n        EsusuCycleMapping[esusuCycleId].TotalMembers +=1;\n    }\n\n    function CreateMemberPositionMapping(uint esusuCycleId, address member) onlyOwnerAdapterAndAdapterDelegateContract external{\n\n        mapping(address=>uint) storage memberPositionMapping =  CycleToMemberPositionMapping[esusuCycleId];\n\n        //  Assign Position to Member In this Cycle\n        memberPositionMapping[member] = EsusuCycleMapping[esusuCycleId].TotalMembers;\n    }\n\n    function IncreaseTotalDeposits(uint esusuCycleBalance) external onlyOwnerAdapterAndAdapterDelegateContract {\n\n        TotalDeposits = TotalDeposits.add(esusuCycleBalance);\n\n    }\n\n    function UpdateEsusuCycleDuringStart(uint esusuCycleId,uint cycleStateEnum, uint toalCycleDuration, uint totalShares,uint currentTime) external onlyOwnerAdapterAndAdapterDelegateContract{\n\n        EsusuCycleMapping[esusuCycleId].TotalCycleDuration = toalCycleDuration;\n        EsusuCycleMapping[esusuCycleId].CycleState = CycleStateEnum(cycleStateEnum);\n        EsusuCycleMapping[esusuCycleId].TotalShares = totalShares;\n        EsusuCycleMapping[esusuCycleId].CycleStartTime = currentTime;\n        EsusuCycleMapping[esusuCycleId].TotalSharesAtStart = totalShares;\n\n    }\n\n    function UpdateEsusuCycleState(uint esusuCycleId,uint cycleStateEnum) external onlyOwnerAdapterAndAdapterDelegateContract{\n\n        EsusuCycleMapping[esusuCycleId].CycleState = CycleStateEnum(cycleStateEnum);\n\n    }\n    function GetMemberCycleInfo(address memberAddress, uint esusuCycleId) external view returns(uint CycleId, address MemberId, uint TotalAmountDepositedInCycle, uint TotalPayoutReceivedInCycle, uint memberPosition, uint memberShares){\n\n        require(esusuCycleId > 0 && esusuCycleId <= EsusuCycleId, \"Cycle ID must be within valid EsusuCycleId range\");\n\n        mapping(uint=>MemberCycle) storage memberCycleMapping =  MemberAddressToMemberCycleMapping[memberAddress];\n\n        mapping(address=>uint) storage memberPositionMapping =  CycleToMemberPositionMapping[esusuCycleId];\n\n\n        return  (memberCycleMapping[esusuCycleId].CycleId,memberCycleMapping[esusuCycleId].MemberId,\n        memberCycleMapping[esusuCycleId].TotalAmountDepositedInCycle,\n        memberCycleMapping[esusuCycleId].TotalPayoutReceivedInCycle,memberPositionMapping[memberAddress],memberCycleMapping[esusuCycleId].MemberShares );\n    }\n\n    function CreateMemberCapitalMapping(uint esusuCycleId, address member) external onlyOwnerAdapterAndAdapterDelegateContract {\n\n        mapping(address=>uint) storage memberCapitalMapping =  CycleToMemberWithdrawnCapitalMapping[esusuCycleId];\n        memberCapitalMapping[member] = EsusuCycleMapping[esusuCycleId].DepositAmount;\n    }\n\n    function UpdateEsusuCycleDuringCapitalWithdrawal(uint esusuCycleId, uint cycleTotalShares, uint totalCapitalWithdrawnInCycle) external onlyOwnerAdapterAndAdapterDelegateContract{\n\n        EsusuCycleMapping[esusuCycleId].TotalCapitalWithdrawn = totalCapitalWithdrawnInCycle;\n        EsusuCycleMapping[esusuCycleId].TotalShares = cycleTotalShares;\n    }\n\n    function UpdateEsusuCycleDuringROIWithdrawal(uint esusuCycleId, uint totalShares, uint totalBeneficiaries) external onlyOwnerAdapterAndAdapterDelegateContract{\n        EsusuCycleMapping[esusuCycleId].TotalBeneficiaries = totalBeneficiaries;\n        EsusuCycleMapping[esusuCycleId].TotalShares = totalShares;\n    }\n\n    function CreateEsusuCycleToBeneficiaryMapping(uint esusuCycleId, address memberAddress, uint memberROINet) external onlyOwnerAdapterAndAdapterDelegateContract{\n\n        mapping(address=>uint) storage beneficiaryMapping =  CycleToBeneficiaryMapping[esusuCycleId];\n\n        beneficiaryMapping[memberAddress] = memberROINet;\n    }\n\n    function CalculateMemberWithdrawalTime(uint cycleId, address member) external view returns(uint){\n\n        mapping(address=>uint) storage memberPositionMapping =  CycleToMemberPositionMapping[cycleId];\n\n        uint memberPosition = memberPositionMapping[member];\n\n        uint withdrawalTime = (EsusuCycleMapping[cycleId].CycleStartTime.add(memberPosition.mul(EsusuCycleMapping[cycleId].PayoutIntervalSeconds)));\n        return withdrawalTime;\n    }\n\n    function CreateMemberToCycleIndexToCycleIDMapping(address member, uint esusuCycleId) external onlyOwnerAdapterAndAdapterDelegateContract {\n      // Increase the number of cycles joined by the member\n      MemberToCycleIndexMapping[member] = MemberToCycleIndexMapping[member].add(1);\n\n      uint memberCreatedCycleIndex = MemberToCycleIndexMapping[member];\n      mapping(uint=>uint) storage memberCreatedCylceIndexToCycleId = MemberToCycleIndexToCycleIDMapping[member];\n      memberCreatedCylceIndexToCycleId[memberCreatedCycleIndex] = esusuCycleId;\n    }\n\n    function GetTotalDeposits() external view returns (uint){\n        return TotalDeposits;\n    }\n\n    function GetEsusuCycleState(uint esusuCycleId) external view returns (uint){\n\n        return uint(EsusuCycleMapping[esusuCycleId].CycleState);\n\n    }\n\n    function UpdateMemberToXendTokeRewardMapping(address member, uint rewardAmount) external onlyOwnerAdapterAndAdapterDelegateContract {\n        MemberToXendTokenRewardMapping[member] = MemberToXendTokenRewardMapping[member].add(rewardAmount);\n    }\n\n        function GetMemberXendTokenReward(address member) external returns(uint) {\n        return MemberToXendTokenRewardMapping[member];\n    }\n\n    modifier onlyOwner() {\n        require(msg.sender == _owner, \"Unauthorized access to contract\");\n        _;\n    }\n\n    modifier onlyOwnerAdapterAndAdapterDelegateContract() {\n        require(\n            msg.sender == _owner || msg.sender == _adapterDelegateContract || msg.sender == _adapterContract,\n            \"Unauthorized access to contract\"\n        );\n        _;\n    }\n\n}\n",
  "sourcePath": "/home/cally/BinaryHills/xend/xend-finance/esusu/Test/contracts/EsusuStorage.sol",
  "compiler": {
    "name": "solc",
    "version": "0.6.6+commit.6c089d02.Emscripten.clang"
  },
  "schemaVersion": "3.3.1",
  "updatedAt": "2021-02-15T11:41:23.927Z",
  "networkType": "ethereum",
  "devdoc": {
    "methods": {}
  },
  "userdoc": {
    "methods": {}
  }
}